{
	"test contracts/Voting.sol": {
		"Voting": {
			"abi": [
				{
					"inputs": [],
					"stateMutability": "nonpayable",
					"type": "constructor"
				},
				{
					"anonymous": false,
					"inputs": [
						{
							"indexed": true,
							"internalType": "bytes32",
							"name": "eventID",
							"type": "bytes32"
						},
						{
							"indexed": false,
							"internalType": "address",
							"name": "candidate",
							"type": "address"
						}
					],
					"name": "CandidateAssign",
					"type": "event"
				},
				{
					"anonymous": false,
					"inputs": [
						{
							"indexed": true,
							"internalType": "bytes32",
							"name": "eventID",
							"type": "bytes32"
						},
						{
							"indexed": false,
							"internalType": "address",
							"name": "candidate",
							"type": "address"
						}
					],
					"name": "CandidateRemove",
					"type": "event"
				},
				{
					"anonymous": false,
					"inputs": [
						{
							"indexed": true,
							"internalType": "bytes32",
							"name": "eventID",
							"type": "bytes32"
						},
						{
							"indexed": true,
							"internalType": "address",
							"name": "voter",
							"type": "address"
						},
						{
							"indexed": false,
							"internalType": "bytes32",
							"name": "candidateID",
							"type": "bytes32"
						}
					],
					"name": "VoteCast",
					"type": "event"
				},
				{
					"anonymous": false,
					"inputs": [
						{
							"indexed": true,
							"internalType": "bytes32",
							"name": "eventID",
							"type": "bytes32"
						},
						{
							"indexed": false,
							"internalType": "address",
							"name": "student",
							"type": "address"
						}
					],
					"name": "VoterAdd",
					"type": "event"
				},
				{
					"anonymous": false,
					"inputs": [
						{
							"indexed": true,
							"internalType": "bytes32",
							"name": "eventID",
							"type": "bytes32"
						},
						{
							"indexed": false,
							"internalType": "address",
							"name": "student",
							"type": "address"
						}
					],
					"name": "VoterRemove",
					"type": "event"
				},
				{
					"anonymous": false,
					"inputs": [
						{
							"indexed": true,
							"internalType": "bytes32",
							"name": "eventID",
							"type": "bytes32"
						}
					],
					"name": "VotingEventCreate",
					"type": "event"
				},
				{
					"anonymous": false,
					"inputs": [
						{
							"indexed": true,
							"internalType": "bytes32",
							"name": "eventID",
							"type": "bytes32"
						}
					],
					"name": "VotingEventRemove",
					"type": "event"
				},
				{
					"anonymous": false,
					"inputs": [
						{
							"indexed": true,
							"internalType": "bytes32",
							"name": "eventID",
							"type": "bytes32"
						}
					],
					"name": "VotingEventUpdate",
					"type": "event"
				},
				{
					"inputs": [
						{
							"internalType": "string",
							"name": "_eventIDStr",
							"type": "string"
						},
						{
							"internalType": "string[]",
							"name": "_candidateIDStrs",
							"type": "string[]"
						},
						{
							"internalType": "address[]",
							"name": "_walletAddresses",
							"type": "address[]"
						}
					],
					"name": "addCandidates",
					"outputs": [],
					"stateMutability": "nonpayable",
					"type": "function"
				},
				{
					"inputs": [],
					"name": "admin",
					"outputs": [
						{
							"internalType": "address",
							"name": "",
							"type": "address"
						}
					],
					"stateMutability": "view",
					"type": "function"
				},
				{
					"inputs": [
						{
							"internalType": "bytes32",
							"name": "",
							"type": "bytes32"
						},
						{
							"internalType": "uint256",
							"name": "",
							"type": "uint256"
						}
					],
					"name": "candidateIDsByEvent",
					"outputs": [
						{
							"internalType": "bytes32",
							"name": "",
							"type": "bytes32"
						}
					],
					"stateMutability": "view",
					"type": "function"
				},
				{
					"inputs": [
						{
							"internalType": "address",
							"name": "",
							"type": "address"
						}
					],
					"name": "candidates",
					"outputs": [
						{
							"internalType": "bytes32",
							"name": "candidateID",
							"type": "bytes32"
						},
						{
							"internalType": "address",
							"name": "walletAddress",
							"type": "address"
						},
						{
							"internalType": "uint256",
							"name": "votesReceived",
							"type": "uint256"
						}
					],
					"stateMutability": "view",
					"type": "function"
				},
				{
					"inputs": [
						{
							"internalType": "bytes32",
							"name": "",
							"type": "bytes32"
						},
						{
							"internalType": "bytes32",
							"name": "",
							"type": "bytes32"
						}
					],
					"name": "candidatesByEvent",
					"outputs": [
						{
							"internalType": "bytes32",
							"name": "candidateID",
							"type": "bytes32"
						},
						{
							"internalType": "address",
							"name": "walletAddress",
							"type": "address"
						},
						{
							"internalType": "uint256",
							"name": "votesReceived",
							"type": "uint256"
						}
					],
					"stateMutability": "view",
					"type": "function"
				},
				{
					"inputs": [
						{
							"internalType": "string",
							"name": "_eventIDStr",
							"type": "string"
						},
						{
							"internalType": "string",
							"name": "_candidateIDStr",
							"type": "string"
						}
					],
					"name": "castVote",
					"outputs": [],
					"stateMutability": "nonpayable",
					"type": "function"
				},
				{
					"inputs": [
						{
							"internalType": "string",
							"name": "_eventIDStr",
							"type": "string"
						},
						{
							"internalType": "string",
							"name": "_title",
							"type": "string"
						},
						{
							"internalType": "uint256",
							"name": "_startDate",
							"type": "uint256"
						},
						{
							"internalType": "uint256",
							"name": "_endDate",
							"type": "uint256"
						}
					],
					"name": "createVotingEvent",
					"outputs": [],
					"stateMutability": "nonpayable",
					"type": "function"
				},
				{
					"inputs": [
						{
							"internalType": "string",
							"name": "_eventIDStr",
							"type": "string"
						},
						{
							"internalType": "string",
							"name": "_candidateIDStr",
							"type": "string"
						}
					],
					"name": "getCandidateDetails",
					"outputs": [
						{
							"internalType": "address",
							"name": "walletAddress",
							"type": "address"
						},
						{
							"internalType": "uint256",
							"name": "votesReceived",
							"type": "uint256"
						}
					],
					"stateMutability": "view",
					"type": "function"
				},
				{
					"inputs": [
						{
							"internalType": "string",
							"name": "_eventIDStr",
							"type": "string"
						}
					],
					"name": "getCandidatesForEvent",
					"outputs": [
						{
							"internalType": "bytes32[]",
							"name": "",
							"type": "bytes32[]"
						}
					],
					"stateMutability": "view",
					"type": "function"
				},
				{
					"inputs": [
						{
							"internalType": "string",
							"name": "_eventIDStr",
							"type": "string"
						}
					],
					"name": "getVoteResults",
					"outputs": [
						{
							"internalType": "bytes32[]",
							"name": "candidateIDs",
							"type": "bytes32[]"
						},
						{
							"internalType": "uint256[]",
							"name": "voteCounts",
							"type": "uint256[]"
						}
					],
					"stateMutability": "view",
					"type": "function"
				},
				{
					"inputs": [
						{
							"internalType": "string",
							"name": "_eventID",
							"type": "string"
						}
					],
					"name": "getVotingEvent",
					"outputs": [
						{
							"internalType": "string",
							"name": "eventID",
							"type": "string"
						},
						{
							"internalType": "string",
							"name": "title",
							"type": "string"
						},
						{
							"internalType": "uint256",
							"name": "startDate",
							"type": "uint256"
						},
						{
							"internalType": "uint256",
							"name": "endDate",
							"type": "uint256"
						},
						{
							"internalType": "address",
							"name": "createdBy",
							"type": "address"
						},
						{
							"internalType": "uint8",
							"name": "status",
							"type": "uint8"
						},
						{
							"internalType": "address[]",
							"name": "candidateList",
							"type": "address[]"
						},
						{
							"internalType": "address[]",
							"name": "voterList",
							"type": "address[]"
						}
					],
					"stateMutability": "view",
					"type": "function"
				},
				{
					"inputs": [],
					"name": "getVotingEventIDs",
					"outputs": [
						{
							"internalType": "string[]",
							"name": "",
							"type": "string[]"
						}
					],
					"stateMutability": "view",
					"type": "function"
				},
				{
					"inputs": [
						{
							"internalType": "bytes32",
							"name": "",
							"type": "bytes32"
						},
						{
							"internalType": "address",
							"name": "",
							"type": "address"
						}
					],
					"name": "hasVoted",
					"outputs": [
						{
							"internalType": "bool",
							"name": "",
							"type": "bool"
						}
					],
					"stateMutability": "view",
					"type": "function"
				},
				{
					"inputs": [
						{
							"internalType": "bytes32",
							"name": "",
							"type": "bytes32"
						},
						{
							"internalType": "address",
							"name": "",
							"type": "address"
						}
					],
					"name": "hasVotedByEvent",
					"outputs": [
						{
							"internalType": "bool",
							"name": "",
							"type": "bool"
						}
					],
					"stateMutability": "view",
					"type": "function"
				},
				{
					"inputs": [
						{
							"internalType": "string",
							"name": "_eventIDStr",
							"type": "string"
						},
						{
							"internalType": "address",
							"name": "_candidate",
							"type": "address"
						}
					],
					"name": "removeCandidate",
					"outputs": [],
					"stateMutability": "nonpayable",
					"type": "function"
				},
				{
					"inputs": [
						{
							"internalType": "string",
							"name": "_eventIDStr",
							"type": "string"
						}
					],
					"name": "removeVotingEvent",
					"outputs": [],
					"stateMutability": "nonpayable",
					"type": "function"
				},
				{
					"inputs": [
						{
							"internalType": "string",
							"name": "_eventIDStr",
							"type": "string"
						},
						{
							"internalType": "string",
							"name": "_title",
							"type": "string"
						},
						{
							"internalType": "uint256",
							"name": "_startDate",
							"type": "uint256"
						},
						{
							"internalType": "uint256",
							"name": "_endDate",
							"type": "uint256"
						},
						{
							"internalType": "uint8",
							"name": "_status",
							"type": "uint8"
						}
					],
					"name": "updateVotingEvent",
					"outputs": [],
					"stateMutability": "nonpayable",
					"type": "function"
				},
				{
					"inputs": [
						{
							"internalType": "bytes32",
							"name": "",
							"type": "bytes32"
						},
						{
							"internalType": "uint256",
							"name": "",
							"type": "uint256"
						}
					],
					"name": "voteByEvent",
					"outputs": [
						{
							"internalType": "address",
							"name": "votes",
							"type": "address"
						},
						{
							"internalType": "bytes32",
							"name": "candidateID",
							"type": "bytes32"
						},
						{
							"internalType": "uint256",
							"name": "timestamp",
							"type": "uint256"
						}
					],
					"stateMutability": "view",
					"type": "function"
				},
				{
					"inputs": [
						{
							"internalType": "bytes32",
							"name": "",
							"type": "bytes32"
						},
						{
							"internalType": "bytes32",
							"name": "",
							"type": "bytes32"
						}
					],
					"name": "voteCountsByCandidate",
					"outputs": [
						{
							"internalType": "uint256",
							"name": "",
							"type": "uint256"
						}
					],
					"stateMutability": "view",
					"type": "function"
				},
				{
					"inputs": [
						{
							"internalType": "uint256",
							"name": "",
							"type": "uint256"
						}
					],
					"name": "votesHistory",
					"outputs": [
						{
							"internalType": "address",
							"name": "votes",
							"type": "address"
						},
						{
							"internalType": "bytes32",
							"name": "candidateID",
							"type": "bytes32"
						},
						{
							"internalType": "uint256",
							"name": "timestamp",
							"type": "uint256"
						}
					],
					"stateMutability": "view",
					"type": "function"
				},
				{
					"inputs": [
						{
							"internalType": "bytes32",
							"name": "",
							"type": "bytes32"
						}
					],
					"name": "votingEvents",
					"outputs": [
						{
							"internalType": "bytes32",
							"name": "eventID",
							"type": "bytes32"
						},
						{
							"internalType": "string",
							"name": "title",
							"type": "string"
						},
						{
							"internalType": "uint256",
							"name": "startDate",
							"type": "uint256"
						},
						{
							"internalType": "uint256",
							"name": "endDate",
							"type": "uint256"
						},
						{
							"internalType": "address",
							"name": "createdBy",
							"type": "address"
						},
						{
							"internalType": "uint8",
							"name": "status",
							"type": "uint8"
						}
					],
					"stateMutability": "view",
					"type": "function"
				}
			],
			"devdoc": {
				"kind": "dev",
				"methods": {},
				"version": 1
			},
			"evm": {
				"assembly": "    /* \"test contracts/Voting.sol\":60:15015  contract Voting {... */\n  mstore(0x40, 0x80)\n    /* \"test contracts/Voting.sol\":169:220  constructor() {... */\n  callvalue\n  dup1\n  iszero\n  tag_1\n  jumpi\n  0x00\n  dup1\n  revert\ntag_1:\n  pop\n    /* \"test contracts/Voting.sol\":202:212  msg.sender */\n  caller\n    /* \"test contracts/Voting.sol\":194:199  admin */\n  0x00\n  dup1\n    /* \"test contracts/Voting.sol\":194:212  admin = msg.sender */\n  0x0100\n  exp\n  dup2\n  sload\n  dup2\n  0xffffffffffffffffffffffffffffffffffffffff\n  mul\n  not\n  and\n  swap1\n  dup4\n  0xffffffffffffffffffffffffffffffffffffffff\n  and\n  mul\n  or\n  swap1\n  sstore\n  pop\n    /* \"test contracts/Voting.sol\":60:15015  contract Voting {... */\n  dataSize(sub_0)\n  dup1\n  dataOffset(sub_0)\n  0x00\n  codecopy\n  0x00\n  return\nstop\n\nsub_0: assembly {\n        /* \"test contracts/Voting.sol\":60:15015  contract Voting {... */\n      mstore(0x40, 0x80)\n      callvalue\n      dup1\n      iszero\n      tag_1\n      jumpi\n      0x00\n      dup1\n      revert\n    tag_1:\n      pop\n      jumpi(tag_2, lt(calldatasize, 0x04))\n      shr(0xe0, calldataload(0x00))\n      dup1\n      0x8ab66a90\n      gt\n      tag_24\n      jumpi\n      dup1\n      0xc479fc91\n      gt\n      tag_25\n      jumpi\n      dup1\n      0xc479fc91\n      eq\n      tag_18\n      jumpi\n      dup1\n      0xcce02b25\n      eq\n      tag_19\n      jumpi\n      dup1\n      0xddb6457e\n      eq\n      tag_20\n      jumpi\n      dup1\n      0xe9d1c2d4\n      eq\n      tag_21\n      jumpi\n      dup1\n      0xf851a440\n      eq\n      tag_22\n      jumpi\n      dup1\n      0xf9db321e\n      eq\n      tag_23\n      jumpi\n      jump(tag_2)\n    tag_25:\n      dup1\n      0x8ab66a90\n      eq\n      tag_13\n      jumpi\n      dup1\n      0x9f691b52\n      eq\n      tag_14\n      jumpi\n      dup1\n      0xa89d95ec\n      eq\n      tag_15\n      jumpi\n      dup1\n      0xaadc3b72\n      eq\n      tag_16\n      jumpi\n      dup1\n      0xbacfcfa4\n      eq\n      tag_17\n      jumpi\n      jump(tag_2)\n    tag_24:\n      dup1\n      0x3c181d4b\n      gt\n      tag_26\n      jumpi\n      dup1\n      0x3c181d4b\n      eq\n      tag_8\n      jumpi\n      dup1\n      0x5f908e11\n      eq\n      tag_9\n      jumpi\n      dup1\n      0x71a80e3f\n      eq\n      tag_10\n      jumpi\n      dup1\n      0x75a76aab\n      eq\n      tag_11\n      jumpi\n      dup1\n      0x7d1da8f8\n      eq\n      tag_12\n      jumpi\n      jump(tag_2)\n    tag_26:\n      dup1\n      0x169cf6c8\n      eq\n      tag_3\n      jumpi\n      dup1\n      0x1dd1f157\n      eq\n      tag_4\n      jumpi\n      dup1\n      0x1e11213c\n      eq\n      tag_5\n      jumpi\n      dup1\n      0x2ac1b516\n      eq\n      tag_6\n      jumpi\n      dup1\n      0x2e3c2abf\n      eq\n      tag_7\n      jumpi\n    tag_2:\n      0x00\n      dup1\n      revert\n        /* \"test contracts/Voting.sol\":3486:3827  function getVotingEventIDs() public view returns (string[] memory) {... */\n    tag_3:\n      tag_27\n      tag_28\n      jump\t// in\n    tag_27:\n      mload(0x40)\n      tag_29\n      swap2\n      swap1\n      tag_30\n      jump\t// in\n    tag_29:\n      mload(0x40)\n      dup1\n      swap2\n      sub\n      swap1\n      return\n        /* \"test contracts/Voting.sol\":2121:2177  mapping(bytes32 => bytes32[]) public candidateIDsByEvent */\n    tag_4:\n      tag_31\n      0x04\n      dup1\n      calldatasize\n      sub\n      dup2\n      add\n      swap1\n      tag_32\n      swap2\n      swap1\n      tag_33\n      jump\t// in\n    tag_32:\n      tag_34\n      jump\t// in\n    tag_31:\n      mload(0x40)\n      tag_35\n      swap2\n      swap1\n      tag_36\n      jump\t// in\n    tag_35:\n      mload(0x40)\n      dup1\n      swap2\n      sub\n      swap1\n      return\n        /* \"test contracts/Voting.sol\":5454:5978  function getVoteResults(string memory _eventIDStr) public view returns (bytes32[] memory candidateIDs, uint256[] memory voteCounts) {... */\n    tag_5:\n      tag_37\n      0x04\n      dup1\n      calldatasize\n      sub\n      dup2\n      add\n      swap1\n      tag_38\n      swap2\n      swap1\n      tag_39\n      jump\t// in\n    tag_38:\n      tag_40\n      jump\t// in\n    tag_37:\n      mload(0x40)\n      tag_41\n      swap3\n      swap2\n      swap1\n      tag_42\n      jump\t// in\n    tag_41:\n      mload(0x40)\n      dup1\n      swap2\n      sub\n      swap1\n      return\n        /* \"test contracts/Voting.sol\":10968:12949  function addCandidates(... */\n    tag_6:\n      tag_43\n      0x04\n      dup1\n      calldatasize\n      sub\n      dup2\n      add\n      swap1\n      tag_44\n      swap2\n      swap1\n      tag_45\n      jump\t// in\n    tag_44:\n      tag_46\n      jump\t// in\n    tag_43:\n      stop\n        /* \"test contracts/Voting.sol\":5198:5408  function getCandidatesForEvent(string memory _eventIDStr) public view returns (bytes32[] memory) {... */\n    tag_7:\n      tag_47\n      0x04\n      dup1\n      calldatasize\n      sub\n      dup2\n      add\n      swap1\n      tag_48\n      swap2\n      swap1\n      tag_39\n      jump\t// in\n    tag_48:\n      tag_49\n      jump\t// in\n    tag_47:\n      mload(0x40)\n      tag_50\n      swap2\n      swap1\n      tag_51\n      jump\t// in\n    tag_50:\n      mload(0x40)\n      dup1\n      swap2\n      sub\n      swap1\n      return\n        /* \"test contracts/Voting.sol\":2001:2075  mapping(bytes32 => mapping(bytes32 => Candidate)) public candidatesByEvent */\n    tag_8:\n      tag_52\n      0x04\n      dup1\n      calldatasize\n      sub\n      dup2\n      add\n      swap1\n      tag_53\n      swap2\n      swap1\n      tag_54\n      jump\t// in\n    tag_53:\n      tag_55\n      jump\t// in\n    tag_52:\n      mload(0x40)\n      tag_56\n      swap4\n      swap3\n      swap2\n      swap1\n      tag_57\n      jump\t// in\n    tag_56:\n      mload(0x40)\n      dup1\n      swap2\n      sub\n      swap1\n      return\n        /* \"test contracts/Voting.sol\":8310:8979  function removeVotingEvent(string memory _eventIDStr) public {... */\n    tag_9:\n      tag_58\n      0x04\n      dup1\n      calldatasize\n      sub\n      dup2\n      add\n      swap1\n      tag_59\n      swap2\n      swap1\n      tag_39\n      jump\t// in\n    tag_59:\n      tag_60\n      jump\t// in\n    tag_58:\n      stop\n        /* \"test contracts/Voting.sol\":2631:2657  Vote[] public votesHistory */\n    tag_10:\n      tag_61\n      0x04\n      dup1\n      calldatasize\n      sub\n      dup2\n      add\n      swap1\n      tag_62\n      swap2\n      swap1\n      tag_63\n      jump\t// in\n    tag_62:\n      tag_64\n      jump\t// in\n    tag_61:\n      mload(0x40)\n      tag_65\n      swap4\n      swap3\n      swap2\n      swap1\n      tag_66\n      jump\t// in\n    tag_65:\n      mload(0x40)\n      dup1\n      swap2\n      sub\n      swap1\n      return\n        /* \"test contracts/Voting.sol\":1775:1820  mapping(bytes32 => Vote[]) public voteByEvent */\n    tag_11:\n      tag_67\n      0x04\n      dup1\n      calldatasize\n      sub\n      dup2\n      add\n      swap1\n      tag_68\n      swap2\n      swap1\n      tag_33\n      jump\t// in\n    tag_68:\n      tag_69\n      jump\t// in\n    tag_67:\n      mload(0x40)\n      tag_70\n      swap4\n      swap3\n      swap2\n      swap1\n      tag_66\n      jump\t// in\n    tag_70:\n      mload(0x40)\n      dup1\n      swap2\n      sub\n      swap1\n      return\n        /* \"test contracts/Voting.sol\":3875:4580  function getVotingEvent(string memory _eventID) public view returns (... */\n    tag_12:\n      tag_71\n      0x04\n      dup1\n      calldatasize\n      sub\n      dup2\n      add\n      swap1\n      tag_72\n      swap2\n      swap1\n      tag_39\n      jump\t// in\n    tag_72:\n      tag_73\n      jump\t// in\n    tag_71:\n      mload(0x40)\n      tag_74\n      swap9\n      swap8\n      swap7\n      swap6\n      swap5\n      swap4\n      swap3\n      swap2\n      swap1\n      tag_75\n      jump\t// in\n    tag_74:\n      mload(0x40)\n      dup1\n      swap2\n      sub\n      swap1\n      return\n        /* \"test contracts/Voting.sol\":1892:1939  mapping(address => Candidate) public candidates */\n    tag_13:\n      tag_76\n      0x04\n      dup1\n      calldatasize\n      sub\n      dup2\n      add\n      swap1\n      tag_77\n      swap2\n      swap1\n      tag_78\n      jump\t// in\n    tag_77:\n      tag_79\n      jump\t// in\n    tag_76:\n      mload(0x40)\n      tag_80\n      swap4\n      swap3\n      swap2\n      swap1\n      tag_57\n      jump\t// in\n    tag_80:\n      mload(0x40)\n      dup1\n      swap2\n      sub\n      swap1\n      return\n        /* \"test contracts/Voting.sol\":7293:8182  function updateVotingEvent(... */\n    tag_14:\n      tag_81\n      0x04\n      dup1\n      calldatasize\n      sub\n      dup2\n      add\n      swap1\n      tag_82\n      swap2\n      swap1\n      tag_83\n      jump\t// in\n    tag_82:\n      tag_84\n      jump\t// in\n    tag_81:\n      stop\n        /* \"test contracts/Voting.sol\":4618:5150  function getCandidateDetails(... */\n    tag_15:\n      tag_85\n      0x04\n      dup1\n      calldatasize\n      sub\n      dup2\n      add\n      swap1\n      tag_86\n      swap2\n      swap1\n      tag_87\n      jump\t// in\n    tag_86:\n      tag_88\n      jump\t// in\n    tag_85:\n      mload(0x40)\n      tag_89\n      swap3\n      swap2\n      swap1\n      tag_90\n      jump\t// in\n    tag_89:\n      mload(0x40)\n      dup1\n      swap2\n      sub\n      swap1\n      return\n        /* \"test contracts/Voting.sol\":2427:2487  mapping(bytes32 => mapping(address => bool)) public hasVoted */\n    tag_16:\n      tag_91\n      0x04\n      dup1\n      calldatasize\n      sub\n      dup2\n      add\n      swap1\n      tag_92\n      swap2\n      swap1\n      tag_93\n      jump\t// in\n    tag_92:\n      tag_94\n      jump\t// in\n    tag_91:\n      mload(0x40)\n      tag_95\n      swap2\n      swap1\n      tag_96\n      jump\t// in\n    tag_95:\n      mload(0x40)\n      dup1\n      swap2\n      sub\n      swap1\n      return\n        /* \"test contracts/Voting.sol\":6141:7165  function createVotingEvent(... */\n    tag_17:\n      tag_97\n      0x04\n      dup1\n      calldatasize\n      sub\n      dup2\n      add\n      swap1\n      tag_98\n      swap2\n      swap1\n      tag_99\n      jump\t// in\n    tag_98:\n      tag_100\n      jump\t// in\n    tag_97:\n      stop\n        /* \"test contracts/Voting.sol\":9050:10919  function castVote(... */\n    tag_18:\n      tag_101\n      0x04\n      dup1\n      calldatasize\n      sub\n      dup2\n      add\n      swap1\n      tag_102\n      swap2\n      swap1\n      tag_87\n      jump\t// in\n    tag_102:\n      tag_103\n      jump\t// in\n    tag_101:\n      stop\n        /* \"test contracts/Voting.sol\":2258:2334  mapping(bytes32 => mapping(bytes32 => uint256)) public voteCountsByCandidate */\n    tag_19:\n      tag_104\n      0x04\n      dup1\n      calldatasize\n      sub\n      dup2\n      add\n      swap1\n      tag_105\n      swap2\n      swap1\n      tag_54\n      jump\t// in\n    tag_105:\n      tag_106\n      jump\t// in\n    tag_104:\n      mload(0x40)\n      tag_107\n      swap2\n      swap1\n      tag_108\n      jump\t// in\n    tag_107:\n      mload(0x40)\n      dup1\n      swap2\n      sub\n      swap1\n      return\n        /* \"test contracts/Voting.sol\":1420:1471  mapping(bytes32 => VotingEvent) public votingEvents */\n    tag_20:\n      tag_109\n      0x04\n      dup1\n      calldatasize\n      sub\n      dup2\n      add\n      swap1\n      tag_110\n      swap2\n      swap1\n      tag_111\n      jump\t// in\n    tag_110:\n      tag_112\n      jump\t// in\n    tag_109:\n      mload(0x40)\n      tag_113\n      swap7\n      swap6\n      swap5\n      swap4\n      swap3\n      swap2\n      swap1\n      tag_114\n      jump\t// in\n    tag_113:\n      mload(0x40)\n      dup1\n      swap2\n      sub\n      swap1\n      return\n        /* \"test contracts/Voting.sol\":1622:1689  mapping(bytes32 => mapping(address => bool)) public hasVotedByEvent */\n    tag_21:\n      tag_115\n      0x04\n      dup1\n      calldatasize\n      sub\n      dup2\n      add\n      swap1\n      tag_116\n      swap2\n      swap1\n      tag_93\n      jump\t// in\n    tag_116:\n      tag_117\n      jump\t// in\n    tag_115:\n      mload(0x40)\n      tag_118\n      swap2\n      swap1\n      tag_96\n      jump\t// in\n    tag_118:\n      mload(0x40)\n      dup1\n      swap2\n      sub\n      swap1\n      return\n        /* \"test contracts/Voting.sol\":140:160  address public admin */\n    tag_22:\n      tag_119\n      tag_120\n      jump\t// in\n    tag_119:\n      mload(0x40)\n      tag_121\n      swap2\n      swap1\n      tag_122\n      jump\t// in\n    tag_121:\n      mload(0x40)\n      dup1\n      swap2\n      sub\n      swap1\n      return\n        /* \"test contracts/Voting.sol\":13002:14167  function removeCandidate(string memory _eventIDStr, address _candidate) public {... */\n    tag_23:\n      tag_123\n      0x04\n      dup1\n      calldatasize\n      sub\n      dup2\n      add\n      swap1\n      tag_124\n      swap2\n      swap1\n      tag_125\n      jump\t// in\n    tag_124:\n      tag_126\n      jump\t// in\n    tag_123:\n      stop\n        /* \"test contracts/Voting.sol\":3486:3827  function getVotingEventIDs() public view returns (string[] memory) {... */\n    tag_28:\n        /* \"test contracts/Voting.sol\":3536:3551  string[] memory */\n      0x60\n        /* \"test contracts/Voting.sol\":3564:3594  string[] memory votingEventIDs */\n      0x00\n        /* \"test contracts/Voting.sol\":3610:3628  votingEventIDsList */\n      0x0a\n        /* \"test contracts/Voting.sol\":3610:3635  votingEventIDsList.length */\n      dup1\n      sload\n      swap1\n      pop\n        /* \"test contracts/Voting.sol\":3597:3636  new string[](votingEventIDsList.length) */\n      0xffffffffffffffff\n      dup2\n      gt\n      iszero\n      tag_128\n      jumpi\n      tag_129\n      tag_130\n      jump\t// in\n    tag_129:\n    tag_128:\n      mload(0x40)\n      swap1\n      dup1\n      dup3\n      mstore\n      dup1\n      0x20\n      mul\n      0x20\n      add\n      dup3\n      add\n      0x40\n      mstore\n      dup1\n      iszero\n      tag_131\n      jumpi\n      dup2\n      0x20\n      add\n    tag_132:\n      0x60\n      dup2\n      mstore\n      0x20\n      add\n      swap1\n      0x01\n      swap1\n      sub\n      swap1\n      dup2\n      tag_132\n      jumpi\n      swap1\n      pop\n    tag_131:\n      pop\n        /* \"test contracts/Voting.sol\":3564:3636  string[] memory votingEventIDs = new string[](votingEventIDsList.length) */\n      swap1\n      pop\n        /* \"test contracts/Voting.sol\":3652:3661  uint256 i */\n      0x00\n        /* \"test contracts/Voting.sol\":3647:3788  for (uint256 i = 0; i < votingEventIDsList.length; i++) {... */\n    tag_133:\n        /* \"test contracts/Voting.sol\":3671:3689  votingEventIDsList */\n      0x0a\n        /* \"test contracts/Voting.sol\":3671:3696  votingEventIDsList.length */\n      dup1\n      sload\n      swap1\n      pop\n        /* \"test contracts/Voting.sol\":3667:3668  i */\n      dup2\n        /* \"test contracts/Voting.sol\":3667:3696  i < votingEventIDsList.length */\n      lt\n        /* \"test contracts/Voting.sol\":3647:3788  for (uint256 i = 0; i < votingEventIDsList.length; i++) {... */\n      iszero\n      tag_134\n      jumpi\n        /* \"test contracts/Voting.sol\":3738:3776  bytes32ToString(votingEventIDsList[i]) */\n      tag_136\n        /* \"test contracts/Voting.sol\":3754:3772  votingEventIDsList */\n      0x0a\n        /* \"test contracts/Voting.sol\":3773:3774  i */\n      dup3\n        /* \"test contracts/Voting.sol\":3754:3775  votingEventIDsList[i] */\n      dup2\n      sload\n      dup2\n      lt\n      tag_137\n      jumpi\n      tag_138\n      tag_139\n      jump\t// in\n    tag_138:\n    tag_137:\n      swap1\n      0x00\n      mstore\n      keccak256(0x00, 0x20)\n      add\n      sload\n        /* \"test contracts/Voting.sol\":3738:3753  bytes32ToString */\n      tag_141\n        /* \"test contracts/Voting.sol\":3738:3776  bytes32ToString(votingEventIDsList[i]) */\n      jump\t// in\n    tag_136:\n        /* \"test contracts/Voting.sol\":3718:3732  votingEventIDs */\n      dup3\n        /* \"test contracts/Voting.sol\":3733:3734  i */\n      dup3\n        /* \"test contracts/Voting.sol\":3718:3735  votingEventIDs[i] */\n      dup2\n      mload\n      dup2\n      lt\n      tag_142\n      jumpi\n      tag_143\n      tag_139\n      jump\t// in\n    tag_143:\n    tag_142:\n      0x20\n      mul\n      0x20\n      add\n      add\n        /* \"test contracts/Voting.sol\":3718:3776  votingEventIDs[i] = bytes32ToString(votingEventIDsList[i]) */\n      dup2\n      swap1\n      mstore\n      pop\n        /* \"test contracts/Voting.sol\":3698:3701  i++ */\n      dup1\n      dup1\n      0x01\n      add\n      swap2\n      pop\n      pop\n        /* \"test contracts/Voting.sol\":3647:3788  for (uint256 i = 0; i < votingEventIDsList.length; i++) {... */\n      jump(tag_133)\n    tag_134:\n      pop\n        /* \"test contracts/Voting.sol\":3805:3819  votingEventIDs */\n      dup1\n        /* \"test contracts/Voting.sol\":3798:3819  return votingEventIDs */\n      swap2\n      pop\n      pop\n        /* \"test contracts/Voting.sol\":3486:3827  function getVotingEventIDs() public view returns (string[] memory) {... */\n      swap1\n      jump\t// out\n        /* \"test contracts/Voting.sol\":2121:2177  mapping(bytes32 => bytes32[]) public candidateIDsByEvent */\n    tag_34:\n      mstore(0x20, 0x06)\n      dup2\n      0x00\n      mstore\n      keccak256(0x00, 0x40)\n      dup2\n      dup2\n      sload\n      dup2\n      lt\n      tag_144\n      jumpi\n      0x00\n      dup1\n      revert\n    tag_144:\n      swap1\n      0x00\n      mstore\n      keccak256(0x00, 0x20)\n      add\n      0x00\n      swap2\n      pop\n      swap2\n      pop\n      pop\n      sload\n      dup2\n      jump\t// out\n        /* \"test contracts/Voting.sol\":5454:5978  function getVoteResults(string memory _eventIDStr) public view returns (bytes32[] memory candidateIDs, uint256[] memory voteCounts) {... */\n    tag_40:\n        /* \"test contracts/Voting.sol\":5526:5555  bytes32[] memory candidateIDs */\n      0x60\n        /* \"test contracts/Voting.sol\":5557:5584  uint256[] memory voteCounts */\n      dup1\n        /* \"test contracts/Voting.sol\":5597:5613  bytes32 _eventID */\n      0x00\n        /* \"test contracts/Voting.sol\":5616:5644  stringToBytes32(_eventIDStr) */\n      tag_147\n        /* \"test contracts/Voting.sol\":5632:5643  _eventIDStr */\n      dup5\n        /* \"test contracts/Voting.sol\":5616:5631  stringToBytes32 */\n      tag_148\n        /* \"test contracts/Voting.sol\":5616:5644  stringToBytes32(_eventIDStr) */\n      jump\t// in\n    tag_147:\n        /* \"test contracts/Voting.sol\":5597:5644  bytes32 _eventID = stringToBytes32(_eventIDStr) */\n      swap1\n      pop\n        /* \"test contracts/Voting.sol\":5655:5683  bytes32[] memory _candidates */\n      0x00\n        /* \"test contracts/Voting.sol\":5686:5705  candidateIDsByEvent */\n      0x06\n        /* \"test contracts/Voting.sol\":5686:5715  candidateIDsByEvent[_eventID] */\n      0x00\n        /* \"test contracts/Voting.sol\":5706:5714  _eventID */\n      dup4\n        /* \"test contracts/Voting.sol\":5686:5715  candidateIDsByEvent[_eventID] */\n      dup2\n      mstore\n      0x20\n      add\n      swap1\n      dup2\n      mstore\n      0x20\n      add\n      0x00\n      keccak256\n        /* \"test contracts/Voting.sol\":5655:5715  bytes32[] memory _candidates = candidateIDsByEvent[_eventID] */\n      dup1\n      sload\n      dup1\n      0x20\n      mul\n      0x20\n      add\n      mload(0x40)\n      swap1\n      dup2\n      add\n      0x40\n      mstore\n      dup1\n      swap3\n      swap2\n      swap1\n      dup2\n      dup2\n      mstore\n      0x20\n      add\n      dup3\n      dup1\n      sload\n      dup1\n      iszero\n      tag_149\n      jumpi\n      0x20\n      mul\n      dup3\n      add\n      swap2\n      swap1\n      0x00\n      mstore\n      keccak256(0x00, 0x20)\n      swap1\n    tag_150:\n      dup2\n      sload\n      dup2\n      mstore\n      0x20\n      add\n      swap1\n      0x01\n      add\n      swap1\n      dup1\n      dup4\n      gt\n      tag_150\n      jumpi\n    tag_149:\n      pop\n      pop\n      pop\n      pop\n      pop\n      swap1\n      pop\n        /* \"test contracts/Voting.sol\":5726:5748  uint256[] memory votes */\n      0x00\n        /* \"test contracts/Voting.sol\":5765:5776  _candidates */\n      dup2\n        /* \"test contracts/Voting.sol\":5765:5783  _candidates.length */\n      mload\n        /* \"test contracts/Voting.sol\":5751:5784  new uint256[](_candidates.length) */\n      0xffffffffffffffff\n      dup2\n      gt\n      iszero\n      tag_151\n      jumpi\n      tag_152\n      tag_130\n      jump\t// in\n    tag_152:\n    tag_151:\n      mload(0x40)\n      swap1\n      dup1\n      dup3\n      mstore\n      dup1\n      0x20\n      mul\n      0x20\n      add\n      dup3\n      add\n      0x40\n      mstore\n      dup1\n      iszero\n      tag_153\n      jumpi\n      dup2\n      0x20\n      add\n      0x20\n      dup3\n      mul\n      dup1\n      calldatasize\n      dup4\n      calldatacopy\n      dup1\n      dup3\n      add\n      swap2\n      pop\n      pop\n      swap1\n      pop\n    tag_153:\n      pop\n        /* \"test contracts/Voting.sol\":5726:5784  uint256[] memory votes = new uint256[](_candidates.length) */\n      swap1\n      pop\n        /* \"test contracts/Voting.sol\":5802:5811  uint256 i */\n      0x00\n        /* \"test contracts/Voting.sol\":5797:5931  for (uint256 i = 0; i < _candidates.length; i++) {... */\n    tag_154:\n        /* \"test contracts/Voting.sol\":5821:5832  _candidates */\n      dup3\n        /* \"test contracts/Voting.sol\":5821:5839  _candidates.length */\n      mload\n        /* \"test contracts/Voting.sol\":5817:5818  i */\n      dup2\n        /* \"test contracts/Voting.sol\":5817:5839  i < _candidates.length */\n      lt\n        /* \"test contracts/Voting.sol\":5797:5931  for (uint256 i = 0; i < _candidates.length; i++) {... */\n      iszero\n      tag_155\n      jumpi\n        /* \"test contracts/Voting.sol\":5872:5893  voteCountsByCandidate */\n      0x07\n        /* \"test contracts/Voting.sol\":5872:5903  voteCountsByCandidate[_eventID] */\n      0x00\n        /* \"test contracts/Voting.sol\":5894:5902  _eventID */\n      dup6\n        /* \"test contracts/Voting.sol\":5872:5903  voteCountsByCandidate[_eventID] */\n      dup2\n      mstore\n      0x20\n      add\n      swap1\n      dup2\n      mstore\n      0x20\n      add\n      0x00\n      keccak256\n        /* \"test contracts/Voting.sol\":5872:5919  voteCountsByCandidate[_eventID][_candidates[i]] */\n      0x00\n        /* \"test contracts/Voting.sol\":5904:5915  _candidates */\n      dup5\n        /* \"test contracts/Voting.sol\":5916:5917  i */\n      dup4\n        /* \"test contracts/Voting.sol\":5904:5918  _candidates[i] */\n      dup2\n      mload\n      dup2\n      lt\n      tag_157\n      jumpi\n      tag_158\n      tag_139\n      jump\t// in\n    tag_158:\n    tag_157:\n      0x20\n      mul\n      0x20\n      add\n      add\n      mload\n        /* \"test contracts/Voting.sol\":5872:5919  voteCountsByCandidate[_eventID][_candidates[i]] */\n      dup2\n      mstore\n      0x20\n      add\n      swap1\n      dup2\n      mstore\n      0x20\n      add\n      0x00\n      keccak256\n      sload\n        /* \"test contracts/Voting.sol\":5861:5866  votes */\n      dup3\n        /* \"test contracts/Voting.sol\":5867:5868  i */\n      dup3\n        /* \"test contracts/Voting.sol\":5861:5869  votes[i] */\n      dup2\n      mload\n      dup2\n      lt\n      tag_159\n      jumpi\n      tag_160\n      tag_139\n      jump\t// in\n    tag_160:\n    tag_159:\n      0x20\n      mul\n      0x20\n      add\n      add\n        /* \"test contracts/Voting.sol\":5861:5919  votes[i] = voteCountsByCandidate[_eventID][_candidates[i]] */\n      dup2\n      dup2\n      mstore\n      pop\n      pop\n        /* \"test contracts/Voting.sol\":5841:5844  i++ */\n      dup1\n      dup1\n      0x01\n      add\n      swap2\n      pop\n      pop\n        /* \"test contracts/Voting.sol\":5797:5931  for (uint256 i = 0; i < _candidates.length; i++) {... */\n      jump(tag_154)\n    tag_155:\n      pop\n        /* \"test contracts/Voting.sol\":5951:5962  _candidates */\n      dup2\n        /* \"test contracts/Voting.sol\":5964:5969  votes */\n      dup2\n        /* \"test contracts/Voting.sol\":5943:5970  return (_candidates, votes) */\n      swap5\n      pop\n      swap5\n      pop\n      pop\n      pop\n      pop\n        /* \"test contracts/Voting.sol\":5454:5978  function getVoteResults(string memory _eventIDStr) public view returns (bytes32[] memory candidateIDs, uint256[] memory voteCounts) {... */\n      swap2\n      pop\n      swap2\n      jump\t// out\n        /* \"test contracts/Voting.sol\":10968:12949  function addCandidates(... */\n    tag_46:\n        /* \"test contracts/Voting.sol\":11139:11155  bytes32 _eventID */\n      0x00\n        /* \"test contracts/Voting.sol\":11158:11186  stringToBytes32(_eventIDStr) */\n      tag_162\n        /* \"test contracts/Voting.sol\":11174:11185  _eventIDStr */\n      dup5\n        /* \"test contracts/Voting.sol\":11158:11173  stringToBytes32 */\n      tag_148\n        /* \"test contracts/Voting.sol\":11158:11186  stringToBytes32(_eventIDStr) */\n      jump\t// in\n    tag_162:\n        /* \"test contracts/Voting.sol\":11139:11186  bytes32 _eventID = stringToBytes32(_eventIDStr) */\n      swap1\n      pop\n        /* \"test contracts/Voting.sol\":11197:11228  VotingEvent storage votingEvent */\n      0x00\n        /* \"test contracts/Voting.sol\":11231:11243  votingEvents */\n      0x01\n        /* \"test contracts/Voting.sol\":11231:11253  votingEvents[_eventID] */\n      0x00\n        /* \"test contracts/Voting.sol\":11244:11252  _eventID */\n      dup4\n        /* \"test contracts/Voting.sol\":11231:11253  votingEvents[_eventID] */\n      dup2\n      mstore\n      0x20\n      add\n      swap1\n      dup2\n      mstore\n      0x20\n      add\n      0x00\n      keccak256\n        /* \"test contracts/Voting.sol\":11197:11253  VotingEvent storage votingEvent = votingEvents[_eventID] */\n      swap1\n      pop\n        /* \"test contracts/Voting.sol\":11305:11306  0 */\n      0x00\n        /* \"test contracts/Voting.sol\":11297:11307  bytes32(0) */\n      dup1\n      shl\n        /* \"test contracts/Voting.sol\":11274:11285  votingEvent */\n      dup2\n        /* \"test contracts/Voting.sol\":11274:11293  votingEvent.eventID */\n      0x00\n      add\n      sload\n        /* \"test contracts/Voting.sol\":11274:11307  votingEvent.eventID != bytes32(0) */\n      sub\n        /* \"test contracts/Voting.sol\":11266:11339  require(votingEvent.eventID != bytes32(0), \"Voting event does not exist\") */\n      tag_163\n      jumpi\n      mload(0x40)\n      0x08c379a000000000000000000000000000000000000000000000000000000000\n      dup2\n      mstore\n      0x04\n      add\n      tag_164\n      swap1\n      tag_165\n      jump\t// in\n    tag_164:\n      mload(0x40)\n      dup1\n      swap2\n      sub\n      swap1\n      revert\n    tag_163:\n        /* \"test contracts/Voting.sol\":11372:11383  votingEvent */\n      dup1\n        /* \"test contracts/Voting.sol\":11372:11393  votingEvent.createdBy */\n      0x04\n      add\n      0x00\n      swap1\n      sload\n      swap1\n      0x0100\n      exp\n      swap1\n      div\n      0xffffffffffffffffffffffffffffffffffffffff\n      and\n        /* \"test contracts/Voting.sol\":11358:11393  msg.sender == votingEvent.createdBy */\n      0xffffffffffffffffffffffffffffffffffffffff\n      and\n        /* \"test contracts/Voting.sol\":11358:11368  msg.sender */\n      caller\n        /* \"test contracts/Voting.sol\":11358:11393  msg.sender == votingEvent.createdBy */\n      0xffffffffffffffffffffffffffffffffffffffff\n      and\n      eq\n        /* \"test contracts/Voting.sol\":11358:11416  msg.sender == votingEvent.createdBy || msg.sender == admin */\n      dup1\n      tag_166\n      jumpi\n      pop\n        /* \"test contracts/Voting.sol\":11411:11416  admin */\n      0x00\n      dup1\n      sload\n      swap1\n      0x0100\n      exp\n      swap1\n      div\n      0xffffffffffffffffffffffffffffffffffffffff\n      and\n        /* \"test contracts/Voting.sol\":11397:11416  msg.sender == admin */\n      0xffffffffffffffffffffffffffffffffffffffff\n      and\n        /* \"test contracts/Voting.sol\":11397:11407  msg.sender */\n      caller\n        /* \"test contracts/Voting.sol\":11397:11416  msg.sender == admin */\n      0xffffffffffffffffffffffffffffffffffffffff\n      and\n      eq\n        /* \"test contracts/Voting.sol\":11358:11416  msg.sender == votingEvent.createdBy || msg.sender == admin */\n    tag_166:\n        /* \"test contracts/Voting.sol\":11350:11457  require(msg.sender == votingEvent.createdBy || msg.sender == admin, \"Only event creator can add candidate\") */\n      tag_167\n      jumpi\n      mload(0x40)\n      0x08c379a000000000000000000000000000000000000000000000000000000000\n      dup2\n      mstore\n      0x04\n      add\n      tag_168\n      swap1\n      tag_169\n      jump\t// in\n    tag_168:\n      mload(0x40)\n      dup1\n      swap2\n      sub\n      swap1\n      revert\n    tag_167:\n        /* \"test contracts/Voting.sol\":11494:11505  votingEvent */\n      dup1\n        /* \"test contracts/Voting.sol\":11494:11515  votingEvent.startDate */\n      0x02\n      add\n      sload\n        /* \"test contracts/Voting.sol\":11476:11491  block.timestamp */\n      timestamp\n        /* \"test contracts/Voting.sol\":11476:11515  block.timestamp < votingEvent.startDate */\n      lt\n        /* \"test contracts/Voting.sol\":11468:11563  require(block.timestamp < votingEvent.startDate, \"Event already started, cannot add candidate\") */\n      tag_170\n      jumpi\n      mload(0x40)\n      0x08c379a000000000000000000000000000000000000000000000000000000000\n      dup2\n      mstore\n      0x04\n      add\n      tag_171\n      swap1\n      tag_172\n      jump\t// in\n    tag_171:\n      mload(0x40)\n      dup1\n      swap2\n      sub\n      swap1\n      revert\n    tag_170:\n        /* \"test contracts/Voting.sol\":11609:11625  _walletAddresses */\n      dup3\n        /* \"test contracts/Voting.sol\":11609:11632  _walletAddresses.length */\n      mload\n        /* \"test contracts/Voting.sol\":11582:11598  _candidateIDStrs */\n      dup5\n        /* \"test contracts/Voting.sol\":11582:11605  _candidateIDStrs.length */\n      mload\n        /* \"test contracts/Voting.sol\":11582:11632  _candidateIDStrs.length == _walletAddresses.length */\n      eq\n        /* \"test contracts/Voting.sol\":11574:11686  require(_candidateIDStrs.length == _walletAddresses.length, \"Candidate IDs and wallet addresses count mismatch\") */\n      tag_173\n      jumpi\n      mload(0x40)\n      0x08c379a000000000000000000000000000000000000000000000000000000000\n      dup2\n      mstore\n      0x04\n      add\n      tag_174\n      swap1\n      tag_175\n      jump\t// in\n    tag_174:\n      mload(0x40)\n      dup1\n      swap2\n      sub\n      swap1\n      revert\n    tag_173:\n        /* \"test contracts/Voting.sol\":11731:11732  0 */\n      0x00\n        /* \"test contracts/Voting.sol\":11705:11721  _candidateIDStrs */\n      dup5\n        /* \"test contracts/Voting.sol\":11705:11728  _candidateIDStrs.length */\n      mload\n        /* \"test contracts/Voting.sol\":11705:11732  _candidateIDStrs.length > 0 */\n      gt\n        /* \"test contracts/Voting.sol\":11697:11759  require(_candidateIDStrs.length > 0, \"No candidates provided\") */\n      tag_176\n      jumpi\n      mload(0x40)\n      0x08c379a000000000000000000000000000000000000000000000000000000000\n      dup2\n      mstore\n      0x04\n      add\n      tag_177\n      swap1\n      tag_178\n      jump\t// in\n    tag_177:\n      mload(0x40)\n      dup1\n      swap2\n      sub\n      swap1\n      revert\n    tag_176:\n        /* \"test contracts/Voting.sol\":11777:11786  uint256 i */\n      0x00\n        /* \"test contracts/Voting.sol\":11772:12942  for (uint256 i = 0; i < _candidateIDStrs.length; i++) {... */\n    tag_179:\n        /* \"test contracts/Voting.sol\":11796:11812  _candidateIDStrs */\n      dup5\n        /* \"test contracts/Voting.sol\":11796:11819  _candidateIDStrs.length */\n      mload\n        /* \"test contracts/Voting.sol\":11792:11793  i */\n      dup2\n        /* \"test contracts/Voting.sol\":11792:11819  i < _candidateIDStrs.length */\n      lt\n        /* \"test contracts/Voting.sol\":11772:12942  for (uint256 i = 0; i < _candidateIDStrs.length; i++) {... */\n      iszero\n      tag_180\n      jumpi\n        /* \"test contracts/Voting.sol\":11841:11861  bytes32 _candidateID */\n      0x00\n        /* \"test contracts/Voting.sol\":11864:11900  stringToBytes32(_candidateIDStrs[i]) */\n      tag_182\n        /* \"test contracts/Voting.sol\":11880:11896  _candidateIDStrs */\n      dup7\n        /* \"test contracts/Voting.sol\":11897:11898  i */\n      dup4\n        /* \"test contracts/Voting.sol\":11880:11899  _candidateIDStrs[i] */\n      dup2\n      mload\n      dup2\n      lt\n      tag_183\n      jumpi\n      tag_184\n      tag_139\n      jump\t// in\n    tag_184:\n    tag_183:\n      0x20\n      mul\n      0x20\n      add\n      add\n      mload\n        /* \"test contracts/Voting.sol\":11864:11879  stringToBytes32 */\n      tag_148\n        /* \"test contracts/Voting.sol\":11864:11900  stringToBytes32(_candidateIDStrs[i]) */\n      jump\t// in\n    tag_182:\n        /* \"test contracts/Voting.sol\":11841:11900  bytes32 _candidateID = stringToBytes32(_candidateIDStrs[i]) */\n      swap1\n      pop\n        /* \"test contracts/Voting.sol\":11915:11936  address walletAddress */\n      0x00\n        /* \"test contracts/Voting.sol\":11939:11955  _walletAddresses */\n      dup6\n        /* \"test contracts/Voting.sol\":11956:11957  i */\n      dup4\n        /* \"test contracts/Voting.sol\":11939:11958  _walletAddresses[i] */\n      dup2\n      mload\n      dup2\n      lt\n      tag_185\n      jumpi\n      tag_186\n      tag_139\n      jump\t// in\n    tag_186:\n    tag_185:\n      0x20\n      mul\n      0x20\n      add\n      add\n      mload\n        /* \"test contracts/Voting.sol\":11915:11958  address walletAddress = _walletAddresses[i] */\n      swap1\n      pop\n        /* \"test contracts/Voting.sol\":12008:12009  0 */\n      0x00\n        /* \"test contracts/Voting.sol\":11983:12010  walletAddress != address(0) */\n      0xffffffffffffffffffffffffffffffffffffffff\n      and\n        /* \"test contracts/Voting.sol\":11983:11996  walletAddress */\n      dup2\n        /* \"test contracts/Voting.sol\":11983:12010  walletAddress != address(0) */\n      0xffffffffffffffffffffffffffffffffffffffff\n      and\n      sub\n        /* \"test contracts/Voting.sol\":11975:12037  require(walletAddress != address(0), \"Invalid wallet address\") */\n      tag_187\n      jumpi\n      mload(0x40)\n      0x08c379a000000000000000000000000000000000000000000000000000000000\n      dup2\n      mstore\n      0x04\n      add\n      tag_188\n      swap1\n      tag_189\n      jump\t// in\n    tag_188:\n      mload(0x40)\n      dup1\n      swap2\n      sub\n      swap1\n      revert\n    tag_187:\n        /* \"test contracts/Voting.sol\":12084:12085  0 */\n      0x00\n        /* \"test contracts/Voting.sol\":12076:12086  bytes32(0) */\n      dup1\n      shl\n        /* \"test contracts/Voting.sol\":12060:12072  _candidateID */\n      dup3\n        /* \"test contracts/Voting.sol\":12060:12086  _candidateID != bytes32(0) */\n      sub\n        /* \"test contracts/Voting.sol\":12052:12111  require(_candidateID != bytes32(0), \"Invalid candidate ID\") */\n      tag_190\n      jumpi\n      mload(0x40)\n      0x08c379a000000000000000000000000000000000000000000000000000000000\n      dup2\n      mstore\n      0x04\n      add\n      tag_191\n      swap1\n      tag_192\n      jump\t// in\n    tag_191:\n      mload(0x40)\n      dup1\n      swap2\n      sub\n      swap1\n      revert\n    tag_190:\n        /* \"test contracts/Voting.sol\":12201:12202  0 */\n      0x00\n        /* \"test contracts/Voting.sol\":12134:12203  candidatesByEvent[_eventID][_candidateID].walletAddress == address(0) */\n      0xffffffffffffffffffffffffffffffffffffffff\n      and\n        /* \"test contracts/Voting.sol\":12134:12151  candidatesByEvent */\n      0x05\n        /* \"test contracts/Voting.sol\":12134:12161  candidatesByEvent[_eventID] */\n      0x00\n        /* \"test contracts/Voting.sol\":12152:12160  _eventID */\n      dup8\n        /* \"test contracts/Voting.sol\":12134:12161  candidatesByEvent[_eventID] */\n      dup2\n      mstore\n      0x20\n      add\n      swap1\n      dup2\n      mstore\n      0x20\n      add\n      0x00\n      keccak256\n        /* \"test contracts/Voting.sol\":12134:12175  candidatesByEvent[_eventID][_candidateID] */\n      0x00\n        /* \"test contracts/Voting.sol\":12162:12174  _candidateID */\n      dup5\n        /* \"test contracts/Voting.sol\":12134:12175  candidatesByEvent[_eventID][_candidateID] */\n      dup2\n      mstore\n      0x20\n      add\n      swap1\n      dup2\n      mstore\n      0x20\n      add\n      0x00\n      keccak256\n        /* \"test contracts/Voting.sol\":12134:12189  candidatesByEvent[_eventID][_candidateID].walletAddress */\n      0x01\n      add\n      0x00\n      swap1\n      sload\n      swap1\n      0x0100\n      exp\n      swap1\n      div\n      0xffffffffffffffffffffffffffffffffffffffff\n      and\n        /* \"test contracts/Voting.sol\":12134:12203  candidatesByEvent[_eventID][_candidateID].walletAddress == address(0) */\n      0xffffffffffffffffffffffffffffffffffffffff\n      and\n      eq\n        /* \"test contracts/Voting.sol\":12126:12232  require(candidatesByEvent[_eventID][_candidateID].walletAddress == address(0), \"Candidate already exists\") */\n      tag_193\n      jumpi\n      mload(0x40)\n      0x08c379a000000000000000000000000000000000000000000000000000000000\n      dup2\n      mstore\n      0x04\n      add\n      tag_194\n      swap1\n      tag_195\n      jump\t// in\n    tag_194:\n      mload(0x40)\n      dup1\n      swap2\n      sub\n      swap1\n      revert\n    tag_193:\n        /* \"test contracts/Voting.sol\":12272:12282  msg.sender */\n      caller\n        /* \"test contracts/Voting.sol\":12255:12282  walletAddress != msg.sender */\n      0xffffffffffffffffffffffffffffffffffffffff\n      and\n        /* \"test contracts/Voting.sol\":12255:12268  walletAddress */\n      dup2\n        /* \"test contracts/Voting.sol\":12255:12282  walletAddress != msg.sender */\n      0xffffffffffffffffffffffffffffffffffffffff\n      and\n      eq\n      iszero\n        /* \"test contracts/Voting.sol\":12255:12308  walletAddress != msg.sender && walletAddress != admin */\n      dup1\n      iszero\n      tag_196\n      jumpi\n      pop\n        /* \"test contracts/Voting.sol\":12303:12308  admin */\n      0x00\n      dup1\n      sload\n      swap1\n      0x0100\n      exp\n      swap1\n      div\n      0xffffffffffffffffffffffffffffffffffffffff\n      and\n        /* \"test contracts/Voting.sol\":12286:12308  walletAddress != admin */\n      0xffffffffffffffffffffffffffffffffffffffff\n      and\n        /* \"test contracts/Voting.sol\":12286:12299  walletAddress */\n      dup2\n        /* \"test contracts/Voting.sol\":12286:12308  walletAddress != admin */\n      0xffffffffffffffffffffffffffffffffffffffff\n      and\n      eq\n      iszero\n        /* \"test contracts/Voting.sol\":12255:12308  walletAddress != msg.sender && walletAddress != admin */\n    tag_196:\n        /* \"test contracts/Voting.sol\":12247:12375  require(walletAddress != msg.sender && walletAddress != admin, \"Voting event creator and admin cannot participate in the event\") */\n      tag_197\n      jumpi\n      mload(0x40)\n      0x08c379a000000000000000000000000000000000000000000000000000000000\n      dup2\n      mstore\n      0x04\n      add\n      tag_198\n      swap1\n      tag_199\n      jump\t// in\n    tag_198:\n      mload(0x40)\n      dup1\n      swap2\n      sub\n      swap1\n      revert\n    tag_197:\n        /* \"test contracts/Voting.sol\":12392:12421  Candidate memory newCandidate */\n      0x00\n        /* \"test contracts/Voting.sol\":12424:12576  Candidate({... */\n      mload(0x40)\n      dup1\n      0x60\n      add\n      0x40\n      mstore\n      dup1\n        /* \"test contracts/Voting.sol\":12466:12478  _candidateID */\n      dup5\n        /* \"test contracts/Voting.sol\":12424:12576  Candidate({... */\n      dup2\n      mstore\n      0x20\n      add\n        /* \"test contracts/Voting.sol\":12512:12525  walletAddress */\n      dup4\n        /* \"test contracts/Voting.sol\":12424:12576  Candidate({... */\n      0xffffffffffffffffffffffffffffffffffffffff\n      and\n      dup2\n      mstore\n      0x20\n      add\n        /* \"test contracts/Voting.sol\":12559:12560  0 */\n      0x00\n        /* \"test contracts/Voting.sol\":12424:12576  Candidate({... */\n      dup2\n      mstore\n      pop\n        /* \"test contracts/Voting.sol\":12392:12576  Candidate memory newCandidate = Candidate({... */\n      swap1\n      pop\n        /* \"test contracts/Voting.sol\":12637:12649  newCandidate */\n      dup1\n        /* \"test contracts/Voting.sol\":12593:12610  candidatesByEvent */\n      0x05\n        /* \"test contracts/Voting.sol\":12593:12620  candidatesByEvent[_eventID] */\n      0x00\n        /* \"test contracts/Voting.sol\":12611:12619  _eventID */\n      dup9\n        /* \"test contracts/Voting.sol\":12593:12620  candidatesByEvent[_eventID] */\n      dup2\n      mstore\n      0x20\n      add\n      swap1\n      dup2\n      mstore\n      0x20\n      add\n      0x00\n      keccak256\n        /* \"test contracts/Voting.sol\":12593:12634  candidatesByEvent[_eventID][_candidateID] */\n      0x00\n        /* \"test contracts/Voting.sol\":12621:12633  _candidateID */\n      dup6\n        /* \"test contracts/Voting.sol\":12593:12634  candidatesByEvent[_eventID][_candidateID] */\n      dup2\n      mstore\n      0x20\n      add\n      swap1\n      dup2\n      mstore\n      0x20\n      add\n      0x00\n      keccak256\n        /* \"test contracts/Voting.sol\":12593:12649  candidatesByEvent[_eventID][_candidateID] = newCandidate */\n      0x00\n      dup3\n      add\n      mload\n      dup2\n      0x00\n      add\n      sstore\n      0x20\n      dup3\n      add\n      mload\n      dup2\n      0x01\n      add\n      exp(0x0100, 0x00)\n      dup2\n      sload\n      dup2\n      0xffffffffffffffffffffffffffffffffffffffff\n      mul\n      not\n      and\n      swap1\n      dup4\n      0xffffffffffffffffffffffffffffffffffffffff\n      and\n      mul\n      or\n      swap1\n      sstore\n      pop\n      0x40\n      dup3\n      add\n      mload\n      dup2\n      0x02\n      add\n      sstore\n      swap1\n      pop\n      pop\n        /* \"test contracts/Voting.sol\":12664:12683  candidateIDsByEvent */\n      0x06\n        /* \"test contracts/Voting.sol\":12664:12693  candidateIDsByEvent[_eventID] */\n      0x00\n        /* \"test contracts/Voting.sol\":12684:12692  _eventID */\n      dup8\n        /* \"test contracts/Voting.sol\":12664:12693  candidateIDsByEvent[_eventID] */\n      dup2\n      mstore\n      0x20\n      add\n      swap1\n      dup2\n      mstore\n      0x20\n      add\n      0x00\n      keccak256\n        /* \"test contracts/Voting.sol\":12699:12711  _candidateID */\n      dup4\n        /* \"test contracts/Voting.sol\":12664:12712  candidateIDsByEvent[_eventID].push(_candidateID) */\n      swap1\n      dup1\n      0x01\n      dup2\n      sload\n      add\n      dup1\n      dup3\n      sstore\n      dup1\n      swap2\n      pop\n      pop\n      0x01\n      swap1\n      sub\n      swap1\n      0x00\n      mstore\n      keccak256(0x00, 0x20)\n      add\n      0x00\n      swap1\n      swap2\n      swap1\n      swap2\n      swap1\n      swap2\n      pop\n      sstore\n        /* \"test contracts/Voting.sol\":12755:12767  newCandidate */\n      dup1\n        /* \"test contracts/Voting.sol\":12727:12737  candidates */\n      0x04\n        /* \"test contracts/Voting.sol\":12727:12752  candidates[walletAddress] */\n      0x00\n        /* \"test contracts/Voting.sol\":12738:12751  walletAddress */\n      dup5\n        /* \"test contracts/Voting.sol\":12727:12752  candidates[walletAddress] */\n      0xffffffffffffffffffffffffffffffffffffffff\n      and\n      0xffffffffffffffffffffffffffffffffffffffff\n      and\n      dup2\n      mstore\n      0x20\n      add\n      swap1\n      dup2\n      mstore\n      0x20\n      add\n      0x00\n      keccak256\n        /* \"test contracts/Voting.sol\":12727:12767  candidates[walletAddress] = newCandidate */\n      0x00\n      dup3\n      add\n      mload\n      dup2\n      0x00\n      add\n      sstore\n      0x20\n      dup3\n      add\n      mload\n      dup2\n      0x01\n      add\n      exp(0x0100, 0x00)\n      dup2\n      sload\n      dup2\n      0xffffffffffffffffffffffffffffffffffffffff\n      mul\n      not\n      and\n      swap1\n      dup4\n      0xffffffffffffffffffffffffffffffffffffffff\n      and\n      mul\n      or\n      swap1\n      sstore\n      pop\n      0x40\n      dup3\n      add\n      mload\n      dup2\n      0x02\n      add\n      sstore\n      swap1\n      pop\n      pop\n        /* \"test contracts/Voting.sol\":12782:12793  votingEvent */\n      dup5\n        /* \"test contracts/Voting.sol\":12782:12804  votingEvent.candidates */\n      0x05\n      add\n        /* \"test contracts/Voting.sol\":12810:12823  walletAddress */\n      dup3\n        /* \"test contracts/Voting.sol\":12782:12824  votingEvent.candidates.push(walletAddress) */\n      swap1\n      dup1\n      0x01\n      dup2\n      sload\n      add\n      dup1\n      dup3\n      sstore\n      dup1\n      swap2\n      pop\n      pop\n      0x01\n      swap1\n      sub\n      swap1\n      0x00\n      mstore\n      keccak256(0x00, 0x20)\n      add\n      0x00\n      swap1\n      swap2\n      swap1\n      swap2\n      swap1\n      swap2\n      0x0100\n      exp\n      dup2\n      sload\n      dup2\n      0xffffffffffffffffffffffffffffffffffffffff\n      mul\n      not\n      and\n      swap1\n      dup4\n      0xffffffffffffffffffffffffffffffffffffffff\n      and\n      mul\n      or\n      swap1\n      sstore\n      pop\n        /* \"test contracts/Voting.sol\":12906:12914  _eventID */\n      dup6\n        /* \"test contracts/Voting.sol\":12890:12930  CandidateAssign(_eventID, walletAddress) */\n      0x5def6a3abd206ab4318213ca37422c51c627a1f7ea0bebe4c137c7fc1f24250c\n        /* \"test contracts/Voting.sol\":12916:12929  walletAddress */\n      dup4\n        /* \"test contracts/Voting.sol\":12890:12930  CandidateAssign(_eventID, walletAddress) */\n      mload(0x40)\n      tag_202\n      swap2\n      swap1\n      tag_122\n      jump\t// in\n    tag_202:\n      mload(0x40)\n      dup1\n      swap2\n      sub\n      swap1\n      log2\n        /* \"test contracts/Voting.sol\":11826:12942  {... */\n      pop\n      pop\n      pop\n        /* \"test contracts/Voting.sol\":11821:11824  i++ */\n      dup1\n      dup1\n      0x01\n      add\n      swap2\n      pop\n      pop\n        /* \"test contracts/Voting.sol\":11772:12942  for (uint256 i = 0; i < _candidateIDStrs.length; i++) {... */\n      jump(tag_179)\n    tag_180:\n      pop\n        /* \"test contracts/Voting.sol\":11128:12949  {... */\n      pop\n      pop\n        /* \"test contracts/Voting.sol\":10968:12949  function addCandidates(... */\n      pop\n      pop\n      pop\n      jump\t// out\n        /* \"test contracts/Voting.sol\":5198:5408  function getCandidatesForEvent(string memory _eventIDStr) public view returns (bytes32[] memory) {... */\n    tag_49:\n        /* \"test contracts/Voting.sol\":5277:5293  bytes32[] memory */\n      0x60\n        /* \"test contracts/Voting.sol\":5306:5322  bytes32 _eventID */\n      0x00\n        /* \"test contracts/Voting.sol\":5325:5353  stringToBytes32(_eventIDStr) */\n      tag_204\n        /* \"test contracts/Voting.sol\":5341:5352  _eventIDStr */\n      dup4\n        /* \"test contracts/Voting.sol\":5325:5340  stringToBytes32 */\n      tag_148\n        /* \"test contracts/Voting.sol\":5325:5353  stringToBytes32(_eventIDStr) */\n      jump\t// in\n    tag_204:\n        /* \"test contracts/Voting.sol\":5306:5353  bytes32 _eventID = stringToBytes32(_eventIDStr) */\n      swap1\n      pop\n        /* \"test contracts/Voting.sol\":5371:5390  candidateIDsByEvent */\n      0x06\n        /* \"test contracts/Voting.sol\":5371:5400  candidateIDsByEvent[_eventID] */\n      0x00\n        /* \"test contracts/Voting.sol\":5391:5399  _eventID */\n      dup3\n        /* \"test contracts/Voting.sol\":5371:5400  candidateIDsByEvent[_eventID] */\n      dup2\n      mstore\n      0x20\n      add\n      swap1\n      dup2\n      mstore\n      0x20\n      add\n      0x00\n      keccak256\n        /* \"test contracts/Voting.sol\":5364:5400  return candidateIDsByEvent[_eventID] */\n      dup1\n      sload\n      dup1\n      0x20\n      mul\n      0x20\n      add\n      mload(0x40)\n      swap1\n      dup2\n      add\n      0x40\n      mstore\n      dup1\n      swap3\n      swap2\n      swap1\n      dup2\n      dup2\n      mstore\n      0x20\n      add\n      dup3\n      dup1\n      sload\n      dup1\n      iszero\n      tag_205\n      jumpi\n      0x20\n      mul\n      dup3\n      add\n      swap2\n      swap1\n      0x00\n      mstore\n      keccak256(0x00, 0x20)\n      swap1\n    tag_206:\n      dup2\n      sload\n      dup2\n      mstore\n      0x20\n      add\n      swap1\n      0x01\n      add\n      swap1\n      dup1\n      dup4\n      gt\n      tag_206\n      jumpi\n    tag_205:\n      pop\n      pop\n      pop\n      pop\n      pop\n      swap2\n      pop\n      pop\n        /* \"test contracts/Voting.sol\":5198:5408  function getCandidatesForEvent(string memory _eventIDStr) public view returns (bytes32[] memory) {... */\n      swap2\n      swap1\n      pop\n      jump\t// out\n        /* \"test contracts/Voting.sol\":2001:2075  mapping(bytes32 => mapping(bytes32 => Candidate)) public candidatesByEvent */\n    tag_55:\n      mstore(0x20, 0x05)\n      dup2\n      0x00\n      mstore\n      mstore(0x20, keccak256(0x00, 0x40))\n      dup1\n      0x00\n      mstore\n      keccak256(0x00, 0x40)\n      0x00\n      swap2\n      pop\n      swap2\n      pop\n      pop\n      dup1\n      0x00\n      add\n      sload\n      swap1\n      dup1\n      0x01\n      add\n      0x00\n      swap1\n      sload\n      swap1\n      0x0100\n      exp\n      swap1\n      div\n      0xffffffffffffffffffffffffffffffffffffffff\n      and\n      swap1\n      dup1\n      0x02\n      add\n      sload\n      swap1\n      pop\n      dup4\n      jump\t// out\n        /* \"test contracts/Voting.sol\":8310:8979  function removeVotingEvent(string memory _eventIDStr) public {... */\n    tag_60:\n        /* \"test contracts/Voting.sol\":8382:8398  bytes32 _eventID */\n      0x00\n        /* \"test contracts/Voting.sol\":8401:8429  stringToBytes32(_eventIDStr) */\n      tag_208\n        /* \"test contracts/Voting.sol\":8417:8428  _eventIDStr */\n      dup3\n        /* \"test contracts/Voting.sol\":8401:8416  stringToBytes32 */\n      tag_148\n        /* \"test contracts/Voting.sol\":8401:8429  stringToBytes32(_eventIDStr) */\n      jump\t// in\n    tag_208:\n        /* \"test contracts/Voting.sol\":8382:8429  bytes32 _eventID = stringToBytes32(_eventIDStr) */\n      swap1\n      pop\n        /* \"test contracts/Voting.sol\":8440:8471  VotingEvent storage votingEvent */\n      0x00\n        /* \"test contracts/Voting.sol\":8474:8486  votingEvents */\n      0x01\n        /* \"test contracts/Voting.sol\":8474:8496  votingEvents[_eventID] */\n      0x00\n        /* \"test contracts/Voting.sol\":8487:8495  _eventID */\n      dup4\n        /* \"test contracts/Voting.sol\":8474:8496  votingEvents[_eventID] */\n      dup2\n      mstore\n      0x20\n      add\n      swap1\n      dup2\n      mstore\n      0x20\n      add\n      0x00\n      keccak256\n        /* \"test contracts/Voting.sol\":8440:8496  VotingEvent storage votingEvent = votingEvents[_eventID] */\n      swap1\n      pop\n        /* \"test contracts/Voting.sol\":8548:8549  0 */\n      0x00\n        /* \"test contracts/Voting.sol\":8540:8550  bytes32(0) */\n      dup1\n      shl\n        /* \"test contracts/Voting.sol\":8517:8528  votingEvent */\n      dup2\n        /* \"test contracts/Voting.sol\":8517:8536  votingEvent.eventID */\n      0x00\n      add\n      sload\n        /* \"test contracts/Voting.sol\":8517:8550  votingEvent.eventID != bytes32(0) */\n      sub\n        /* \"test contracts/Voting.sol\":8509:8582  require(votingEvent.eventID != bytes32(0), \"Voting event does not exist\") */\n      tag_209\n      jumpi\n      mload(0x40)\n      0x08c379a000000000000000000000000000000000000000000000000000000000\n      dup2\n      mstore\n      0x04\n      add\n      tag_210\n      swap1\n      tag_165\n      jump\t// in\n    tag_210:\n      mload(0x40)\n      dup1\n      swap2\n      sub\n      swap1\n      revert\n    tag_209:\n        /* \"test contracts/Voting.sol\":8615:8626  votingEvent */\n      dup1\n        /* \"test contracts/Voting.sol\":8615:8636  votingEvent.createdBy */\n      0x04\n      add\n      0x00\n      swap1\n      sload\n      swap1\n      0x0100\n      exp\n      swap1\n      div\n      0xffffffffffffffffffffffffffffffffffffffff\n      and\n        /* \"test contracts/Voting.sol\":8601:8636  msg.sender == votingEvent.createdBy */\n      0xffffffffffffffffffffffffffffffffffffffff\n      and\n        /* \"test contracts/Voting.sol\":8601:8611  msg.sender */\n      caller\n        /* \"test contracts/Voting.sol\":8601:8636  msg.sender == votingEvent.createdBy */\n      0xffffffffffffffffffffffffffffffffffffffff\n      and\n      eq\n        /* \"test contracts/Voting.sol\":8601:8659  msg.sender == votingEvent.createdBy || msg.sender == admin */\n      dup1\n      tag_211\n      jumpi\n      pop\n        /* \"test contracts/Voting.sol\":8654:8659  admin */\n      0x00\n      dup1\n      sload\n      swap1\n      0x0100\n      exp\n      swap1\n      div\n      0xffffffffffffffffffffffffffffffffffffffff\n      and\n        /* \"test contracts/Voting.sol\":8640:8659  msg.sender == admin */\n      0xffffffffffffffffffffffffffffffffffffffff\n      and\n        /* \"test contracts/Voting.sol\":8640:8650  msg.sender */\n      caller\n        /* \"test contracts/Voting.sol\":8640:8659  msg.sender == admin */\n      0xffffffffffffffffffffffffffffffffffffffff\n      and\n      eq\n        /* \"test contracts/Voting.sol\":8601:8659  msg.sender == votingEvent.createdBy || msg.sender == admin */\n    tag_211:\n        /* \"test contracts/Voting.sol\":8593:8693  require(msg.sender == votingEvent.createdBy || msg.sender == admin, \"Only event creator can remove\") */\n      tag_212\n      jumpi\n      mload(0x40)\n      0x08c379a000000000000000000000000000000000000000000000000000000000\n      dup2\n      mstore\n      0x04\n      add\n      tag_213\n      swap1\n      tag_214\n      jump\t// in\n    tag_213:\n      mload(0x40)\n      dup1\n      swap2\n      sub\n      swap1\n      revert\n    tag_212:\n        /* \"test contracts/Voting.sol\":8730:8741  votingEvent */\n      dup1\n        /* \"test contracts/Voting.sol\":8730:8751  votingEvent.startDate */\n      0x02\n      add\n      sload\n        /* \"test contracts/Voting.sol\":8712:8727  block.timestamp */\n      timestamp\n        /* \"test contracts/Voting.sol\":8712:8751  block.timestamp < votingEvent.startDate */\n      lt\n        /* \"test contracts/Voting.sol\":8704:8792  require(block.timestamp < votingEvent.startDate, \"Event already started, cannot remove\") */\n      tag_215\n      jumpi\n      mload(0x40)\n      0x08c379a000000000000000000000000000000000000000000000000000000000\n      dup2\n      mstore\n      0x04\n      add\n      tag_216\n      swap1\n      tag_217\n      jump\t// in\n    tag_216:\n      mload(0x40)\n      dup1\n      swap2\n      sub\n      swap1\n      revert\n    tag_215:\n        /* \"test contracts/Voting.sol\":8894:8895  1 */\n      0x01\n        /* \"test contracts/Voting.sol\":8862:8874  votingEvents */\n      dup1\n        /* \"test contracts/Voting.sol\":8862:8884  votingEvents[_eventID] */\n      0x00\n        /* \"test contracts/Voting.sol\":8875:8883  _eventID */\n      dup5\n        /* \"test contracts/Voting.sol\":8862:8884  votingEvents[_eventID] */\n      dup2\n      mstore\n      0x20\n      add\n      swap1\n      dup2\n      mstore\n      0x20\n      add\n      0x00\n      keccak256\n        /* \"test contracts/Voting.sol\":8862:8891  votingEvents[_eventID].status */\n      0x04\n      add\n      0x14\n        /* \"test contracts/Voting.sol\":8862:8895  votingEvents[_eventID].status = 1 */\n      0x0100\n      exp\n      dup2\n      sload\n      dup2\n      0xff\n      mul\n      not\n      and\n      swap1\n      dup4\n      0xff\n      and\n      mul\n      or\n      swap1\n      sstore\n      pop\n        /* \"test contracts/Voting.sol\":8962:8970  _eventID */\n      dup2\n        /* \"test contracts/Voting.sol\":8944:8971  VotingEventRemove(_eventID) */\n      0x382e9875ecbd1af0156d1e58a9a9e88530f39dbbae3ace5d61ac241418b082d7\n      mload(0x40)\n      mload(0x40)\n      dup1\n      swap2\n      sub\n      swap1\n      log2\n        /* \"test contracts/Voting.sol\":8371:8979  {... */\n      pop\n      pop\n        /* \"test contracts/Voting.sol\":8310:8979  function removeVotingEvent(string memory _eventIDStr) public {... */\n      pop\n      jump\t// out\n        /* \"test contracts/Voting.sol\":2631:2657  Vote[] public votesHistory */\n    tag_64:\n      0x09\n      dup2\n      dup2\n      sload\n      dup2\n      lt\n      tag_218\n      jumpi\n      0x00\n      dup1\n      revert\n    tag_218:\n      swap1\n      0x00\n      mstore\n      keccak256(0x00, 0x20)\n      swap1\n      0x03\n      mul\n      add\n      0x00\n      swap2\n      pop\n      swap1\n      pop\n      dup1\n      0x00\n      add\n      0x00\n      swap1\n      sload\n      swap1\n      0x0100\n      exp\n      swap1\n      div\n      0xffffffffffffffffffffffffffffffffffffffff\n      and\n      swap1\n      dup1\n      0x01\n      add\n      sload\n      swap1\n      dup1\n      0x02\n      add\n      sload\n      swap1\n      pop\n      dup4\n      jump\t// out\n        /* \"test contracts/Voting.sol\":1775:1820  mapping(bytes32 => Vote[]) public voteByEvent */\n    tag_69:\n      mstore(0x20, 0x03)\n      dup2\n      0x00\n      mstore\n      keccak256(0x00, 0x40)\n      dup2\n      dup2\n      sload\n      dup2\n      lt\n      tag_220\n      jumpi\n      0x00\n      dup1\n      revert\n    tag_220:\n      swap1\n      0x00\n      mstore\n      keccak256(0x00, 0x20)\n      swap1\n      0x03\n      mul\n      add\n      0x00\n      swap2\n      pop\n      swap2\n      pop\n      pop\n      dup1\n      0x00\n      add\n      0x00\n      swap1\n      sload\n      swap1\n      0x0100\n      exp\n      swap1\n      div\n      0xffffffffffffffffffffffffffffffffffffffff\n      and\n      swap1\n      dup1\n      0x01\n      add\n      sload\n      swap1\n      dup1\n      0x02\n      add\n      sload\n      swap1\n      pop\n      dup4\n      jump\t// out\n        /* \"test contracts/Voting.sol\":3875:4580  function getVotingEvent(string memory _eventID) public view returns (... */\n    tag_73:\n        /* \"test contracts/Voting.sol\":3954:3975  string memory eventID */\n      0x60\n        /* \"test contracts/Voting.sol\":3986:4005  string memory title */\n      dup1\n        /* \"test contracts/Voting.sol\":4016:4033  uint256 startDate */\n      0x00\n        /* \"test contracts/Voting.sol\":4044:4059  uint256 endDate */\n      dup1\n        /* \"test contracts/Voting.sol\":4070:4087  address createdBy */\n      0x00\n        /* \"test contracts/Voting.sol\":4098:4110  uint8 status */\n      dup1\n        /* \"test contracts/Voting.sol\":4121:4151  address[] memory candidateList */\n      0x60\n        /* \"test contracts/Voting.sol\":4162:4188  address[] memory voterList */\n      dup1\n        /* \"test contracts/Voting.sol\":4207:4237  VotingEvent memory votingEvent */\n      0x00\n        /* \"test contracts/Voting.sol\":4240:4252  votingEvents */\n      0x01\n        /* \"test contracts/Voting.sol\":4240:4279  votingEvents[stringToBytes32(_eventID)] */\n      0x00\n        /* \"test contracts/Voting.sol\":4253:4278  stringToBytes32(_eventID) */\n      tag_223\n        /* \"test contracts/Voting.sol\":4269:4277  _eventID */\n      dup13\n        /* \"test contracts/Voting.sol\":4253:4268  stringToBytes32 */\n      tag_148\n        /* \"test contracts/Voting.sol\":4253:4278  stringToBytes32(_eventID) */\n      jump\t// in\n    tag_223:\n        /* \"test contracts/Voting.sol\":4240:4279  votingEvents[stringToBytes32(_eventID)] */\n      dup2\n      mstore\n      0x20\n      add\n      swap1\n      dup2\n      mstore\n      0x20\n      add\n      0x00\n      keccak256\n        /* \"test contracts/Voting.sol\":4207:4279  VotingEvent memory votingEvent = votingEvents[stringToBytes32(_eventID)] */\n      mload(0x40)\n      dup1\n      0x0100\n      add\n      0x40\n      mstore\n      swap1\n      dup2\n      0x00\n      dup3\n      add\n      sload\n      dup2\n      mstore\n      0x20\n      add\n      0x01\n      dup3\n      add\n      dup1\n      sload\n      tag_224\n      swap1\n      tag_225\n      jump\t// in\n    tag_224:\n      dup1\n      0x1f\n      add\n      0x20\n      dup1\n      swap2\n      div\n      mul\n      0x20\n      add\n      mload(0x40)\n      swap1\n      dup2\n      add\n      0x40\n      mstore\n      dup1\n      swap3\n      swap2\n      swap1\n      dup2\n      dup2\n      mstore\n      0x20\n      add\n      dup3\n      dup1\n      sload\n      tag_226\n      swap1\n      tag_225\n      jump\t// in\n    tag_226:\n      dup1\n      iszero\n      tag_227\n      jumpi\n      dup1\n      0x1f\n      lt\n      tag_228\n      jumpi\n      0x0100\n      dup1\n      dup4\n      sload\n      div\n      mul\n      dup4\n      mstore\n      swap2\n      0x20\n      add\n      swap2\n      jump(tag_227)\n    tag_228:\n      dup3\n      add\n      swap2\n      swap1\n      0x00\n      mstore\n      keccak256(0x00, 0x20)\n      swap1\n    tag_229:\n      dup2\n      sload\n      dup2\n      mstore\n      swap1\n      0x01\n      add\n      swap1\n      0x20\n      add\n      dup1\n      dup4\n      gt\n      tag_229\n      jumpi\n      dup3\n      swap1\n      sub\n      0x1f\n      and\n      dup3\n      add\n      swap2\n    tag_227:\n      pop\n      pop\n      pop\n      pop\n      pop\n      dup2\n      mstore\n      0x20\n      add\n      0x02\n      dup3\n      add\n      sload\n      dup2\n      mstore\n      0x20\n      add\n      0x03\n      dup3\n      add\n      sload\n      dup2\n      mstore\n      0x20\n      add\n      0x04\n      dup3\n      add\n      0x00\n      swap1\n      sload\n      swap1\n      0x0100\n      exp\n      swap1\n      div\n      0xffffffffffffffffffffffffffffffffffffffff\n      and\n      0xffffffffffffffffffffffffffffffffffffffff\n      and\n      0xffffffffffffffffffffffffffffffffffffffff\n      and\n      dup2\n      mstore\n      0x20\n      add\n      0x04\n      dup3\n      add\n      0x14\n      swap1\n      sload\n      swap1\n      0x0100\n      exp\n      swap1\n      div\n      0xff\n      and\n      0xff\n      and\n      0xff\n      and\n      dup2\n      mstore\n      0x20\n      add\n      0x05\n      dup3\n      add\n      dup1\n      sload\n      dup1\n      0x20\n      mul\n      0x20\n      add\n      mload(0x40)\n      swap1\n      dup2\n      add\n      0x40\n      mstore\n      dup1\n      swap3\n      swap2\n      swap1\n      dup2\n      dup2\n      mstore\n      0x20\n      add\n      dup3\n      dup1\n      sload\n      dup1\n      iszero\n      tag_230\n      jumpi\n      0x20\n      mul\n      dup3\n      add\n      swap2\n      swap1\n      0x00\n      mstore\n      keccak256(0x00, 0x20)\n      swap1\n    tag_231:\n      dup2\n      0x00\n      swap1\n      sload\n      swap1\n      0x0100\n      exp\n      swap1\n      div\n      0xffffffffffffffffffffffffffffffffffffffff\n      and\n      0xffffffffffffffffffffffffffffffffffffffff\n      and\n      dup2\n      mstore\n      0x20\n      add\n      swap1\n      0x01\n      add\n      swap1\n      dup1\n      dup4\n      gt\n      tag_231\n      jumpi\n    tag_230:\n      pop\n      pop\n      pop\n      pop\n      pop\n      dup2\n      mstore\n      0x20\n      add\n      0x06\n      dup3\n      add\n      dup1\n      sload\n      dup1\n      0x20\n      mul\n      0x20\n      add\n      mload(0x40)\n      swap1\n      dup2\n      add\n      0x40\n      mstore\n      dup1\n      swap3\n      swap2\n      swap1\n      dup2\n      dup2\n      mstore\n      0x20\n      add\n      dup3\n      dup1\n      sload\n      dup1\n      iszero\n      tag_232\n      jumpi\n      0x20\n      mul\n      dup3\n      add\n      swap2\n      swap1\n      0x00\n      mstore\n      keccak256(0x00, 0x20)\n      swap1\n    tag_233:\n      dup2\n      0x00\n      swap1\n      sload\n      swap1\n      0x0100\n      exp\n      swap1\n      div\n      0xffffffffffffffffffffffffffffffffffffffff\n      and\n      0xffffffffffffffffffffffffffffffffffffffff\n      and\n      dup2\n      mstore\n      0x20\n      add\n      swap1\n      0x01\n      add\n      swap1\n      dup1\n      dup4\n      gt\n      tag_233\n      jumpi\n    tag_232:\n      pop\n      pop\n      pop\n      pop\n      pop\n      dup2\n      mstore\n      pop\n      pop\n      swap1\n      pop\n        /* \"test contracts/Voting.sol\":4312:4320  _eventID */\n      dup10\n        /* \"test contracts/Voting.sol\":4335:4346  votingEvent */\n      dup2\n        /* \"test contracts/Voting.sol\":4335:4352  votingEvent.title */\n      0x20\n      add\n      mload\n        /* \"test contracts/Voting.sol\":4367:4378  votingEvent */\n      dup3\n        /* \"test contracts/Voting.sol\":4367:4388  votingEvent.startDate */\n      0x40\n      add\n      mload\n        /* \"test contracts/Voting.sol\":4403:4414  votingEvent */\n      dup4\n        /* \"test contracts/Voting.sol\":4403:4422  votingEvent.endDate */\n      0x60\n      add\n      mload\n        /* \"test contracts/Voting.sol\":4437:4448  votingEvent */\n      dup5\n        /* \"test contracts/Voting.sol\":4437:4458  votingEvent.createdBy */\n      0x80\n      add\n      mload\n        /* \"test contracts/Voting.sol\":4473:4484  votingEvent */\n      dup6\n        /* \"test contracts/Voting.sol\":4473:4491  votingEvent.status */\n      0xa0\n      add\n      mload\n        /* \"test contracts/Voting.sol\":4506:4517  votingEvent */\n      dup7\n        /* \"test contracts/Voting.sol\":4506:4528  votingEvent.candidates */\n      0xc0\n      add\n      mload\n        /* \"test contracts/Voting.sol\":4543:4554  votingEvent */\n      dup8\n        /* \"test contracts/Voting.sol\":4543:4561  votingEvent.voters */\n      0xe0\n      add\n      mload\n        /* \"test contracts/Voting.sol\":4290:4572  return (... */\n      swap9\n      pop\n      swap9\n      pop\n      swap9\n      pop\n      swap9\n      pop\n      swap9\n      pop\n      swap9\n      pop\n      swap9\n      pop\n      swap9\n      pop\n      pop\n        /* \"test contracts/Voting.sol\":3875:4580  function getVotingEvent(string memory _eventID) public view returns (... */\n      swap2\n      swap4\n      swap6\n      swap8\n      pop\n      swap2\n      swap4\n      swap6\n      swap8\n      jump\t// out\n        /* \"test contracts/Voting.sol\":1892:1939  mapping(address => Candidate) public candidates */\n    tag_79:\n      mstore(0x20, 0x04)\n      dup1\n      0x00\n      mstore\n      keccak256(0x00, 0x40)\n      0x00\n      swap2\n      pop\n      swap1\n      pop\n      dup1\n      0x00\n      add\n      sload\n      swap1\n      dup1\n      0x01\n      add\n      0x00\n      swap1\n      sload\n      swap1\n      0x0100\n      exp\n      swap1\n      div\n      0xffffffffffffffffffffffffffffffffffffffff\n      and\n      swap1\n      dup1\n      0x02\n      add\n      sload\n      swap1\n      pop\n      dup4\n      jump\t// out\n        /* \"test contracts/Voting.sol\":7293:8182  function updateVotingEvent(... */\n    tag_84:\n        /* \"test contracts/Voting.sol\":7492:7508  bytes32 _eventID */\n      0x00\n        /* \"test contracts/Voting.sol\":7511:7539  stringToBytes32(_eventIDStr) */\n      tag_235\n        /* \"test contracts/Voting.sol\":7527:7538  _eventIDStr */\n      dup7\n        /* \"test contracts/Voting.sol\":7511:7526  stringToBytes32 */\n      tag_148\n        /* \"test contracts/Voting.sol\":7511:7539  stringToBytes32(_eventIDStr) */\n      jump\t// in\n    tag_235:\n        /* \"test contracts/Voting.sol\":7492:7539  bytes32 _eventID = stringToBytes32(_eventIDStr) */\n      swap1\n      pop\n        /* \"test contracts/Voting.sol\":7550:7581  VotingEvent storage votingEvent */\n      0x00\n        /* \"test contracts/Voting.sol\":7584:7596  votingEvents */\n      0x01\n        /* \"test contracts/Voting.sol\":7584:7606  votingEvents[_eventID] */\n      0x00\n        /* \"test contracts/Voting.sol\":7597:7605  _eventID */\n      dup4\n        /* \"test contracts/Voting.sol\":7584:7606  votingEvents[_eventID] */\n      dup2\n      mstore\n      0x20\n      add\n      swap1\n      dup2\n      mstore\n      0x20\n      add\n      0x00\n      keccak256\n        /* \"test contracts/Voting.sol\":7550:7606  VotingEvent storage votingEvent = votingEvents[_eventID] */\n      swap1\n      pop\n        /* \"test contracts/Voting.sol\":7658:7659  0 */\n      0x00\n        /* \"test contracts/Voting.sol\":7650:7660  bytes32(0) */\n      dup1\n      shl\n        /* \"test contracts/Voting.sol\":7627:7638  votingEvent */\n      dup2\n        /* \"test contracts/Voting.sol\":7627:7646  votingEvent.eventID */\n      0x00\n      add\n      sload\n        /* \"test contracts/Voting.sol\":7627:7660  votingEvent.eventID != bytes32(0) */\n      sub\n        /* \"test contracts/Voting.sol\":7619:7692  require(votingEvent.eventID != bytes32(0), \"Voting event does not exist\") */\n      tag_236\n      jumpi\n      mload(0x40)\n      0x08c379a000000000000000000000000000000000000000000000000000000000\n      dup2\n      mstore\n      0x04\n      add\n      tag_237\n      swap1\n      tag_165\n      jump\t// in\n    tag_237:\n      mload(0x40)\n      dup1\n      swap2\n      sub\n      swap1\n      revert\n    tag_236:\n        /* \"test contracts/Voting.sol\":7725:7736  votingEvent */\n      dup1\n        /* \"test contracts/Voting.sol\":7725:7746  votingEvent.createdBy */\n      0x04\n      add\n      0x00\n      swap1\n      sload\n      swap1\n      0x0100\n      exp\n      swap1\n      div\n      0xffffffffffffffffffffffffffffffffffffffff\n      and\n        /* \"test contracts/Voting.sol\":7711:7746  msg.sender == votingEvent.createdBy */\n      0xffffffffffffffffffffffffffffffffffffffff\n      and\n        /* \"test contracts/Voting.sol\":7711:7721  msg.sender */\n      caller\n        /* \"test contracts/Voting.sol\":7711:7746  msg.sender == votingEvent.createdBy */\n      0xffffffffffffffffffffffffffffffffffffffff\n      and\n      eq\n        /* \"test contracts/Voting.sol\":7711:7769  msg.sender == votingEvent.createdBy || msg.sender == admin */\n      dup1\n      tag_238\n      jumpi\n      pop\n        /* \"test contracts/Voting.sol\":7764:7769  admin */\n      0x00\n      dup1\n      sload\n      swap1\n      0x0100\n      exp\n      swap1\n      div\n      0xffffffffffffffffffffffffffffffffffffffff\n      and\n        /* \"test contracts/Voting.sol\":7750:7769  msg.sender == admin */\n      0xffffffffffffffffffffffffffffffffffffffff\n      and\n        /* \"test contracts/Voting.sol\":7750:7760  msg.sender */\n      caller\n        /* \"test contracts/Voting.sol\":7750:7769  msg.sender == admin */\n      0xffffffffffffffffffffffffffffffffffffffff\n      and\n      eq\n        /* \"test contracts/Voting.sol\":7711:7769  msg.sender == votingEvent.createdBy || msg.sender == admin */\n    tag_238:\n        /* \"test contracts/Voting.sol\":7703:7803  require(msg.sender == votingEvent.createdBy || msg.sender == admin, \"Only event creator can update\") */\n      tag_239\n      jumpi\n      mload(0x40)\n      0x08c379a000000000000000000000000000000000000000000000000000000000\n      dup2\n      mstore\n      0x04\n      add\n      tag_240\n      swap1\n      tag_241\n      jump\t// in\n    tag_240:\n      mload(0x40)\n      dup1\n      swap2\n      sub\n      swap1\n      revert\n    tag_239:\n        /* \"test contracts/Voting.sol\":7840:7851  votingEvent */\n      dup1\n        /* \"test contracts/Voting.sol\":7840:7861  votingEvent.startDate */\n      0x02\n      add\n      sload\n        /* \"test contracts/Voting.sol\":7822:7837  block.timestamp */\n      timestamp\n        /* \"test contracts/Voting.sol\":7822:7861  block.timestamp < votingEvent.startDate */\n      lt\n        /* \"test contracts/Voting.sol\":7814:7902  require(block.timestamp < votingEvent.startDate, \"Event already started, cannot update\") */\n      tag_242\n      jumpi\n      mload(0x40)\n      0x08c379a000000000000000000000000000000000000000000000000000000000\n      dup2\n      mstore\n      0x04\n      add\n      tag_243\n      swap1\n      tag_244\n      jump\t// in\n    tag_243:\n      mload(0x40)\n      dup1\n      swap2\n      sub\n      swap1\n      revert\n    tag_242:\n        /* \"test contracts/Voting.sol\":7968:7974  _title */\n      dup6\n        /* \"test contracts/Voting.sol\":7948:7959  votingEvent */\n      dup2\n        /* \"test contracts/Voting.sol\":7948:7965  votingEvent.title */\n      0x01\n      add\n        /* \"test contracts/Voting.sol\":7948:7974  votingEvent.title = _title */\n      swap1\n      dup2\n      tag_245\n      swap2\n      swap1\n      tag_246\n      jump\t// in\n    tag_245:\n      pop\n        /* \"test contracts/Voting.sol\":8009:8019  _startDate */\n      dup5\n        /* \"test contracts/Voting.sol\":7985:7996  votingEvent */\n      dup2\n        /* \"test contracts/Voting.sol\":7985:8006  votingEvent.startDate */\n      0x02\n      add\n        /* \"test contracts/Voting.sol\":7985:8019  votingEvent.startDate = _startDate */\n      dup2\n      swap1\n      sstore\n      pop\n        /* \"test contracts/Voting.sol\":8052:8060  _endDate */\n      dup4\n        /* \"test contracts/Voting.sol\":8030:8041  votingEvent */\n      dup2\n        /* \"test contracts/Voting.sol\":8030:8049  votingEvent.endDate */\n      0x03\n      add\n        /* \"test contracts/Voting.sol\":8030:8060  votingEvent.endDate = _endDate */\n      dup2\n      swap1\n      sstore\n      pop\n        /* \"test contracts/Voting.sol\":8092:8099  _status */\n      dup3\n        /* \"test contracts/Voting.sol\":8071:8082  votingEvent */\n      dup2\n        /* \"test contracts/Voting.sol\":8071:8089  votingEvent.status */\n      0x04\n      add\n      0x14\n        /* \"test contracts/Voting.sol\":8071:8099  votingEvent.status = _status */\n      0x0100\n      exp\n      dup2\n      sload\n      dup2\n      0xff\n      mul\n      not\n      and\n      swap1\n      dup4\n      0xff\n      and\n      mul\n      or\n      swap1\n      sstore\n      pop\n        /* \"test contracts/Voting.sol\":8165:8173  _eventID */\n      dup2\n        /* \"test contracts/Voting.sol\":8147:8174  VotingEventUpdate(_eventID) */\n      0x7645214750df1b9537c4c3a9ee0317a94bd6e880bfd45aa461dc1deacb3a5155\n      mload(0x40)\n      mload(0x40)\n      dup1\n      swap2\n      sub\n      swap1\n      log2\n        /* \"test contracts/Voting.sol\":7481:8182  {... */\n      pop\n      pop\n        /* \"test contracts/Voting.sol\":7293:8182  function updateVotingEvent(... */\n      pop\n      pop\n      pop\n      pop\n      pop\n      jump\t// out\n        /* \"test contracts/Voting.sol\":4618:5150  function getCandidateDetails(... */\n    tag_88:\n        /* \"test contracts/Voting.sol\":4761:4782  address walletAddress */\n      0x00\n        /* \"test contracts/Voting.sol\":4793:4814  uint256 votesReceived */\n      dup1\n        /* \"test contracts/Voting.sol\":4833:4849  bytes32 _eventID */\n      0x00\n        /* \"test contracts/Voting.sol\":4852:4880  stringToBytes32(_eventIDStr) */\n      tag_248\n        /* \"test contracts/Voting.sol\":4868:4879  _eventIDStr */\n      dup6\n        /* \"test contracts/Voting.sol\":4852:4867  stringToBytes32 */\n      tag_148\n        /* \"test contracts/Voting.sol\":4852:4880  stringToBytes32(_eventIDStr) */\n      jump\t// in\n    tag_248:\n        /* \"test contracts/Voting.sol\":4833:4880  bytes32 _eventID = stringToBytes32(_eventIDStr) */\n      swap1\n      pop\n        /* \"test contracts/Voting.sol\":4891:4911  bytes32 _candidateID */\n      0x00\n        /* \"test contracts/Voting.sol\":4914:4946  stringToBytes32(_candidateIDStr) */\n      tag_249\n        /* \"test contracts/Voting.sol\":4930:4945  _candidateIDStr */\n      dup6\n        /* \"test contracts/Voting.sol\":4914:4929  stringToBytes32 */\n      tag_148\n        /* \"test contracts/Voting.sol\":4914:4946  stringToBytes32(_candidateIDStr) */\n      jump\t// in\n    tag_249:\n        /* \"test contracts/Voting.sol\":4891:4946  bytes32 _candidateID = stringToBytes32(_candidateIDStr) */\n      swap1\n      pop\n        /* \"test contracts/Voting.sol\":4967:4993  Candidate memory candidate */\n      0x00\n        /* \"test contracts/Voting.sol\":4996:5013  candidatesByEvent */\n      0x05\n        /* \"test contracts/Voting.sol\":4996:5023  candidatesByEvent[_eventID] */\n      0x00\n        /* \"test contracts/Voting.sol\":5014:5022  _eventID */\n      dup5\n        /* \"test contracts/Voting.sol\":4996:5023  candidatesByEvent[_eventID] */\n      dup2\n      mstore\n      0x20\n      add\n      swap1\n      dup2\n      mstore\n      0x20\n      add\n      0x00\n      keccak256\n        /* \"test contracts/Voting.sol\":4996:5037  candidatesByEvent[_eventID][_candidateID] */\n      0x00\n        /* \"test contracts/Voting.sol\":5024:5036  _candidateID */\n      dup4\n        /* \"test contracts/Voting.sol\":4996:5037  candidatesByEvent[_eventID][_candidateID] */\n      dup2\n      mstore\n      0x20\n      add\n      swap1\n      dup2\n      mstore\n      0x20\n      add\n      0x00\n      keccak256\n        /* \"test contracts/Voting.sol\":4967:5037  Candidate memory candidate = candidatesByEvent[_eventID][_candidateID] */\n      mload(0x40)\n      dup1\n      0x60\n      add\n      0x40\n      mstore\n      swap1\n      dup2\n      0x00\n      dup3\n      add\n      sload\n      dup2\n      mstore\n      0x20\n      add\n      0x01\n      dup3\n      add\n      0x00\n      swap1\n      sload\n      swap1\n      0x0100\n      exp\n      swap1\n      div\n      0xffffffffffffffffffffffffffffffffffffffff\n      and\n      0xffffffffffffffffffffffffffffffffffffffff\n      and\n      0xffffffffffffffffffffffffffffffffffffffff\n      and\n      dup2\n      mstore\n      0x20\n      add\n      0x02\n      dup3\n      add\n      sload\n      dup2\n      mstore\n      pop\n      pop\n      swap1\n      pop\n        /* \"test contracts/Voting.sol\":5070:5079  candidate */\n      dup1\n        /* \"test contracts/Voting.sol\":5070:5093  candidate.walletAddress */\n      0x20\n      add\n      mload\n        /* \"test contracts/Voting.sol\":5108:5117  candidate */\n      dup2\n        /* \"test contracts/Voting.sol\":5108:5131  candidate.votesReceived */\n      0x40\n      add\n      mload\n        /* \"test contracts/Voting.sol\":5048:5142  return (... */\n      swap5\n      pop\n      swap5\n      pop\n      pop\n      pop\n      pop\n        /* \"test contracts/Voting.sol\":4618:5150  function getCandidateDetails(... */\n      swap3\n      pop\n      swap3\n      swap1\n      pop\n      jump\t// out\n        /* \"test contracts/Voting.sol\":2427:2487  mapping(bytes32 => mapping(address => bool)) public hasVoted */\n    tag_94:\n      mstore(0x20, 0x08)\n      dup2\n      0x00\n      mstore\n      mstore(0x20, keccak256(0x00, 0x40))\n      dup1\n      0x00\n      mstore\n      keccak256(0x00, 0x40)\n      0x00\n      swap2\n      pop\n      swap2\n      pop\n      swap1\n      sload\n      swap1\n      0x0100\n      exp\n      swap1\n      div\n      0xff\n      and\n      dup2\n      jump\t// out\n        /* \"test contracts/Voting.sol\":6141:7165  function createVotingEvent(... */\n    tag_100:\n        /* \"test contracts/Voting.sol\":6316:6332  bytes32 _eventID */\n      0x00\n        /* \"test contracts/Voting.sol\":6335:6363  stringToBytes32(_eventIDStr) */\n      tag_251\n        /* \"test contracts/Voting.sol\":6351:6362  _eventIDStr */\n      dup6\n        /* \"test contracts/Voting.sol\":6335:6350  stringToBytes32 */\n      tag_148\n        /* \"test contracts/Voting.sol\":6335:6363  stringToBytes32(_eventIDStr) */\n      jump\t// in\n    tag_251:\n        /* \"test contracts/Voting.sol\":6316:6363  bytes32 _eventID = stringToBytes32(_eventIDStr) */\n      swap1\n      pop\n        /* \"test contracts/Voting.sol\":6512:6513  0 */\n      0x00\n        /* \"test contracts/Voting.sol\":6504:6514  bytes32(0) */\n      dup1\n      shl\n        /* \"test contracts/Voting.sol\":6470:6482  votingEvents */\n      0x01\n        /* \"test contracts/Voting.sol\":6470:6492  votingEvents[_eventID] */\n      0x00\n        /* \"test contracts/Voting.sol\":6483:6491  _eventID */\n      dup4\n        /* \"test contracts/Voting.sol\":6470:6492  votingEvents[_eventID] */\n      dup2\n      mstore\n      0x20\n      add\n      swap1\n      dup2\n      mstore\n      0x20\n      add\n      0x00\n      keccak256\n        /* \"test contracts/Voting.sol\":6470:6500  votingEvents[_eventID].eventID */\n      0x00\n      add\n      sload\n        /* \"test contracts/Voting.sol\":6470:6514  votingEvents[_eventID].eventID == bytes32(0) */\n      eq\n        /* \"test contracts/Voting.sol\":6462:6548  require(votingEvents[_eventID].eventID == bytes32(0), \"Voting Event already existed.\") */\n      tag_252\n      jumpi\n      mload(0x40)\n      0x08c379a000000000000000000000000000000000000000000000000000000000\n      dup2\n      mstore\n      0x04\n      add\n      tag_253\n      swap1\n      tag_254\n      jump\t// in\n    tag_253:\n      mload(0x40)\n      dup1\n      swap2\n      sub\n      swap1\n      revert\n    tag_252:\n        /* \"test contracts/Voting.sol\":6561:6588  VotingEvent memory newEvent */\n      0x00\n        /* \"test contracts/Voting.sol\":6591:6909  VotingEvent({... */\n      mload(0x40)\n      dup1\n      0x0100\n      add\n      0x40\n      mstore\n      dup1\n        /* \"test contracts/Voting.sol\":6627:6635  _eventID */\n      dup4\n        /* \"test contracts/Voting.sol\":6591:6909  VotingEvent({... */\n      dup2\n      mstore\n      0x20\n      add\n        /* \"test contracts/Voting.sol\":6657:6663  _title */\n      dup7\n        /* \"test contracts/Voting.sol\":6591:6909  VotingEvent({... */\n      dup2\n      mstore\n      0x20\n      add\n        /* \"test contracts/Voting.sol\":6689:6699  _startDate */\n      dup6\n        /* \"test contracts/Voting.sol\":6591:6909  VotingEvent({... */\n      dup2\n      mstore\n      0x20\n      add\n        /* \"test contracts/Voting.sol\":6723:6731  _endDate */\n      dup5\n        /* \"test contracts/Voting.sol\":6591:6909  VotingEvent({... */\n      dup2\n      mstore\n      0x20\n      add\n        /* \"test contracts/Voting.sol\":6757:6767  msg.sender */\n      caller\n        /* \"test contracts/Voting.sol\":6591:6909  VotingEvent({... */\n      0xffffffffffffffffffffffffffffffffffffffff\n      and\n      dup2\n      mstore\n      0x20\n      add\n        /* \"test contracts/Voting.sol\":6790:6791  0 */\n      0x00\n        /* \"test contracts/Voting.sol\":6591:6909  VotingEvent({... */\n      0xff\n      and\n      dup2\n      mstore\n      0x20\n      add\n        /* \"test contracts/Voting.sol\":6856:6857  0 */\n      0x00\n        /* \"test contracts/Voting.sol\":6842:6858  new address[](0) */\n      0xffffffffffffffff\n      dup2\n      gt\n      iszero\n      tag_255\n      jumpi\n      tag_256\n      tag_130\n      jump\t// in\n    tag_256:\n    tag_255:\n      mload(0x40)\n      swap1\n      dup1\n      dup3\n      mstore\n      dup1\n      0x20\n      mul\n      0x20\n      add\n      dup3\n      add\n      0x40\n      mstore\n      dup1\n      iszero\n      tag_257\n      jumpi\n      dup2\n      0x20\n      add\n      0x20\n      dup3\n      mul\n      dup1\n      calldatasize\n      dup4\n      calldatacopy\n      dup1\n      dup3\n      add\n      swap2\n      pop\n      pop\n      swap1\n      pop\n    tag_257:\n      pop\n        /* \"test contracts/Voting.sol\":6591:6909  VotingEvent({... */\n      dup2\n      mstore\n      0x20\n      add\n        /* \"test contracts/Voting.sol\":6895:6896  0 */\n      0x00\n        /* \"test contracts/Voting.sol\":6881:6897  new address[](0) */\n      0xffffffffffffffff\n      dup2\n      gt\n      iszero\n      tag_258\n      jumpi\n      tag_259\n      tag_130\n      jump\t// in\n    tag_259:\n    tag_258:\n      mload(0x40)\n      swap1\n      dup1\n      dup3\n      mstore\n      dup1\n      0x20\n      mul\n      0x20\n      add\n      dup3\n      add\n      0x40\n      mstore\n      dup1\n      iszero\n      tag_260\n      jumpi\n      dup2\n      0x20\n      add\n      0x20\n      dup3\n      mul\n      dup1\n      calldatasize\n      dup4\n      calldatacopy\n      dup1\n      dup3\n      add\n      swap2\n      pop\n      pop\n      swap1\n      pop\n    tag_260:\n      pop\n        /* \"test contracts/Voting.sol\":6591:6909  VotingEvent({... */\n      dup2\n      mstore\n      pop\n        /* \"test contracts/Voting.sol\":6561:6909  VotingEvent memory newEvent = VotingEvent({... */\n      swap1\n      pop\n        /* \"test contracts/Voting.sol\":6990:6998  newEvent */\n      dup1\n        /* \"test contracts/Voting.sol\":6965:6977  votingEvents */\n      0x01\n        /* \"test contracts/Voting.sol\":6965:6987  votingEvents[_eventID] */\n      0x00\n        /* \"test contracts/Voting.sol\":6978:6986  _eventID */\n      dup5\n        /* \"test contracts/Voting.sol\":6965:6987  votingEvents[_eventID] */\n      dup2\n      mstore\n      0x20\n      add\n      swap1\n      dup2\n      mstore\n      0x20\n      add\n      0x00\n      keccak256\n        /* \"test contracts/Voting.sol\":6965:6998  votingEvents[_eventID] = newEvent */\n      0x00\n      dup3\n      add\n      mload\n      dup2\n      0x00\n      add\n      sstore\n      0x20\n      dup3\n      add\n      mload\n      dup2\n      0x01\n      add\n      swap1\n      dup2\n      tag_261\n      swap2\n      swap1\n      tag_246\n      jump\t// in\n    tag_261:\n      pop\n      0x40\n      dup3\n      add\n      mload\n      dup2\n      0x02\n      add\n      sstore\n      0x60\n      dup3\n      add\n      mload\n      dup2\n      0x03\n      add\n      sstore\n      0x80\n      dup3\n      add\n      mload\n      dup2\n      0x04\n      add\n      exp(0x0100, 0x00)\n      dup2\n      sload\n      dup2\n      0xffffffffffffffffffffffffffffffffffffffff\n      mul\n      not\n      and\n      swap1\n      dup4\n      0xffffffffffffffffffffffffffffffffffffffff\n      and\n      mul\n      or\n      swap1\n      sstore\n      pop\n      0xa0\n      dup3\n      add\n      mload\n      dup2\n      0x04\n      add\n      exp(0x0100, 0x14)\n      dup2\n      sload\n      dup2\n      0xff\n      mul\n      not\n      and\n      swap1\n      dup4\n      0xff\n      and\n      mul\n      or\n      swap1\n      sstore\n      pop\n      0xc0\n      dup3\n      add\n      mload\n      dup2\n      0x05\n      add\n      swap1\n      dup1\n      mload\n      swap1\n      0x20\n      add\n      swap1\n      tag_262\n      swap3\n      swap2\n      swap1\n      tag_263\n      jump\t// in\n    tag_262:\n      pop\n      0xe0\n      dup3\n      add\n      mload\n      dup2\n      0x06\n      add\n      swap1\n      dup1\n      mload\n      swap1\n      0x20\n      add\n      swap1\n      tag_264\n      swap3\n      swap2\n      swap1\n      tag_263\n      jump\t// in\n    tag_264:\n      pop\n      swap1\n      pop\n      pop\n        /* \"test contracts/Voting.sol\":7047:7065  votingEventIDsList */\n      0x0a\n        /* \"test contracts/Voting.sol\":7071:7079  _eventID */\n      dup3\n        /* \"test contracts/Voting.sol\":7047:7080  votingEventIDsList.push(_eventID) */\n      swap1\n      dup1\n      0x01\n      dup2\n      sload\n      add\n      dup1\n      dup3\n      sstore\n      dup1\n      swap2\n      pop\n      pop\n      0x01\n      swap1\n      sub\n      swap1\n      0x00\n      mstore\n      keccak256(0x00, 0x20)\n      add\n      0x00\n      swap1\n      swap2\n      swap1\n      swap2\n      swap1\n      swap2\n      pop\n      sstore\n        /* \"test contracts/Voting.sol\":7148:7156  _eventID */\n      dup2\n        /* \"test contracts/Voting.sol\":7130:7157  VotingEventCreate(_eventID) */\n      0x78d8d0fb0effbc7a876f2a98c46e64bad75370010baad95700b5c4af4d04e369\n      mload(0x40)\n      mload(0x40)\n      dup1\n      swap2\n      sub\n      swap1\n      log2\n        /* \"test contracts/Voting.sol\":6305:7165  {... */\n      pop\n      pop\n        /* \"test contracts/Voting.sol\":6141:7165  function createVotingEvent(... */\n      pop\n      pop\n      pop\n      pop\n      jump\t// out\n        /* \"test contracts/Voting.sol\":9050:10919  function castVote(... */\n    tag_103:\n        /* \"test contracts/Voting.sol\":9169:9185  bytes32 _eventID */\n      0x00\n        /* \"test contracts/Voting.sol\":9188:9216  stringToBytes32(_eventIDStr) */\n      tag_267\n        /* \"test contracts/Voting.sol\":9204:9215  _eventIDStr */\n      dup4\n        /* \"test contracts/Voting.sol\":9188:9203  stringToBytes32 */\n      tag_148\n        /* \"test contracts/Voting.sol\":9188:9216  stringToBytes32(_eventIDStr) */\n      jump\t// in\n    tag_267:\n        /* \"test contracts/Voting.sol\":9169:9216  bytes32 _eventID = stringToBytes32(_eventIDStr) */\n      swap1\n      pop\n        /* \"test contracts/Voting.sol\":9227:9247  bytes32 _candidateID */\n      0x00\n        /* \"test contracts/Voting.sol\":9250:9282  stringToBytes32(_candidateIDStr) */\n      tag_268\n        /* \"test contracts/Voting.sol\":9266:9281  _candidateIDStr */\n      dup4\n        /* \"test contracts/Voting.sol\":9250:9265  stringToBytes32 */\n      tag_148\n        /* \"test contracts/Voting.sol\":9250:9282  stringToBytes32(_candidateIDStr) */\n      jump\t// in\n    tag_268:\n        /* \"test contracts/Voting.sol\":9227:9282  bytes32 _candidateID = stringToBytes32(_candidateIDStr) */\n      swap1\n      pop\n        /* \"test contracts/Voting.sol\":9293:9324  VotingEvent storage votingEvent */\n      0x00\n        /* \"test contracts/Voting.sol\":9327:9339  votingEvents */\n      0x01\n        /* \"test contracts/Voting.sol\":9327:9349  votingEvents[_eventID] */\n      0x00\n        /* \"test contracts/Voting.sol\":9340:9348  _eventID */\n      dup5\n        /* \"test contracts/Voting.sol\":9327:9349  votingEvents[_eventID] */\n      dup2\n      mstore\n      0x20\n      add\n      swap1\n      dup2\n      mstore\n      0x20\n      add\n      0x00\n      keccak256\n        /* \"test contracts/Voting.sol\":9293:9349  VotingEvent storage votingEvent = votingEvents[_eventID] */\n      swap1\n      pop\n        /* \"test contracts/Voting.sol\":9401:9402  0 */\n      0x00\n        /* \"test contracts/Voting.sol\":9393:9403  bytes32(0) */\n      dup1\n      shl\n        /* \"test contracts/Voting.sol\":9370:9381  votingEvent */\n      dup2\n        /* \"test contracts/Voting.sol\":9370:9389  votingEvent.eventID */\n      0x00\n      add\n      sload\n        /* \"test contracts/Voting.sol\":9370:9403  votingEvent.eventID != bytes32(0) */\n      sub\n        /* \"test contracts/Voting.sol\":9362:9435  require(votingEvent.eventID != bytes32(0), \"Voting event does not exist\") */\n      tag_269\n      jumpi\n      mload(0x40)\n      0x08c379a000000000000000000000000000000000000000000000000000000000\n      dup2\n      mstore\n      0x04\n      add\n      tag_270\n      swap1\n      tag_165\n      jump\t// in\n    tag_270:\n      mload(0x40)\n      dup1\n      swap2\n      sub\n      swap1\n      revert\n    tag_269:\n        /* \"test contracts/Voting.sol\":9455:9463  hasVoted */\n      0x08\n        /* \"test contracts/Voting.sol\":9455:9473  hasVoted[_eventID] */\n      0x00\n        /* \"test contracts/Voting.sol\":9464:9472  _eventID */\n      dup5\n        /* \"test contracts/Voting.sol\":9455:9473  hasVoted[_eventID] */\n      dup2\n      mstore\n      0x20\n      add\n      swap1\n      dup2\n      mstore\n      0x20\n      add\n      0x00\n      keccak256\n        /* \"test contracts/Voting.sol\":9455:9485  hasVoted[_eventID][msg.sender] */\n      0x00\n        /* \"test contracts/Voting.sol\":9474:9484  msg.sender */\n      caller\n        /* \"test contracts/Voting.sol\":9455:9485  hasVoted[_eventID][msg.sender] */\n      0xffffffffffffffffffffffffffffffffffffffff\n      and\n      0xffffffffffffffffffffffffffffffffffffffff\n      and\n      dup2\n      mstore\n      0x20\n      add\n      swap1\n      dup2\n      mstore\n      0x20\n      add\n      0x00\n      keccak256\n      0x00\n      swap1\n      sload\n      swap1\n      0x0100\n      exp\n      swap1\n      div\n      0xff\n      and\n        /* \"test contracts/Voting.sol\":9454:9485  !hasVoted[_eventID][msg.sender] */\n      iszero\n        /* \"test contracts/Voting.sol\":9446:9517  require(!hasVoted[_eventID][msg.sender], \"Already voted in this event\") */\n      tag_271\n      jumpi\n      mload(0x40)\n      0x08c379a000000000000000000000000000000000000000000000000000000000\n      dup2\n      mstore\n      0x04\n      add\n      tag_272\n      swap1\n      tag_273\n      jump\t// in\n    tag_272:\n      mload(0x40)\n      dup1\n      swap2\n      sub\n      swap1\n      revert\n    tag_271:\n        /* \"test contracts/Voting.sol\":9555:9566  votingEvent */\n      dup1\n        /* \"test contracts/Voting.sol\":9555:9576  votingEvent.startDate */\n      0x02\n      add\n      sload\n        /* \"test contracts/Voting.sol\":9536:9551  block.timestamp */\n      timestamp\n        /* \"test contracts/Voting.sol\":9536:9576  block.timestamp >= votingEvent.startDate */\n      lt\n      iszero\n        /* \"test contracts/Voting.sol\":9536:9618  block.timestamp >= votingEvent.startDate && block.timestamp <= votingEvent.endDate */\n      dup1\n      iszero\n      tag_274\n      jumpi\n      pop\n        /* \"test contracts/Voting.sol\":9599:9610  votingEvent */\n      dup1\n        /* \"test contracts/Voting.sol\":9599:9618  votingEvent.endDate */\n      0x03\n      add\n      sload\n        /* \"test contracts/Voting.sol\":9580:9595  block.timestamp */\n      timestamp\n        /* \"test contracts/Voting.sol\":9580:9618  block.timestamp <= votingEvent.endDate */\n      gt\n      iszero\n        /* \"test contracts/Voting.sol\":9536:9618  block.timestamp >= votingEvent.startDate && block.timestamp <= votingEvent.endDate */\n    tag_274:\n        /* \"test contracts/Voting.sol\":9528:9640  require(block.timestamp >= votingEvent.startDate && block.timestamp <= votingEvent.endDate, \"Voting not active\") */\n      tag_275\n      jumpi\n      mload(0x40)\n      0x08c379a000000000000000000000000000000000000000000000000000000000\n      dup2\n      mstore\n      0x04\n      add\n      tag_276\n      swap1\n      tag_277\n      jump\t// in\n    tag_276:\n      mload(0x40)\n      dup1\n      swap2\n      sub\n      swap1\n      revert\n    tag_275:\n        /* \"test contracts/Voting.sol\":9673:9684  votingEvent */\n      dup1\n        /* \"test contracts/Voting.sol\":9673:9694  votingEvent.createdBy */\n      0x04\n      add\n      0x00\n      swap1\n      sload\n      swap1\n      0x0100\n      exp\n      swap1\n      div\n      0xffffffffffffffffffffffffffffffffffffffff\n      and\n        /* \"test contracts/Voting.sol\":9659:9694  msg.sender != votingEvent.createdBy */\n      0xffffffffffffffffffffffffffffffffffffffff\n      and\n        /* \"test contracts/Voting.sol\":9659:9669  msg.sender */\n      caller\n        /* \"test contracts/Voting.sol\":9659:9694  msg.sender != votingEvent.createdBy */\n      0xffffffffffffffffffffffffffffffffffffffff\n      and\n      eq\n      iszero\n        /* \"test contracts/Voting.sol\":9659:9717  msg.sender != votingEvent.createdBy && msg.sender != admin */\n      dup1\n      iszero\n      tag_278\n      jumpi\n      pop\n        /* \"test contracts/Voting.sol\":9712:9717  admin */\n      0x00\n      dup1\n      sload\n      swap1\n      0x0100\n      exp\n      swap1\n      div\n      0xffffffffffffffffffffffffffffffffffffffff\n      and\n        /* \"test contracts/Voting.sol\":9698:9717  msg.sender != admin */\n      0xffffffffffffffffffffffffffffffffffffffff\n      and\n        /* \"test contracts/Voting.sol\":9698:9708  msg.sender */\n      caller\n        /* \"test contracts/Voting.sol\":9698:9717  msg.sender != admin */\n      0xffffffffffffffffffffffffffffffffffffffff\n      and\n      eq\n      iszero\n        /* \"test contracts/Voting.sol\":9659:9717  msg.sender != votingEvent.createdBy && msg.sender != admin */\n    tag_278:\n        /* \"test contracts/Voting.sol\":9651:9768  require(msg.sender != votingEvent.createdBy && msg.sender != admin, \"Voting event creator and the admin cannot vote\") */\n      tag_279\n      jumpi\n      mload(0x40)\n      0x08c379a000000000000000000000000000000000000000000000000000000000\n      dup2\n      mstore\n      0x04\n      add\n      tag_280\n      swap1\n      tag_281\n      jump\t// in\n    tag_280:\n      mload(0x40)\n      dup1\n      swap2\n      sub\n      swap1\n      revert\n    tag_279:\n        /* \"test contracts/Voting.sol\":9894:9895  0 */\n      0x00\n        /* \"test contracts/Voting.sol\":9827:9896  candidatesByEvent[_eventID][_candidateID].walletAddress != address(0) */\n      0xffffffffffffffffffffffffffffffffffffffff\n      and\n        /* \"test contracts/Voting.sol\":9827:9844  candidatesByEvent */\n      0x05\n        /* \"test contracts/Voting.sol\":9827:9854  candidatesByEvent[_eventID] */\n      0x00\n        /* \"test contracts/Voting.sol\":9845:9853  _eventID */\n      dup6\n        /* \"test contracts/Voting.sol\":9827:9854  candidatesByEvent[_eventID] */\n      dup2\n      mstore\n      0x20\n      add\n      swap1\n      dup2\n      mstore\n      0x20\n      add\n      0x00\n      keccak256\n        /* \"test contracts/Voting.sol\":9827:9868  candidatesByEvent[_eventID][_candidateID] */\n      0x00\n        /* \"test contracts/Voting.sol\":9855:9867  _candidateID */\n      dup5\n        /* \"test contracts/Voting.sol\":9827:9868  candidatesByEvent[_eventID][_candidateID] */\n      dup2\n      mstore\n      0x20\n      add\n      swap1\n      dup2\n      mstore\n      0x20\n      add\n      0x00\n      keccak256\n        /* \"test contracts/Voting.sol\":9827:9882  candidatesByEvent[_eventID][_candidateID].walletAddress */\n      0x01\n      add\n      0x00\n      swap1\n      sload\n      swap1\n      0x0100\n      exp\n      swap1\n      div\n      0xffffffffffffffffffffffffffffffffffffffff\n      and\n        /* \"test contracts/Voting.sol\":9827:9896  candidatesByEvent[_eventID][_candidateID].walletAddress != address(0) */\n      0xffffffffffffffffffffffffffffffffffffffff\n      and\n      sub\n        /* \"test contracts/Voting.sol\":9819:9925  require(candidatesByEvent[_eventID][_candidateID].walletAddress != address(0), \"Candidate does not exist\") */\n      tag_282\n      jumpi\n      mload(0x40)\n      0x08c379a000000000000000000000000000000000000000000000000000000000\n      dup2\n      mstore\n      0x04\n      add\n      tag_283\n      swap1\n      tag_284\n      jump\t// in\n    tag_283:\n      mload(0x40)\n      dup1\n      swap2\n      sub\n      swap1\n      revert\n    tag_282:\n        /* \"test contracts/Voting.sol\":9999:10015  bool isCandidate */\n      0x00\n        /* \"test contracts/Voting.sol\":10039:10048  uint256 i */\n      dup1\n        /* \"test contracts/Voting.sol\":10034:10242  for (uint256 i = 0; i < votingEvent.candidates.length; i++) {... */\n    tag_285:\n        /* \"test contracts/Voting.sol\":10058:10069  votingEvent */\n      dup3\n        /* \"test contracts/Voting.sol\":10058:10080  votingEvent.candidates */\n      0x05\n      add\n        /* \"test contracts/Voting.sol\":10058:10087  votingEvent.candidates.length */\n      dup1\n      sload\n      swap1\n      pop\n        /* \"test contracts/Voting.sol\":10054:10055  i */\n      dup2\n        /* \"test contracts/Voting.sol\":10054:10087  i < votingEvent.candidates.length */\n      lt\n        /* \"test contracts/Voting.sol\":10034:10242  for (uint256 i = 0; i < votingEvent.candidates.length; i++) {... */\n      iszero\n      tag_286\n      jumpi\n        /* \"test contracts/Voting.sol\":10142:10152  msg.sender */\n      caller\n        /* \"test contracts/Voting.sol\":10113:10152  votingEvent.candidates[i] == msg.sender */\n      0xffffffffffffffffffffffffffffffffffffffff\n      and\n        /* \"test contracts/Voting.sol\":10113:10124  votingEvent */\n      dup4\n        /* \"test contracts/Voting.sol\":10113:10135  votingEvent.candidates */\n      0x05\n      add\n        /* \"test contracts/Voting.sol\":10136:10137  i */\n      dup3\n        /* \"test contracts/Voting.sol\":10113:10138  votingEvent.candidates[i] */\n      dup2\n      sload\n      dup2\n      lt\n      tag_288\n      jumpi\n      tag_289\n      tag_139\n      jump\t// in\n    tag_289:\n    tag_288:\n      swap1\n      0x00\n      mstore\n      keccak256(0x00, 0x20)\n      add\n      0x00\n      swap1\n      sload\n      swap1\n      0x0100\n      exp\n      swap1\n      div\n      0xffffffffffffffffffffffffffffffffffffffff\n      and\n        /* \"test contracts/Voting.sol\":10113:10152  votingEvent.candidates[i] == msg.sender */\n      0xffffffffffffffffffffffffffffffffffffffff\n      and\n      sub\n        /* \"test contracts/Voting.sol\":10109:10231  if (votingEvent.candidates[i] == msg.sender) {... */\n      tag_291\n      jumpi\n        /* \"test contracts/Voting.sol\":10187:10191  true */\n      0x01\n        /* \"test contracts/Voting.sol\":10173:10191  isCandidate = true */\n      swap2\n      pop\n        /* \"test contracts/Voting.sol\":10210:10215  break */\n      jump(tag_286)\n        /* \"test contracts/Voting.sol\":10109:10231  if (votingEvent.candidates[i] == msg.sender) {... */\n    tag_291:\n        /* \"test contracts/Voting.sol\":10089:10092  i++ */\n      dup1\n      dup1\n      0x01\n      add\n      swap2\n      pop\n      pop\n        /* \"test contracts/Voting.sol\":10034:10242  for (uint256 i = 0; i < votingEvent.candidates.length; i++) {... */\n      jump(tag_285)\n    tag_286:\n      pop\n        /* \"test contracts/Voting.sol\":10261:10272  isCandidate */\n      dup1\n        /* \"test contracts/Voting.sol\":10260:10272  !isCandidate */\n      iszero\n        /* \"test contracts/Voting.sol\":10252:10312  require(!isCandidate, \"Candidate cannot vote in this event\") */\n      tag_292\n      jumpi\n      mload(0x40)\n      0x08c379a000000000000000000000000000000000000000000000000000000000\n      dup2\n      mstore\n      0x04\n      add\n      tag_293\n      swap1\n      tag_294\n      jump\t// in\n    tag_293:\n      mload(0x40)\n      dup1\n      swap2\n      sub\n      swap1\n      revert\n    tag_292:\n        /* \"test contracts/Voting.sol\":10349:10368  Vote memory newVote */\n      0x00\n        /* \"test contracts/Voting.sol\":10371:10501  Vote({... */\n      mload(0x40)\n      dup1\n      0x60\n      add\n      0x40\n      mstore\n      dup1\n        /* \"test contracts/Voting.sol\":10398:10408  msg.sender */\n      caller\n        /* \"test contracts/Voting.sol\":10371:10501  Vote({... */\n      0xffffffffffffffffffffffffffffffffffffffff\n      and\n      dup2\n      mstore\n      0x20\n      add\n        /* \"test contracts/Voting.sol\":10436:10448  _candidateID */\n      dup6\n        /* \"test contracts/Voting.sol\":10371:10501  Vote({... */\n      dup2\n      mstore\n      0x20\n      add\n        /* \"test contracts/Voting.sol\":10474:10489  block.timestamp */\n      timestamp\n        /* \"test contracts/Voting.sol\":10371:10501  Vote({... */\n      dup2\n      mstore\n      pop\n        /* \"test contracts/Voting.sol\":10349:10501  Vote memory newVote = Vote({... */\n      swap1\n      pop\n        /* \"test contracts/Voting.sol\":10557:10578  voteCountsByCandidate */\n      0x07\n        /* \"test contracts/Voting.sol\":10557:10588  voteCountsByCandidate[_eventID] */\n      0x00\n        /* \"test contracts/Voting.sol\":10579:10587  _eventID */\n      dup7\n        /* \"test contracts/Voting.sol\":10557:10588  voteCountsByCandidate[_eventID] */\n      dup2\n      mstore\n      0x20\n      add\n      swap1\n      dup2\n      mstore\n      0x20\n      add\n      0x00\n      keccak256\n        /* \"test contracts/Voting.sol\":10557:10602  voteCountsByCandidate[_eventID][_candidateID] */\n      0x00\n        /* \"test contracts/Voting.sol\":10589:10601  _candidateID */\n      dup6\n        /* \"test contracts/Voting.sol\":10557:10602  voteCountsByCandidate[_eventID][_candidateID] */\n      dup2\n      mstore\n      0x20\n      add\n      swap1\n      dup2\n      mstore\n      0x20\n      add\n      0x00\n      keccak256\n      0x00\n        /* \"test contracts/Voting.sol\":10557:10604  voteCountsByCandidate[_eventID][_candidateID]++ */\n      dup2\n      sload\n      dup1\n      swap3\n      swap2\n      swap1\n      tag_295\n      swap1\n      tag_296\n      jump\t// in\n    tag_295:\n      swap2\n      swap1\n      pop\n      sstore\n      pop\n        /* \"test contracts/Voting.sol\":10615:10632  candidatesByEvent */\n      0x05\n        /* \"test contracts/Voting.sol\":10615:10642  candidatesByEvent[_eventID] */\n      0x00\n        /* \"test contracts/Voting.sol\":10633:10641  _eventID */\n      dup7\n        /* \"test contracts/Voting.sol\":10615:10642  candidatesByEvent[_eventID] */\n      dup2\n      mstore\n      0x20\n      add\n      swap1\n      dup2\n      mstore\n      0x20\n      add\n      0x00\n      keccak256\n        /* \"test contracts/Voting.sol\":10615:10656  candidatesByEvent[_eventID][_candidateID] */\n      0x00\n        /* \"test contracts/Voting.sol\":10643:10655  _candidateID */\n      dup6\n        /* \"test contracts/Voting.sol\":10615:10656  candidatesByEvent[_eventID][_candidateID] */\n      dup2\n      mstore\n      0x20\n      add\n      swap1\n      dup2\n      mstore\n      0x20\n      add\n      0x00\n      keccak256\n        /* \"test contracts/Voting.sol\":10615:10670  candidatesByEvent[_eventID][_candidateID].votesReceived */\n      0x02\n      add\n      0x00\n        /* \"test contracts/Voting.sol\":10615:10672  candidatesByEvent[_eventID][_candidateID].votesReceived++ */\n      dup2\n      sload\n      dup1\n      swap3\n      swap2\n      swap1\n      tag_297\n      swap1\n      tag_296\n      jump\t// in\n    tag_297:\n      swap2\n      swap1\n      pop\n      sstore\n      pop\n        /* \"test contracts/Voting.sol\":10716:10720  true */\n      0x01\n        /* \"test contracts/Voting.sol\":10683:10691  hasVoted */\n      0x08\n        /* \"test contracts/Voting.sol\":10683:10701  hasVoted[_eventID] */\n      0x00\n        /* \"test contracts/Voting.sol\":10692:10700  _eventID */\n      dup8\n        /* \"test contracts/Voting.sol\":10683:10701  hasVoted[_eventID] */\n      dup2\n      mstore\n      0x20\n      add\n      swap1\n      dup2\n      mstore\n      0x20\n      add\n      0x00\n      keccak256\n        /* \"test contracts/Voting.sol\":10683:10713  hasVoted[_eventID][msg.sender] */\n      0x00\n        /* \"test contracts/Voting.sol\":10702:10712  msg.sender */\n      caller\n        /* \"test contracts/Voting.sol\":10683:10713  hasVoted[_eventID][msg.sender] */\n      0xffffffffffffffffffffffffffffffffffffffff\n      and\n      0xffffffffffffffffffffffffffffffffffffffff\n      and\n      dup2\n      mstore\n      0x20\n      add\n      swap1\n      dup2\n      mstore\n      0x20\n      add\n      0x00\n      keccak256\n      0x00\n        /* \"test contracts/Voting.sol\":10683:10720  hasVoted[_eventID][msg.sender] = true */\n      0x0100\n      exp\n      dup2\n      sload\n      dup2\n      0xff\n      mul\n      not\n      and\n      swap1\n      dup4\n      iszero\n      iszero\n      mul\n      or\n      swap1\n      sstore\n      pop\n        /* \"test contracts/Voting.sol\":10731:10743  votesHistory */\n      0x09\n        /* \"test contracts/Voting.sol\":10749:10756  newVote */\n      dup2\n        /* \"test contracts/Voting.sol\":10731:10757  votesHistory.push(newVote) */\n      swap1\n      dup1\n      0x01\n      dup2\n      sload\n      add\n      dup1\n      dup3\n      sstore\n      dup1\n      swap2\n      pop\n      pop\n      0x01\n      swap1\n      sub\n      swap1\n      0x00\n      mstore\n      keccak256(0x00, 0x20)\n      swap1\n      0x03\n      mul\n      add\n      0x00\n      swap1\n      swap2\n      swap1\n      swap2\n      swap1\n      swap2\n      pop\n      0x00\n      dup3\n      add\n      mload\n      dup2\n      0x00\n      add\n      exp(0x0100, 0x00)\n      dup2\n      sload\n      dup2\n      0xffffffffffffffffffffffffffffffffffffffff\n      mul\n      not\n      and\n      swap1\n      dup4\n      0xffffffffffffffffffffffffffffffffffffffff\n      and\n      mul\n      or\n      swap1\n      sstore\n      pop\n      0x20\n      dup3\n      add\n      mload\n      dup2\n      0x01\n      add\n      sstore\n      0x40\n      dup3\n      add\n      mload\n      dup2\n      0x02\n      add\n      sstore\n      pop\n      pop\n        /* \"test contracts/Voting.sol\":10768:10779  voteByEvent */\n      0x03\n        /* \"test contracts/Voting.sol\":10768:10789  voteByEvent[_eventID] */\n      0x00\n        /* \"test contracts/Voting.sol\":10780:10788  _eventID */\n      dup7\n        /* \"test contracts/Voting.sol\":10768:10789  voteByEvent[_eventID] */\n      dup2\n      mstore\n      0x20\n      add\n      swap1\n      dup2\n      mstore\n      0x20\n      add\n      0x00\n      keccak256\n        /* \"test contracts/Voting.sol\":10795:10802  newVote */\n      dup2\n        /* \"test contracts/Voting.sol\":10768:10803  voteByEvent[_eventID].push(newVote) */\n      swap1\n      dup1\n      0x01\n      dup2\n      sload\n      add\n      dup1\n      dup3\n      sstore\n      dup1\n      swap2\n      pop\n      pop\n      0x01\n      swap1\n      sub\n      swap1\n      0x00\n      mstore\n      keccak256(0x00, 0x20)\n      swap1\n      0x03\n      mul\n      add\n      0x00\n      swap1\n      swap2\n      swap1\n      swap2\n      swap1\n      swap2\n      pop\n      0x00\n      dup3\n      add\n      mload\n      dup2\n      0x00\n      add\n      exp(0x0100, 0x00)\n      dup2\n      sload\n      dup2\n      0xffffffffffffffffffffffffffffffffffffffff\n      mul\n      not\n      and\n      swap1\n      dup4\n      0xffffffffffffffffffffffffffffffffffffffff\n      and\n      mul\n      or\n      swap1\n      sstore\n      pop\n      0x20\n      dup3\n      add\n      mload\n      dup2\n      0x01\n      add\n      sstore\n      0x40\n      dup3\n      add\n      mload\n      dup2\n      0x02\n      add\n      sstore\n      pop\n      pop\n        /* \"test contracts/Voting.sol\":10814:10825  votingEvent */\n      dup3\n        /* \"test contracts/Voting.sol\":10814:10832  votingEvent.voters */\n      0x06\n      add\n        /* \"test contracts/Voting.sol\":10838:10848  msg.sender */\n      caller\n        /* \"test contracts/Voting.sol\":10814:10849  votingEvent.voters.push(msg.sender) */\n      swap1\n      dup1\n      0x01\n      dup2\n      sload\n      add\n      dup1\n      dup3\n      sstore\n      dup1\n      swap2\n      pop\n      pop\n      0x01\n      swap1\n      sub\n      swap1\n      0x00\n      mstore\n      keccak256(0x00, 0x20)\n      add\n      0x00\n      swap1\n      swap2\n      swap1\n      swap2\n      swap1\n      swap2\n      0x0100\n      exp\n      dup2\n      sload\n      dup2\n      0xffffffffffffffffffffffffffffffffffffffff\n      mul\n      not\n      and\n      swap1\n      dup4\n      0xffffffffffffffffffffffffffffffffffffffff\n      and\n      mul\n      or\n      swap1\n      sstore\n      pop\n        /* \"test contracts/Voting.sol\":10886:10896  msg.sender */\n      caller\n        /* \"test contracts/Voting.sol\":10867:10911  VoteCast(_eventID, msg.sender, _candidateID) */\n      0xffffffffffffffffffffffffffffffffffffffff\n      and\n        /* \"test contracts/Voting.sol\":10876:10884  _eventID */\n      dup6\n        /* \"test contracts/Voting.sol\":10867:10911  VoteCast(_eventID, msg.sender, _candidateID) */\n      0x779ee41b2705bb84b68826be94f592204565aed7b9a6d8b5a0a8e1a03f551cce\n        /* \"test contracts/Voting.sol\":10898:10910  _candidateID */\n      dup7\n        /* \"test contracts/Voting.sol\":10867:10911  VoteCast(_eventID, msg.sender, _candidateID) */\n      mload(0x40)\n      tag_301\n      swap2\n      swap1\n      tag_36\n      jump\t// in\n    tag_301:\n      mload(0x40)\n      dup1\n      swap2\n      sub\n      swap1\n      log3\n        /* \"test contracts/Voting.sol\":9158:10919  {... */\n      pop\n      pop\n      pop\n      pop\n      pop\n        /* \"test contracts/Voting.sol\":9050:10919  function castVote(... */\n      pop\n      pop\n      jump\t// out\n        /* \"test contracts/Voting.sol\":2258:2334  mapping(bytes32 => mapping(bytes32 => uint256)) public voteCountsByCandidate */\n    tag_106:\n      mstore(0x20, 0x07)\n      dup2\n      0x00\n      mstore\n      mstore(0x20, keccak256(0x00, 0x40))\n      dup1\n      0x00\n      mstore\n      keccak256(0x00, 0x40)\n      0x00\n      swap2\n      pop\n      swap2\n      pop\n      pop\n      sload\n      dup2\n      jump\t// out\n        /* \"test contracts/Voting.sol\":1420:1471  mapping(bytes32 => VotingEvent) public votingEvents */\n    tag_112:\n      mstore(0x20, 0x01)\n      dup1\n      0x00\n      mstore\n      keccak256(0x00, 0x40)\n      0x00\n      swap2\n      pop\n      swap1\n      pop\n      dup1\n      0x00\n      add\n      sload\n      swap1\n      dup1\n      0x01\n      add\n      dup1\n      sload\n      tag_302\n      swap1\n      tag_225\n      jump\t// in\n    tag_302:\n      dup1\n      0x1f\n      add\n      0x20\n      dup1\n      swap2\n      div\n      mul\n      0x20\n      add\n      mload(0x40)\n      swap1\n      dup2\n      add\n      0x40\n      mstore\n      dup1\n      swap3\n      swap2\n      swap1\n      dup2\n      dup2\n      mstore\n      0x20\n      add\n      dup3\n      dup1\n      sload\n      tag_303\n      swap1\n      tag_225\n      jump\t// in\n    tag_303:\n      dup1\n      iszero\n      tag_304\n      jumpi\n      dup1\n      0x1f\n      lt\n      tag_305\n      jumpi\n      0x0100\n      dup1\n      dup4\n      sload\n      div\n      mul\n      dup4\n      mstore\n      swap2\n      0x20\n      add\n      swap2\n      jump(tag_304)\n    tag_305:\n      dup3\n      add\n      swap2\n      swap1\n      0x00\n      mstore\n      keccak256(0x00, 0x20)\n      swap1\n    tag_306:\n      dup2\n      sload\n      dup2\n      mstore\n      swap1\n      0x01\n      add\n      swap1\n      0x20\n      add\n      dup1\n      dup4\n      gt\n      tag_306\n      jumpi\n      dup3\n      swap1\n      sub\n      0x1f\n      and\n      dup3\n      add\n      swap2\n    tag_304:\n      pop\n      pop\n      pop\n      pop\n      pop\n      swap1\n      dup1\n      0x02\n      add\n      sload\n      swap1\n      dup1\n      0x03\n      add\n      sload\n      swap1\n      dup1\n      0x04\n      add\n      0x00\n      swap1\n      sload\n      swap1\n      0x0100\n      exp\n      swap1\n      div\n      0xffffffffffffffffffffffffffffffffffffffff\n      and\n      swap1\n      dup1\n      0x04\n      add\n      0x14\n      swap1\n      sload\n      swap1\n      0x0100\n      exp\n      swap1\n      div\n      0xff\n      and\n      swap1\n      pop\n      dup7\n      jump\t// out\n        /* \"test contracts/Voting.sol\":1622:1689  mapping(bytes32 => mapping(address => bool)) public hasVotedByEvent */\n    tag_117:\n      mstore(0x20, 0x02)\n      dup2\n      0x00\n      mstore\n      mstore(0x20, keccak256(0x00, 0x40))\n      dup1\n      0x00\n      mstore\n      keccak256(0x00, 0x40)\n      0x00\n      swap2\n      pop\n      swap2\n      pop\n      swap1\n      sload\n      swap1\n      0x0100\n      exp\n      swap1\n      div\n      0xff\n      and\n      dup2\n      jump\t// out\n        /* \"test contracts/Voting.sol\":140:160  address public admin */\n    tag_120:\n      0x00\n      dup1\n      sload\n      swap1\n      0x0100\n      exp\n      swap1\n      div\n      0xffffffffffffffffffffffffffffffffffffffff\n      and\n      dup2\n      jump\t// out\n        /* \"test contracts/Voting.sol\":13002:14167  function removeCandidate(string memory _eventIDStr, address _candidate) public {... */\n    tag_126:\n        /* \"test contracts/Voting.sol\":13092:13108  bytes32 _eventID */\n      0x00\n        /* \"test contracts/Voting.sol\":13111:13139  stringToBytes32(_eventIDStr) */\n      tag_308\n        /* \"test contracts/Voting.sol\":13127:13138  _eventIDStr */\n      dup4\n        /* \"test contracts/Voting.sol\":13111:13126  stringToBytes32 */\n      tag_148\n        /* \"test contracts/Voting.sol\":13111:13139  stringToBytes32(_eventIDStr) */\n      jump\t// in\n    tag_308:\n        /* \"test contracts/Voting.sol\":13092:13139  bytes32 _eventID = stringToBytes32(_eventIDStr) */\n      swap1\n      pop\n        /* \"test contracts/Voting.sol\":13150:13181  VotingEvent storage votingEvent */\n      0x00\n        /* \"test contracts/Voting.sol\":13184:13196  votingEvents */\n      0x01\n        /* \"test contracts/Voting.sol\":13184:13206  votingEvents[_eventID] */\n      0x00\n        /* \"test contracts/Voting.sol\":13197:13205  _eventID */\n      dup4\n        /* \"test contracts/Voting.sol\":13184:13206  votingEvents[_eventID] */\n      dup2\n      mstore\n      0x20\n      add\n      swap1\n      dup2\n      mstore\n      0x20\n      add\n      0x00\n      keccak256\n        /* \"test contracts/Voting.sol\":13150:13206  VotingEvent storage votingEvent = votingEvents[_eventID] */\n      swap1\n      pop\n        /* \"test contracts/Voting.sol\":13258:13259  0 */\n      0x00\n        /* \"test contracts/Voting.sol\":13250:13260  bytes32(0) */\n      dup1\n      shl\n        /* \"test contracts/Voting.sol\":13227:13238  votingEvent */\n      dup2\n        /* \"test contracts/Voting.sol\":13227:13246  votingEvent.eventID */\n      0x00\n      add\n      sload\n        /* \"test contracts/Voting.sol\":13227:13260  votingEvent.eventID != bytes32(0) */\n      sub\n        /* \"test contracts/Voting.sol\":13219:13292  require(votingEvent.eventID != bytes32(0), \"Voting event does not exist\") */\n      tag_309\n      jumpi\n      mload(0x40)\n      0x08c379a000000000000000000000000000000000000000000000000000000000\n      dup2\n      mstore\n      0x04\n      add\n      tag_310\n      swap1\n      tag_165\n      jump\t// in\n    tag_310:\n      mload(0x40)\n      dup1\n      swap2\n      sub\n      swap1\n      revert\n    tag_309:\n        /* \"test contracts/Voting.sol\":13325:13336  votingEvent */\n      dup1\n        /* \"test contracts/Voting.sol\":13325:13346  votingEvent.createdBy */\n      0x04\n      add\n      0x00\n      swap1\n      sload\n      swap1\n      0x0100\n      exp\n      swap1\n      div\n      0xffffffffffffffffffffffffffffffffffffffff\n      and\n        /* \"test contracts/Voting.sol\":13311:13346  msg.sender == votingEvent.createdBy */\n      0xffffffffffffffffffffffffffffffffffffffff\n      and\n        /* \"test contracts/Voting.sol\":13311:13321  msg.sender */\n      caller\n        /* \"test contracts/Voting.sol\":13311:13346  msg.sender == votingEvent.createdBy */\n      0xffffffffffffffffffffffffffffffffffffffff\n      and\n      eq\n        /* \"test contracts/Voting.sol\":13311:13369  msg.sender == votingEvent.createdBy || msg.sender == admin */\n      dup1\n      tag_311\n      jumpi\n      pop\n        /* \"test contracts/Voting.sol\":13364:13369  admin */\n      0x00\n      dup1\n      sload\n      swap1\n      0x0100\n      exp\n      swap1\n      div\n      0xffffffffffffffffffffffffffffffffffffffff\n      and\n        /* \"test contracts/Voting.sol\":13350:13369  msg.sender == admin */\n      0xffffffffffffffffffffffffffffffffffffffff\n      and\n        /* \"test contracts/Voting.sol\":13350:13360  msg.sender */\n      caller\n        /* \"test contracts/Voting.sol\":13350:13369  msg.sender == admin */\n      0xffffffffffffffffffffffffffffffffffffffff\n      and\n      eq\n        /* \"test contracts/Voting.sol\":13311:13369  msg.sender == votingEvent.createdBy || msg.sender == admin */\n    tag_311:\n        /* \"test contracts/Voting.sol\":13303:13413  require(msg.sender == votingEvent.createdBy || msg.sender == admin, \"Only event creator can remove candidate\") */\n      tag_312\n      jumpi\n      mload(0x40)\n      0x08c379a000000000000000000000000000000000000000000000000000000000\n      dup2\n      mstore\n      0x04\n      add\n      tag_313\n      swap1\n      tag_314\n      jump\t// in\n    tag_313:\n      mload(0x40)\n      dup1\n      swap2\n      sub\n      swap1\n      revert\n    tag_312:\n        /* \"test contracts/Voting.sol\":13450:13461  votingEvent */\n      dup1\n        /* \"test contracts/Voting.sol\":13450:13471  votingEvent.startDate */\n      0x02\n      add\n      sload\n        /* \"test contracts/Voting.sol\":13432:13447  block.timestamp */\n      timestamp\n        /* \"test contracts/Voting.sol\":13432:13471  block.timestamp < votingEvent.startDate */\n      lt\n        /* \"test contracts/Voting.sol\":13424:13522  require(block.timestamp < votingEvent.startDate, \"Event already started, cannot remove candidate\") */\n      tag_315\n      jumpi\n      mload(0x40)\n      0x08c379a000000000000000000000000000000000000000000000000000000000\n      dup2\n      mstore\n      0x04\n      add\n      tag_316\n      swap1\n      tag_317\n      jump\t// in\n    tag_316:\n      mload(0x40)\n      dup1\n      swap2\n      sub\n      swap1\n      revert\n    tag_315:\n        /* \"test contracts/Voting.sol\":13535:13545  bool found */\n      0x00\n        /* \"test contracts/Voting.sol\":13569:13578  uint256 i */\n      dup1\n        /* \"test contracts/Voting.sol\":13564:14016  for (uint256 i = 0; i < votingEvent.candidates.length; i++) {... */\n    tag_318:\n        /* \"test contracts/Voting.sol\":13588:13599  votingEvent */\n      dup3\n        /* \"test contracts/Voting.sol\":13588:13610  votingEvent.candidates */\n      0x05\n      add\n        /* \"test contracts/Voting.sol\":13588:13617  votingEvent.candidates.length */\n      dup1\n      sload\n      swap1\n      pop\n        /* \"test contracts/Voting.sol\":13584:13585  i */\n      dup2\n        /* \"test contracts/Voting.sol\":13584:13617  i < votingEvent.candidates.length */\n      lt\n        /* \"test contracts/Voting.sol\":13564:14016  for (uint256 i = 0; i < votingEvent.candidates.length; i++) {... */\n      iszero\n      tag_319\n      jumpi\n        /* \"test contracts/Voting.sol\":13672:13682  _candidate */\n      dup5\n        /* \"test contracts/Voting.sol\":13643:13682  votingEvent.candidates[i] == _candidate */\n      0xffffffffffffffffffffffffffffffffffffffff\n      and\n        /* \"test contracts/Voting.sol\":13643:13654  votingEvent */\n      dup4\n        /* \"test contracts/Voting.sol\":13643:13665  votingEvent.candidates */\n      0x05\n      add\n        /* \"test contracts/Voting.sol\":13666:13667  i */\n      dup3\n        /* \"test contracts/Voting.sol\":13643:13668  votingEvent.candidates[i] */\n      dup2\n      sload\n      dup2\n      lt\n      tag_321\n      jumpi\n      tag_322\n      tag_139\n      jump\t// in\n    tag_322:\n    tag_321:\n      swap1\n      0x00\n      mstore\n      keccak256(0x00, 0x20)\n      add\n      0x00\n      swap1\n      sload\n      swap1\n      0x0100\n      exp\n      swap1\n      div\n      0xffffffffffffffffffffffffffffffffffffffff\n      and\n        /* \"test contracts/Voting.sol\":13643:13682  votingEvent.candidates[i] == _candidate */\n      0xffffffffffffffffffffffffffffffffffffffff\n      and\n      sub\n        /* \"test contracts/Voting.sol\":13639:14005  if (votingEvent.candidates[i] == _candidate) {... */\n      tag_324\n      jumpi\n        /* \"test contracts/Voting.sol\":13790:13801  votingEvent */\n      dup3\n        /* \"test contracts/Voting.sol\":13790:13812  votingEvent.candidates */\n      0x05\n      add\n        /* \"test contracts/Voting.sol\":13867:13868  1 */\n      0x01\n        /* \"test contracts/Voting.sol\":13835:13846  votingEvent */\n      dup5\n        /* \"test contracts/Voting.sol\":13835:13857  votingEvent.candidates */\n      0x05\n      add\n        /* \"test contracts/Voting.sol\":13835:13864  votingEvent.candidates.length */\n      dup1\n      sload\n      swap1\n      pop\n        /* \"test contracts/Voting.sol\":13835:13868  votingEvent.candidates.length - 1 */\n      tag_325\n      swap2\n      swap1\n      tag_326\n      jump\t// in\n    tag_325:\n        /* \"test contracts/Voting.sol\":13790:13887  votingEvent.candidates[... */\n      dup2\n      sload\n      dup2\n      lt\n      tag_327\n      jumpi\n      tag_328\n      tag_139\n      jump\t// in\n    tag_328:\n    tag_327:\n      swap1\n      0x00\n      mstore\n      keccak256(0x00, 0x20)\n      add\n      0x00\n      swap1\n      sload\n      swap1\n      0x0100\n      exp\n      swap1\n      div\n      0xffffffffffffffffffffffffffffffffffffffff\n      and\n        /* \"test contracts/Voting.sol\":13762:13773  votingEvent */\n      dup4\n        /* \"test contracts/Voting.sol\":13762:13784  votingEvent.candidates */\n      0x05\n      add\n        /* \"test contracts/Voting.sol\":13785:13786  i */\n      dup3\n        /* \"test contracts/Voting.sol\":13762:13787  votingEvent.candidates[i] */\n      dup2\n      sload\n      dup2\n      lt\n      tag_330\n      jumpi\n      tag_331\n      tag_139\n      jump\t// in\n    tag_331:\n    tag_330:\n      swap1\n      0x00\n      mstore\n      keccak256(0x00, 0x20)\n      add\n      0x00\n        /* \"test contracts/Voting.sol\":13762:13887  votingEvent.candidates[i] = votingEvent.candidates[... */\n      0x0100\n      exp\n      dup2\n      sload\n      dup2\n      0xffffffffffffffffffffffffffffffffffffffff\n      mul\n      not\n      and\n      swap1\n      dup4\n      0xffffffffffffffffffffffffffffffffffffffff\n      and\n      mul\n      or\n      swap1\n      sstore\n      pop\n        /* \"test contracts/Voting.sol\":13906:13917  votingEvent */\n      dup3\n        /* \"test contracts/Voting.sol\":13906:13928  votingEvent.candidates */\n      0x05\n      add\n        /* \"test contracts/Voting.sol\":13906:13934  votingEvent.candidates.pop() */\n      dup1\n      sload\n      dup1\n      tag_333\n      jumpi\n      tag_334\n      tag_335\n      jump\t// in\n    tag_334:\n    tag_333:\n      0x01\n      swap1\n      sub\n      dup2\n      dup2\n      swap1\n      0x00\n      mstore\n      keccak256(0x00, 0x20)\n      add\n      exp(0x0100, 0x00)\n      dup2\n      sload\n      swap1\n      0xffffffffffffffffffffffffffffffffffffffff\n      mul\n      not\n      and\n      swap1\n      sstore\n      swap1\n      sstore\n        /* \"test contracts/Voting.sol\":13961:13965  true */\n      0x01\n        /* \"test contracts/Voting.sol\":13953:13965  found = true */\n      swap2\n      pop\n        /* \"test contracts/Voting.sol\":13984:13989  break */\n      jump(tag_319)\n        /* \"test contracts/Voting.sol\":13639:14005  if (votingEvent.candidates[i] == _candidate) {... */\n    tag_324:\n        /* \"test contracts/Voting.sol\":13619:13622  i++ */\n      dup1\n      dup1\n      0x01\n      add\n      swap2\n      pop\n      pop\n        /* \"test contracts/Voting.sol\":13564:14016  for (uint256 i = 0; i < votingEvent.candidates.length; i++) {... */\n      jump(tag_318)\n    tag_319:\n      pop\n        /* \"test contracts/Voting.sol\":14034:14039  found */\n      dup1\n        /* \"test contracts/Voting.sol\":14026:14063  require(found, \"Candidate not found\") */\n      tag_337\n      jumpi\n      mload(0x40)\n      0x08c379a000000000000000000000000000000000000000000000000000000000\n      dup2\n      mstore\n      0x04\n      add\n      tag_338\n      swap1\n      tag_339\n      jump\t// in\n    tag_338:\n      mload(0x40)\n      dup1\n      swap2\n      sub\n      swap1\n      revert\n    tag_337:\n        /* \"test contracts/Voting.sol\":14138:14146  _eventID */\n      dup3\n        /* \"test contracts/Voting.sol\":14122:14159  CandidateRemove(_eventID, _candidate) */\n      0x0f086ba9a1f8f85a7a2069340133bc707fe5a25abb4f2b116a1010864b51d109\n        /* \"test contracts/Voting.sol\":14148:14158  _candidate */\n      dup6\n        /* \"test contracts/Voting.sol\":14122:14159  CandidateRemove(_eventID, _candidate) */\n      mload(0x40)\n      tag_340\n      swap2\n      swap1\n      tag_122\n      jump\t// in\n    tag_340:\n      mload(0x40)\n      dup1\n      swap2\n      sub\n      swap1\n      log2\n        /* \"test contracts/Voting.sol\":13081:14167  {... */\n      pop\n      pop\n      pop\n        /* \"test contracts/Voting.sol\":13002:14167  function removeCandidate(string memory _eventIDStr, address _candidate) public {... */\n      pop\n      pop\n      jump\t// out\n        /* \"test contracts/Voting.sol\":14637:15012  function bytes32ToString(bytes32 _bytes32) internal pure returns (string memory) {... */\n    tag_141:\n        /* \"test contracts/Voting.sol\":14703:14716  string memory */\n      0x60\n        /* \"test contracts/Voting.sol\":14729:14736  uint8 i */\n      0x00\n        /* \"test contracts/Voting.sol\":14751:14816  while (i < 32 && _bytes32[i] != 0) {... */\n    tag_342:\n        /* \"test contracts/Voting.sol\":14762:14764  32 */\n      0x20\n        /* \"test contracts/Voting.sol\":14758:14759  i */\n      dup2\n        /* \"test contracts/Voting.sol\":14758:14764  i < 32 */\n      0xff\n      and\n      lt\n        /* \"test contracts/Voting.sol\":14758:14784  i < 32 && _bytes32[i] != 0 */\n      dup1\n      iszero\n      tag_344\n      jumpi\n      pop\n        /* \"test contracts/Voting.sol\":14783:14784  0 */\n      0x00\n        /* \"test contracts/Voting.sol\":14768:14784  _bytes32[i] != 0 */\n      0xf8\n      shl\n        /* \"test contracts/Voting.sol\":14768:14776  _bytes32 */\n      dup4\n        /* \"test contracts/Voting.sol\":14777:14778  i */\n      dup3\n        /* \"test contracts/Voting.sol\":14768:14779  _bytes32[i] */\n      0xff\n      and\n      0x20\n      dup2\n      lt\n      tag_345\n      jumpi\n      tag_346\n      tag_139\n      jump\t// in\n    tag_346:\n    tag_345:\n      byte\n      0xf8\n      shl\n        /* \"test contracts/Voting.sol\":14768:14784  _bytes32[i] != 0 */\n      not(0xffffffffffffffffffffffffffffffffffffffffffffffffffffffffffffff)\n      and\n      eq\n      iszero\n        /* \"test contracts/Voting.sol\":14758:14784  i < 32 && _bytes32[i] != 0 */\n    tag_344:\n        /* \"test contracts/Voting.sol\":14751:14816  while (i < 32 && _bytes32[i] != 0) {... */\n      iszero\n      tag_343\n      jumpi\n        /* \"test contracts/Voting.sol\":14801:14804  i++ */\n      dup1\n      dup1\n      tag_347\n      swap1\n      tag_348\n      jump\t// in\n    tag_347:\n      swap2\n      pop\n      pop\n        /* \"test contracts/Voting.sol\":14751:14816  while (i < 32 && _bytes32[i] != 0) {... */\n      jump(tag_342)\n    tag_343:\n        /* \"test contracts/Voting.sol\":14826:14849  bytes memory bytesArray */\n      0x00\n        /* \"test contracts/Voting.sol\":14862:14863  i */\n      dup2\n        /* \"test contracts/Voting.sol\":14852:14864  new bytes(i) */\n      0xff\n      and\n      0xffffffffffffffff\n      dup2\n      gt\n      iszero\n      tag_349\n      jumpi\n      tag_350\n      tag_130\n      jump\t// in\n    tag_350:\n    tag_349:\n      mload(0x40)\n      swap1\n      dup1\n      dup3\n      mstore\n      dup1\n      0x1f\n      add\n      not(0x1f)\n      and\n      0x20\n      add\n      dup3\n      add\n      0x40\n      mstore\n      dup1\n      iszero\n      tag_351\n      jumpi\n      dup2\n      0x20\n      add\n      0x01\n      dup3\n      mul\n      dup1\n      calldatasize\n      dup4\n      calldatacopy\n      dup1\n      dup3\n      add\n      swap2\n      pop\n      pop\n      swap1\n      pop\n    tag_351:\n      pop\n        /* \"test contracts/Voting.sol\":14826:14864  bytes memory bytesArray = new bytes(i) */\n      swap1\n      pop\n        /* \"test contracts/Voting.sol\":14884:14885  0 */\n      0x00\n        /* \"test contracts/Voting.sol\":14880:14885  i = 0 */\n      swap2\n      pop\n        /* \"test contracts/Voting.sol\":14875:14969  for (i = 0; i < bytesArray.length; i++) {... */\n    tag_352:\n        /* \"test contracts/Voting.sol\":14891:14901  bytesArray */\n      dup1\n        /* \"test contracts/Voting.sol\":14891:14908  bytesArray.length */\n      mload\n        /* \"test contracts/Voting.sol\":14887:14888  i */\n      dup3\n        /* \"test contracts/Voting.sol\":14887:14908  i < bytesArray.length */\n      0xff\n      and\n      lt\n        /* \"test contracts/Voting.sol\":14875:14969  for (i = 0; i < bytesArray.length; i++) {... */\n      iszero\n      tag_353\n      jumpi\n        /* \"test contracts/Voting.sol\":14946:14954  _bytes32 */\n      dup4\n        /* \"test contracts/Voting.sol\":14955:14956  i */\n      dup3\n        /* \"test contracts/Voting.sol\":14946:14957  _bytes32[i] */\n      0xff\n      and\n      0x20\n      dup2\n      lt\n      tag_355\n      jumpi\n      tag_356\n      tag_139\n      jump\t// in\n    tag_356:\n    tag_355:\n      byte\n      0xf8\n      shl\n        /* \"test contracts/Voting.sol\":14930:14940  bytesArray */\n      dup2\n        /* \"test contracts/Voting.sol\":14941:14942  i */\n      dup4\n        /* \"test contracts/Voting.sol\":14930:14943  bytesArray[i] */\n      0xff\n      and\n      dup2\n      mload\n      dup2\n      lt\n      tag_357\n      jumpi\n      tag_358\n      tag_139\n      jump\t// in\n    tag_358:\n    tag_357:\n      0x20\n      add\n      add\n        /* \"test contracts/Voting.sol\":14930:14957  bytesArray[i] = _bytes32[i] */\n      swap1\n      not(0xffffffffffffffffffffffffffffffffffffffffffffffffffffffffffffff)\n      and\n      swap1\n      dup2\n      0x00\n      byte\n      swap1\n      mstore8\n      pop\n        /* \"test contracts/Voting.sol\":14910:14913  i++ */\n      dup2\n      dup1\n      tag_359\n      swap1\n      tag_348\n      jump\t// in\n    tag_359:\n      swap3\n      pop\n      pop\n        /* \"test contracts/Voting.sol\":14875:14969  for (i = 0; i < bytesArray.length; i++) {... */\n      jump(tag_352)\n    tag_353:\n        /* \"test contracts/Voting.sol\":14993:15003  bytesArray */\n      dup1\n        /* \"test contracts/Voting.sol\":14979:15004  return string(bytesArray) */\n      swap3\n      pop\n      pop\n      pop\n        /* \"test contracts/Voting.sol\":14637:15012  function bytes32ToString(bytes32 _bytes32) internal pure returns (string memory) {... */\n      swap2\n      swap1\n      pop\n      jump\t// out\n        /* \"test contracts/Voting.sol\":14310:14629  function stringToBytes32(string memory _string) internal pure returns (bytes32 result) {... */\n    tag_148:\n        /* \"test contracts/Voting.sol\":14381:14395  bytes32 result */\n      0x00\n        /* \"test contracts/Voting.sol\":14408:14440  bytes memory tempEmptyStringTest */\n      dup1\n        /* \"test contracts/Voting.sol\":14449:14456  _string */\n      dup3\n        /* \"test contracts/Voting.sol\":14408:14457  bytes memory tempEmptyStringTest = bytes(_string) */\n      swap1\n      pop\n        /* \"test contracts/Voting.sol\":14502:14503  0 */\n      0x00\n        /* \"test contracts/Voting.sol\":14472:14491  tempEmptyStringTest */\n      dup2\n        /* \"test contracts/Voting.sol\":14472:14498  tempEmptyStringTest.length */\n      mload\n        /* \"test contracts/Voting.sol\":14472:14503  tempEmptyStringTest.length == 0 */\n      sub\n        /* \"test contracts/Voting.sol\":14468:14542  if (tempEmptyStringTest.length == 0) {... */\n      tag_361\n      jumpi\n        /* \"test contracts/Voting.sol\":14527:14530  0x0 */\n      0x00\n        /* \"test contracts/Voting.sol\":14520:14530  return 0x0 */\n      dup1\n      shl\n      swap2\n      pop\n      pop\n      jump(tag_360)\n        /* \"test contracts/Voting.sol\":14468:14542  if (tempEmptyStringTest.length == 0) {... */\n    tag_361:\n        /* \"test contracts/Voting.sol\":14607:14609  32 */\n      0x20\n        /* \"test contracts/Voting.sol\":14598:14605  _string */\n      dup4\n        /* \"test contracts/Voting.sol\":14594:14610  add(_string, 32) */\n      add\n        /* \"test contracts/Voting.sol\":14588:14611  mload(add(_string, 32)) */\n      mload\n        /* \"test contracts/Voting.sol\":14578:14611  result := mload(add(_string, 32)) */\n      swap2\n      pop\n        /* \"test contracts/Voting.sol\":14563:14622  {... */\n      pop\n        /* \"test contracts/Voting.sol\":14310:14629  function stringToBytes32(string memory _string) internal pure returns (bytes32 result) {... */\n    tag_360:\n      swap2\n      swap1\n      pop\n      jump\t// out\n    tag_263:\n      dup3\n      dup1\n      sload\n      dup3\n      dup3\n      sstore\n      swap1\n      0x00\n      mstore\n      keccak256(0x00, 0x20)\n      swap1\n      dup2\n      add\n      swap3\n      dup3\n      iszero\n      tag_362\n      jumpi\n      swap2\n      0x20\n      mul\n      dup3\n      add\n    tag_363:\n      dup3\n      dup2\n      gt\n      iszero\n      tag_364\n      jumpi\n      dup3\n      mload\n      dup3\n      exp(0x0100, 0x00)\n      dup2\n      sload\n      dup2\n      0xffffffffffffffffffffffffffffffffffffffff\n      mul\n      not\n      and\n      swap1\n      dup4\n      0xffffffffffffffffffffffffffffffffffffffff\n      and\n      mul\n      or\n      swap1\n      sstore\n      pop\n      swap2\n      0x20\n      add\n      swap2\n      swap1\n      0x01\n      add\n      swap1\n      jump(tag_363)\n    tag_364:\n    tag_362:\n      pop\n      swap1\n      pop\n      tag_365\n      swap2\n      swap1\n      tag_366\n      jump\t// in\n    tag_365:\n      pop\n      swap1\n      jump\t// out\n    tag_366:\n    tag_367:\n      dup1\n      dup3\n      gt\n      iszero\n      tag_368\n      jumpi\n      0x00\n      dup2\n      0x00\n      swap1\n      sstore\n      pop\n      0x01\n      add\n      jump(tag_367)\n    tag_368:\n      pop\n      swap1\n      jump\t// out\n        /* \"#utility.yul\":7:131   */\n    tag_369:\n        /* \"#utility.yul\":84:90   */\n      0x00\n        /* \"#utility.yul\":118:123   */\n      dup2\n        /* \"#utility.yul\":112:124   */\n      mload\n        /* \"#utility.yul\":102:124   */\n      swap1\n      pop\n        /* \"#utility.yul\":7:131   */\n      swap2\n      swap1\n      pop\n      jump\t// out\n        /* \"#utility.yul\":137:331   */\n    tag_370:\n        /* \"#utility.yul\":246:257   */\n      0x00\n        /* \"#utility.yul\":280:286   */\n      dup3\n        /* \"#utility.yul\":275:278   */\n      dup3\n        /* \"#utility.yul\":268:287   */\n      mstore\n        /* \"#utility.yul\":320:324   */\n      0x20\n        /* \"#utility.yul\":315:318   */\n      dup3\n        /* \"#utility.yul\":311:325   */\n      add\n        /* \"#utility.yul\":296:325   */\n      swap1\n      pop\n        /* \"#utility.yul\":137:331   */\n      swap3\n      swap2\n      pop\n      pop\n      jump\t// out\n        /* \"#utility.yul\":337:479   */\n    tag_371:\n        /* \"#utility.yul\":414:418   */\n      0x00\n        /* \"#utility.yul\":437:440   */\n      dup2\n        /* \"#utility.yul\":429:440   */\n      swap1\n      pop\n        /* \"#utility.yul\":467:471   */\n      0x20\n        /* \"#utility.yul\":462:465   */\n      dup3\n        /* \"#utility.yul\":458:472   */\n      add\n        /* \"#utility.yul\":450:472   */\n      swap1\n      pop\n        /* \"#utility.yul\":337:479   */\n      swap2\n      swap1\n      pop\n      jump\t// out\n        /* \"#utility.yul\":485:584   */\n    tag_372:\n        /* \"#utility.yul\":537:543   */\n      0x00\n        /* \"#utility.yul\":571:576   */\n      dup2\n        /* \"#utility.yul\":565:577   */\n      mload\n        /* \"#utility.yul\":555:577   */\n      swap1\n      pop\n        /* \"#utility.yul\":485:584   */\n      swap2\n      swap1\n      pop\n      jump\t// out\n        /* \"#utility.yul\":590:749   */\n    tag_373:\n        /* \"#utility.yul\":664:675   */\n      0x00\n        /* \"#utility.yul\":698:704   */\n      dup3\n        /* \"#utility.yul\":693:696   */\n      dup3\n        /* \"#utility.yul\":686:705   */\n      mstore\n        /* \"#utility.yul\":738:742   */\n      0x20\n        /* \"#utility.yul\":733:736   */\n      dup3\n        /* \"#utility.yul\":729:743   */\n      add\n        /* \"#utility.yul\":714:743   */\n      swap1\n      pop\n        /* \"#utility.yul\":590:749   */\n      swap3\n      swap2\n      pop\n      pop\n      jump\t// out\n        /* \"#utility.yul\":755:894   */\n    tag_374:\n        /* \"#utility.yul\":844:850   */\n      dup3\n        /* \"#utility.yul\":839:842   */\n      dup2\n        /* \"#utility.yul\":834:837   */\n      dup4\n        /* \"#utility.yul\":828:851   */\n      mcopy\n        /* \"#utility.yul\":885:886   */\n      0x00\n        /* \"#utility.yul\":876:882   */\n      dup4\n        /* \"#utility.yul\":871:874   */\n      dup4\n        /* \"#utility.yul\":867:883   */\n      add\n        /* \"#utility.yul\":860:887   */\n      mstore\n        /* \"#utility.yul\":755:894   */\n      pop\n      pop\n      pop\n      jump\t// out\n        /* \"#utility.yul\":900:1002   */\n    tag_375:\n        /* \"#utility.yul\":941:947   */\n      0x00\n        /* \"#utility.yul\":992:994   */\n      0x1f\n        /* \"#utility.yul\":988:995   */\n      not\n        /* \"#utility.yul\":983:985   */\n      0x1f\n        /* \"#utility.yul\":976:981   */\n      dup4\n        /* \"#utility.yul\":972:986   */\n      add\n        /* \"#utility.yul\":968:996   */\n      and\n        /* \"#utility.yul\":958:996   */\n      swap1\n      pop\n        /* \"#utility.yul\":900:1002   */\n      swap2\n      swap1\n      pop\n      jump\t// out\n        /* \"#utility.yul\":1008:1365   */\n    tag_376:\n        /* \"#utility.yul\":1086:1089   */\n      0x00\n        /* \"#utility.yul\":1114:1153   */\n      tag_510\n        /* \"#utility.yul\":1147:1152   */\n      dup3\n        /* \"#utility.yul\":1114:1153   */\n      tag_372\n      jump\t// in\n    tag_510:\n        /* \"#utility.yul\":1169:1230   */\n      tag_511\n        /* \"#utility.yul\":1223:1229   */\n      dup2\n        /* \"#utility.yul\":1218:1221   */\n      dup6\n        /* \"#utility.yul\":1169:1230   */\n      tag_373\n      jump\t// in\n    tag_511:\n        /* \"#utility.yul\":1162:1230   */\n      swap4\n      pop\n        /* \"#utility.yul\":1239:1304   */\n      tag_512\n        /* \"#utility.yul\":1297:1303   */\n      dup2\n        /* \"#utility.yul\":1292:1295   */\n      dup6\n        /* \"#utility.yul\":1285:1289   */\n      0x20\n        /* \"#utility.yul\":1278:1283   */\n      dup7\n        /* \"#utility.yul\":1274:1290   */\n      add\n        /* \"#utility.yul\":1239:1304   */\n      tag_374\n      jump\t// in\n    tag_512:\n        /* \"#utility.yul\":1329:1358   */\n      tag_513\n        /* \"#utility.yul\":1351:1357   */\n      dup2\n        /* \"#utility.yul\":1329:1358   */\n      tag_375\n      jump\t// in\n    tag_513:\n        /* \"#utility.yul\":1324:1327   */\n      dup5\n        /* \"#utility.yul\":1320:1359   */\n      add\n        /* \"#utility.yul\":1313:1359   */\n      swap2\n      pop\n        /* \"#utility.yul\":1090:1365   */\n      pop\n        /* \"#utility.yul\":1008:1365   */\n      swap3\n      swap2\n      pop\n      pop\n      jump\t// out\n        /* \"#utility.yul\":1371:1567   */\n    tag_377:\n        /* \"#utility.yul\":1460:1470   */\n      0x00\n        /* \"#utility.yul\":1495:1561   */\n      tag_515\n        /* \"#utility.yul\":1557:1560   */\n      dup4\n        /* \"#utility.yul\":1549:1555   */\n      dup4\n        /* \"#utility.yul\":1495:1561   */\n      tag_376\n      jump\t// in\n    tag_515:\n        /* \"#utility.yul\":1481:1561   */\n      swap1\n      pop\n        /* \"#utility.yul\":1371:1567   */\n      swap3\n      swap2\n      pop\n      pop\n      jump\t// out\n        /* \"#utility.yul\":1573:1696   */\n    tag_378:\n        /* \"#utility.yul\":1653:1657   */\n      0x00\n        /* \"#utility.yul\":1685:1689   */\n      0x20\n        /* \"#utility.yul\":1680:1683   */\n      dup3\n        /* \"#utility.yul\":1676:1690   */\n      add\n        /* \"#utility.yul\":1668:1690   */\n      swap1\n      pop\n        /* \"#utility.yul\":1573:1696   */\n      swap2\n      swap1\n      pop\n      jump\t// out\n        /* \"#utility.yul\":1730:2721   */\n    tag_379:\n        /* \"#utility.yul\":1869:1872   */\n      0x00\n        /* \"#utility.yul\":1898:1962   */\n      tag_518\n        /* \"#utility.yul\":1956:1961   */\n      dup3\n        /* \"#utility.yul\":1898:1962   */\n      tag_369\n      jump\t// in\n    tag_518:\n        /* \"#utility.yul\":1978:2074   */\n      tag_519\n        /* \"#utility.yul\":2067:2073   */\n      dup2\n        /* \"#utility.yul\":2062:2065   */\n      dup6\n        /* \"#utility.yul\":1978:2074   */\n      tag_370\n      jump\t// in\n    tag_519:\n        /* \"#utility.yul\":1971:2074   */\n      swap4\n      pop\n        /* \"#utility.yul\":2100:2103   */\n      dup4\n        /* \"#utility.yul\":2145:2149   */\n      0x20\n        /* \"#utility.yul\":2137:2143   */\n      dup3\n        /* \"#utility.yul\":2133:2150   */\n      mul\n        /* \"#utility.yul\":2128:2131   */\n      dup6\n        /* \"#utility.yul\":2124:2151   */\n      add\n        /* \"#utility.yul\":2175:2241   */\n      tag_520\n        /* \"#utility.yul\":2235:2240   */\n      dup6\n        /* \"#utility.yul\":2175:2241   */\n      tag_371\n      jump\t// in\n    tag_520:\n        /* \"#utility.yul\":2264:2271   */\n      dup1\n        /* \"#utility.yul\":2295:2296   */\n      0x00\n        /* \"#utility.yul\":2280:2676   */\n    tag_521:\n        /* \"#utility.yul\":2305:2311   */\n      dup6\n        /* \"#utility.yul\":2302:2303   */\n      dup2\n        /* \"#utility.yul\":2299:2312   */\n      lt\n        /* \"#utility.yul\":2280:2676   */\n      iszero\n      tag_523\n      jumpi\n        /* \"#utility.yul\":2376:2385   */\n      dup5\n        /* \"#utility.yul\":2370:2374   */\n      dup5\n        /* \"#utility.yul\":2366:2386   */\n      sub\n        /* \"#utility.yul\":2361:2364   */\n      dup10\n        /* \"#utility.yul\":2354:2387   */\n      mstore\n        /* \"#utility.yul\":2427:2433   */\n      dup2\n        /* \"#utility.yul\":2421:2434   */\n      mload\n        /* \"#utility.yul\":2455:2539   */\n      tag_524\n        /* \"#utility.yul\":2534:2538   */\n      dup6\n        /* \"#utility.yul\":2519:2532   */\n      dup3\n        /* \"#utility.yul\":2455:2539   */\n      tag_377\n      jump\t// in\n    tag_524:\n        /* \"#utility.yul\":2447:2539   */\n      swap5\n      pop\n        /* \"#utility.yul\":2562:2632   */\n      tag_525\n        /* \"#utility.yul\":2625:2631   */\n      dup4\n        /* \"#utility.yul\":2562:2632   */\n      tag_378\n      jump\t// in\n    tag_525:\n        /* \"#utility.yul\":2552:2632   */\n      swap3\n      pop\n        /* \"#utility.yul\":2661:2665   */\n      0x20\n        /* \"#utility.yul\":2656:2659   */\n      dup11\n        /* \"#utility.yul\":2652:2666   */\n      add\n        /* \"#utility.yul\":2645:2666   */\n      swap10\n      pop\n        /* \"#utility.yul\":2340:2676   */\n      pop\n        /* \"#utility.yul\":2327:2328   */\n      0x01\n        /* \"#utility.yul\":2324:2325   */\n      dup2\n        /* \"#utility.yul\":2320:2329   */\n      add\n        /* \"#utility.yul\":2315:2329   */\n      swap1\n      pop\n        /* \"#utility.yul\":2280:2676   */\n      jump(tag_521)\n    tag_523:\n        /* \"#utility.yul\":2284:2298   */\n      pop\n        /* \"#utility.yul\":2692:2696   */\n      dup3\n        /* \"#utility.yul\":2685:2696   */\n      swap8\n      pop\n        /* \"#utility.yul\":2712:2715   */\n      dup8\n        /* \"#utility.yul\":2705:2715   */\n      swap6\n      pop\n        /* \"#utility.yul\":1874:2721   */\n      pop\n      pop\n      pop\n      pop\n      pop\n        /* \"#utility.yul\":1730:2721   */\n      swap3\n      swap2\n      pop\n      pop\n      jump\t// out\n        /* \"#utility.yul\":2727:3140   */\n    tag_30:\n        /* \"#utility.yul\":2890:2894   */\n      0x00\n        /* \"#utility.yul\":2928:2930   */\n      0x20\n        /* \"#utility.yul\":2917:2926   */\n      dup3\n        /* \"#utility.yul\":2913:2931   */\n      add\n        /* \"#utility.yul\":2905:2931   */\n      swap1\n      pop\n        /* \"#utility.yul\":2977:2986   */\n      dup2\n        /* \"#utility.yul\":2971:2975   */\n      dup2\n        /* \"#utility.yul\":2967:2987   */\n      sub\n        /* \"#utility.yul\":2963:2964   */\n      0x00\n        /* \"#utility.yul\":2952:2961   */\n      dup4\n        /* \"#utility.yul\":2948:2965   */\n      add\n        /* \"#utility.yul\":2941:2988   */\n      mstore\n        /* \"#utility.yul\":3005:3133   */\n      tag_527\n        /* \"#utility.yul\":3128:3132   */\n      dup2\n        /* \"#utility.yul\":3119:3125   */\n      dup5\n        /* \"#utility.yul\":3005:3133   */\n      tag_379\n      jump\t// in\n    tag_527:\n        /* \"#utility.yul\":2997:3133   */\n      swap1\n      pop\n        /* \"#utility.yul\":2727:3140   */\n      swap3\n      swap2\n      pop\n      pop\n      jump\t// out\n        /* \"#utility.yul\":3146:3221   */\n    tag_380:\n        /* \"#utility.yul\":3179:3185   */\n      0x00\n        /* \"#utility.yul\":3212:3214   */\n      0x40\n        /* \"#utility.yul\":3206:3215   */\n      mload\n        /* \"#utility.yul\":3196:3215   */\n      swap1\n      pop\n        /* \"#utility.yul\":3146:3221   */\n      swap1\n      jump\t// out\n        /* \"#utility.yul\":3227:3344   */\n    tag_381:\n        /* \"#utility.yul\":3336:3337   */\n      0x00\n        /* \"#utility.yul\":3333:3334   */\n      dup1\n        /* \"#utility.yul\":3326:3338   */\n      revert\n        /* \"#utility.yul\":3350:3467   */\n    tag_382:\n        /* \"#utility.yul\":3459:3460   */\n      0x00\n        /* \"#utility.yul\":3456:3457   */\n      dup1\n        /* \"#utility.yul\":3449:3461   */\n      revert\n        /* \"#utility.yul\":3473:3550   */\n    tag_383:\n        /* \"#utility.yul\":3510:3517   */\n      0x00\n        /* \"#utility.yul\":3539:3544   */\n      dup2\n        /* \"#utility.yul\":3528:3544   */\n      swap1\n      pop\n        /* \"#utility.yul\":3473:3550   */\n      swap2\n      swap1\n      pop\n      jump\t// out\n        /* \"#utility.yul\":3556:3678   */\n    tag_384:\n        /* \"#utility.yul\":3629:3653   */\n      tag_533\n        /* \"#utility.yul\":3647:3652   */\n      dup2\n        /* \"#utility.yul\":3629:3653   */\n      tag_383\n      jump\t// in\n    tag_533:\n        /* \"#utility.yul\":3622:3627   */\n      dup2\n        /* \"#utility.yul\":3619:3654   */\n      eq\n        /* \"#utility.yul\":3609:3672   */\n      tag_534\n      jumpi\n        /* \"#utility.yul\":3668:3669   */\n      0x00\n        /* \"#utility.yul\":3665:3666   */\n      dup1\n        /* \"#utility.yul\":3658:3670   */\n      revert\n        /* \"#utility.yul\":3609:3672   */\n    tag_534:\n        /* \"#utility.yul\":3556:3678   */\n      pop\n      jump\t// out\n        /* \"#utility.yul\":3684:3823   */\n    tag_385:\n        /* \"#utility.yul\":3730:3735   */\n      0x00\n        /* \"#utility.yul\":3768:3774   */\n      dup2\n        /* \"#utility.yul\":3755:3775   */\n      calldataload\n        /* \"#utility.yul\":3746:3775   */\n      swap1\n      pop\n        /* \"#utility.yul\":3784:3817   */\n      tag_536\n        /* \"#utility.yul\":3811:3816   */\n      dup2\n        /* \"#utility.yul\":3784:3817   */\n      tag_384\n      jump\t// in\n    tag_536:\n        /* \"#utility.yul\":3684:3823   */\n      swap3\n      swap2\n      pop\n      pop\n      jump\t// out\n        /* \"#utility.yul\":3829:3906   */\n    tag_386:\n        /* \"#utility.yul\":3866:3873   */\n      0x00\n        /* \"#utility.yul\":3895:3900   */\n      dup2\n        /* \"#utility.yul\":3884:3900   */\n      swap1\n      pop\n        /* \"#utility.yul\":3829:3906   */\n      swap2\n      swap1\n      pop\n      jump\t// out\n        /* \"#utility.yul\":3912:4034   */\n    tag_387:\n        /* \"#utility.yul\":3985:4009   */\n      tag_539\n        /* \"#utility.yul\":4003:4008   */\n      dup2\n        /* \"#utility.yul\":3985:4009   */\n      tag_386\n      jump\t// in\n    tag_539:\n        /* \"#utility.yul\":3978:3983   */\n      dup2\n        /* \"#utility.yul\":3975:4010   */\n      eq\n        /* \"#utility.yul\":3965:4028   */\n      tag_540\n      jumpi\n        /* \"#utility.yul\":4024:4025   */\n      0x00\n        /* \"#utility.yul\":4021:4022   */\n      dup1\n        /* \"#utility.yul\":4014:4026   */\n      revert\n        /* \"#utility.yul\":3965:4028   */\n    tag_540:\n        /* \"#utility.yul\":3912:4034   */\n      pop\n      jump\t// out\n        /* \"#utility.yul\":4040:4179   */\n    tag_388:\n        /* \"#utility.yul\":4086:4091   */\n      0x00\n        /* \"#utility.yul\":4124:4130   */\n      dup2\n        /* \"#utility.yul\":4111:4131   */\n      calldataload\n        /* \"#utility.yul\":4102:4131   */\n      swap1\n      pop\n        /* \"#utility.yul\":4140:4173   */\n      tag_542\n        /* \"#utility.yul\":4167:4172   */\n      dup2\n        /* \"#utility.yul\":4140:4173   */\n      tag_387\n      jump\t// in\n    tag_542:\n        /* \"#utility.yul\":4040:4179   */\n      swap3\n      swap2\n      pop\n      pop\n      jump\t// out\n        /* \"#utility.yul\":4185:4659   */\n    tag_33:\n        /* \"#utility.yul\":4253:4259   */\n      0x00\n        /* \"#utility.yul\":4261:4267   */\n      dup1\n        /* \"#utility.yul\":4310:4312   */\n      0x40\n        /* \"#utility.yul\":4298:4307   */\n      dup4\n        /* \"#utility.yul\":4289:4296   */\n      dup6\n        /* \"#utility.yul\":4285:4308   */\n      sub\n        /* \"#utility.yul\":4281:4313   */\n      slt\n        /* \"#utility.yul\":4278:4397   */\n      iszero\n      tag_544\n      jumpi\n        /* \"#utility.yul\":4316:4395   */\n      tag_545\n      tag_381\n      jump\t// in\n    tag_545:\n        /* \"#utility.yul\":4278:4397   */\n    tag_544:\n        /* \"#utility.yul\":4436:4437   */\n      0x00\n        /* \"#utility.yul\":4461:4514   */\n      tag_546\n        /* \"#utility.yul\":4506:4513   */\n      dup6\n        /* \"#utility.yul\":4497:4503   */\n      dup3\n        /* \"#utility.yul\":4486:4495   */\n      dup7\n        /* \"#utility.yul\":4482:4504   */\n      add\n        /* \"#utility.yul\":4461:4514   */\n      tag_385\n      jump\t// in\n    tag_546:\n        /* \"#utility.yul\":4451:4514   */\n      swap3\n      pop\n        /* \"#utility.yul\":4407:4524   */\n      pop\n        /* \"#utility.yul\":4563:4565   */\n      0x20\n        /* \"#utility.yul\":4589:4642   */\n      tag_547\n        /* \"#utility.yul\":4634:4641   */\n      dup6\n        /* \"#utility.yul\":4625:4631   */\n      dup3\n        /* \"#utility.yul\":4614:4623   */\n      dup7\n        /* \"#utility.yul\":4610:4632   */\n      add\n        /* \"#utility.yul\":4589:4642   */\n      tag_388\n      jump\t// in\n    tag_547:\n        /* \"#utility.yul\":4579:4642   */\n      swap2\n      pop\n        /* \"#utility.yul\":4534:4652   */\n      pop\n        /* \"#utility.yul\":4185:4659   */\n      swap3\n      pop\n      swap3\n      swap1\n      pop\n      jump\t// out\n        /* \"#utility.yul\":4665:4783   */\n    tag_389:\n        /* \"#utility.yul\":4752:4776   */\n      tag_549\n        /* \"#utility.yul\":4770:4775   */\n      dup2\n        /* \"#utility.yul\":4752:4776   */\n      tag_383\n      jump\t// in\n    tag_549:\n        /* \"#utility.yul\":4747:4750   */\n      dup3\n        /* \"#utility.yul\":4740:4777   */\n      mstore\n        /* \"#utility.yul\":4665:4783   */\n      pop\n      pop\n      jump\t// out\n        /* \"#utility.yul\":4789:5011   */\n    tag_36:\n        /* \"#utility.yul\":4882:4886   */\n      0x00\n        /* \"#utility.yul\":4920:4922   */\n      0x20\n        /* \"#utility.yul\":4909:4918   */\n      dup3\n        /* \"#utility.yul\":4905:4923   */\n      add\n        /* \"#utility.yul\":4897:4923   */\n      swap1\n      pop\n        /* \"#utility.yul\":4933:5004   */\n      tag_551\n        /* \"#utility.yul\":5001:5002   */\n      0x00\n        /* \"#utility.yul\":4990:4999   */\n      dup4\n        /* \"#utility.yul\":4986:5003   */\n      add\n        /* \"#utility.yul\":4977:4983   */\n      dup5\n        /* \"#utility.yul\":4933:5004   */\n      tag_389\n      jump\t// in\n    tag_551:\n        /* \"#utility.yul\":4789:5011   */\n      swap3\n      swap2\n      pop\n      pop\n      jump\t// out\n        /* \"#utility.yul\":5017:5134   */\n    tag_390:\n        /* \"#utility.yul\":5126:5127   */\n      0x00\n        /* \"#utility.yul\":5123:5124   */\n      dup1\n        /* \"#utility.yul\":5116:5128   */\n      revert\n        /* \"#utility.yul\":5140:5257   */\n    tag_391:\n        /* \"#utility.yul\":5249:5250   */\n      0x00\n        /* \"#utility.yul\":5246:5247   */\n      dup1\n        /* \"#utility.yul\":5239:5251   */\n      revert\n        /* \"#utility.yul\":5263:5443   */\n    tag_130:\n        /* \"#utility.yul\":5311:5388   */\n      0x4e487b7100000000000000000000000000000000000000000000000000000000\n        /* \"#utility.yul\":5308:5309   */\n      0x00\n        /* \"#utility.yul\":5301:5389   */\n      mstore\n        /* \"#utility.yul\":5408:5412   */\n      0x41\n        /* \"#utility.yul\":5405:5406   */\n      0x04\n        /* \"#utility.yul\":5398:5413   */\n      mstore\n        /* \"#utility.yul\":5432:5436   */\n      0x24\n        /* \"#utility.yul\":5429:5430   */\n      0x00\n        /* \"#utility.yul\":5422:5437   */\n      revert\n        /* \"#utility.yul\":5449:5730   */\n    tag_392:\n        /* \"#utility.yul\":5532:5559   */\n      tag_556\n        /* \"#utility.yul\":5554:5558   */\n      dup3\n        /* \"#utility.yul\":5532:5559   */\n      tag_375\n      jump\t// in\n    tag_556:\n        /* \"#utility.yul\":5524:5530   */\n      dup2\n        /* \"#utility.yul\":5520:5560   */\n      add\n        /* \"#utility.yul\":5662:5668   */\n      dup2\n        /* \"#utility.yul\":5650:5660   */\n      dup2\n        /* \"#utility.yul\":5647:5669   */\n      lt\n        /* \"#utility.yul\":5626:5644   */\n      0xffffffffffffffff\n        /* \"#utility.yul\":5614:5624   */\n      dup3\n        /* \"#utility.yul\":5611:5645   */\n      gt\n        /* \"#utility.yul\":5608:5670   */\n      or\n        /* \"#utility.yul\":5605:5693   */\n      iszero\n      tag_557\n      jumpi\n        /* \"#utility.yul\":5673:5691   */\n      tag_558\n      tag_130\n      jump\t// in\n    tag_558:\n        /* \"#utility.yul\":5605:5693   */\n    tag_557:\n        /* \"#utility.yul\":5713:5723   */\n      dup1\n        /* \"#utility.yul\":5709:5711   */\n      0x40\n        /* \"#utility.yul\":5702:5724   */\n      mstore\n        /* \"#utility.yul\":5492:5730   */\n      pop\n        /* \"#utility.yul\":5449:5730   */\n      pop\n      pop\n      jump\t// out\n        /* \"#utility.yul\":5736:5865   */\n    tag_393:\n        /* \"#utility.yul\":5770:5776   */\n      0x00\n        /* \"#utility.yul\":5797:5817   */\n      tag_560\n      tag_380\n      jump\t// in\n    tag_560:\n        /* \"#utility.yul\":5787:5817   */\n      swap1\n      pop\n        /* \"#utility.yul\":5826:5859   */\n      tag_561\n        /* \"#utility.yul\":5854:5858   */\n      dup3\n        /* \"#utility.yul\":5846:5852   */\n      dup3\n        /* \"#utility.yul\":5826:5859   */\n      tag_392\n      jump\t// in\n    tag_561:\n        /* \"#utility.yul\":5736:5865   */\n      swap2\n      swap1\n      pop\n      jump\t// out\n        /* \"#utility.yul\":5871:6179   */\n    tag_394:\n        /* \"#utility.yul\":5933:5937   */\n      0x00\n        /* \"#utility.yul\":6023:6041   */\n      0xffffffffffffffff\n        /* \"#utility.yul\":6015:6021   */\n      dup3\n        /* \"#utility.yul\":6012:6042   */\n      gt\n        /* \"#utility.yul\":6009:6065   */\n      iszero\n      tag_563\n      jumpi\n        /* \"#utility.yul\":6045:6063   */\n      tag_564\n      tag_130\n      jump\t// in\n    tag_564:\n        /* \"#utility.yul\":6009:6065   */\n    tag_563:\n        /* \"#utility.yul\":6083:6112   */\n      tag_565\n        /* \"#utility.yul\":6105:6111   */\n      dup3\n        /* \"#utility.yul\":6083:6112   */\n      tag_375\n      jump\t// in\n    tag_565:\n        /* \"#utility.yul\":6075:6112   */\n      swap1\n      pop\n        /* \"#utility.yul\":6167:6171   */\n      0x20\n        /* \"#utility.yul\":6161:6165   */\n      dup2\n        /* \"#utility.yul\":6157:6172   */\n      add\n        /* \"#utility.yul\":6149:6172   */\n      swap1\n      pop\n        /* \"#utility.yul\":5871:6179   */\n      swap2\n      swap1\n      pop\n      jump\t// out\n        /* \"#utility.yul\":6185:6333   */\n    tag_395:\n        /* \"#utility.yul\":6283:6289   */\n      dup3\n        /* \"#utility.yul\":6278:6281   */\n      dup2\n        /* \"#utility.yul\":6273:6276   */\n      dup4\n        /* \"#utility.yul\":6260:6290   */\n      calldatacopy\n        /* \"#utility.yul\":6324:6325   */\n      0x00\n        /* \"#utility.yul\":6315:6321   */\n      dup4\n        /* \"#utility.yul\":6310:6313   */\n      dup4\n        /* \"#utility.yul\":6306:6322   */\n      add\n        /* \"#utility.yul\":6299:6326   */\n      mstore\n        /* \"#utility.yul\":6185:6333   */\n      pop\n      pop\n      pop\n      jump\t// out\n        /* \"#utility.yul\":6339:6764   */\n    tag_396:\n        /* \"#utility.yul\":6417:6422   */\n      0x00\n        /* \"#utility.yul\":6442:6508   */\n      tag_568\n        /* \"#utility.yul\":6458:6507   */\n      tag_569\n        /* \"#utility.yul\":6500:6506   */\n      dup5\n        /* \"#utility.yul\":6458:6507   */\n      tag_394\n      jump\t// in\n    tag_569:\n        /* \"#utility.yul\":6442:6508   */\n      tag_393\n      jump\t// in\n    tag_568:\n        /* \"#utility.yul\":6433:6508   */\n      swap1\n      pop\n        /* \"#utility.yul\":6531:6537   */\n      dup3\n        /* \"#utility.yul\":6524:6529   */\n      dup2\n        /* \"#utility.yul\":6517:6538   */\n      mstore\n        /* \"#utility.yul\":6569:6573   */\n      0x20\n        /* \"#utility.yul\":6562:6567   */\n      dup2\n        /* \"#utility.yul\":6558:6574   */\n      add\n        /* \"#utility.yul\":6607:6610   */\n      dup5\n        /* \"#utility.yul\":6598:6604   */\n      dup5\n        /* \"#utility.yul\":6593:6596   */\n      dup5\n        /* \"#utility.yul\":6589:6605   */\n      add\n        /* \"#utility.yul\":6586:6611   */\n      gt\n        /* \"#utility.yul\":6583:6695   */\n      iszero\n      tag_570\n      jumpi\n        /* \"#utility.yul\":6614:6693   */\n      tag_571\n      tag_391\n      jump\t// in\n    tag_571:\n        /* \"#utility.yul\":6583:6695   */\n    tag_570:\n        /* \"#utility.yul\":6704:6758   */\n      tag_572\n        /* \"#utility.yul\":6751:6757   */\n      dup5\n        /* \"#utility.yul\":6746:6749   */\n      dup3\n        /* \"#utility.yul\":6741:6744   */\n      dup6\n        /* \"#utility.yul\":6704:6758   */\n      tag_395\n      jump\t// in\n    tag_572:\n        /* \"#utility.yul\":6423:6764   */\n      pop\n        /* \"#utility.yul\":6339:6764   */\n      swap4\n      swap3\n      pop\n      pop\n      pop\n      jump\t// out\n        /* \"#utility.yul\":6784:7124   */\n    tag_397:\n        /* \"#utility.yul\":6840:6845   */\n      0x00\n        /* \"#utility.yul\":6889:6892   */\n      dup3\n        /* \"#utility.yul\":6882:6886   */\n      0x1f\n        /* \"#utility.yul\":6874:6880   */\n      dup4\n        /* \"#utility.yul\":6870:6887   */\n      add\n        /* \"#utility.yul\":6866:6893   */\n      slt\n        /* \"#utility.yul\":6856:6978   */\n      tag_574\n      jumpi\n        /* \"#utility.yul\":6897:6976   */\n      tag_575\n      tag_390\n      jump\t// in\n    tag_575:\n        /* \"#utility.yul\":6856:6978   */\n    tag_574:\n        /* \"#utility.yul\":7014:7020   */\n      dup2\n        /* \"#utility.yul\":7001:7021   */\n      calldataload\n        /* \"#utility.yul\":7039:7118   */\n      tag_576\n        /* \"#utility.yul\":7114:7117   */\n      dup5\n        /* \"#utility.yul\":7106:7112   */\n      dup3\n        /* \"#utility.yul\":7099:7103   */\n      0x20\n        /* \"#utility.yul\":7091:7097   */\n      dup7\n        /* \"#utility.yul\":7087:7104   */\n      add\n        /* \"#utility.yul\":7039:7118   */\n      tag_396\n      jump\t// in\n    tag_576:\n        /* \"#utility.yul\":7030:7118   */\n      swap2\n      pop\n        /* \"#utility.yul\":6846:7124   */\n      pop\n        /* \"#utility.yul\":6784:7124   */\n      swap3\n      swap2\n      pop\n      pop\n      jump\t// out\n        /* \"#utility.yul\":7130:7639   */\n    tag_39:\n        /* \"#utility.yul\":7199:7205   */\n      0x00\n        /* \"#utility.yul\":7248:7250   */\n      0x20\n        /* \"#utility.yul\":7236:7245   */\n      dup3\n        /* \"#utility.yul\":7227:7234   */\n      dup5\n        /* \"#utility.yul\":7223:7246   */\n      sub\n        /* \"#utility.yul\":7219:7251   */\n      slt\n        /* \"#utility.yul\":7216:7335   */\n      iszero\n      tag_578\n      jumpi\n        /* \"#utility.yul\":7254:7333   */\n      tag_579\n      tag_381\n      jump\t// in\n    tag_579:\n        /* \"#utility.yul\":7216:7335   */\n    tag_578:\n        /* \"#utility.yul\":7402:7403   */\n      0x00\n        /* \"#utility.yul\":7391:7400   */\n      dup3\n        /* \"#utility.yul\":7387:7404   */\n      add\n        /* \"#utility.yul\":7374:7405   */\n      calldataload\n        /* \"#utility.yul\":7432:7450   */\n      0xffffffffffffffff\n        /* \"#utility.yul\":7424:7430   */\n      dup2\n        /* \"#utility.yul\":7421:7451   */\n      gt\n        /* \"#utility.yul\":7418:7535   */\n      iszero\n      tag_580\n      jumpi\n        /* \"#utility.yul\":7454:7533   */\n      tag_581\n      tag_382\n      jump\t// in\n    tag_581:\n        /* \"#utility.yul\":7418:7535   */\n    tag_580:\n        /* \"#utility.yul\":7559:7622   */\n      tag_582\n        /* \"#utility.yul\":7614:7621   */\n      dup5\n        /* \"#utility.yul\":7605:7611   */\n      dup3\n        /* \"#utility.yul\":7594:7603   */\n      dup6\n        /* \"#utility.yul\":7590:7612   */\n      add\n        /* \"#utility.yul\":7559:7622   */\n      tag_397\n      jump\t// in\n    tag_582:\n        /* \"#utility.yul\":7549:7622   */\n      swap2\n      pop\n        /* \"#utility.yul\":7345:7632   */\n      pop\n        /* \"#utility.yul\":7130:7639   */\n      swap3\n      swap2\n      pop\n      pop\n      jump\t// out\n        /* \"#utility.yul\":7645:7759   */\n    tag_398:\n        /* \"#utility.yul\":7712:7718   */\n      0x00\n        /* \"#utility.yul\":7746:7751   */\n      dup2\n        /* \"#utility.yul\":7740:7752   */\n      mload\n        /* \"#utility.yul\":7730:7752   */\n      swap1\n      pop\n        /* \"#utility.yul\":7645:7759   */\n      swap2\n      swap1\n      pop\n      jump\t// out\n        /* \"#utility.yul\":7765:7949   */\n    tag_399:\n        /* \"#utility.yul\":7864:7875   */\n      0x00\n        /* \"#utility.yul\":7898:7904   */\n      dup3\n        /* \"#utility.yul\":7893:7896   */\n      dup3\n        /* \"#utility.yul\":7886:7905   */\n      mstore\n        /* \"#utility.yul\":7938:7942   */\n      0x20\n        /* \"#utility.yul\":7933:7936   */\n      dup3\n        /* \"#utility.yul\":7929:7943   */\n      add\n        /* \"#utility.yul\":7914:7943   */\n      swap1\n      pop\n        /* \"#utility.yul\":7765:7949   */\n      swap3\n      swap2\n      pop\n      pop\n      jump\t// out\n        /* \"#utility.yul\":7955:8087   */\n    tag_400:\n        /* \"#utility.yul\":8022:8026   */\n      0x00\n        /* \"#utility.yul\":8045:8048   */\n      dup2\n        /* \"#utility.yul\":8037:8048   */\n      swap1\n      pop\n        /* \"#utility.yul\":8075:8079   */\n      0x20\n        /* \"#utility.yul\":8070:8073   */\n      dup3\n        /* \"#utility.yul\":8066:8080   */\n      add\n        /* \"#utility.yul\":8058:8080   */\n      swap1\n      pop\n        /* \"#utility.yul\":7955:8087   */\n      swap2\n      swap1\n      pop\n      jump\t// out\n        /* \"#utility.yul\":8093:8201   */\n    tag_401:\n        /* \"#utility.yul\":8170:8194   */\n      tag_587\n        /* \"#utility.yul\":8188:8193   */\n      dup2\n        /* \"#utility.yul\":8170:8194   */\n      tag_383\n      jump\t// in\n    tag_587:\n        /* \"#utility.yul\":8165:8168   */\n      dup3\n        /* \"#utility.yul\":8158:8195   */\n      mstore\n        /* \"#utility.yul\":8093:8201   */\n      pop\n      pop\n      jump\t// out\n        /* \"#utility.yul\":8207:8386   */\n    tag_402:\n        /* \"#utility.yul\":8276:8286   */\n      0x00\n        /* \"#utility.yul\":8297:8343   */\n      tag_589\n        /* \"#utility.yul\":8339:8342   */\n      dup4\n        /* \"#utility.yul\":8331:8337   */\n      dup4\n        /* \"#utility.yul\":8297:8343   */\n      tag_401\n      jump\t// in\n    tag_589:\n        /* \"#utility.yul\":8375:8379   */\n      0x20\n        /* \"#utility.yul\":8370:8373   */\n      dup4\n        /* \"#utility.yul\":8366:8380   */\n      add\n        /* \"#utility.yul\":8352:8380   */\n      swap1\n      pop\n        /* \"#utility.yul\":8207:8386   */\n      swap3\n      swap2\n      pop\n      pop\n      jump\t// out\n        /* \"#utility.yul\":8392:8505   */\n    tag_403:\n        /* \"#utility.yul\":8462:8466   */\n      0x00\n        /* \"#utility.yul\":8494:8498   */\n      0x20\n        /* \"#utility.yul\":8489:8492   */\n      dup3\n        /* \"#utility.yul\":8485:8499   */\n      add\n        /* \"#utility.yul\":8477:8499   */\n      swap1\n      pop\n        /* \"#utility.yul\":8392:8505   */\n      swap2\n      swap1\n      pop\n      jump\t// out\n        /* \"#utility.yul\":8541:9273   */\n    tag_404:\n        /* \"#utility.yul\":8660:8663   */\n      0x00\n        /* \"#utility.yul\":8689:8743   */\n      tag_592\n        /* \"#utility.yul\":8737:8742   */\n      dup3\n        /* \"#utility.yul\":8689:8743   */\n      tag_398\n      jump\t// in\n    tag_592:\n        /* \"#utility.yul\":8759:8845   */\n      tag_593\n        /* \"#utility.yul\":8838:8844   */\n      dup2\n        /* \"#utility.yul\":8833:8836   */\n      dup6\n        /* \"#utility.yul\":8759:8845   */\n      tag_399\n      jump\t// in\n    tag_593:\n        /* \"#utility.yul\":8752:8845   */\n      swap4\n      pop\n        /* \"#utility.yul\":8869:8925   */\n      tag_594\n        /* \"#utility.yul\":8919:8924   */\n      dup4\n        /* \"#utility.yul\":8869:8925   */\n      tag_400\n      jump\t// in\n    tag_594:\n        /* \"#utility.yul\":8948:8955   */\n      dup1\n        /* \"#utility.yul\":8979:8980   */\n      0x00\n        /* \"#utility.yul\":8964:9248   */\n    tag_595:\n        /* \"#utility.yul\":8989:8995   */\n      dup4\n        /* \"#utility.yul\":8986:8987   */\n      dup2\n        /* \"#utility.yul\":8983:8996   */\n      lt\n        /* \"#utility.yul\":8964:9248   */\n      iszero\n      tag_597\n      jumpi\n        /* \"#utility.yul\":9065:9071   */\n      dup2\n        /* \"#utility.yul\":9059:9072   */\n      mload\n        /* \"#utility.yul\":9092:9155   */\n      tag_598\n        /* \"#utility.yul\":9151:9154   */\n      dup9\n        /* \"#utility.yul\":9136:9149   */\n      dup3\n        /* \"#utility.yul\":9092:9155   */\n      tag_402\n      jump\t// in\n    tag_598:\n        /* \"#utility.yul\":9085:9155   */\n      swap8\n      pop\n        /* \"#utility.yul\":9178:9238   */\n      tag_599\n        /* \"#utility.yul\":9231:9237   */\n      dup4\n        /* \"#utility.yul\":9178:9238   */\n      tag_403\n      jump\t// in\n    tag_599:\n        /* \"#utility.yul\":9168:9238   */\n      swap3\n      pop\n        /* \"#utility.yul\":9024:9248   */\n      pop\n        /* \"#utility.yul\":9011:9012   */\n      0x01\n        /* \"#utility.yul\":9008:9009   */\n      dup2\n        /* \"#utility.yul\":9004:9013   */\n      add\n        /* \"#utility.yul\":8999:9013   */\n      swap1\n      pop\n        /* \"#utility.yul\":8964:9248   */\n      jump(tag_595)\n    tag_597:\n        /* \"#utility.yul\":8968:8982   */\n      pop\n        /* \"#utility.yul\":9264:9267   */\n      dup6\n        /* \"#utility.yul\":9257:9267   */\n      swap4\n      pop\n        /* \"#utility.yul\":8665:9273   */\n      pop\n      pop\n      pop\n        /* \"#utility.yul\":8541:9273   */\n      swap3\n      swap2\n      pop\n      pop\n      jump\t// out\n        /* \"#utility.yul\":9279:9393   */\n    tag_405:\n        /* \"#utility.yul\":9346:9352   */\n      0x00\n        /* \"#utility.yul\":9380:9385   */\n      dup2\n        /* \"#utility.yul\":9374:9386   */\n      mload\n        /* \"#utility.yul\":9364:9386   */\n      swap1\n      pop\n        /* \"#utility.yul\":9279:9393   */\n      swap2\n      swap1\n      pop\n      jump\t// out\n        /* \"#utility.yul\":9399:9583   */\n    tag_406:\n        /* \"#utility.yul\":9498:9509   */\n      0x00\n        /* \"#utility.yul\":9532:9538   */\n      dup3\n        /* \"#utility.yul\":9527:9530   */\n      dup3\n        /* \"#utility.yul\":9520:9539   */\n      mstore\n        /* \"#utility.yul\":9572:9576   */\n      0x20\n        /* \"#utility.yul\":9567:9570   */\n      dup3\n        /* \"#utility.yul\":9563:9577   */\n      add\n        /* \"#utility.yul\":9548:9577   */\n      swap1\n      pop\n        /* \"#utility.yul\":9399:9583   */\n      swap3\n      swap2\n      pop\n      pop\n      jump\t// out\n        /* \"#utility.yul\":9589:9721   */\n    tag_407:\n        /* \"#utility.yul\":9656:9660   */\n      0x00\n        /* \"#utility.yul\":9679:9682   */\n      dup2\n        /* \"#utility.yul\":9671:9682   */\n      swap1\n      pop\n        /* \"#utility.yul\":9709:9713   */\n      0x20\n        /* \"#utility.yul\":9704:9707   */\n      dup3\n        /* \"#utility.yul\":9700:9714   */\n      add\n        /* \"#utility.yul\":9692:9714   */\n      swap1\n      pop\n        /* \"#utility.yul\":9589:9721   */\n      swap2\n      swap1\n      pop\n      jump\t// out\n        /* \"#utility.yul\":9727:9835   */\n    tag_408:\n        /* \"#utility.yul\":9804:9828   */\n      tag_604\n        /* \"#utility.yul\":9822:9827   */\n      dup2\n        /* \"#utility.yul\":9804:9828   */\n      tag_386\n      jump\t// in\n    tag_604:\n        /* \"#utility.yul\":9799:9802   */\n      dup3\n        /* \"#utility.yul\":9792:9829   */\n      mstore\n        /* \"#utility.yul\":9727:9835   */\n      pop\n      pop\n      jump\t// out\n        /* \"#utility.yul\":9841:10020   */\n    tag_409:\n        /* \"#utility.yul\":9910:9920   */\n      0x00\n        /* \"#utility.yul\":9931:9977   */\n      tag_606\n        /* \"#utility.yul\":9973:9976   */\n      dup4\n        /* \"#utility.yul\":9965:9971   */\n      dup4\n        /* \"#utility.yul\":9931:9977   */\n      tag_408\n      jump\t// in\n    tag_606:\n        /* \"#utility.yul\":10009:10013   */\n      0x20\n        /* \"#utility.yul\":10004:10007   */\n      dup4\n        /* \"#utility.yul\":10000:10014   */\n      add\n        /* \"#utility.yul\":9986:10014   */\n      swap1\n      pop\n        /* \"#utility.yul\":9841:10020   */\n      swap3\n      swap2\n      pop\n      pop\n      jump\t// out\n        /* \"#utility.yul\":10026:10139   */\n    tag_410:\n        /* \"#utility.yul\":10096:10100   */\n      0x00\n        /* \"#utility.yul\":10128:10132   */\n      0x20\n        /* \"#utility.yul\":10123:10126   */\n      dup3\n        /* \"#utility.yul\":10119:10133   */\n      add\n        /* \"#utility.yul\":10111:10133   */\n      swap1\n      pop\n        /* \"#utility.yul\":10026:10139   */\n      swap2\n      swap1\n      pop\n      jump\t// out\n        /* \"#utility.yul\":10175:10907   */\n    tag_411:\n        /* \"#utility.yul\":10294:10297   */\n      0x00\n        /* \"#utility.yul\":10323:10377   */\n      tag_609\n        /* \"#utility.yul\":10371:10376   */\n      dup3\n        /* \"#utility.yul\":10323:10377   */\n      tag_405\n      jump\t// in\n    tag_609:\n        /* \"#utility.yul\":10393:10479   */\n      tag_610\n        /* \"#utility.yul\":10472:10478   */\n      dup2\n        /* \"#utility.yul\":10467:10470   */\n      dup6\n        /* \"#utility.yul\":10393:10479   */\n      tag_406\n      jump\t// in\n    tag_610:\n        /* \"#utility.yul\":10386:10479   */\n      swap4\n      pop\n        /* \"#utility.yul\":10503:10559   */\n      tag_611\n        /* \"#utility.yul\":10553:10558   */\n      dup4\n        /* \"#utility.yul\":10503:10559   */\n      tag_407\n      jump\t// in\n    tag_611:\n        /* \"#utility.yul\":10582:10589   */\n      dup1\n        /* \"#utility.yul\":10613:10614   */\n      0x00\n        /* \"#utility.yul\":10598:10882   */\n    tag_612:\n        /* \"#utility.yul\":10623:10629   */\n      dup4\n        /* \"#utility.yul\":10620:10621   */\n      dup2\n        /* \"#utility.yul\":10617:10630   */\n      lt\n        /* \"#utility.yul\":10598:10882   */\n      iszero\n      tag_614\n      jumpi\n        /* \"#utility.yul\":10699:10705   */\n      dup2\n        /* \"#utility.yul\":10693:10706   */\n      mload\n        /* \"#utility.yul\":10726:10789   */\n      tag_615\n        /* \"#utility.yul\":10785:10788   */\n      dup9\n        /* \"#utility.yul\":10770:10783   */\n      dup3\n        /* \"#utility.yul\":10726:10789   */\n      tag_409\n      jump\t// in\n    tag_615:\n        /* \"#utility.yul\":10719:10789   */\n      swap8\n      pop\n        /* \"#utility.yul\":10812:10872   */\n      tag_616\n        /* \"#utility.yul\":10865:10871   */\n      dup4\n        /* \"#utility.yul\":10812:10872   */\n      tag_410\n      jump\t// in\n    tag_616:\n        /* \"#utility.yul\":10802:10872   */\n      swap3\n      pop\n        /* \"#utility.yul\":10658:10882   */\n      pop\n        /* \"#utility.yul\":10645:10646   */\n      0x01\n        /* \"#utility.yul\":10642:10643   */\n      dup2\n        /* \"#utility.yul\":10638:10647   */\n      add\n        /* \"#utility.yul\":10633:10647   */\n      swap1\n      pop\n        /* \"#utility.yul\":10598:10882   */\n      jump(tag_612)\n    tag_614:\n        /* \"#utility.yul\":10602:10616   */\n      pop\n        /* \"#utility.yul\":10898:10901   */\n      dup6\n        /* \"#utility.yul\":10891:10901   */\n      swap4\n      pop\n        /* \"#utility.yul\":10299:10907   */\n      pop\n      pop\n      pop\n        /* \"#utility.yul\":10175:10907   */\n      swap3\n      swap2\n      pop\n      pop\n      jump\t// out\n        /* \"#utility.yul\":10913:11547   */\n    tag_42:\n        /* \"#utility.yul\":11134:11138   */\n      0x00\n        /* \"#utility.yul\":11172:11174   */\n      0x40\n        /* \"#utility.yul\":11161:11170   */\n      dup3\n        /* \"#utility.yul\":11157:11175   */\n      add\n        /* \"#utility.yul\":11149:11175   */\n      swap1\n      pop\n        /* \"#utility.yul\":11221:11230   */\n      dup2\n        /* \"#utility.yul\":11215:11219   */\n      dup2\n        /* \"#utility.yul\":11211:11231   */\n      sub\n        /* \"#utility.yul\":11207:11208   */\n      0x00\n        /* \"#utility.yul\":11196:11205   */\n      dup4\n        /* \"#utility.yul\":11192:11209   */\n      add\n        /* \"#utility.yul\":11185:11232   */\n      mstore\n        /* \"#utility.yul\":11249:11357   */\n      tag_618\n        /* \"#utility.yul\":11352:11356   */\n      dup2\n        /* \"#utility.yul\":11343:11349   */\n      dup6\n        /* \"#utility.yul\":11249:11357   */\n      tag_404\n      jump\t// in\n    tag_618:\n        /* \"#utility.yul\":11241:11357   */\n      swap1\n      pop\n        /* \"#utility.yul\":11404:11413   */\n      dup2\n        /* \"#utility.yul\":11398:11402   */\n      dup2\n        /* \"#utility.yul\":11394:11414   */\n      sub\n        /* \"#utility.yul\":11389:11391   */\n      0x20\n        /* \"#utility.yul\":11378:11387   */\n      dup4\n        /* \"#utility.yul\":11374:11392   */\n      add\n        /* \"#utility.yul\":11367:11415   */\n      mstore\n        /* \"#utility.yul\":11432:11540   */\n      tag_619\n        /* \"#utility.yul\":11535:11539   */\n      dup2\n        /* \"#utility.yul\":11526:11532   */\n      dup5\n        /* \"#utility.yul\":11432:11540   */\n      tag_411\n      jump\t// in\n    tag_619:\n        /* \"#utility.yul\":11424:11540   */\n      swap1\n      pop\n        /* \"#utility.yul\":10913:11547   */\n      swap4\n      swap3\n      pop\n      pop\n      pop\n      jump\t// out\n        /* \"#utility.yul\":11553:11874   */\n    tag_412:\n        /* \"#utility.yul\":11640:11644   */\n      0x00\n        /* \"#utility.yul\":11730:11748   */\n      0xffffffffffffffff\n        /* \"#utility.yul\":11722:11728   */\n      dup3\n        /* \"#utility.yul\":11719:11749   */\n      gt\n        /* \"#utility.yul\":11716:11772   */\n      iszero\n      tag_621\n      jumpi\n        /* \"#utility.yul\":11752:11770   */\n      tag_622\n      tag_130\n      jump\t// in\n    tag_622:\n        /* \"#utility.yul\":11716:11772   */\n    tag_621:\n        /* \"#utility.yul\":11802:11806   */\n      0x20\n        /* \"#utility.yul\":11794:11800   */\n      dup3\n        /* \"#utility.yul\":11790:11807   */\n      mul\n        /* \"#utility.yul\":11782:11807   */\n      swap1\n      pop\n        /* \"#utility.yul\":11862:11866   */\n      0x20\n        /* \"#utility.yul\":11856:11860   */\n      dup2\n        /* \"#utility.yul\":11852:11867   */\n      add\n        /* \"#utility.yul\":11844:11867   */\n      swap1\n      pop\n        /* \"#utility.yul\":11553:11874   */\n      swap2\n      swap1\n      pop\n      jump\t// out\n        /* \"#utility.yul\":11880:11997   */\n    tag_413:\n        /* \"#utility.yul\":11989:11990   */\n      0x00\n        /* \"#utility.yul\":11986:11987   */\n      dup1\n        /* \"#utility.yul\":11979:11991   */\n      revert\n        /* \"#utility.yul\":12019:12964   */\n    tag_414:\n        /* \"#utility.yul\":12125:12130   */\n      0x00\n        /* \"#utility.yul\":12150:12241   */\n      tag_625\n        /* \"#utility.yul\":12166:12240   */\n      tag_626\n        /* \"#utility.yul\":12233:12239   */\n      dup5\n        /* \"#utility.yul\":12166:12240   */\n      tag_412\n      jump\t// in\n    tag_626:\n        /* \"#utility.yul\":12150:12241   */\n      tag_393\n      jump\t// in\n    tag_625:\n        /* \"#utility.yul\":12141:12241   */\n      swap1\n      pop\n        /* \"#utility.yul\":12261:12266   */\n      dup1\n        /* \"#utility.yul\":12290:12296   */\n      dup4\n        /* \"#utility.yul\":12283:12288   */\n      dup3\n        /* \"#utility.yul\":12276:12297   */\n      mstore\n        /* \"#utility.yul\":12324:12328   */\n      0x20\n        /* \"#utility.yul\":12317:12322   */\n      dup3\n        /* \"#utility.yul\":12313:12329   */\n      add\n        /* \"#utility.yul\":12306:12329   */\n      swap1\n      pop\n        /* \"#utility.yul\":12377:12381   */\n      0x20\n        /* \"#utility.yul\":12369:12375   */\n      dup5\n        /* \"#utility.yul\":12365:12382   */\n      mul\n        /* \"#utility.yul\":12357:12363   */\n      dup4\n        /* \"#utility.yul\":12353:12383   */\n      add\n        /* \"#utility.yul\":12406:12409   */\n      dup6\n        /* \"#utility.yul\":12398:12404   */\n      dup2\n        /* \"#utility.yul\":12395:12410   */\n      gt\n        /* \"#utility.yul\":12392:12514   */\n      iszero\n      tag_627\n      jumpi\n        /* \"#utility.yul\":12425:12504   */\n      tag_628\n      tag_413\n      jump\t// in\n    tag_628:\n        /* \"#utility.yul\":12392:12514   */\n    tag_627:\n        /* \"#utility.yul\":12540:12546   */\n      dup4\n        /* \"#utility.yul\":12523:12958   */\n    tag_629:\n        /* \"#utility.yul\":12557:12563   */\n      dup2\n        /* \"#utility.yul\":12552:12555   */\n      dup2\n        /* \"#utility.yul\":12549:12564   */\n      lt\n        /* \"#utility.yul\":12523:12958   */\n      iszero\n      tag_631\n      jumpi\n        /* \"#utility.yul\":12646:12649   */\n      dup1\n        /* \"#utility.yul\":12633:12650   */\n      calldataload\n        /* \"#utility.yul\":12682:12700   */\n      0xffffffffffffffff\n        /* \"#utility.yul\":12669:12680   */\n      dup2\n        /* \"#utility.yul\":12666:12701   */\n      gt\n        /* \"#utility.yul\":12663:12785   */\n      iszero\n      tag_632\n      jumpi\n        /* \"#utility.yul\":12704:12783   */\n      tag_633\n      tag_390\n      jump\t// in\n    tag_633:\n        /* \"#utility.yul\":12663:12785   */\n    tag_632:\n        /* \"#utility.yul\":12828:12839   */\n      dup1\n        /* \"#utility.yul\":12820:12826   */\n      dup7\n        /* \"#utility.yul\":12816:12840   */\n      add\n        /* \"#utility.yul\":12866:12913   */\n      tag_634\n        /* \"#utility.yul\":12909:12912   */\n      dup10\n        /* \"#utility.yul\":12897:12907   */\n      dup3\n        /* \"#utility.yul\":12866:12913   */\n      tag_397\n      jump\t// in\n    tag_634:\n        /* \"#utility.yul\":12861:12864   */\n      dup6\n        /* \"#utility.yul\":12854:12914   */\n      mstore\n        /* \"#utility.yul\":12943:12947   */\n      0x20\n        /* \"#utility.yul\":12938:12941   */\n      dup6\n        /* \"#utility.yul\":12934:12948   */\n      add\n        /* \"#utility.yul\":12927:12948   */\n      swap5\n      pop\n        /* \"#utility.yul\":12599:12958   */\n      pop\n      pop\n        /* \"#utility.yul\":12583:12587   */\n      0x20\n        /* \"#utility.yul\":12578:12581   */\n      dup2\n        /* \"#utility.yul\":12574:12588   */\n      add\n        /* \"#utility.yul\":12567:12588   */\n      swap1\n      pop\n        /* \"#utility.yul\":12523:12958   */\n      jump(tag_629)\n    tag_631:\n        /* \"#utility.yul\":12527:12548   */\n      pop\n        /* \"#utility.yul\":12131:12964   */\n      pop\n      pop\n        /* \"#utility.yul\":12019:12964   */\n      swap4\n      swap3\n      pop\n      pop\n      pop\n      jump\t// out\n        /* \"#utility.yul\":12986:13376   */\n    tag_415:\n        /* \"#utility.yul\":13067:13072   */\n      0x00\n        /* \"#utility.yul\":13116:13119   */\n      dup3\n        /* \"#utility.yul\":13109:13113   */\n      0x1f\n        /* \"#utility.yul\":13101:13107   */\n      dup4\n        /* \"#utility.yul\":13097:13114   */\n      add\n        /* \"#utility.yul\":13093:13120   */\n      slt\n        /* \"#utility.yul\":13083:13205   */\n      tag_636\n      jumpi\n        /* \"#utility.yul\":13124:13203   */\n      tag_637\n      tag_390\n      jump\t// in\n    tag_637:\n        /* \"#utility.yul\":13083:13205   */\n    tag_636:\n        /* \"#utility.yul\":13241:13247   */\n      dup2\n        /* \"#utility.yul\":13228:13248   */\n      calldataload\n        /* \"#utility.yul\":13266:13370   */\n      tag_638\n        /* \"#utility.yul\":13366:13369   */\n      dup5\n        /* \"#utility.yul\":13358:13364   */\n      dup3\n        /* \"#utility.yul\":13351:13355   */\n      0x20\n        /* \"#utility.yul\":13343:13349   */\n      dup7\n        /* \"#utility.yul\":13339:13356   */\n      add\n        /* \"#utility.yul\":13266:13370   */\n      tag_414\n      jump\t// in\n    tag_638:\n        /* \"#utility.yul\":13257:13370   */\n      swap2\n      pop\n        /* \"#utility.yul\":13073:13376   */\n      pop\n        /* \"#utility.yul\":12986:13376   */\n      swap3\n      swap2\n      pop\n      pop\n      jump\t// out\n        /* \"#utility.yul\":13382:13693   */\n    tag_416:\n        /* \"#utility.yul\":13459:13463   */\n      0x00\n        /* \"#utility.yul\":13549:13567   */\n      0xffffffffffffffff\n        /* \"#utility.yul\":13541:13547   */\n      dup3\n        /* \"#utility.yul\":13538:13568   */\n      gt\n        /* \"#utility.yul\":13535:13591   */\n      iszero\n      tag_640\n      jumpi\n        /* \"#utility.yul\":13571:13589   */\n      tag_641\n      tag_130\n      jump\t// in\n    tag_641:\n        /* \"#utility.yul\":13535:13591   */\n    tag_640:\n        /* \"#utility.yul\":13621:13625   */\n      0x20\n        /* \"#utility.yul\":13613:13619   */\n      dup3\n        /* \"#utility.yul\":13609:13626   */\n      mul\n        /* \"#utility.yul\":13601:13626   */\n      swap1\n      pop\n        /* \"#utility.yul\":13681:13685   */\n      0x20\n        /* \"#utility.yul\":13675:13679   */\n      dup2\n        /* \"#utility.yul\":13671:13686   */\n      add\n        /* \"#utility.yul\":13663:13686   */\n      swap1\n      pop\n        /* \"#utility.yul\":13382:13693   */\n      swap2\n      swap1\n      pop\n      jump\t// out\n        /* \"#utility.yul\":13699:13825   */\n    tag_417:\n        /* \"#utility.yul\":13736:13743   */\n      0x00\n        /* \"#utility.yul\":13776:13818   */\n      0xffffffffffffffffffffffffffffffffffffffff\n        /* \"#utility.yul\":13769:13774   */\n      dup3\n        /* \"#utility.yul\":13765:13819   */\n      and\n        /* \"#utility.yul\":13754:13819   */\n      swap1\n      pop\n        /* \"#utility.yul\":13699:13825   */\n      swap2\n      swap1\n      pop\n      jump\t// out\n        /* \"#utility.yul\":13831:13927   */\n    tag_418:\n        /* \"#utility.yul\":13868:13875   */\n      0x00\n        /* \"#utility.yul\":13897:13921   */\n      tag_644\n        /* \"#utility.yul\":13915:13920   */\n      dup3\n        /* \"#utility.yul\":13897:13921   */\n      tag_417\n      jump\t// in\n    tag_644:\n        /* \"#utility.yul\":13886:13921   */\n      swap1\n      pop\n        /* \"#utility.yul\":13831:13927   */\n      swap2\n      swap1\n      pop\n      jump\t// out\n        /* \"#utility.yul\":13933:14055   */\n    tag_419:\n        /* \"#utility.yul\":14006:14030   */\n      tag_646\n        /* \"#utility.yul\":14024:14029   */\n      dup2\n        /* \"#utility.yul\":14006:14030   */\n      tag_418\n      jump\t// in\n    tag_646:\n        /* \"#utility.yul\":13999:14004   */\n      dup2\n        /* \"#utility.yul\":13996:14031   */\n      eq\n        /* \"#utility.yul\":13986:14049   */\n      tag_647\n      jumpi\n        /* \"#utility.yul\":14045:14046   */\n      0x00\n        /* \"#utility.yul\":14042:14043   */\n      dup1\n        /* \"#utility.yul\":14035:14047   */\n      revert\n        /* \"#utility.yul\":13986:14049   */\n    tag_647:\n        /* \"#utility.yul\":13933:14055   */\n      pop\n      jump\t// out\n        /* \"#utility.yul\":14061:14200   */\n    tag_420:\n        /* \"#utility.yul\":14107:14112   */\n      0x00\n        /* \"#utility.yul\":14145:14151   */\n      dup2\n        /* \"#utility.yul\":14132:14152   */\n      calldataload\n        /* \"#utility.yul\":14123:14152   */\n      swap1\n      pop\n        /* \"#utility.yul\":14161:14194   */\n      tag_649\n        /* \"#utility.yul\":14188:14193   */\n      dup2\n        /* \"#utility.yul\":14161:14194   */\n      tag_419\n      jump\t// in\n    tag_649:\n        /* \"#utility.yul\":14061:14200   */\n      swap3\n      swap2\n      pop\n      pop\n      jump\t// out\n        /* \"#utility.yul\":14223:14933   */\n    tag_421:\n        /* \"#utility.yul\":14319:14324   */\n      0x00\n        /* \"#utility.yul\":14344:14425   */\n      tag_651\n        /* \"#utility.yul\":14360:14424   */\n      tag_652\n        /* \"#utility.yul\":14417:14423   */\n      dup5\n        /* \"#utility.yul\":14360:14424   */\n      tag_416\n      jump\t// in\n    tag_652:\n        /* \"#utility.yul\":14344:14425   */\n      tag_393\n      jump\t// in\n    tag_651:\n        /* \"#utility.yul\":14335:14425   */\n      swap1\n      pop\n        /* \"#utility.yul\":14445:14450   */\n      dup1\n        /* \"#utility.yul\":14474:14480   */\n      dup4\n        /* \"#utility.yul\":14467:14472   */\n      dup3\n        /* \"#utility.yul\":14460:14481   */\n      mstore\n        /* \"#utility.yul\":14508:14512   */\n      0x20\n        /* \"#utility.yul\":14501:14506   */\n      dup3\n        /* \"#utility.yul\":14497:14513   */\n      add\n        /* \"#utility.yul\":14490:14513   */\n      swap1\n      pop\n        /* \"#utility.yul\":14561:14565   */\n      0x20\n        /* \"#utility.yul\":14553:14559   */\n      dup5\n        /* \"#utility.yul\":14549:14566   */\n      mul\n        /* \"#utility.yul\":14541:14547   */\n      dup4\n        /* \"#utility.yul\":14537:14567   */\n      add\n        /* \"#utility.yul\":14590:14593   */\n      dup6\n        /* \"#utility.yul\":14582:14588   */\n      dup2\n        /* \"#utility.yul\":14579:14594   */\n      gt\n        /* \"#utility.yul\":14576:14698   */\n      iszero\n      tag_653\n      jumpi\n        /* \"#utility.yul\":14609:14688   */\n      tag_654\n      tag_413\n      jump\t// in\n    tag_654:\n        /* \"#utility.yul\":14576:14698   */\n    tag_653:\n        /* \"#utility.yul\":14724:14730   */\n      dup4\n        /* \"#utility.yul\":14707:14927   */\n    tag_655:\n        /* \"#utility.yul\":14741:14747   */\n      dup2\n        /* \"#utility.yul\":14736:14739   */\n      dup2\n        /* \"#utility.yul\":14733:14748   */\n      lt\n        /* \"#utility.yul\":14707:14927   */\n      iszero\n      tag_657\n      jumpi\n        /* \"#utility.yul\":14816:14819   */\n      dup1\n        /* \"#utility.yul\":14845:14882   */\n      tag_658\n        /* \"#utility.yul\":14878:14881   */\n      dup9\n        /* \"#utility.yul\":14866:14876   */\n      dup3\n        /* \"#utility.yul\":14845:14882   */\n      tag_420\n      jump\t// in\n    tag_658:\n        /* \"#utility.yul\":14840:14843   */\n      dup5\n        /* \"#utility.yul\":14833:14883   */\n      mstore\n        /* \"#utility.yul\":14912:14916   */\n      0x20\n        /* \"#utility.yul\":14907:14910   */\n      dup5\n        /* \"#utility.yul\":14903:14917   */\n      add\n        /* \"#utility.yul\":14896:14917   */\n      swap4\n      pop\n        /* \"#utility.yul\":14783:14927   */\n      pop\n        /* \"#utility.yul\":14767:14771   */\n      0x20\n        /* \"#utility.yul\":14762:14765   */\n      dup2\n        /* \"#utility.yul\":14758:14772   */\n      add\n        /* \"#utility.yul\":14751:14772   */\n      swap1\n      pop\n        /* \"#utility.yul\":14707:14927   */\n      jump(tag_655)\n    tag_657:\n        /* \"#utility.yul\":14711:14732   */\n      pop\n        /* \"#utility.yul\":14325:14933   */\n      pop\n      pop\n        /* \"#utility.yul\":14223:14933   */\n      swap4\n      swap3\n      pop\n      pop\n      pop\n      jump\t// out\n        /* \"#utility.yul\":14956:15326   */\n    tag_422:\n        /* \"#utility.yul\":15027:15032   */\n      0x00\n        /* \"#utility.yul\":15076:15079   */\n      dup3\n        /* \"#utility.yul\":15069:15073   */\n      0x1f\n        /* \"#utility.yul\":15061:15067   */\n      dup4\n        /* \"#utility.yul\":15057:15074   */\n      add\n        /* \"#utility.yul\":15053:15080   */\n      slt\n        /* \"#utility.yul\":15043:15165   */\n      tag_660\n      jumpi\n        /* \"#utility.yul\":15084:15163   */\n      tag_661\n      tag_390\n      jump\t// in\n    tag_661:\n        /* \"#utility.yul\":15043:15165   */\n    tag_660:\n        /* \"#utility.yul\":15201:15207   */\n      dup2\n        /* \"#utility.yul\":15188:15208   */\n      calldataload\n        /* \"#utility.yul\":15226:15320   */\n      tag_662\n        /* \"#utility.yul\":15316:15319   */\n      dup5\n        /* \"#utility.yul\":15308:15314   */\n      dup3\n        /* \"#utility.yul\":15301:15305   */\n      0x20\n        /* \"#utility.yul\":15293:15299   */\n      dup7\n        /* \"#utility.yul\":15289:15306   */\n      add\n        /* \"#utility.yul\":15226:15320   */\n      tag_421\n      jump\t// in\n    tag_662:\n        /* \"#utility.yul\":15217:15320   */\n      swap2\n      pop\n        /* \"#utility.yul\":15033:15326   */\n      pop\n        /* \"#utility.yul\":14956:15326   */\n      swap3\n      swap2\n      pop\n      pop\n      jump\t// out\n        /* \"#utility.yul\":15332:16571   */\n    tag_45:\n        /* \"#utility.yul\":15479:15485   */\n      0x00\n        /* \"#utility.yul\":15487:15493   */\n      dup1\n        /* \"#utility.yul\":15495:15501   */\n      0x00\n        /* \"#utility.yul\":15544:15546   */\n      0x60\n        /* \"#utility.yul\":15532:15541   */\n      dup5\n        /* \"#utility.yul\":15523:15530   */\n      dup7\n        /* \"#utility.yul\":15519:15542   */\n      sub\n        /* \"#utility.yul\":15515:15547   */\n      slt\n        /* \"#utility.yul\":15512:15631   */\n      iszero\n      tag_664\n      jumpi\n        /* \"#utility.yul\":15550:15629   */\n      tag_665\n      tag_381\n      jump\t// in\n    tag_665:\n        /* \"#utility.yul\":15512:15631   */\n    tag_664:\n        /* \"#utility.yul\":15698:15699   */\n      0x00\n        /* \"#utility.yul\":15687:15696   */\n      dup5\n        /* \"#utility.yul\":15683:15700   */\n      add\n        /* \"#utility.yul\":15670:15701   */\n      calldataload\n        /* \"#utility.yul\":15728:15746   */\n      0xffffffffffffffff\n        /* \"#utility.yul\":15720:15726   */\n      dup2\n        /* \"#utility.yul\":15717:15747   */\n      gt\n        /* \"#utility.yul\":15714:15831   */\n      iszero\n      tag_666\n      jumpi\n        /* \"#utility.yul\":15750:15829   */\n      tag_667\n      tag_382\n      jump\t// in\n    tag_667:\n        /* \"#utility.yul\":15714:15831   */\n    tag_666:\n        /* \"#utility.yul\":15855:15918   */\n      tag_668\n        /* \"#utility.yul\":15910:15917   */\n      dup7\n        /* \"#utility.yul\":15901:15907   */\n      dup3\n        /* \"#utility.yul\":15890:15899   */\n      dup8\n        /* \"#utility.yul\":15886:15908   */\n      add\n        /* \"#utility.yul\":15855:15918   */\n      tag_397\n      jump\t// in\n    tag_668:\n        /* \"#utility.yul\":15845:15918   */\n      swap4\n      pop\n        /* \"#utility.yul\":15641:15928   */\n      pop\n        /* \"#utility.yul\":15995:15997   */\n      0x20\n        /* \"#utility.yul\":15984:15993   */\n      dup5\n        /* \"#utility.yul\":15980:15998   */\n      add\n        /* \"#utility.yul\":15967:15999   */\n      calldataload\n        /* \"#utility.yul\":16026:16044   */\n      0xffffffffffffffff\n        /* \"#utility.yul\":16018:16024   */\n      dup2\n        /* \"#utility.yul\":16015:16045   */\n      gt\n        /* \"#utility.yul\":16012:16129   */\n      iszero\n      tag_669\n      jumpi\n        /* \"#utility.yul\":16048:16127   */\n      tag_670\n      tag_382\n      jump\t// in\n    tag_670:\n        /* \"#utility.yul\":16012:16129   */\n    tag_669:\n        /* \"#utility.yul\":16153:16241   */\n      tag_671\n        /* \"#utility.yul\":16233:16240   */\n      dup7\n        /* \"#utility.yul\":16224:16230   */\n      dup3\n        /* \"#utility.yul\":16213:16222   */\n      dup8\n        /* \"#utility.yul\":16209:16231   */\n      add\n        /* \"#utility.yul\":16153:16241   */\n      tag_415\n      jump\t// in\n    tag_671:\n        /* \"#utility.yul\":16143:16241   */\n      swap3\n      pop\n        /* \"#utility.yul\":15938:16251   */\n      pop\n        /* \"#utility.yul\":16318:16320   */\n      0x40\n        /* \"#utility.yul\":16307:16316   */\n      dup5\n        /* \"#utility.yul\":16303:16321   */\n      add\n        /* \"#utility.yul\":16290:16322   */\n      calldataload\n        /* \"#utility.yul\":16349:16367   */\n      0xffffffffffffffff\n        /* \"#utility.yul\":16341:16347   */\n      dup2\n        /* \"#utility.yul\":16338:16368   */\n      gt\n        /* \"#utility.yul\":16335:16452   */\n      iszero\n      tag_672\n      jumpi\n        /* \"#utility.yul\":16371:16450   */\n      tag_673\n      tag_382\n      jump\t// in\n    tag_673:\n        /* \"#utility.yul\":16335:16452   */\n    tag_672:\n        /* \"#utility.yul\":16476:16554   */\n      tag_674\n        /* \"#utility.yul\":16546:16553   */\n      dup7\n        /* \"#utility.yul\":16537:16543   */\n      dup3\n        /* \"#utility.yul\":16526:16535   */\n      dup8\n        /* \"#utility.yul\":16522:16544   */\n      add\n        /* \"#utility.yul\":16476:16554   */\n      tag_422\n      jump\t// in\n    tag_674:\n        /* \"#utility.yul\":16466:16554   */\n      swap2\n      pop\n        /* \"#utility.yul\":16261:16564   */\n      pop\n        /* \"#utility.yul\":15332:16571   */\n      swap3\n      pop\n      swap3\n      pop\n      swap3\n      jump\t// out\n        /* \"#utility.yul\":16577:16950   */\n    tag_51:\n        /* \"#utility.yul\":16720:16724   */\n      0x00\n        /* \"#utility.yul\":16758:16760   */\n      0x20\n        /* \"#utility.yul\":16747:16756   */\n      dup3\n        /* \"#utility.yul\":16743:16761   */\n      add\n        /* \"#utility.yul\":16735:16761   */\n      swap1\n      pop\n        /* \"#utility.yul\":16807:16816   */\n      dup2\n        /* \"#utility.yul\":16801:16805   */\n      dup2\n        /* \"#utility.yul\":16797:16817   */\n      sub\n        /* \"#utility.yul\":16793:16794   */\n      0x00\n        /* \"#utility.yul\":16782:16791   */\n      dup4\n        /* \"#utility.yul\":16778:16795   */\n      add\n        /* \"#utility.yul\":16771:16818   */\n      mstore\n        /* \"#utility.yul\":16835:16943   */\n      tag_676\n        /* \"#utility.yul\":16938:16942   */\n      dup2\n        /* \"#utility.yul\":16929:16935   */\n      dup5\n        /* \"#utility.yul\":16835:16943   */\n      tag_404\n      jump\t// in\n    tag_676:\n        /* \"#utility.yul\":16827:16943   */\n      swap1\n      pop\n        /* \"#utility.yul\":16577:16950   */\n      swap3\n      swap2\n      pop\n      pop\n      jump\t// out\n        /* \"#utility.yul\":16956:17430   */\n    tag_54:\n        /* \"#utility.yul\":17024:17030   */\n      0x00\n        /* \"#utility.yul\":17032:17038   */\n      dup1\n        /* \"#utility.yul\":17081:17083   */\n      0x40\n        /* \"#utility.yul\":17069:17078   */\n      dup4\n        /* \"#utility.yul\":17060:17067   */\n      dup6\n        /* \"#utility.yul\":17056:17079   */\n      sub\n        /* \"#utility.yul\":17052:17084   */\n      slt\n        /* \"#utility.yul\":17049:17168   */\n      iszero\n      tag_678\n      jumpi\n        /* \"#utility.yul\":17087:17166   */\n      tag_679\n      tag_381\n      jump\t// in\n    tag_679:\n        /* \"#utility.yul\":17049:17168   */\n    tag_678:\n        /* \"#utility.yul\":17207:17208   */\n      0x00\n        /* \"#utility.yul\":17232:17285   */\n      tag_680\n        /* \"#utility.yul\":17277:17284   */\n      dup6\n        /* \"#utility.yul\":17268:17274   */\n      dup3\n        /* \"#utility.yul\":17257:17266   */\n      dup7\n        /* \"#utility.yul\":17253:17275   */\n      add\n        /* \"#utility.yul\":17232:17285   */\n      tag_385\n      jump\t// in\n    tag_680:\n        /* \"#utility.yul\":17222:17285   */\n      swap3\n      pop\n        /* \"#utility.yul\":17178:17295   */\n      pop\n        /* \"#utility.yul\":17334:17336   */\n      0x20\n        /* \"#utility.yul\":17360:17413   */\n      tag_681\n        /* \"#utility.yul\":17405:17412   */\n      dup6\n        /* \"#utility.yul\":17396:17402   */\n      dup3\n        /* \"#utility.yul\":17385:17394   */\n      dup7\n        /* \"#utility.yul\":17381:17403   */\n      add\n        /* \"#utility.yul\":17360:17413   */\n      tag_385\n      jump\t// in\n    tag_681:\n        /* \"#utility.yul\":17350:17413   */\n      swap2\n      pop\n        /* \"#utility.yul\":17305:17423   */\n      pop\n        /* \"#utility.yul\":16956:17430   */\n      swap3\n      pop\n      swap3\n      swap1\n      pop\n      jump\t// out\n        /* \"#utility.yul\":17436:17554   */\n    tag_423:\n        /* \"#utility.yul\":17523:17547   */\n      tag_683\n        /* \"#utility.yul\":17541:17546   */\n      dup2\n        /* \"#utility.yul\":17523:17547   */\n      tag_418\n      jump\t// in\n    tag_683:\n        /* \"#utility.yul\":17518:17521   */\n      dup3\n        /* \"#utility.yul\":17511:17548   */\n      mstore\n        /* \"#utility.yul\":17436:17554   */\n      pop\n      pop\n      jump\t// out\n        /* \"#utility.yul\":17560:17678   */\n    tag_424:\n        /* \"#utility.yul\":17647:17671   */\n      tag_685\n        /* \"#utility.yul\":17665:17670   */\n      dup2\n        /* \"#utility.yul\":17647:17671   */\n      tag_386\n      jump\t// in\n    tag_685:\n        /* \"#utility.yul\":17642:17645   */\n      dup3\n        /* \"#utility.yul\":17635:17672   */\n      mstore\n        /* \"#utility.yul\":17560:17678   */\n      pop\n      pop\n      jump\t// out\n        /* \"#utility.yul\":17684:18126   */\n    tag_57:\n        /* \"#utility.yul\":17833:17837   */\n      0x00\n        /* \"#utility.yul\":17871:17873   */\n      0x60\n        /* \"#utility.yul\":17860:17869   */\n      dup3\n        /* \"#utility.yul\":17856:17874   */\n      add\n        /* \"#utility.yul\":17848:17874   */\n      swap1\n      pop\n        /* \"#utility.yul\":17884:17955   */\n      tag_687\n        /* \"#utility.yul\":17952:17953   */\n      0x00\n        /* \"#utility.yul\":17941:17950   */\n      dup4\n        /* \"#utility.yul\":17937:17954   */\n      add\n        /* \"#utility.yul\":17928:17934   */\n      dup7\n        /* \"#utility.yul\":17884:17955   */\n      tag_389\n      jump\t// in\n    tag_687:\n        /* \"#utility.yul\":17965:18037   */\n      tag_688\n        /* \"#utility.yul\":18033:18035   */\n      0x20\n        /* \"#utility.yul\":18022:18031   */\n      dup4\n        /* \"#utility.yul\":18018:18036   */\n      add\n        /* \"#utility.yul\":18009:18015   */\n      dup6\n        /* \"#utility.yul\":17965:18037   */\n      tag_423\n      jump\t// in\n    tag_688:\n        /* \"#utility.yul\":18047:18119   */\n      tag_689\n        /* \"#utility.yul\":18115:18117   */\n      0x40\n        /* \"#utility.yul\":18104:18113   */\n      dup4\n        /* \"#utility.yul\":18100:18118   */\n      add\n        /* \"#utility.yul\":18091:18097   */\n      dup5\n        /* \"#utility.yul\":18047:18119   */\n      tag_424\n      jump\t// in\n    tag_689:\n        /* \"#utility.yul\":17684:18126   */\n      swap5\n      swap4\n      pop\n      pop\n      pop\n      pop\n      jump\t// out\n        /* \"#utility.yul\":18132:18461   */\n    tag_63:\n        /* \"#utility.yul\":18191:18197   */\n      0x00\n        /* \"#utility.yul\":18240:18242   */\n      0x20\n        /* \"#utility.yul\":18228:18237   */\n      dup3\n        /* \"#utility.yul\":18219:18226   */\n      dup5\n        /* \"#utility.yul\":18215:18238   */\n      sub\n        /* \"#utility.yul\":18211:18243   */\n      slt\n        /* \"#utility.yul\":18208:18327   */\n      iszero\n      tag_691\n      jumpi\n        /* \"#utility.yul\":18246:18325   */\n      tag_692\n      tag_381\n      jump\t// in\n    tag_692:\n        /* \"#utility.yul\":18208:18327   */\n    tag_691:\n        /* \"#utility.yul\":18366:18367   */\n      0x00\n        /* \"#utility.yul\":18391:18444   */\n      tag_693\n        /* \"#utility.yul\":18436:18443   */\n      dup5\n        /* \"#utility.yul\":18427:18433   */\n      dup3\n        /* \"#utility.yul\":18416:18425   */\n      dup6\n        /* \"#utility.yul\":18412:18434   */\n      add\n        /* \"#utility.yul\":18391:18444   */\n      tag_388\n      jump\t// in\n    tag_693:\n        /* \"#utility.yul\":18381:18444   */\n      swap2\n      pop\n        /* \"#utility.yul\":18337:18454   */\n      pop\n        /* \"#utility.yul\":18132:18461   */\n      swap3\n      swap2\n      pop\n      pop\n      jump\t// out\n        /* \"#utility.yul\":18467:18909   */\n    tag_66:\n        /* \"#utility.yul\":18616:18620   */\n      0x00\n        /* \"#utility.yul\":18654:18656   */\n      0x60\n        /* \"#utility.yul\":18643:18652   */\n      dup3\n        /* \"#utility.yul\":18639:18657   */\n      add\n        /* \"#utility.yul\":18631:18657   */\n      swap1\n      pop\n        /* \"#utility.yul\":18667:18738   */\n      tag_695\n        /* \"#utility.yul\":18735:18736   */\n      0x00\n        /* \"#utility.yul\":18724:18733   */\n      dup4\n        /* \"#utility.yul\":18720:18737   */\n      add\n        /* \"#utility.yul\":18711:18717   */\n      dup7\n        /* \"#utility.yul\":18667:18738   */\n      tag_423\n      jump\t// in\n    tag_695:\n        /* \"#utility.yul\":18748:18820   */\n      tag_696\n        /* \"#utility.yul\":18816:18818   */\n      0x20\n        /* \"#utility.yul\":18805:18814   */\n      dup4\n        /* \"#utility.yul\":18801:18819   */\n      add\n        /* \"#utility.yul\":18792:18798   */\n      dup6\n        /* \"#utility.yul\":18748:18820   */\n      tag_389\n      jump\t// in\n    tag_696:\n        /* \"#utility.yul\":18830:18902   */\n      tag_697\n        /* \"#utility.yul\":18898:18900   */\n      0x40\n        /* \"#utility.yul\":18887:18896   */\n      dup4\n        /* \"#utility.yul\":18883:18901   */\n      add\n        /* \"#utility.yul\":18874:18880   */\n      dup5\n        /* \"#utility.yul\":18830:18902   */\n      tag_424\n      jump\t// in\n    tag_697:\n        /* \"#utility.yul\":18467:18909   */\n      swap5\n      swap4\n      pop\n      pop\n      pop\n      pop\n      jump\t// out\n        /* \"#utility.yul\":18915:19084   */\n    tag_425:\n        /* \"#utility.yul\":18999:19010   */\n      0x00\n        /* \"#utility.yul\":19033:19039   */\n      dup3\n        /* \"#utility.yul\":19028:19031   */\n      dup3\n        /* \"#utility.yul\":19021:19040   */\n      mstore\n        /* \"#utility.yul\":19073:19077   */\n      0x20\n        /* \"#utility.yul\":19068:19071   */\n      dup3\n        /* \"#utility.yul\":19064:19078   */\n      add\n        /* \"#utility.yul\":19049:19078   */\n      swap1\n      pop\n        /* \"#utility.yul\":18915:19084   */\n      swap3\n      swap2\n      pop\n      pop\n      jump\t// out\n        /* \"#utility.yul\":19090:19467   */\n    tag_426:\n        /* \"#utility.yul\":19178:19181   */\n      0x00\n        /* \"#utility.yul\":19206:19245   */\n      tag_700\n        /* \"#utility.yul\":19239:19244   */\n      dup3\n        /* \"#utility.yul\":19206:19245   */\n      tag_372\n      jump\t// in\n    tag_700:\n        /* \"#utility.yul\":19261:19332   */\n      tag_701\n        /* \"#utility.yul\":19325:19331   */\n      dup2\n        /* \"#utility.yul\":19320:19323   */\n      dup6\n        /* \"#utility.yul\":19261:19332   */\n      tag_425\n      jump\t// in\n    tag_701:\n        /* \"#utility.yul\":19254:19332   */\n      swap4\n      pop\n        /* \"#utility.yul\":19341:19406   */\n      tag_702\n        /* \"#utility.yul\":19399:19405   */\n      dup2\n        /* \"#utility.yul\":19394:19397   */\n      dup6\n        /* \"#utility.yul\":19387:19391   */\n      0x20\n        /* \"#utility.yul\":19380:19385   */\n      dup7\n        /* \"#utility.yul\":19376:19392   */\n      add\n        /* \"#utility.yul\":19341:19406   */\n      tag_374\n      jump\t// in\n    tag_702:\n        /* \"#utility.yul\":19431:19460   */\n      tag_703\n        /* \"#utility.yul\":19453:19459   */\n      dup2\n        /* \"#utility.yul\":19431:19460   */\n      tag_375\n      jump\t// in\n    tag_703:\n        /* \"#utility.yul\":19426:19429   */\n      dup5\n        /* \"#utility.yul\":19422:19461   */\n      add\n        /* \"#utility.yul\":19415:19461   */\n      swap2\n      pop\n        /* \"#utility.yul\":19182:19467   */\n      pop\n        /* \"#utility.yul\":19090:19467   */\n      swap3\n      swap2\n      pop\n      pop\n      jump\t// out\n        /* \"#utility.yul\":19473:19559   */\n    tag_427:\n        /* \"#utility.yul\":19508:19515   */\n      0x00\n        /* \"#utility.yul\":19548:19552   */\n      0xff\n        /* \"#utility.yul\":19541:19546   */\n      dup3\n        /* \"#utility.yul\":19537:19553   */\n      and\n        /* \"#utility.yul\":19526:19553   */\n      swap1\n      pop\n        /* \"#utility.yul\":19473:19559   */\n      swap2\n      swap1\n      pop\n      jump\t// out\n        /* \"#utility.yul\":19565:19677   */\n    tag_428:\n        /* \"#utility.yul\":19648:19670   */\n      tag_706\n        /* \"#utility.yul\":19664:19669   */\n      dup2\n        /* \"#utility.yul\":19648:19670   */\n      tag_427\n      jump\t// in\n    tag_706:\n        /* \"#utility.yul\":19643:19646   */\n      dup3\n        /* \"#utility.yul\":19636:19671   */\n      mstore\n        /* \"#utility.yul\":19565:19677   */\n      pop\n      pop\n      jump\t// out\n        /* \"#utility.yul\":19683:19797   */\n    tag_429:\n        /* \"#utility.yul\":19750:19756   */\n      0x00\n        /* \"#utility.yul\":19784:19789   */\n      dup2\n        /* \"#utility.yul\":19778:19790   */\n      mload\n        /* \"#utility.yul\":19768:19790   */\n      swap1\n      pop\n        /* \"#utility.yul\":19683:19797   */\n      swap2\n      swap1\n      pop\n      jump\t// out\n        /* \"#utility.yul\":19803:19987   */\n    tag_430:\n        /* \"#utility.yul\":19902:19913   */\n      0x00\n        /* \"#utility.yul\":19936:19942   */\n      dup3\n        /* \"#utility.yul\":19931:19934   */\n      dup3\n        /* \"#utility.yul\":19924:19943   */\n      mstore\n        /* \"#utility.yul\":19976:19980   */\n      0x20\n        /* \"#utility.yul\":19971:19974   */\n      dup3\n        /* \"#utility.yul\":19967:19981   */\n      add\n        /* \"#utility.yul\":19952:19981   */\n      swap1\n      pop\n        /* \"#utility.yul\":19803:19987   */\n      swap3\n      swap2\n      pop\n      pop\n      jump\t// out\n        /* \"#utility.yul\":19993:20125   */\n    tag_431:\n        /* \"#utility.yul\":20060:20064   */\n      0x00\n        /* \"#utility.yul\":20083:20086   */\n      dup2\n        /* \"#utility.yul\":20075:20086   */\n      swap1\n      pop\n        /* \"#utility.yul\":20113:20117   */\n      0x20\n        /* \"#utility.yul\":20108:20111   */\n      dup3\n        /* \"#utility.yul\":20104:20118   */\n      add\n        /* \"#utility.yul\":20096:20118   */\n      swap1\n      pop\n        /* \"#utility.yul\":19993:20125   */\n      swap2\n      swap1\n      pop\n      jump\t// out\n        /* \"#utility.yul\":20131:20239   */\n    tag_432:\n        /* \"#utility.yul\":20208:20232   */\n      tag_711\n        /* \"#utility.yul\":20226:20231   */\n      dup2\n        /* \"#utility.yul\":20208:20232   */\n      tag_418\n      jump\t// in\n    tag_711:\n        /* \"#utility.yul\":20203:20206   */\n      dup3\n        /* \"#utility.yul\":20196:20233   */\n      mstore\n        /* \"#utility.yul\":20131:20239   */\n      pop\n      pop\n      jump\t// out\n        /* \"#utility.yul\":20245:20424   */\n    tag_433:\n        /* \"#utility.yul\":20314:20324   */\n      0x00\n        /* \"#utility.yul\":20335:20381   */\n      tag_713\n        /* \"#utility.yul\":20377:20380   */\n      dup4\n        /* \"#utility.yul\":20369:20375   */\n      dup4\n        /* \"#utility.yul\":20335:20381   */\n      tag_432\n      jump\t// in\n    tag_713:\n        /* \"#utility.yul\":20413:20417   */\n      0x20\n        /* \"#utility.yul\":20408:20411   */\n      dup4\n        /* \"#utility.yul\":20404:20418   */\n      add\n        /* \"#utility.yul\":20390:20418   */\n      swap1\n      pop\n        /* \"#utility.yul\":20245:20424   */\n      swap3\n      swap2\n      pop\n      pop\n      jump\t// out\n        /* \"#utility.yul\":20430:20543   */\n    tag_434:\n        /* \"#utility.yul\":20500:20504   */\n      0x00\n        /* \"#utility.yul\":20532:20536   */\n      0x20\n        /* \"#utility.yul\":20527:20530   */\n      dup3\n        /* \"#utility.yul\":20523:20537   */\n      add\n        /* \"#utility.yul\":20515:20537   */\n      swap1\n      pop\n        /* \"#utility.yul\":20430:20543   */\n      swap2\n      swap1\n      pop\n      jump\t// out\n        /* \"#utility.yul\":20579:21311   */\n    tag_435:\n        /* \"#utility.yul\":20698:20701   */\n      0x00\n        /* \"#utility.yul\":20727:20781   */\n      tag_716\n        /* \"#utility.yul\":20775:20780   */\n      dup3\n        /* \"#utility.yul\":20727:20781   */\n      tag_429\n      jump\t// in\n    tag_716:\n        /* \"#utility.yul\":20797:20883   */\n      tag_717\n        /* \"#utility.yul\":20876:20882   */\n      dup2\n        /* \"#utility.yul\":20871:20874   */\n      dup6\n        /* \"#utility.yul\":20797:20883   */\n      tag_430\n      jump\t// in\n    tag_717:\n        /* \"#utility.yul\":20790:20883   */\n      swap4\n      pop\n        /* \"#utility.yul\":20907:20963   */\n      tag_718\n        /* \"#utility.yul\":20957:20962   */\n      dup4\n        /* \"#utility.yul\":20907:20963   */\n      tag_431\n      jump\t// in\n    tag_718:\n        /* \"#utility.yul\":20986:20993   */\n      dup1\n        /* \"#utility.yul\":21017:21018   */\n      0x00\n        /* \"#utility.yul\":21002:21286   */\n    tag_719:\n        /* \"#utility.yul\":21027:21033   */\n      dup4\n        /* \"#utility.yul\":21024:21025   */\n      dup2\n        /* \"#utility.yul\":21021:21034   */\n      lt\n        /* \"#utility.yul\":21002:21286   */\n      iszero\n      tag_721\n      jumpi\n        /* \"#utility.yul\":21103:21109   */\n      dup2\n        /* \"#utility.yul\":21097:21110   */\n      mload\n        /* \"#utility.yul\":21130:21193   */\n      tag_722\n        /* \"#utility.yul\":21189:21192   */\n      dup9\n        /* \"#utility.yul\":21174:21187   */\n      dup3\n        /* \"#utility.yul\":21130:21193   */\n      tag_433\n      jump\t// in\n    tag_722:\n        /* \"#utility.yul\":21123:21193   */\n      swap8\n      pop\n        /* \"#utility.yul\":21216:21276   */\n      tag_723\n        /* \"#utility.yul\":21269:21275   */\n      dup4\n        /* \"#utility.yul\":21216:21276   */\n      tag_434\n      jump\t// in\n    tag_723:\n        /* \"#utility.yul\":21206:21276   */\n      swap3\n      pop\n        /* \"#utility.yul\":21062:21286   */\n      pop\n        /* \"#utility.yul\":21049:21050   */\n      0x01\n        /* \"#utility.yul\":21046:21047   */\n      dup2\n        /* \"#utility.yul\":21042:21051   */\n      add\n        /* \"#utility.yul\":21037:21051   */\n      swap1\n      pop\n        /* \"#utility.yul\":21002:21286   */\n      jump(tag_719)\n    tag_721:\n        /* \"#utility.yul\":21006:21020   */\n      pop\n        /* \"#utility.yul\":21302:21305   */\n      dup6\n        /* \"#utility.yul\":21295:21305   */\n      swap4\n      pop\n        /* \"#utility.yul\":20703:21311   */\n      pop\n      pop\n      pop\n        /* \"#utility.yul\":20579:21311   */\n      swap3\n      swap2\n      pop\n      pop\n      jump\t// out\n        /* \"#utility.yul\":21317:22790   */\n    tag_75:\n        /* \"#utility.yul\":21742:21746   */\n      0x00\n        /* \"#utility.yul\":21780:21783   */\n      0x0100\n        /* \"#utility.yul\":21769:21778   */\n      dup3\n        /* \"#utility.yul\":21765:21784   */\n      add\n        /* \"#utility.yul\":21757:21784   */\n      swap1\n      pop\n        /* \"#utility.yul\":21830:21839   */\n      dup2\n        /* \"#utility.yul\":21824:21828   */\n      dup2\n        /* \"#utility.yul\":21820:21840   */\n      sub\n        /* \"#utility.yul\":21816:21817   */\n      0x00\n        /* \"#utility.yul\":21805:21814   */\n      dup4\n        /* \"#utility.yul\":21801:21818   */\n      add\n        /* \"#utility.yul\":21794:21841   */\n      mstore\n        /* \"#utility.yul\":21858:21936   */\n      tag_725\n        /* \"#utility.yul\":21931:21935   */\n      dup2\n        /* \"#utility.yul\":21922:21928   */\n      dup12\n        /* \"#utility.yul\":21858:21936   */\n      tag_426\n      jump\t// in\n    tag_725:\n        /* \"#utility.yul\":21850:21936   */\n      swap1\n      pop\n        /* \"#utility.yul\":21983:21992   */\n      dup2\n        /* \"#utility.yul\":21977:21981   */\n      dup2\n        /* \"#utility.yul\":21973:21993   */\n      sub\n        /* \"#utility.yul\":21968:21970   */\n      0x20\n        /* \"#utility.yul\":21957:21966   */\n      dup4\n        /* \"#utility.yul\":21953:21971   */\n      add\n        /* \"#utility.yul\":21946:21994   */\n      mstore\n        /* \"#utility.yul\":22011:22089   */\n      tag_726\n        /* \"#utility.yul\":22084:22088   */\n      dup2\n        /* \"#utility.yul\":22075:22081   */\n      dup11\n        /* \"#utility.yul\":22011:22089   */\n      tag_426\n      jump\t// in\n    tag_726:\n        /* \"#utility.yul\":22003:22089   */\n      swap1\n      pop\n        /* \"#utility.yul\":22099:22171   */\n      tag_727\n        /* \"#utility.yul\":22167:22169   */\n      0x40\n        /* \"#utility.yul\":22156:22165   */\n      dup4\n        /* \"#utility.yul\":22152:22170   */\n      add\n        /* \"#utility.yul\":22143:22149   */\n      dup10\n        /* \"#utility.yul\":22099:22171   */\n      tag_424\n      jump\t// in\n    tag_727:\n        /* \"#utility.yul\":22181:22253   */\n      tag_728\n        /* \"#utility.yul\":22249:22251   */\n      0x60\n        /* \"#utility.yul\":22238:22247   */\n      dup4\n        /* \"#utility.yul\":22234:22252   */\n      add\n        /* \"#utility.yul\":22225:22231   */\n      dup9\n        /* \"#utility.yul\":22181:22253   */\n      tag_424\n      jump\t// in\n    tag_728:\n        /* \"#utility.yul\":22263:22336   */\n      tag_729\n        /* \"#utility.yul\":22331:22334   */\n      0x80\n        /* \"#utility.yul\":22320:22329   */\n      dup4\n        /* \"#utility.yul\":22316:22335   */\n      add\n        /* \"#utility.yul\":22307:22313   */\n      dup8\n        /* \"#utility.yul\":22263:22336   */\n      tag_423\n      jump\t// in\n    tag_729:\n        /* \"#utility.yul\":22346:22415   */\n      tag_730\n        /* \"#utility.yul\":22410:22413   */\n      0xa0\n        /* \"#utility.yul\":22399:22408   */\n      dup4\n        /* \"#utility.yul\":22395:22414   */\n      add\n        /* \"#utility.yul\":22386:22392   */\n      dup7\n        /* \"#utility.yul\":22346:22415   */\n      tag_428\n      jump\t// in\n    tag_730:\n        /* \"#utility.yul\":22463:22472   */\n      dup2\n        /* \"#utility.yul\":22457:22461   */\n      dup2\n        /* \"#utility.yul\":22453:22473   */\n      sub\n        /* \"#utility.yul\":22447:22450   */\n      0xc0\n        /* \"#utility.yul\":22436:22445   */\n      dup4\n        /* \"#utility.yul\":22432:22451   */\n      add\n        /* \"#utility.yul\":22425:22474   */\n      mstore\n        /* \"#utility.yul\":22491:22599   */\n      tag_731\n        /* \"#utility.yul\":22594:22598   */\n      dup2\n        /* \"#utility.yul\":22585:22591   */\n      dup6\n        /* \"#utility.yul\":22491:22599   */\n      tag_435\n      jump\t// in\n    tag_731:\n        /* \"#utility.yul\":22483:22599   */\n      swap1\n      pop\n        /* \"#utility.yul\":22647:22656   */\n      dup2\n        /* \"#utility.yul\":22641:22645   */\n      dup2\n        /* \"#utility.yul\":22637:22657   */\n      sub\n        /* \"#utility.yul\":22631:22634   */\n      0xe0\n        /* \"#utility.yul\":22620:22629   */\n      dup4\n        /* \"#utility.yul\":22616:22635   */\n      add\n        /* \"#utility.yul\":22609:22658   */\n      mstore\n        /* \"#utility.yul\":22675:22783   */\n      tag_732\n        /* \"#utility.yul\":22778:22782   */\n      dup2\n        /* \"#utility.yul\":22769:22775   */\n      dup5\n        /* \"#utility.yul\":22675:22783   */\n      tag_435\n      jump\t// in\n    tag_732:\n        /* \"#utility.yul\":22667:22783   */\n      swap1\n      pop\n        /* \"#utility.yul\":21317:22790   */\n      swap10\n      swap9\n      pop\n      pop\n      pop\n      pop\n      pop\n      pop\n      pop\n      pop\n      pop\n      jump\t// out\n        /* \"#utility.yul\":22796:23125   */\n    tag_78:\n        /* \"#utility.yul\":22855:22861   */\n      0x00\n        /* \"#utility.yul\":22904:22906   */\n      0x20\n        /* \"#utility.yul\":22892:22901   */\n      dup3\n        /* \"#utility.yul\":22883:22890   */\n      dup5\n        /* \"#utility.yul\":22879:22902   */\n      sub\n        /* \"#utility.yul\":22875:22907   */\n      slt\n        /* \"#utility.yul\":22872:22991   */\n      iszero\n      tag_734\n      jumpi\n        /* \"#utility.yul\":22910:22989   */\n      tag_735\n      tag_381\n      jump\t// in\n    tag_735:\n        /* \"#utility.yul\":22872:22991   */\n    tag_734:\n        /* \"#utility.yul\":23030:23031   */\n      0x00\n        /* \"#utility.yul\":23055:23108   */\n      tag_736\n        /* \"#utility.yul\":23100:23107   */\n      dup5\n        /* \"#utility.yul\":23091:23097   */\n      dup3\n        /* \"#utility.yul\":23080:23089   */\n      dup6\n        /* \"#utility.yul\":23076:23098   */\n      add\n        /* \"#utility.yul\":23055:23108   */\n      tag_420\n      jump\t// in\n    tag_736:\n        /* \"#utility.yul\":23045:23108   */\n      swap2\n      pop\n        /* \"#utility.yul\":23001:23118   */\n      pop\n        /* \"#utility.yul\":22796:23125   */\n      swap3\n      swap2\n      pop\n      pop\n      jump\t// out\n        /* \"#utility.yul\":23131:23249   */\n    tag_436:\n        /* \"#utility.yul\":23202:23224   */\n      tag_738\n        /* \"#utility.yul\":23218:23223   */\n      dup2\n        /* \"#utility.yul\":23202:23224   */\n      tag_427\n      jump\t// in\n    tag_738:\n        /* \"#utility.yul\":23195:23200   */\n      dup2\n        /* \"#utility.yul\":23192:23225   */\n      eq\n        /* \"#utility.yul\":23182:23243   */\n      tag_739\n      jumpi\n        /* \"#utility.yul\":23239:23240   */\n      0x00\n        /* \"#utility.yul\":23236:23237   */\n      dup1\n        /* \"#utility.yul\":23229:23241   */\n      revert\n        /* \"#utility.yul\":23182:23243   */\n    tag_739:\n        /* \"#utility.yul\":23131:23249   */\n      pop\n      jump\t// out\n        /* \"#utility.yul\":23255:23390   */\n    tag_437:\n        /* \"#utility.yul\":23299:23304   */\n      0x00\n        /* \"#utility.yul\":23337:23343   */\n      dup2\n        /* \"#utility.yul\":23324:23344   */\n      calldataload\n        /* \"#utility.yul\":23315:23344   */\n      swap1\n      pop\n        /* \"#utility.yul\":23353:23384   */\n      tag_741\n        /* \"#utility.yul\":23378:23383   */\n      dup2\n        /* \"#utility.yul\":23353:23384   */\n      tag_436\n      jump\t// in\n    tag_741:\n        /* \"#utility.yul\":23255:23390   */\n      swap3\n      swap2\n      pop\n      pop\n      jump\t// out\n        /* \"#utility.yul\":23396:24663   */\n    tag_83:\n        /* \"#utility.yul\":23509:23515   */\n      0x00\n        /* \"#utility.yul\":23517:23523   */\n      dup1\n        /* \"#utility.yul\":23525:23531   */\n      0x00\n        /* \"#utility.yul\":23533:23539   */\n      dup1\n        /* \"#utility.yul\":23541:23547   */\n      0x00\n        /* \"#utility.yul\":23590:23593   */\n      0xa0\n        /* \"#utility.yul\":23578:23587   */\n      dup7\n        /* \"#utility.yul\":23569:23576   */\n      dup9\n        /* \"#utility.yul\":23565:23588   */\n      sub\n        /* \"#utility.yul\":23561:23594   */\n      slt\n        /* \"#utility.yul\":23558:23678   */\n      iszero\n      tag_743\n      jumpi\n        /* \"#utility.yul\":23597:23676   */\n      tag_744\n      tag_381\n      jump\t// in\n    tag_744:\n        /* \"#utility.yul\":23558:23678   */\n    tag_743:\n        /* \"#utility.yul\":23745:23746   */\n      0x00\n        /* \"#utility.yul\":23734:23743   */\n      dup7\n        /* \"#utility.yul\":23730:23747   */\n      add\n        /* \"#utility.yul\":23717:23748   */\n      calldataload\n        /* \"#utility.yul\":23775:23793   */\n      0xffffffffffffffff\n        /* \"#utility.yul\":23767:23773   */\n      dup2\n        /* \"#utility.yul\":23764:23794   */\n      gt\n        /* \"#utility.yul\":23761:23878   */\n      iszero\n      tag_745\n      jumpi\n        /* \"#utility.yul\":23797:23876   */\n      tag_746\n      tag_382\n      jump\t// in\n    tag_746:\n        /* \"#utility.yul\":23761:23878   */\n    tag_745:\n        /* \"#utility.yul\":23902:23965   */\n      tag_747\n        /* \"#utility.yul\":23957:23964   */\n      dup9\n        /* \"#utility.yul\":23948:23954   */\n      dup3\n        /* \"#utility.yul\":23937:23946   */\n      dup10\n        /* \"#utility.yul\":23933:23955   */\n      add\n        /* \"#utility.yul\":23902:23965   */\n      tag_397\n      jump\t// in\n    tag_747:\n        /* \"#utility.yul\":23892:23965   */\n      swap6\n      pop\n        /* \"#utility.yul\":23688:23975   */\n      pop\n        /* \"#utility.yul\":24042:24044   */\n      0x20\n        /* \"#utility.yul\":24031:24040   */\n      dup7\n        /* \"#utility.yul\":24027:24045   */\n      add\n        /* \"#utility.yul\":24014:24046   */\n      calldataload\n        /* \"#utility.yul\":24073:24091   */\n      0xffffffffffffffff\n        /* \"#utility.yul\":24065:24071   */\n      dup2\n        /* \"#utility.yul\":24062:24092   */\n      gt\n        /* \"#utility.yul\":24059:24176   */\n      iszero\n      tag_748\n      jumpi\n        /* \"#utility.yul\":24095:24174   */\n      tag_749\n      tag_382\n      jump\t// in\n    tag_749:\n        /* \"#utility.yul\":24059:24176   */\n    tag_748:\n        /* \"#utility.yul\":24200:24263   */\n      tag_750\n        /* \"#utility.yul\":24255:24262   */\n      dup9\n        /* \"#utility.yul\":24246:24252   */\n      dup3\n        /* \"#utility.yul\":24235:24244   */\n      dup10\n        /* \"#utility.yul\":24231:24253   */\n      add\n        /* \"#utility.yul\":24200:24263   */\n      tag_397\n      jump\t// in\n    tag_750:\n        /* \"#utility.yul\":24190:24263   */\n      swap5\n      pop\n        /* \"#utility.yul\":23985:24273   */\n      pop\n        /* \"#utility.yul\":24312:24314   */\n      0x40\n        /* \"#utility.yul\":24338:24391   */\n      tag_751\n        /* \"#utility.yul\":24383:24390   */\n      dup9\n        /* \"#utility.yul\":24374:24380   */\n      dup3\n        /* \"#utility.yul\":24363:24372   */\n      dup10\n        /* \"#utility.yul\":24359:24381   */\n      add\n        /* \"#utility.yul\":24338:24391   */\n      tag_388\n      jump\t// in\n    tag_751:\n        /* \"#utility.yul\":24328:24391   */\n      swap4\n      pop\n        /* \"#utility.yul\":24283:24401   */\n      pop\n        /* \"#utility.yul\":24440:24442   */\n      0x60\n        /* \"#utility.yul\":24466:24519   */\n      tag_752\n        /* \"#utility.yul\":24511:24518   */\n      dup9\n        /* \"#utility.yul\":24502:24508   */\n      dup3\n        /* \"#utility.yul\":24491:24500   */\n      dup10\n        /* \"#utility.yul\":24487:24509   */\n      add\n        /* \"#utility.yul\":24466:24519   */\n      tag_388\n      jump\t// in\n    tag_752:\n        /* \"#utility.yul\":24456:24519   */\n      swap3\n      pop\n        /* \"#utility.yul\":24411:24529   */\n      pop\n        /* \"#utility.yul\":24568:24571   */\n      0x80\n        /* \"#utility.yul\":24595:24646   */\n      tag_753\n        /* \"#utility.yul\":24638:24645   */\n      dup9\n        /* \"#utility.yul\":24629:24635   */\n      dup3\n        /* \"#utility.yul\":24618:24627   */\n      dup10\n        /* \"#utility.yul\":24614:24636   */\n      add\n        /* \"#utility.yul\":24595:24646   */\n      tag_437\n      jump\t// in\n    tag_753:\n        /* \"#utility.yul\":24585:24646   */\n      swap2\n      pop\n        /* \"#utility.yul\":24539:24656   */\n      pop\n        /* \"#utility.yul\":23396:24663   */\n      swap3\n      swap6\n      pop\n      swap3\n      swap6\n      swap1\n      swap4\n      pop\n      jump\t// out\n        /* \"#utility.yul\":24669:25503   */\n    tag_87:\n        /* \"#utility.yul\":24757:24763   */\n      0x00\n        /* \"#utility.yul\":24765:24771   */\n      dup1\n        /* \"#utility.yul\":24814:24816   */\n      0x40\n        /* \"#utility.yul\":24802:24811   */\n      dup4\n        /* \"#utility.yul\":24793:24800   */\n      dup6\n        /* \"#utility.yul\":24789:24812   */\n      sub\n        /* \"#utility.yul\":24785:24817   */\n      slt\n        /* \"#utility.yul\":24782:24901   */\n      iszero\n      tag_755\n      jumpi\n        /* \"#utility.yul\":24820:24899   */\n      tag_756\n      tag_381\n      jump\t// in\n    tag_756:\n        /* \"#utility.yul\":24782:24901   */\n    tag_755:\n        /* \"#utility.yul\":24968:24969   */\n      0x00\n        /* \"#utility.yul\":24957:24966   */\n      dup4\n        /* \"#utility.yul\":24953:24970   */\n      add\n        /* \"#utility.yul\":24940:24971   */\n      calldataload\n        /* \"#utility.yul\":24998:25016   */\n      0xffffffffffffffff\n        /* \"#utility.yul\":24990:24996   */\n      dup2\n        /* \"#utility.yul\":24987:25017   */\n      gt\n        /* \"#utility.yul\":24984:25101   */\n      iszero\n      tag_757\n      jumpi\n        /* \"#utility.yul\":25020:25099   */\n      tag_758\n      tag_382\n      jump\t// in\n    tag_758:\n        /* \"#utility.yul\":24984:25101   */\n    tag_757:\n        /* \"#utility.yul\":25125:25188   */\n      tag_759\n        /* \"#utility.yul\":25180:25187   */\n      dup6\n        /* \"#utility.yul\":25171:25177   */\n      dup3\n        /* \"#utility.yul\":25160:25169   */\n      dup7\n        /* \"#utility.yul\":25156:25178   */\n      add\n        /* \"#utility.yul\":25125:25188   */\n      tag_397\n      jump\t// in\n    tag_759:\n        /* \"#utility.yul\":25115:25188   */\n      swap3\n      pop\n        /* \"#utility.yul\":24911:25198   */\n      pop\n        /* \"#utility.yul\":25265:25267   */\n      0x20\n        /* \"#utility.yul\":25254:25263   */\n      dup4\n        /* \"#utility.yul\":25250:25268   */\n      add\n        /* \"#utility.yul\":25237:25269   */\n      calldataload\n        /* \"#utility.yul\":25296:25314   */\n      0xffffffffffffffff\n        /* \"#utility.yul\":25288:25294   */\n      dup2\n        /* \"#utility.yul\":25285:25315   */\n      gt\n        /* \"#utility.yul\":25282:25399   */\n      iszero\n      tag_760\n      jumpi\n        /* \"#utility.yul\":25318:25397   */\n      tag_761\n      tag_382\n      jump\t// in\n    tag_761:\n        /* \"#utility.yul\":25282:25399   */\n    tag_760:\n        /* \"#utility.yul\":25423:25486   */\n      tag_762\n        /* \"#utility.yul\":25478:25485   */\n      dup6\n        /* \"#utility.yul\":25469:25475   */\n      dup3\n        /* \"#utility.yul\":25458:25467   */\n      dup7\n        /* \"#utility.yul\":25454:25476   */\n      add\n        /* \"#utility.yul\":25423:25486   */\n      tag_397\n      jump\t// in\n    tag_762:\n        /* \"#utility.yul\":25413:25486   */\n      swap2\n      pop\n        /* \"#utility.yul\":25208:25496   */\n      pop\n        /* \"#utility.yul\":24669:25503   */\n      swap3\n      pop\n      swap3\n      swap1\n      pop\n      jump\t// out\n        /* \"#utility.yul\":25509:25841   */\n    tag_90:\n        /* \"#utility.yul\":25630:25634   */\n      0x00\n        /* \"#utility.yul\":25668:25670   */\n      0x40\n        /* \"#utility.yul\":25657:25666   */\n      dup3\n        /* \"#utility.yul\":25653:25671   */\n      add\n        /* \"#utility.yul\":25645:25671   */\n      swap1\n      pop\n        /* \"#utility.yul\":25681:25752   */\n      tag_764\n        /* \"#utility.yul\":25749:25750   */\n      0x00\n        /* \"#utility.yul\":25738:25747   */\n      dup4\n        /* \"#utility.yul\":25734:25751   */\n      add\n        /* \"#utility.yul\":25725:25731   */\n      dup6\n        /* \"#utility.yul\":25681:25752   */\n      tag_423\n      jump\t// in\n    tag_764:\n        /* \"#utility.yul\":25762:25834   */\n      tag_765\n        /* \"#utility.yul\":25830:25832   */\n      0x20\n        /* \"#utility.yul\":25819:25828   */\n      dup4\n        /* \"#utility.yul\":25815:25833   */\n      add\n        /* \"#utility.yul\":25806:25812   */\n      dup5\n        /* \"#utility.yul\":25762:25834   */\n      tag_424\n      jump\t// in\n    tag_765:\n        /* \"#utility.yul\":25509:25841   */\n      swap4\n      swap3\n      pop\n      pop\n      pop\n      jump\t// out\n        /* \"#utility.yul\":25847:26321   */\n    tag_93:\n        /* \"#utility.yul\":25915:25921   */\n      0x00\n        /* \"#utility.yul\":25923:25929   */\n      dup1\n        /* \"#utility.yul\":25972:25974   */\n      0x40\n        /* \"#utility.yul\":25960:25969   */\n      dup4\n        /* \"#utility.yul\":25951:25958   */\n      dup6\n        /* \"#utility.yul\":25947:25970   */\n      sub\n        /* \"#utility.yul\":25943:25975   */\n      slt\n        /* \"#utility.yul\":25940:26059   */\n      iszero\n      tag_767\n      jumpi\n        /* \"#utility.yul\":25978:26057   */\n      tag_768\n      tag_381\n      jump\t// in\n    tag_768:\n        /* \"#utility.yul\":25940:26059   */\n    tag_767:\n        /* \"#utility.yul\":26098:26099   */\n      0x00\n        /* \"#utility.yul\":26123:26176   */\n      tag_769\n        /* \"#utility.yul\":26168:26175   */\n      dup6\n        /* \"#utility.yul\":26159:26165   */\n      dup3\n        /* \"#utility.yul\":26148:26157   */\n      dup7\n        /* \"#utility.yul\":26144:26166   */\n      add\n        /* \"#utility.yul\":26123:26176   */\n      tag_385\n      jump\t// in\n    tag_769:\n        /* \"#utility.yul\":26113:26176   */\n      swap3\n      pop\n        /* \"#utility.yul\":26069:26186   */\n      pop\n        /* \"#utility.yul\":26225:26227   */\n      0x20\n        /* \"#utility.yul\":26251:26304   */\n      tag_770\n        /* \"#utility.yul\":26296:26303   */\n      dup6\n        /* \"#utility.yul\":26287:26293   */\n      dup3\n        /* \"#utility.yul\":26276:26285   */\n      dup7\n        /* \"#utility.yul\":26272:26294   */\n      add\n        /* \"#utility.yul\":26251:26304   */\n      tag_420\n      jump\t// in\n    tag_770:\n        /* \"#utility.yul\":26241:26304   */\n      swap2\n      pop\n        /* \"#utility.yul\":26196:26314   */\n      pop\n        /* \"#utility.yul\":25847:26321   */\n      swap3\n      pop\n      swap3\n      swap1\n      pop\n      jump\t// out\n        /* \"#utility.yul\":26327:26417   */\n    tag_438:\n        /* \"#utility.yul\":26361:26368   */\n      0x00\n        /* \"#utility.yul\":26404:26409   */\n      dup2\n        /* \"#utility.yul\":26397:26410   */\n      iszero\n        /* \"#utility.yul\":26390:26411   */\n      iszero\n        /* \"#utility.yul\":26379:26411   */\n      swap1\n      pop\n        /* \"#utility.yul\":26327:26417   */\n      swap2\n      swap1\n      pop\n      jump\t// out\n        /* \"#utility.yul\":26423:26532   */\n    tag_439:\n        /* \"#utility.yul\":26504:26525   */\n      tag_773\n        /* \"#utility.yul\":26519:26524   */\n      dup2\n        /* \"#utility.yul\":26504:26525   */\n      tag_438\n      jump\t// in\n    tag_773:\n        /* \"#utility.yul\":26499:26502   */\n      dup3\n        /* \"#utility.yul\":26492:26526   */\n      mstore\n        /* \"#utility.yul\":26423:26532   */\n      pop\n      pop\n      jump\t// out\n        /* \"#utility.yul\":26538:26748   */\n    tag_96:\n        /* \"#utility.yul\":26625:26629   */\n      0x00\n        /* \"#utility.yul\":26663:26665   */\n      0x20\n        /* \"#utility.yul\":26652:26661   */\n      dup3\n        /* \"#utility.yul\":26648:26666   */\n      add\n        /* \"#utility.yul\":26640:26666   */\n      swap1\n      pop\n        /* \"#utility.yul\":26676:26741   */\n      tag_775\n        /* \"#utility.yul\":26738:26739   */\n      0x00\n        /* \"#utility.yul\":26727:26736   */\n      dup4\n        /* \"#utility.yul\":26723:26740   */\n      add\n        /* \"#utility.yul\":26714:26720   */\n      dup5\n        /* \"#utility.yul\":26676:26741   */\n      tag_439\n      jump\t// in\n    tag_775:\n        /* \"#utility.yul\":26538:26748   */\n      swap3\n      swap2\n      pop\n      pop\n      jump\t// out\n        /* \"#utility.yul\":26754:27879   */\n    tag_99:\n        /* \"#utility.yul\":26860:26866   */\n      0x00\n        /* \"#utility.yul\":26868:26874   */\n      dup1\n        /* \"#utility.yul\":26876:26882   */\n      0x00\n        /* \"#utility.yul\":26884:26890   */\n      dup1\n        /* \"#utility.yul\":26933:26936   */\n      0x80\n        /* \"#utility.yul\":26921:26930   */\n      dup6\n        /* \"#utility.yul\":26912:26919   */\n      dup8\n        /* \"#utility.yul\":26908:26931   */\n      sub\n        /* \"#utility.yul\":26904:26937   */\n      slt\n        /* \"#utility.yul\":26901:27021   */\n      iszero\n      tag_777\n      jumpi\n        /* \"#utility.yul\":26940:27019   */\n      tag_778\n      tag_381\n      jump\t// in\n    tag_778:\n        /* \"#utility.yul\":26901:27021   */\n    tag_777:\n        /* \"#utility.yul\":27088:27089   */\n      0x00\n        /* \"#utility.yul\":27077:27086   */\n      dup6\n        /* \"#utility.yul\":27073:27090   */\n      add\n        /* \"#utility.yul\":27060:27091   */\n      calldataload\n        /* \"#utility.yul\":27118:27136   */\n      0xffffffffffffffff\n        /* \"#utility.yul\":27110:27116   */\n      dup2\n        /* \"#utility.yul\":27107:27137   */\n      gt\n        /* \"#utility.yul\":27104:27221   */\n      iszero\n      tag_779\n      jumpi\n        /* \"#utility.yul\":27140:27219   */\n      tag_780\n      tag_382\n      jump\t// in\n    tag_780:\n        /* \"#utility.yul\":27104:27221   */\n    tag_779:\n        /* \"#utility.yul\":27245:27308   */\n      tag_781\n        /* \"#utility.yul\":27300:27307   */\n      dup8\n        /* \"#utility.yul\":27291:27297   */\n      dup3\n        /* \"#utility.yul\":27280:27289   */\n      dup9\n        /* \"#utility.yul\":27276:27298   */\n      add\n        /* \"#utility.yul\":27245:27308   */\n      tag_397\n      jump\t// in\n    tag_781:\n        /* \"#utility.yul\":27235:27308   */\n      swap5\n      pop\n        /* \"#utility.yul\":27031:27318   */\n      pop\n        /* \"#utility.yul\":27385:27387   */\n      0x20\n        /* \"#utility.yul\":27374:27383   */\n      dup6\n        /* \"#utility.yul\":27370:27388   */\n      add\n        /* \"#utility.yul\":27357:27389   */\n      calldataload\n        /* \"#utility.yul\":27416:27434   */\n      0xffffffffffffffff\n        /* \"#utility.yul\":27408:27414   */\n      dup2\n        /* \"#utility.yul\":27405:27435   */\n      gt\n        /* \"#utility.yul\":27402:27519   */\n      iszero\n      tag_782\n      jumpi\n        /* \"#utility.yul\":27438:27517   */\n      tag_783\n      tag_382\n      jump\t// in\n    tag_783:\n        /* \"#utility.yul\":27402:27519   */\n    tag_782:\n        /* \"#utility.yul\":27543:27606   */\n      tag_784\n        /* \"#utility.yul\":27598:27605   */\n      dup8\n        /* \"#utility.yul\":27589:27595   */\n      dup3\n        /* \"#utility.yul\":27578:27587   */\n      dup9\n        /* \"#utility.yul\":27574:27596   */\n      add\n        /* \"#utility.yul\":27543:27606   */\n      tag_397\n      jump\t// in\n    tag_784:\n        /* \"#utility.yul\":27533:27606   */\n      swap4\n      pop\n        /* \"#utility.yul\":27328:27616   */\n      pop\n        /* \"#utility.yul\":27655:27657   */\n      0x40\n        /* \"#utility.yul\":27681:27734   */\n      tag_785\n        /* \"#utility.yul\":27726:27733   */\n      dup8\n        /* \"#utility.yul\":27717:27723   */\n      dup3\n        /* \"#utility.yul\":27706:27715   */\n      dup9\n        /* \"#utility.yul\":27702:27724   */\n      add\n        /* \"#utility.yul\":27681:27734   */\n      tag_388\n      jump\t// in\n    tag_785:\n        /* \"#utility.yul\":27671:27734   */\n      swap3\n      pop\n        /* \"#utility.yul\":27626:27744   */\n      pop\n        /* \"#utility.yul\":27783:27785   */\n      0x60\n        /* \"#utility.yul\":27809:27862   */\n      tag_786\n        /* \"#utility.yul\":27854:27861   */\n      dup8\n        /* \"#utility.yul\":27845:27851   */\n      dup3\n        /* \"#utility.yul\":27834:27843   */\n      dup9\n        /* \"#utility.yul\":27830:27852   */\n      add\n        /* \"#utility.yul\":27809:27862   */\n      tag_388\n      jump\t// in\n    tag_786:\n        /* \"#utility.yul\":27799:27862   */\n      swap2\n      pop\n        /* \"#utility.yul\":27754:27872   */\n      pop\n        /* \"#utility.yul\":26754:27879   */\n      swap3\n      swap6\n      swap2\n      swap5\n      pop\n      swap3\n      pop\n      jump\t// out\n        /* \"#utility.yul\":27885:28107   */\n    tag_108:\n        /* \"#utility.yul\":27978:27982   */\n      0x00\n        /* \"#utility.yul\":28016:28018   */\n      0x20\n        /* \"#utility.yul\":28005:28014   */\n      dup3\n        /* \"#utility.yul\":28001:28019   */\n      add\n        /* \"#utility.yul\":27993:28019   */\n      swap1\n      pop\n        /* \"#utility.yul\":28029:28100   */\n      tag_788\n        /* \"#utility.yul\":28097:28098   */\n      0x00\n        /* \"#utility.yul\":28086:28095   */\n      dup4\n        /* \"#utility.yul\":28082:28099   */\n      add\n        /* \"#utility.yul\":28073:28079   */\n      dup5\n        /* \"#utility.yul\":28029:28100   */\n      tag_424\n      jump\t// in\n    tag_788:\n        /* \"#utility.yul\":27885:28107   */\n      swap3\n      swap2\n      pop\n      pop\n      jump\t// out\n        /* \"#utility.yul\":28113:28442   */\n    tag_111:\n        /* \"#utility.yul\":28172:28178   */\n      0x00\n        /* \"#utility.yul\":28221:28223   */\n      0x20\n        /* \"#utility.yul\":28209:28218   */\n      dup3\n        /* \"#utility.yul\":28200:28207   */\n      dup5\n        /* \"#utility.yul\":28196:28219   */\n      sub\n        /* \"#utility.yul\":28192:28224   */\n      slt\n        /* \"#utility.yul\":28189:28308   */\n      iszero\n      tag_790\n      jumpi\n        /* \"#utility.yul\":28227:28306   */\n      tag_791\n      tag_381\n      jump\t// in\n    tag_791:\n        /* \"#utility.yul\":28189:28308   */\n    tag_790:\n        /* \"#utility.yul\":28347:28348   */\n      0x00\n        /* \"#utility.yul\":28372:28425   */\n      tag_792\n        /* \"#utility.yul\":28417:28424   */\n      dup5\n        /* \"#utility.yul\":28408:28414   */\n      dup3\n        /* \"#utility.yul\":28397:28406   */\n      dup6\n        /* \"#utility.yul\":28393:28415   */\n      add\n        /* \"#utility.yul\":28372:28425   */\n      tag_385\n      jump\t// in\n    tag_792:\n        /* \"#utility.yul\":28362:28425   */\n      swap2\n      pop\n        /* \"#utility.yul\":28318:28435   */\n      pop\n        /* \"#utility.yul\":28113:28442   */\n      swap3\n      swap2\n      pop\n      pop\n      jump\t// out\n        /* \"#utility.yul\":28448:29306   */\n    tag_114:\n        /* \"#utility.yul\":28697:28701   */\n      0x00\n        /* \"#utility.yul\":28735:28738   */\n      0xc0\n        /* \"#utility.yul\":28724:28733   */\n      dup3\n        /* \"#utility.yul\":28720:28739   */\n      add\n        /* \"#utility.yul\":28712:28739   */\n      swap1\n      pop\n        /* \"#utility.yul\":28749:28820   */\n      tag_794\n        /* \"#utility.yul\":28817:28818   */\n      0x00\n        /* \"#utility.yul\":28806:28815   */\n      dup4\n        /* \"#utility.yul\":28802:28819   */\n      add\n        /* \"#utility.yul\":28793:28799   */\n      dup10\n        /* \"#utility.yul\":28749:28820   */\n      tag_389\n      jump\t// in\n    tag_794:\n        /* \"#utility.yul\":28867:28876   */\n      dup2\n        /* \"#utility.yul\":28861:28865   */\n      dup2\n        /* \"#utility.yul\":28857:28877   */\n      sub\n        /* \"#utility.yul\":28852:28854   */\n      0x20\n        /* \"#utility.yul\":28841:28850   */\n      dup4\n        /* \"#utility.yul\":28837:28855   */\n      add\n        /* \"#utility.yul\":28830:28878   */\n      mstore\n        /* \"#utility.yul\":28895:28973   */\n      tag_795\n        /* \"#utility.yul\":28968:28972   */\n      dup2\n        /* \"#utility.yul\":28959:28965   */\n      dup9\n        /* \"#utility.yul\":28895:28973   */\n      tag_426\n      jump\t// in\n    tag_795:\n        /* \"#utility.yul\":28887:28973   */\n      swap1\n      pop\n        /* \"#utility.yul\":28983:29055   */\n      tag_796\n        /* \"#utility.yul\":29051:29053   */\n      0x40\n        /* \"#utility.yul\":29040:29049   */\n      dup4\n        /* \"#utility.yul\":29036:29054   */\n      add\n        /* \"#utility.yul\":29027:29033   */\n      dup8\n        /* \"#utility.yul\":28983:29055   */\n      tag_424\n      jump\t// in\n    tag_796:\n        /* \"#utility.yul\":29065:29137   */\n      tag_797\n        /* \"#utility.yul\":29133:29135   */\n      0x60\n        /* \"#utility.yul\":29122:29131   */\n      dup4\n        /* \"#utility.yul\":29118:29136   */\n      add\n        /* \"#utility.yul\":29109:29115   */\n      dup7\n        /* \"#utility.yul\":29065:29137   */\n      tag_424\n      jump\t// in\n    tag_797:\n        /* \"#utility.yul\":29147:29220   */\n      tag_798\n        /* \"#utility.yul\":29215:29218   */\n      0x80\n        /* \"#utility.yul\":29204:29213   */\n      dup4\n        /* \"#utility.yul\":29200:29219   */\n      add\n        /* \"#utility.yul\":29191:29197   */\n      dup6\n        /* \"#utility.yul\":29147:29220   */\n      tag_423\n      jump\t// in\n    tag_798:\n        /* \"#utility.yul\":29230:29299   */\n      tag_799\n        /* \"#utility.yul\":29294:29297   */\n      0xa0\n        /* \"#utility.yul\":29283:29292   */\n      dup4\n        /* \"#utility.yul\":29279:29298   */\n      add\n        /* \"#utility.yul\":29270:29276   */\n      dup5\n        /* \"#utility.yul\":29230:29299   */\n      tag_428\n      jump\t// in\n    tag_799:\n        /* \"#utility.yul\":28448:29306   */\n      swap8\n      swap7\n      pop\n      pop\n      pop\n      pop\n      pop\n      pop\n      pop\n      jump\t// out\n        /* \"#utility.yul\":29312:29534   */\n    tag_122:\n        /* \"#utility.yul\":29405:29409   */\n      0x00\n        /* \"#utility.yul\":29443:29445   */\n      0x20\n        /* \"#utility.yul\":29432:29441   */\n      dup3\n        /* \"#utility.yul\":29428:29446   */\n      add\n        /* \"#utility.yul\":29420:29446   */\n      swap1\n      pop\n        /* \"#utility.yul\":29456:29527   */\n      tag_801\n        /* \"#utility.yul\":29524:29525   */\n      0x00\n        /* \"#utility.yul\":29513:29522   */\n      dup4\n        /* \"#utility.yul\":29509:29526   */\n      add\n        /* \"#utility.yul\":29500:29506   */\n      dup5\n        /* \"#utility.yul\":29456:29527   */\n      tag_423\n      jump\t// in\n    tag_801:\n        /* \"#utility.yul\":29312:29534   */\n      swap3\n      swap2\n      pop\n      pop\n      jump\t// out\n        /* \"#utility.yul\":29540:30194   */\n    tag_125:\n        /* \"#utility.yul\":29618:29624   */\n      0x00\n        /* \"#utility.yul\":29626:29632   */\n      dup1\n        /* \"#utility.yul\":29675:29677   */\n      0x40\n        /* \"#utility.yul\":29663:29672   */\n      dup4\n        /* \"#utility.yul\":29654:29661   */\n      dup6\n        /* \"#utility.yul\":29650:29673   */\n      sub\n        /* \"#utility.yul\":29646:29678   */\n      slt\n        /* \"#utility.yul\":29643:29762   */\n      iszero\n      tag_803\n      jumpi\n        /* \"#utility.yul\":29681:29760   */\n      tag_804\n      tag_381\n      jump\t// in\n    tag_804:\n        /* \"#utility.yul\":29643:29762   */\n    tag_803:\n        /* \"#utility.yul\":29829:29830   */\n      0x00\n        /* \"#utility.yul\":29818:29827   */\n      dup4\n        /* \"#utility.yul\":29814:29831   */\n      add\n        /* \"#utility.yul\":29801:29832   */\n      calldataload\n        /* \"#utility.yul\":29859:29877   */\n      0xffffffffffffffff\n        /* \"#utility.yul\":29851:29857   */\n      dup2\n        /* \"#utility.yul\":29848:29878   */\n      gt\n        /* \"#utility.yul\":29845:29962   */\n      iszero\n      tag_805\n      jumpi\n        /* \"#utility.yul\":29881:29960   */\n      tag_806\n      tag_382\n      jump\t// in\n    tag_806:\n        /* \"#utility.yul\":29845:29962   */\n    tag_805:\n        /* \"#utility.yul\":29986:30049   */\n      tag_807\n        /* \"#utility.yul\":30041:30048   */\n      dup6\n        /* \"#utility.yul\":30032:30038   */\n      dup3\n        /* \"#utility.yul\":30021:30030   */\n      dup7\n        /* \"#utility.yul\":30017:30039   */\n      add\n        /* \"#utility.yul\":29986:30049   */\n      tag_397\n      jump\t// in\n    tag_807:\n        /* \"#utility.yul\":29976:30049   */\n      swap3\n      pop\n        /* \"#utility.yul\":29772:30059   */\n      pop\n        /* \"#utility.yul\":30098:30100   */\n      0x20\n        /* \"#utility.yul\":30124:30177   */\n      tag_808\n        /* \"#utility.yul\":30169:30176   */\n      dup6\n        /* \"#utility.yul\":30160:30166   */\n      dup3\n        /* \"#utility.yul\":30149:30158   */\n      dup7\n        /* \"#utility.yul\":30145:30167   */\n      add\n        /* \"#utility.yul\":30124:30177   */\n      tag_420\n      jump\t// in\n    tag_808:\n        /* \"#utility.yul\":30114:30177   */\n      swap2\n      pop\n        /* \"#utility.yul\":30069:30187   */\n      pop\n        /* \"#utility.yul\":29540:30194   */\n      swap3\n      pop\n      swap3\n      swap1\n      pop\n      jump\t// out\n        /* \"#utility.yul\":30200:30380   */\n    tag_139:\n        /* \"#utility.yul\":30248:30325   */\n      0x4e487b7100000000000000000000000000000000000000000000000000000000\n        /* \"#utility.yul\":30245:30246   */\n      0x00\n        /* \"#utility.yul\":30238:30326   */\n      mstore\n        /* \"#utility.yul\":30345:30349   */\n      0x32\n        /* \"#utility.yul\":30342:30343   */\n      0x04\n        /* \"#utility.yul\":30335:30350   */\n      mstore\n        /* \"#utility.yul\":30369:30373   */\n      0x24\n        /* \"#utility.yul\":30366:30367   */\n      0x00\n        /* \"#utility.yul\":30359:30374   */\n      revert\n        /* \"#utility.yul\":30386:30563   */\n    tag_440:\n        /* \"#utility.yul\":30526:30555   */\n      0x566f74696e67206576656e7420646f6573206e6f742065786973740000000000\n        /* \"#utility.yul\":30522:30523   */\n      0x00\n        /* \"#utility.yul\":30514:30520   */\n      dup3\n        /* \"#utility.yul\":30510:30524   */\n      add\n        /* \"#utility.yul\":30503:30556   */\n      mstore\n        /* \"#utility.yul\":30386:30563   */\n      pop\n      jump\t// out\n        /* \"#utility.yul\":30569:30935   */\n    tag_441:\n        /* \"#utility.yul\":30711:30714   */\n      0x00\n        /* \"#utility.yul\":30732:30799   */\n      tag_812\n        /* \"#utility.yul\":30796:30798   */\n      0x1b\n        /* \"#utility.yul\":30791:30794   */\n      dup4\n        /* \"#utility.yul\":30732:30799   */\n      tag_425\n      jump\t// in\n    tag_812:\n        /* \"#utility.yul\":30725:30799   */\n      swap2\n      pop\n        /* \"#utility.yul\":30808:30901   */\n      tag_813\n        /* \"#utility.yul\":30897:30900   */\n      dup3\n        /* \"#utility.yul\":30808:30901   */\n      tag_440\n      jump\t// in\n    tag_813:\n        /* \"#utility.yul\":30926:30928   */\n      0x20\n        /* \"#utility.yul\":30921:30924   */\n      dup3\n        /* \"#utility.yul\":30917:30929   */\n      add\n        /* \"#utility.yul\":30910:30929   */\n      swap1\n      pop\n        /* \"#utility.yul\":30569:30935   */\n      swap2\n      swap1\n      pop\n      jump\t// out\n        /* \"#utility.yul\":30941:31360   */\n    tag_165:\n        /* \"#utility.yul\":31107:31111   */\n      0x00\n        /* \"#utility.yul\":31145:31147   */\n      0x20\n        /* \"#utility.yul\":31134:31143   */\n      dup3\n        /* \"#utility.yul\":31130:31148   */\n      add\n        /* \"#utility.yul\":31122:31148   */\n      swap1\n      pop\n        /* \"#utility.yul\":31194:31203   */\n      dup2\n        /* \"#utility.yul\":31188:31192   */\n      dup2\n        /* \"#utility.yul\":31184:31204   */\n      sub\n        /* \"#utility.yul\":31180:31181   */\n      0x00\n        /* \"#utility.yul\":31169:31178   */\n      dup4\n        /* \"#utility.yul\":31165:31182   */\n      add\n        /* \"#utility.yul\":31158:31205   */\n      mstore\n        /* \"#utility.yul\":31222:31353   */\n      tag_815\n        /* \"#utility.yul\":31348:31352   */\n      dup2\n        /* \"#utility.yul\":31222:31353   */\n      tag_441\n      jump\t// in\n    tag_815:\n        /* \"#utility.yul\":31214:31353   */\n      swap1\n      pop\n        /* \"#utility.yul\":30941:31360   */\n      swap2\n      swap1\n      pop\n      jump\t// out\n        /* \"#utility.yul\":31366:31589   */\n    tag_442:\n        /* \"#utility.yul\":31506:31540   */\n      0x4f6e6c79206576656e742063726561746f722063616e206164642063616e6469\n        /* \"#utility.yul\":31502:31503   */\n      0x00\n        /* \"#utility.yul\":31494:31500   */\n      dup3\n        /* \"#utility.yul\":31490:31504   */\n      add\n        /* \"#utility.yul\":31483:31541   */\n      mstore\n        /* \"#utility.yul\":31575:31581   */\n      0x6461746500000000000000000000000000000000000000000000000000000000\n        /* \"#utility.yul\":31570:31572   */\n      0x20\n        /* \"#utility.yul\":31562:31568   */\n      dup3\n        /* \"#utility.yul\":31558:31573   */\n      add\n        /* \"#utility.yul\":31551:31582   */\n      mstore\n        /* \"#utility.yul\":31366:31589   */\n      pop\n      jump\t// out\n        /* \"#utility.yul\":31595:31961   */\n    tag_443:\n        /* \"#utility.yul\":31737:31740   */\n      0x00\n        /* \"#utility.yul\":31758:31825   */\n      tag_818\n        /* \"#utility.yul\":31822:31824   */\n      0x24\n        /* \"#utility.yul\":31817:31820   */\n      dup4\n        /* \"#utility.yul\":31758:31825   */\n      tag_425\n      jump\t// in\n    tag_818:\n        /* \"#utility.yul\":31751:31825   */\n      swap2\n      pop\n        /* \"#utility.yul\":31834:31927   */\n      tag_819\n        /* \"#utility.yul\":31923:31926   */\n      dup3\n        /* \"#utility.yul\":31834:31927   */\n      tag_442\n      jump\t// in\n    tag_819:\n        /* \"#utility.yul\":31952:31954   */\n      0x40\n        /* \"#utility.yul\":31947:31950   */\n      dup3\n        /* \"#utility.yul\":31943:31955   */\n      add\n        /* \"#utility.yul\":31936:31955   */\n      swap1\n      pop\n        /* \"#utility.yul\":31595:31961   */\n      swap2\n      swap1\n      pop\n      jump\t// out\n        /* \"#utility.yul\":31967:32386   */\n    tag_169:\n        /* \"#utility.yul\":32133:32137   */\n      0x00\n        /* \"#utility.yul\":32171:32173   */\n      0x20\n        /* \"#utility.yul\":32160:32169   */\n      dup3\n        /* \"#utility.yul\":32156:32174   */\n      add\n        /* \"#utility.yul\":32148:32174   */\n      swap1\n      pop\n        /* \"#utility.yul\":32220:32229   */\n      dup2\n        /* \"#utility.yul\":32214:32218   */\n      dup2\n        /* \"#utility.yul\":32210:32230   */\n      sub\n        /* \"#utility.yul\":32206:32207   */\n      0x00\n        /* \"#utility.yul\":32195:32204   */\n      dup4\n        /* \"#utility.yul\":32191:32208   */\n      add\n        /* \"#utility.yul\":32184:32231   */\n      mstore\n        /* \"#utility.yul\":32248:32379   */\n      tag_821\n        /* \"#utility.yul\":32374:32378   */\n      dup2\n        /* \"#utility.yul\":32248:32379   */\n      tag_443\n      jump\t// in\n    tag_821:\n        /* \"#utility.yul\":32240:32379   */\n      swap1\n      pop\n        /* \"#utility.yul\":31967:32386   */\n      swap2\n      swap1\n      pop\n      jump\t// out\n        /* \"#utility.yul\":32392:32622   */\n    tag_444:\n        /* \"#utility.yul\":32532:32566   */\n      0x4576656e7420616c726561647920737461727465642c2063616e6e6f74206164\n        /* \"#utility.yul\":32528:32529   */\n      0x00\n        /* \"#utility.yul\":32520:32526   */\n      dup3\n        /* \"#utility.yul\":32516:32530   */\n      add\n        /* \"#utility.yul\":32509:32567   */\n      mstore\n        /* \"#utility.yul\":32601:32614   */\n      0x642063616e646964617465000000000000000000000000000000000000000000\n        /* \"#utility.yul\":32596:32598   */\n      0x20\n        /* \"#utility.yul\":32588:32594   */\n      dup3\n        /* \"#utility.yul\":32584:32599   */\n      add\n        /* \"#utility.yul\":32577:32615   */\n      mstore\n        /* \"#utility.yul\":32392:32622   */\n      pop\n      jump\t// out\n        /* \"#utility.yul\":32628:32994   */\n    tag_445:\n        /* \"#utility.yul\":32770:32773   */\n      0x00\n        /* \"#utility.yul\":32791:32858   */\n      tag_824\n        /* \"#utility.yul\":32855:32857   */\n      0x2b\n        /* \"#utility.yul\":32850:32853   */\n      dup4\n        /* \"#utility.yul\":32791:32858   */\n      tag_425\n      jump\t// in\n    tag_824:\n        /* \"#utility.yul\":32784:32858   */\n      swap2\n      pop\n        /* \"#utility.yul\":32867:32960   */\n      tag_825\n        /* \"#utility.yul\":32956:32959   */\n      dup3\n        /* \"#utility.yul\":32867:32960   */\n      tag_444\n      jump\t// in\n    tag_825:\n        /* \"#utility.yul\":32985:32987   */\n      0x40\n        /* \"#utility.yul\":32980:32983   */\n      dup3\n        /* \"#utility.yul\":32976:32988   */\n      add\n        /* \"#utility.yul\":32969:32988   */\n      swap1\n      pop\n        /* \"#utility.yul\":32628:32994   */\n      swap2\n      swap1\n      pop\n      jump\t// out\n        /* \"#utility.yul\":33000:33419   */\n    tag_172:\n        /* \"#utility.yul\":33166:33170   */\n      0x00\n        /* \"#utility.yul\":33204:33206   */\n      0x20\n        /* \"#utility.yul\":33193:33202   */\n      dup3\n        /* \"#utility.yul\":33189:33207   */\n      add\n        /* \"#utility.yul\":33181:33207   */\n      swap1\n      pop\n        /* \"#utility.yul\":33253:33262   */\n      dup2\n        /* \"#utility.yul\":33247:33251   */\n      dup2\n        /* \"#utility.yul\":33243:33263   */\n      sub\n        /* \"#utility.yul\":33239:33240   */\n      0x00\n        /* \"#utility.yul\":33228:33237   */\n      dup4\n        /* \"#utility.yul\":33224:33241   */\n      add\n        /* \"#utility.yul\":33217:33264   */\n      mstore\n        /* \"#utility.yul\":33281:33412   */\n      tag_827\n        /* \"#utility.yul\":33407:33411   */\n      dup2\n        /* \"#utility.yul\":33281:33412   */\n      tag_445\n      jump\t// in\n    tag_827:\n        /* \"#utility.yul\":33273:33412   */\n      swap1\n      pop\n        /* \"#utility.yul\":33000:33419   */\n      swap2\n      swap1\n      pop\n      jump\t// out\n        /* \"#utility.yul\":33425:33661   */\n    tag_446:\n        /* \"#utility.yul\":33565:33599   */\n      0x43616e6469646174652049447320616e642077616c6c65742061646472657373\n        /* \"#utility.yul\":33561:33562   */\n      0x00\n        /* \"#utility.yul\":33553:33559   */\n      dup3\n        /* \"#utility.yul\":33549:33563   */\n      add\n        /* \"#utility.yul\":33542:33600   */\n      mstore\n        /* \"#utility.yul\":33634:33653   */\n      0x657320636f756e74206d69736d61746368000000000000000000000000000000\n        /* \"#utility.yul\":33629:33631   */\n      0x20\n        /* \"#utility.yul\":33621:33627   */\n      dup3\n        /* \"#utility.yul\":33617:33632   */\n      add\n        /* \"#utility.yul\":33610:33654   */\n      mstore\n        /* \"#utility.yul\":33425:33661   */\n      pop\n      jump\t// out\n        /* \"#utility.yul\":33667:34033   */\n    tag_447:\n        /* \"#utility.yul\":33809:33812   */\n      0x00\n        /* \"#utility.yul\":33830:33897   */\n      tag_830\n        /* \"#utility.yul\":33894:33896   */\n      0x31\n        /* \"#utility.yul\":33889:33892   */\n      dup4\n        /* \"#utility.yul\":33830:33897   */\n      tag_425\n      jump\t// in\n    tag_830:\n        /* \"#utility.yul\":33823:33897   */\n      swap2\n      pop\n        /* \"#utility.yul\":33906:33999   */\n      tag_831\n        /* \"#utility.yul\":33995:33998   */\n      dup3\n        /* \"#utility.yul\":33906:33999   */\n      tag_446\n      jump\t// in\n    tag_831:\n        /* \"#utility.yul\":34024:34026   */\n      0x40\n        /* \"#utility.yul\":34019:34022   */\n      dup3\n        /* \"#utility.yul\":34015:34027   */\n      add\n        /* \"#utility.yul\":34008:34027   */\n      swap1\n      pop\n        /* \"#utility.yul\":33667:34033   */\n      swap2\n      swap1\n      pop\n      jump\t// out\n        /* \"#utility.yul\":34039:34458   */\n    tag_175:\n        /* \"#utility.yul\":34205:34209   */\n      0x00\n        /* \"#utility.yul\":34243:34245   */\n      0x20\n        /* \"#utility.yul\":34232:34241   */\n      dup3\n        /* \"#utility.yul\":34228:34246   */\n      add\n        /* \"#utility.yul\":34220:34246   */\n      swap1\n      pop\n        /* \"#utility.yul\":34292:34301   */\n      dup2\n        /* \"#utility.yul\":34286:34290   */\n      dup2\n        /* \"#utility.yul\":34282:34302   */\n      sub\n        /* \"#utility.yul\":34278:34279   */\n      0x00\n        /* \"#utility.yul\":34267:34276   */\n      dup4\n        /* \"#utility.yul\":34263:34280   */\n      add\n        /* \"#utility.yul\":34256:34303   */\n      mstore\n        /* \"#utility.yul\":34320:34451   */\n      tag_833\n        /* \"#utility.yul\":34446:34450   */\n      dup2\n        /* \"#utility.yul\":34320:34451   */\n      tag_447\n      jump\t// in\n    tag_833:\n        /* \"#utility.yul\":34312:34451   */\n      swap1\n      pop\n        /* \"#utility.yul\":34039:34458   */\n      swap2\n      swap1\n      pop\n      jump\t// out\n        /* \"#utility.yul\":34464:34636   */\n    tag_448:\n        /* \"#utility.yul\":34604:34628   */\n      0x4e6f2063616e646964617465732070726f766964656400000000000000000000\n        /* \"#utility.yul\":34600:34601   */\n      0x00\n        /* \"#utility.yul\":34592:34598   */\n      dup3\n        /* \"#utility.yul\":34588:34602   */\n      add\n        /* \"#utility.yul\":34581:34629   */\n      mstore\n        /* \"#utility.yul\":34464:34636   */\n      pop\n      jump\t// out\n        /* \"#utility.yul\":34642:35008   */\n    tag_449:\n        /* \"#utility.yul\":34784:34787   */\n      0x00\n        /* \"#utility.yul\":34805:34872   */\n      tag_836\n        /* \"#utility.yul\":34869:34871   */\n      0x16\n        /* \"#utility.yul\":34864:34867   */\n      dup4\n        /* \"#utility.yul\":34805:34872   */\n      tag_425\n      jump\t// in\n    tag_836:\n        /* \"#utility.yul\":34798:34872   */\n      swap2\n      pop\n        /* \"#utility.yul\":34881:34974   */\n      tag_837\n        /* \"#utility.yul\":34970:34973   */\n      dup3\n        /* \"#utility.yul\":34881:34974   */\n      tag_448\n      jump\t// in\n    tag_837:\n        /* \"#utility.yul\":34999:35001   */\n      0x20\n        /* \"#utility.yul\":34994:34997   */\n      dup3\n        /* \"#utility.yul\":34990:35002   */\n      add\n        /* \"#utility.yul\":34983:35002   */\n      swap1\n      pop\n        /* \"#utility.yul\":34642:35008   */\n      swap2\n      swap1\n      pop\n      jump\t// out\n        /* \"#utility.yul\":35014:35433   */\n    tag_178:\n        /* \"#utility.yul\":35180:35184   */\n      0x00\n        /* \"#utility.yul\":35218:35220   */\n      0x20\n        /* \"#utility.yul\":35207:35216   */\n      dup3\n        /* \"#utility.yul\":35203:35221   */\n      add\n        /* \"#utility.yul\":35195:35221   */\n      swap1\n      pop\n        /* \"#utility.yul\":35267:35276   */\n      dup2\n        /* \"#utility.yul\":35261:35265   */\n      dup2\n        /* \"#utility.yul\":35257:35277   */\n      sub\n        /* \"#utility.yul\":35253:35254   */\n      0x00\n        /* \"#utility.yul\":35242:35251   */\n      dup4\n        /* \"#utility.yul\":35238:35255   */\n      add\n        /* \"#utility.yul\":35231:35278   */\n      mstore\n        /* \"#utility.yul\":35295:35426   */\n      tag_839\n        /* \"#utility.yul\":35421:35425   */\n      dup2\n        /* \"#utility.yul\":35295:35426   */\n      tag_449\n      jump\t// in\n    tag_839:\n        /* \"#utility.yul\":35287:35426   */\n      swap1\n      pop\n        /* \"#utility.yul\":35014:35433   */\n      swap2\n      swap1\n      pop\n      jump\t// out\n        /* \"#utility.yul\":35439:35611   */\n    tag_450:\n        /* \"#utility.yul\":35579:35603   */\n      0x496e76616c69642077616c6c6574206164647265737300000000000000000000\n        /* \"#utility.yul\":35575:35576   */\n      0x00\n        /* \"#utility.yul\":35567:35573   */\n      dup3\n        /* \"#utility.yul\":35563:35577   */\n      add\n        /* \"#utility.yul\":35556:35604   */\n      mstore\n        /* \"#utility.yul\":35439:35611   */\n      pop\n      jump\t// out\n        /* \"#utility.yul\":35617:35983   */\n    tag_451:\n        /* \"#utility.yul\":35759:35762   */\n      0x00\n        /* \"#utility.yul\":35780:35847   */\n      tag_842\n        /* \"#utility.yul\":35844:35846   */\n      0x16\n        /* \"#utility.yul\":35839:35842   */\n      dup4\n        /* \"#utility.yul\":35780:35847   */\n      tag_425\n      jump\t// in\n    tag_842:\n        /* \"#utility.yul\":35773:35847   */\n      swap2\n      pop\n        /* \"#utility.yul\":35856:35949   */\n      tag_843\n        /* \"#utility.yul\":35945:35948   */\n      dup3\n        /* \"#utility.yul\":35856:35949   */\n      tag_450\n      jump\t// in\n    tag_843:\n        /* \"#utility.yul\":35974:35976   */\n      0x20\n        /* \"#utility.yul\":35969:35972   */\n      dup3\n        /* \"#utility.yul\":35965:35977   */\n      add\n        /* \"#utility.yul\":35958:35977   */\n      swap1\n      pop\n        /* \"#utility.yul\":35617:35983   */\n      swap2\n      swap1\n      pop\n      jump\t// out\n        /* \"#utility.yul\":35989:36408   */\n    tag_189:\n        /* \"#utility.yul\":36155:36159   */\n      0x00\n        /* \"#utility.yul\":36193:36195   */\n      0x20\n        /* \"#utility.yul\":36182:36191   */\n      dup3\n        /* \"#utility.yul\":36178:36196   */\n      add\n        /* \"#utility.yul\":36170:36196   */\n      swap1\n      pop\n        /* \"#utility.yul\":36242:36251   */\n      dup2\n        /* \"#utility.yul\":36236:36240   */\n      dup2\n        /* \"#utility.yul\":36232:36252   */\n      sub\n        /* \"#utility.yul\":36228:36229   */\n      0x00\n        /* \"#utility.yul\":36217:36226   */\n      dup4\n        /* \"#utility.yul\":36213:36230   */\n      add\n        /* \"#utility.yul\":36206:36253   */\n      mstore\n        /* \"#utility.yul\":36270:36401   */\n      tag_845\n        /* \"#utility.yul\":36396:36400   */\n      dup2\n        /* \"#utility.yul\":36270:36401   */\n      tag_451\n      jump\t// in\n    tag_845:\n        /* \"#utility.yul\":36262:36401   */\n      swap1\n      pop\n        /* \"#utility.yul\":35989:36408   */\n      swap2\n      swap1\n      pop\n      jump\t// out\n        /* \"#utility.yul\":36414:36584   */\n    tag_452:\n        /* \"#utility.yul\":36554:36576   */\n      0x496e76616c69642063616e646964617465204944000000000000000000000000\n        /* \"#utility.yul\":36550:36551   */\n      0x00\n        /* \"#utility.yul\":36542:36548   */\n      dup3\n        /* \"#utility.yul\":36538:36552   */\n      add\n        /* \"#utility.yul\":36531:36577   */\n      mstore\n        /* \"#utility.yul\":36414:36584   */\n      pop\n      jump\t// out\n        /* \"#utility.yul\":36590:36956   */\n    tag_453:\n        /* \"#utility.yul\":36732:36735   */\n      0x00\n        /* \"#utility.yul\":36753:36820   */\n      tag_848\n        /* \"#utility.yul\":36817:36819   */\n      0x14\n        /* \"#utility.yul\":36812:36815   */\n      dup4\n        /* \"#utility.yul\":36753:36820   */\n      tag_425\n      jump\t// in\n    tag_848:\n        /* \"#utility.yul\":36746:36820   */\n      swap2\n      pop\n        /* \"#utility.yul\":36829:36922   */\n      tag_849\n        /* \"#utility.yul\":36918:36921   */\n      dup3\n        /* \"#utility.yul\":36829:36922   */\n      tag_452\n      jump\t// in\n    tag_849:\n        /* \"#utility.yul\":36947:36949   */\n      0x20\n        /* \"#utility.yul\":36942:36945   */\n      dup3\n        /* \"#utility.yul\":36938:36950   */\n      add\n        /* \"#utility.yul\":36931:36950   */\n      swap1\n      pop\n        /* \"#utility.yul\":36590:36956   */\n      swap2\n      swap1\n      pop\n      jump\t// out\n        /* \"#utility.yul\":36962:37381   */\n    tag_192:\n        /* \"#utility.yul\":37128:37132   */\n      0x00\n        /* \"#utility.yul\":37166:37168   */\n      0x20\n        /* \"#utility.yul\":37155:37164   */\n      dup3\n        /* \"#utility.yul\":37151:37169   */\n      add\n        /* \"#utility.yul\":37143:37169   */\n      swap1\n      pop\n        /* \"#utility.yul\":37215:37224   */\n      dup2\n        /* \"#utility.yul\":37209:37213   */\n      dup2\n        /* \"#utility.yul\":37205:37225   */\n      sub\n        /* \"#utility.yul\":37201:37202   */\n      0x00\n        /* \"#utility.yul\":37190:37199   */\n      dup4\n        /* \"#utility.yul\":37186:37203   */\n      add\n        /* \"#utility.yul\":37179:37226   */\n      mstore\n        /* \"#utility.yul\":37243:37374   */\n      tag_851\n        /* \"#utility.yul\":37369:37373   */\n      dup2\n        /* \"#utility.yul\":37243:37374   */\n      tag_453\n      jump\t// in\n    tag_851:\n        /* \"#utility.yul\":37235:37374   */\n      swap1\n      pop\n        /* \"#utility.yul\":36962:37381   */\n      swap2\n      swap1\n      pop\n      jump\t// out\n        /* \"#utility.yul\":37387:37561   */\n    tag_454:\n        /* \"#utility.yul\":37527:37553   */\n      0x43616e64696461746520616c7265616479206578697374730000000000000000\n        /* \"#utility.yul\":37523:37524   */\n      0x00\n        /* \"#utility.yul\":37515:37521   */\n      dup3\n        /* \"#utility.yul\":37511:37525   */\n      add\n        /* \"#utility.yul\":37504:37554   */\n      mstore\n        /* \"#utility.yul\":37387:37561   */\n      pop\n      jump\t// out\n        /* \"#utility.yul\":37567:37933   */\n    tag_455:\n        /* \"#utility.yul\":37709:37712   */\n      0x00\n        /* \"#utility.yul\":37730:37797   */\n      tag_854\n        /* \"#utility.yul\":37794:37796   */\n      0x18\n        /* \"#utility.yul\":37789:37792   */\n      dup4\n        /* \"#utility.yul\":37730:37797   */\n      tag_425\n      jump\t// in\n    tag_854:\n        /* \"#utility.yul\":37723:37797   */\n      swap2\n      pop\n        /* \"#utility.yul\":37806:37899   */\n      tag_855\n        /* \"#utility.yul\":37895:37898   */\n      dup3\n        /* \"#utility.yul\":37806:37899   */\n      tag_454\n      jump\t// in\n    tag_855:\n        /* \"#utility.yul\":37924:37926   */\n      0x20\n        /* \"#utility.yul\":37919:37922   */\n      dup3\n        /* \"#utility.yul\":37915:37927   */\n      add\n        /* \"#utility.yul\":37908:37927   */\n      swap1\n      pop\n        /* \"#utility.yul\":37567:37933   */\n      swap2\n      swap1\n      pop\n      jump\t// out\n        /* \"#utility.yul\":37939:38358   */\n    tag_195:\n        /* \"#utility.yul\":38105:38109   */\n      0x00\n        /* \"#utility.yul\":38143:38145   */\n      0x20\n        /* \"#utility.yul\":38132:38141   */\n      dup3\n        /* \"#utility.yul\":38128:38146   */\n      add\n        /* \"#utility.yul\":38120:38146   */\n      swap1\n      pop\n        /* \"#utility.yul\":38192:38201   */\n      dup2\n        /* \"#utility.yul\":38186:38190   */\n      dup2\n        /* \"#utility.yul\":38182:38202   */\n      sub\n        /* \"#utility.yul\":38178:38179   */\n      0x00\n        /* \"#utility.yul\":38167:38176   */\n      dup4\n        /* \"#utility.yul\":38163:38180   */\n      add\n        /* \"#utility.yul\":38156:38203   */\n      mstore\n        /* \"#utility.yul\":38220:38351   */\n      tag_857\n        /* \"#utility.yul\":38346:38350   */\n      dup2\n        /* \"#utility.yul\":38220:38351   */\n      tag_455\n      jump\t// in\n    tag_857:\n        /* \"#utility.yul\":38212:38351   */\n      swap1\n      pop\n        /* \"#utility.yul\":37939:38358   */\n      swap2\n      swap1\n      pop\n      jump\t// out\n        /* \"#utility.yul\":38364:38613   */\n    tag_456:\n        /* \"#utility.yul\":38504:38538   */\n      0x566f74696e67206576656e742063726561746f7220616e642061646d696e2063\n        /* \"#utility.yul\":38500:38501   */\n      0x00\n        /* \"#utility.yul\":38492:38498   */\n      dup3\n        /* \"#utility.yul\":38488:38502   */\n      add\n        /* \"#utility.yul\":38481:38539   */\n      mstore\n        /* \"#utility.yul\":38573:38605   */\n      0x616e6e6f7420706172746963697061746520696e20746865206576656e740000\n        /* \"#utility.yul\":38568:38570   */\n      0x20\n        /* \"#utility.yul\":38560:38566   */\n      dup3\n        /* \"#utility.yul\":38556:38571   */\n      add\n        /* \"#utility.yul\":38549:38606   */\n      mstore\n        /* \"#utility.yul\":38364:38613   */\n      pop\n      jump\t// out\n        /* \"#utility.yul\":38619:38985   */\n    tag_457:\n        /* \"#utility.yul\":38761:38764   */\n      0x00\n        /* \"#utility.yul\":38782:38849   */\n      tag_860\n        /* \"#utility.yul\":38846:38848   */\n      0x3e\n        /* \"#utility.yul\":38841:38844   */\n      dup4\n        /* \"#utility.yul\":38782:38849   */\n      tag_425\n      jump\t// in\n    tag_860:\n        /* \"#utility.yul\":38775:38849   */\n      swap2\n      pop\n        /* \"#utility.yul\":38858:38951   */\n      tag_861\n        /* \"#utility.yul\":38947:38950   */\n      dup3\n        /* \"#utility.yul\":38858:38951   */\n      tag_456\n      jump\t// in\n    tag_861:\n        /* \"#utility.yul\":38976:38978   */\n      0x40\n        /* \"#utility.yul\":38971:38974   */\n      dup3\n        /* \"#utility.yul\":38967:38979   */\n      add\n        /* \"#utility.yul\":38960:38979   */\n      swap1\n      pop\n        /* \"#utility.yul\":38619:38985   */\n      swap2\n      swap1\n      pop\n      jump\t// out\n        /* \"#utility.yul\":38991:39410   */\n    tag_199:\n        /* \"#utility.yul\":39157:39161   */\n      0x00\n        /* \"#utility.yul\":39195:39197   */\n      0x20\n        /* \"#utility.yul\":39184:39193   */\n      dup3\n        /* \"#utility.yul\":39180:39198   */\n      add\n        /* \"#utility.yul\":39172:39198   */\n      swap1\n      pop\n        /* \"#utility.yul\":39244:39253   */\n      dup2\n        /* \"#utility.yul\":39238:39242   */\n      dup2\n        /* \"#utility.yul\":39234:39254   */\n      sub\n        /* \"#utility.yul\":39230:39231   */\n      0x00\n        /* \"#utility.yul\":39219:39228   */\n      dup4\n        /* \"#utility.yul\":39215:39232   */\n      add\n        /* \"#utility.yul\":39208:39255   */\n      mstore\n        /* \"#utility.yul\":39272:39403   */\n      tag_863\n        /* \"#utility.yul\":39398:39402   */\n      dup2\n        /* \"#utility.yul\":39272:39403   */\n      tag_457\n      jump\t// in\n    tag_863:\n        /* \"#utility.yul\":39264:39403   */\n      swap1\n      pop\n        /* \"#utility.yul\":38991:39410   */\n      swap2\n      swap1\n      pop\n      jump\t// out\n        /* \"#utility.yul\":39416:39595   */\n    tag_458:\n        /* \"#utility.yul\":39556:39587   */\n      0x4f6e6c79206576656e742063726561746f722063616e2072656d6f7665000000\n        /* \"#utility.yul\":39552:39553   */\n      0x00\n        /* \"#utility.yul\":39544:39550   */\n      dup3\n        /* \"#utility.yul\":39540:39554   */\n      add\n        /* \"#utility.yul\":39533:39588   */\n      mstore\n        /* \"#utility.yul\":39416:39595   */\n      pop\n      jump\t// out\n        /* \"#utility.yul\":39601:39967   */\n    tag_459:\n        /* \"#utility.yul\":39743:39746   */\n      0x00\n        /* \"#utility.yul\":39764:39831   */\n      tag_866\n        /* \"#utility.yul\":39828:39830   */\n      0x1d\n        /* \"#utility.yul\":39823:39826   */\n      dup4\n        /* \"#utility.yul\":39764:39831   */\n      tag_425\n      jump\t// in\n    tag_866:\n        /* \"#utility.yul\":39757:39831   */\n      swap2\n      pop\n        /* \"#utility.yul\":39840:39933   */\n      tag_867\n        /* \"#utility.yul\":39929:39932   */\n      dup3\n        /* \"#utility.yul\":39840:39933   */\n      tag_458\n      jump\t// in\n    tag_867:\n        /* \"#utility.yul\":39958:39960   */\n      0x20\n        /* \"#utility.yul\":39953:39956   */\n      dup3\n        /* \"#utility.yul\":39949:39961   */\n      add\n        /* \"#utility.yul\":39942:39961   */\n      swap1\n      pop\n        /* \"#utility.yul\":39601:39967   */\n      swap2\n      swap1\n      pop\n      jump\t// out\n        /* \"#utility.yul\":39973:40392   */\n    tag_214:\n        /* \"#utility.yul\":40139:40143   */\n      0x00\n        /* \"#utility.yul\":40177:40179   */\n      0x20\n        /* \"#utility.yul\":40166:40175   */\n      dup3\n        /* \"#utility.yul\":40162:40180   */\n      add\n        /* \"#utility.yul\":40154:40180   */\n      swap1\n      pop\n        /* \"#utility.yul\":40226:40235   */\n      dup2\n        /* \"#utility.yul\":40220:40224   */\n      dup2\n        /* \"#utility.yul\":40216:40236   */\n      sub\n        /* \"#utility.yul\":40212:40213   */\n      0x00\n        /* \"#utility.yul\":40201:40210   */\n      dup4\n        /* \"#utility.yul\":40197:40214   */\n      add\n        /* \"#utility.yul\":40190:40237   */\n      mstore\n        /* \"#utility.yul\":40254:40385   */\n      tag_869\n        /* \"#utility.yul\":40380:40384   */\n      dup2\n        /* \"#utility.yul\":40254:40385   */\n      tag_459\n      jump\t// in\n    tag_869:\n        /* \"#utility.yul\":40246:40385   */\n      swap1\n      pop\n        /* \"#utility.yul\":39973:40392   */\n      swap2\n      swap1\n      pop\n      jump\t// out\n        /* \"#utility.yul\":40398:40621   */\n    tag_460:\n        /* \"#utility.yul\":40538:40572   */\n      0x4576656e7420616c726561647920737461727465642c2063616e6e6f74207265\n        /* \"#utility.yul\":40534:40535   */\n      0x00\n        /* \"#utility.yul\":40526:40532   */\n      dup3\n        /* \"#utility.yul\":40522:40536   */\n      add\n        /* \"#utility.yul\":40515:40573   */\n      mstore\n        /* \"#utility.yul\":40607:40613   */\n      0x6d6f766500000000000000000000000000000000000000000000000000000000\n        /* \"#utility.yul\":40602:40604   */\n      0x20\n        /* \"#utility.yul\":40594:40600   */\n      dup3\n        /* \"#utility.yul\":40590:40605   */\n      add\n        /* \"#utility.yul\":40583:40614   */\n      mstore\n        /* \"#utility.yul\":40398:40621   */\n      pop\n      jump\t// out\n        /* \"#utility.yul\":40627:40993   */\n    tag_461:\n        /* \"#utility.yul\":40769:40772   */\n      0x00\n        /* \"#utility.yul\":40790:40857   */\n      tag_872\n        /* \"#utility.yul\":40854:40856   */\n      0x24\n        /* \"#utility.yul\":40849:40852   */\n      dup4\n        /* \"#utility.yul\":40790:40857   */\n      tag_425\n      jump\t// in\n    tag_872:\n        /* \"#utility.yul\":40783:40857   */\n      swap2\n      pop\n        /* \"#utility.yul\":40866:40959   */\n      tag_873\n        /* \"#utility.yul\":40955:40958   */\n      dup3\n        /* \"#utility.yul\":40866:40959   */\n      tag_460\n      jump\t// in\n    tag_873:\n        /* \"#utility.yul\":40984:40986   */\n      0x40\n        /* \"#utility.yul\":40979:40982   */\n      dup3\n        /* \"#utility.yul\":40975:40987   */\n      add\n        /* \"#utility.yul\":40968:40987   */\n      swap1\n      pop\n        /* \"#utility.yul\":40627:40993   */\n      swap2\n      swap1\n      pop\n      jump\t// out\n        /* \"#utility.yul\":40999:41418   */\n    tag_217:\n        /* \"#utility.yul\":41165:41169   */\n      0x00\n        /* \"#utility.yul\":41203:41205   */\n      0x20\n        /* \"#utility.yul\":41192:41201   */\n      dup3\n        /* \"#utility.yul\":41188:41206   */\n      add\n        /* \"#utility.yul\":41180:41206   */\n      swap1\n      pop\n        /* \"#utility.yul\":41252:41261   */\n      dup2\n        /* \"#utility.yul\":41246:41250   */\n      dup2\n        /* \"#utility.yul\":41242:41262   */\n      sub\n        /* \"#utility.yul\":41238:41239   */\n      0x00\n        /* \"#utility.yul\":41227:41236   */\n      dup4\n        /* \"#utility.yul\":41223:41240   */\n      add\n        /* \"#utility.yul\":41216:41263   */\n      mstore\n        /* \"#utility.yul\":41280:41411   */\n      tag_875\n        /* \"#utility.yul\":41406:41410   */\n      dup2\n        /* \"#utility.yul\":41280:41411   */\n      tag_461\n      jump\t// in\n    tag_875:\n        /* \"#utility.yul\":41272:41411   */\n      swap1\n      pop\n        /* \"#utility.yul\":40999:41418   */\n      swap2\n      swap1\n      pop\n      jump\t// out\n        /* \"#utility.yul\":41424:41604   */\n    tag_462:\n        /* \"#utility.yul\":41472:41549   */\n      0x4e487b7100000000000000000000000000000000000000000000000000000000\n        /* \"#utility.yul\":41469:41470   */\n      0x00\n        /* \"#utility.yul\":41462:41550   */\n      mstore\n        /* \"#utility.yul\":41569:41573   */\n      0x22\n        /* \"#utility.yul\":41566:41567   */\n      0x04\n        /* \"#utility.yul\":41559:41574   */\n      mstore\n        /* \"#utility.yul\":41593:41597   */\n      0x24\n        /* \"#utility.yul\":41590:41591   */\n      0x00\n        /* \"#utility.yul\":41583:41598   */\n      revert\n        /* \"#utility.yul\":41610:41930   */\n    tag_225:\n        /* \"#utility.yul\":41654:41660   */\n      0x00\n        /* \"#utility.yul\":41691:41692   */\n      0x02\n        /* \"#utility.yul\":41685:41689   */\n      dup3\n        /* \"#utility.yul\":41681:41693   */\n      div\n        /* \"#utility.yul\":41671:41693   */\n      swap1\n      pop\n        /* \"#utility.yul\":41738:41739   */\n      0x01\n        /* \"#utility.yul\":41732:41736   */\n      dup3\n        /* \"#utility.yul\":41728:41740   */\n      and\n        /* \"#utility.yul\":41759:41777   */\n      dup1\n        /* \"#utility.yul\":41749:41830   */\n      tag_878\n      jumpi\n        /* \"#utility.yul\":41815:41819   */\n      0x7f\n        /* \"#utility.yul\":41807:41813   */\n      dup3\n        /* \"#utility.yul\":41803:41820   */\n      and\n        /* \"#utility.yul\":41793:41820   */\n      swap2\n      pop\n        /* \"#utility.yul\":41749:41830   */\n    tag_878:\n        /* \"#utility.yul\":41877:41879   */\n      0x20\n        /* \"#utility.yul\":41869:41875   */\n      dup3\n        /* \"#utility.yul\":41866:41880   */\n      lt\n        /* \"#utility.yul\":41846:41864   */\n      dup2\n        /* \"#utility.yul\":41843:41881   */\n      sub\n        /* \"#utility.yul\":41840:41924   */\n      tag_879\n      jumpi\n        /* \"#utility.yul\":41896:41914   */\n      tag_880\n      tag_462\n      jump\t// in\n    tag_880:\n        /* \"#utility.yul\":41840:41924   */\n    tag_879:\n        /* \"#utility.yul\":41661:41930   */\n      pop\n        /* \"#utility.yul\":41610:41930   */\n      swap2\n      swap1\n      pop\n      jump\t// out\n        /* \"#utility.yul\":41936:42115   */\n    tag_463:\n        /* \"#utility.yul\":42076:42107   */\n      0x4f6e6c79206576656e742063726561746f722063616e20757064617465000000\n        /* \"#utility.yul\":42072:42073   */\n      0x00\n        /* \"#utility.yul\":42064:42070   */\n      dup3\n        /* \"#utility.yul\":42060:42074   */\n      add\n        /* \"#utility.yul\":42053:42108   */\n      mstore\n        /* \"#utility.yul\":41936:42115   */\n      pop\n      jump\t// out\n        /* \"#utility.yul\":42121:42487   */\n    tag_464:\n        /* \"#utility.yul\":42263:42266   */\n      0x00\n        /* \"#utility.yul\":42284:42351   */\n      tag_883\n        /* \"#utility.yul\":42348:42350   */\n      0x1d\n        /* \"#utility.yul\":42343:42346   */\n      dup4\n        /* \"#utility.yul\":42284:42351   */\n      tag_425\n      jump\t// in\n    tag_883:\n        /* \"#utility.yul\":42277:42351   */\n      swap2\n      pop\n        /* \"#utility.yul\":42360:42453   */\n      tag_884\n        /* \"#utility.yul\":42449:42452   */\n      dup3\n        /* \"#utility.yul\":42360:42453   */\n      tag_463\n      jump\t// in\n    tag_884:\n        /* \"#utility.yul\":42478:42480   */\n      0x20\n        /* \"#utility.yul\":42473:42476   */\n      dup3\n        /* \"#utility.yul\":42469:42481   */\n      add\n        /* \"#utility.yul\":42462:42481   */\n      swap1\n      pop\n        /* \"#utility.yul\":42121:42487   */\n      swap2\n      swap1\n      pop\n      jump\t// out\n        /* \"#utility.yul\":42493:42912   */\n    tag_241:\n        /* \"#utility.yul\":42659:42663   */\n      0x00\n        /* \"#utility.yul\":42697:42699   */\n      0x20\n        /* \"#utility.yul\":42686:42695   */\n      dup3\n        /* \"#utility.yul\":42682:42700   */\n      add\n        /* \"#utility.yul\":42674:42700   */\n      swap1\n      pop\n        /* \"#utility.yul\":42746:42755   */\n      dup2\n        /* \"#utility.yul\":42740:42744   */\n      dup2\n        /* \"#utility.yul\":42736:42756   */\n      sub\n        /* \"#utility.yul\":42732:42733   */\n      0x00\n        /* \"#utility.yul\":42721:42730   */\n      dup4\n        /* \"#utility.yul\":42717:42734   */\n      add\n        /* \"#utility.yul\":42710:42757   */\n      mstore\n        /* \"#utility.yul\":42774:42905   */\n      tag_886\n        /* \"#utility.yul\":42900:42904   */\n      dup2\n        /* \"#utility.yul\":42774:42905   */\n      tag_464\n      jump\t// in\n    tag_886:\n        /* \"#utility.yul\":42766:42905   */\n      swap1\n      pop\n        /* \"#utility.yul\":42493:42912   */\n      swap2\n      swap1\n      pop\n      jump\t// out\n        /* \"#utility.yul\":42918:43141   */\n    tag_465:\n        /* \"#utility.yul\":43058:43092   */\n      0x4576656e7420616c726561647920737461727465642c2063616e6e6f74207570\n        /* \"#utility.yul\":43054:43055   */\n      0x00\n        /* \"#utility.yul\":43046:43052   */\n      dup3\n        /* \"#utility.yul\":43042:43056   */\n      add\n        /* \"#utility.yul\":43035:43093   */\n      mstore\n        /* \"#utility.yul\":43127:43133   */\n      0x6461746500000000000000000000000000000000000000000000000000000000\n        /* \"#utility.yul\":43122:43124   */\n      0x20\n        /* \"#utility.yul\":43114:43120   */\n      dup3\n        /* \"#utility.yul\":43110:43125   */\n      add\n        /* \"#utility.yul\":43103:43134   */\n      mstore\n        /* \"#utility.yul\":42918:43141   */\n      pop\n      jump\t// out\n        /* \"#utility.yul\":43147:43513   */\n    tag_466:\n        /* \"#utility.yul\":43289:43292   */\n      0x00\n        /* \"#utility.yul\":43310:43377   */\n      tag_889\n        /* \"#utility.yul\":43374:43376   */\n      0x24\n        /* \"#utility.yul\":43369:43372   */\n      dup4\n        /* \"#utility.yul\":43310:43377   */\n      tag_425\n      jump\t// in\n    tag_889:\n        /* \"#utility.yul\":43303:43377   */\n      swap2\n      pop\n        /* \"#utility.yul\":43386:43479   */\n      tag_890\n        /* \"#utility.yul\":43475:43478   */\n      dup3\n        /* \"#utility.yul\":43386:43479   */\n      tag_465\n      jump\t// in\n    tag_890:\n        /* \"#utility.yul\":43504:43506   */\n      0x40\n        /* \"#utility.yul\":43499:43502   */\n      dup3\n        /* \"#utility.yul\":43495:43507   */\n      add\n        /* \"#utility.yul\":43488:43507   */\n      swap1\n      pop\n        /* \"#utility.yul\":43147:43513   */\n      swap2\n      swap1\n      pop\n      jump\t// out\n        /* \"#utility.yul\":43519:43938   */\n    tag_244:\n        /* \"#utility.yul\":43685:43689   */\n      0x00\n        /* \"#utility.yul\":43723:43725   */\n      0x20\n        /* \"#utility.yul\":43712:43721   */\n      dup3\n        /* \"#utility.yul\":43708:43726   */\n      add\n        /* \"#utility.yul\":43700:43726   */\n      swap1\n      pop\n        /* \"#utility.yul\":43772:43781   */\n      dup2\n        /* \"#utility.yul\":43766:43770   */\n      dup2\n        /* \"#utility.yul\":43762:43782   */\n      sub\n        /* \"#utility.yul\":43758:43759   */\n      0x00\n        /* \"#utility.yul\":43747:43756   */\n      dup4\n        /* \"#utility.yul\":43743:43760   */\n      add\n        /* \"#utility.yul\":43736:43783   */\n      mstore\n        /* \"#utility.yul\":43800:43931   */\n      tag_892\n        /* \"#utility.yul\":43926:43930   */\n      dup2\n        /* \"#utility.yul\":43800:43931   */\n      tag_466\n      jump\t// in\n    tag_892:\n        /* \"#utility.yul\":43792:43931   */\n      swap1\n      pop\n        /* \"#utility.yul\":43519:43938   */\n      swap2\n      swap1\n      pop\n      jump\t// out\n        /* \"#utility.yul\":43944:44085   */\n    tag_467:\n        /* \"#utility.yul\":43993:43997   */\n      0x00\n        /* \"#utility.yul\":44016:44019   */\n      dup2\n        /* \"#utility.yul\":44008:44019   */\n      swap1\n      pop\n        /* \"#utility.yul\":44039:44042   */\n      dup2\n        /* \"#utility.yul\":44036:44037   */\n      0x00\n        /* \"#utility.yul\":44029:44043   */\n      mstore\n        /* \"#utility.yul\":44073:44077   */\n      0x20\n        /* \"#utility.yul\":44070:44071   */\n      0x00\n        /* \"#utility.yul\":44060:44078   */\n      keccak256\n        /* \"#utility.yul\":44052:44078   */\n      swap1\n      pop\n        /* \"#utility.yul\":43944:44085   */\n      swap2\n      swap1\n      pop\n      jump\t// out\n        /* \"#utility.yul\":44091:44184   */\n    tag_468:\n        /* \"#utility.yul\":44128:44134   */\n      0x00\n        /* \"#utility.yul\":44175:44177   */\n      0x20\n        /* \"#utility.yul\":44170:44172   */\n      0x1f\n        /* \"#utility.yul\":44163:44168   */\n      dup4\n        /* \"#utility.yul\":44159:44173   */\n      add\n        /* \"#utility.yul\":44155:44178   */\n      div\n        /* \"#utility.yul\":44145:44178   */\n      swap1\n      pop\n        /* \"#utility.yul\":44091:44184   */\n      swap2\n      swap1\n      pop\n      jump\t// out\n        /* \"#utility.yul\":44190:44297   */\n    tag_469:\n        /* \"#utility.yul\":44234:44242   */\n      0x00\n        /* \"#utility.yul\":44284:44289   */\n      dup3\n        /* \"#utility.yul\":44278:44282   */\n      dup3\n        /* \"#utility.yul\":44274:44290   */\n      shl\n        /* \"#utility.yul\":44253:44290   */\n      swap1\n      pop\n        /* \"#utility.yul\":44190:44297   */\n      swap3\n      swap2\n      pop\n      pop\n      jump\t// out\n        /* \"#utility.yul\":44303:44696   */\n    tag_470:\n        /* \"#utility.yul\":44372:44378   */\n      0x00\n        /* \"#utility.yul\":44422:44423   */\n      0x08\n        /* \"#utility.yul\":44410:44420   */\n      dup4\n        /* \"#utility.yul\":44406:44424   */\n      mul\n        /* \"#utility.yul\":44445:44542   */\n      tag_897\n        /* \"#utility.yul\":44475:44541   */\n      0xffffffffffffffffffffffffffffffffffffffffffffffffffffffffffffffff\n        /* \"#utility.yul\":44464:44473   */\n      dup3\n        /* \"#utility.yul\":44445:44542   */\n      tag_469\n      jump\t// in\n    tag_897:\n        /* \"#utility.yul\":44563:44602   */\n      tag_898\n        /* \"#utility.yul\":44593:44601   */\n      dup7\n        /* \"#utility.yul\":44582:44591   */\n      dup4\n        /* \"#utility.yul\":44563:44602   */\n      tag_469\n      jump\t// in\n    tag_898:\n        /* \"#utility.yul\":44551:44602   */\n      swap6\n      pop\n        /* \"#utility.yul\":44635:44639   */\n      dup1\n        /* \"#utility.yul\":44631:44640   */\n      not\n        /* \"#utility.yul\":44624:44629   */\n      dup5\n        /* \"#utility.yul\":44620:44641   */\n      and\n        /* \"#utility.yul\":44611:44641   */\n      swap4\n      pop\n        /* \"#utility.yul\":44684:44688   */\n      dup1\n        /* \"#utility.yul\":44674:44682   */\n      dup7\n        /* \"#utility.yul\":44670:44689   */\n      and\n        /* \"#utility.yul\":44663:44668   */\n      dup5\n        /* \"#utility.yul\":44660:44690   */\n      or\n        /* \"#utility.yul\":44650:44690   */\n      swap3\n      pop\n        /* \"#utility.yul\":44379:44696   */\n      pop\n      pop\n        /* \"#utility.yul\":44303:44696   */\n      swap4\n      swap3\n      pop\n      pop\n      pop\n      jump\t// out\n        /* \"#utility.yul\":44702:44762   */\n    tag_471:\n        /* \"#utility.yul\":44730:44733   */\n      0x00\n        /* \"#utility.yul\":44751:44756   */\n      dup2\n        /* \"#utility.yul\":44744:44756   */\n      swap1\n      pop\n        /* \"#utility.yul\":44702:44762   */\n      swap2\n      swap1\n      pop\n      jump\t// out\n        /* \"#utility.yul\":44768:44910   */\n    tag_472:\n        /* \"#utility.yul\":44818:44827   */\n      0x00\n        /* \"#utility.yul\":44851:44904   */\n      tag_901\n        /* \"#utility.yul\":44869:44903   */\n      tag_902\n        /* \"#utility.yul\":44878:44902   */\n      tag_903\n        /* \"#utility.yul\":44896:44901   */\n      dup5\n        /* \"#utility.yul\":44878:44902   */\n      tag_386\n      jump\t// in\n    tag_903:\n        /* \"#utility.yul\":44869:44903   */\n      tag_471\n      jump\t// in\n    tag_902:\n        /* \"#utility.yul\":44851:44904   */\n      tag_386\n      jump\t// in\n    tag_901:\n        /* \"#utility.yul\":44838:44904   */\n      swap1\n      pop\n        /* \"#utility.yul\":44768:44910   */\n      swap2\n      swap1\n      pop\n      jump\t// out\n        /* \"#utility.yul\":44916:44991   */\n    tag_473:\n        /* \"#utility.yul\":44959:44962   */\n      0x00\n        /* \"#utility.yul\":44980:44985   */\n      dup2\n        /* \"#utility.yul\":44973:44985   */\n      swap1\n      pop\n        /* \"#utility.yul\":44916:44991   */\n      swap2\n      swap1\n      pop\n      jump\t// out\n        /* \"#utility.yul\":44997:45266   */\n    tag_474:\n        /* \"#utility.yul\":45107:45146   */\n      tag_906\n        /* \"#utility.yul\":45138:45145   */\n      dup4\n        /* \"#utility.yul\":45107:45146   */\n      tag_472\n      jump\t// in\n    tag_906:\n        /* \"#utility.yul\":45168:45259   */\n      tag_907\n        /* \"#utility.yul\":45217:45258   */\n      tag_908\n        /* \"#utility.yul\":45241:45257   */\n      dup3\n        /* \"#utility.yul\":45217:45258   */\n      tag_473\n      jump\t// in\n    tag_908:\n        /* \"#utility.yul\":45209:45215   */\n      dup5\n        /* \"#utility.yul\":45202:45206   */\n      dup5\n        /* \"#utility.yul\":45196:45207   */\n      sload\n        /* \"#utility.yul\":45168:45259   */\n      tag_470\n      jump\t// in\n    tag_907:\n        /* \"#utility.yul\":45162:45166   */\n      dup3\n        /* \"#utility.yul\":45155:45260   */\n      sstore\n        /* \"#utility.yul\":45073:45266   */\n      pop\n        /* \"#utility.yul\":44997:45266   */\n      pop\n      pop\n      pop\n      jump\t// out\n        /* \"#utility.yul\":45272:45345   */\n    tag_475:\n        /* \"#utility.yul\":45317:45320   */\n      0x00\n        /* \"#utility.yul\":45272:45345   */\n      swap1\n      jump\t// out\n        /* \"#utility.yul\":45351:45540   */\n    tag_476:\n        /* \"#utility.yul\":45428:45460   */\n      tag_911\n      tag_475\n      jump\t// in\n    tag_911:\n        /* \"#utility.yul\":45469:45534   */\n      tag_912\n        /* \"#utility.yul\":45527:45533   */\n      dup2\n        /* \"#utility.yul\":45519:45525   */\n      dup5\n        /* \"#utility.yul\":45513:45517   */\n      dup5\n        /* \"#utility.yul\":45469:45534   */\n      tag_474\n      jump\t// in\n    tag_912:\n        /* \"#utility.yul\":45404:45540   */\n      pop\n        /* \"#utility.yul\":45351:45540   */\n      pop\n      pop\n      jump\t// out\n        /* \"#utility.yul\":45546:45732   */\n    tag_477:\n        /* \"#utility.yul\":45606:45726   */\n    tag_914:\n        /* \"#utility.yul\":45623:45626   */\n      dup2\n        /* \"#utility.yul\":45616:45621   */\n      dup2\n        /* \"#utility.yul\":45613:45627   */\n      lt\n        /* \"#utility.yul\":45606:45726   */\n      iszero\n      tag_916\n      jumpi\n        /* \"#utility.yul\":45677:45716   */\n      tag_917\n        /* \"#utility.yul\":45714:45715   */\n      0x00\n        /* \"#utility.yul\":45707:45712   */\n      dup3\n        /* \"#utility.yul\":45677:45716   */\n      tag_476\n      jump\t// in\n    tag_917:\n        /* \"#utility.yul\":45650:45651   */\n      0x01\n        /* \"#utility.yul\":45643:45648   */\n      dup2\n        /* \"#utility.yul\":45639:45652   */\n      add\n        /* \"#utility.yul\":45630:45652   */\n      swap1\n      pop\n        /* \"#utility.yul\":45606:45726   */\n      jump(tag_914)\n    tag_916:\n        /* \"#utility.yul\":45546:45732   */\n      pop\n      pop\n      jump\t// out\n        /* \"#utility.yul\":45738:46281   */\n    tag_478:\n        /* \"#utility.yul\":45839:45841   */\n      0x1f\n        /* \"#utility.yul\":45834:45837   */\n      dup3\n        /* \"#utility.yul\":45831:45842   */\n      gt\n        /* \"#utility.yul\":45828:46274   */\n      iszero\n      tag_919\n      jumpi\n        /* \"#utility.yul\":45873:45911   */\n      tag_920\n        /* \"#utility.yul\":45905:45910   */\n      dup2\n        /* \"#utility.yul\":45873:45911   */\n      tag_467\n      jump\t// in\n    tag_920:\n        /* \"#utility.yul\":45957:45986   */\n      tag_921\n        /* \"#utility.yul\":45975:45985   */\n      dup5\n        /* \"#utility.yul\":45957:45986   */\n      tag_468\n      jump\t// in\n    tag_921:\n        /* \"#utility.yul\":45947:45955   */\n      dup2\n        /* \"#utility.yul\":45943:45987   */\n      add\n        /* \"#utility.yul\":46140:46142   */\n      0x20\n        /* \"#utility.yul\":46128:46138   */\n      dup6\n        /* \"#utility.yul\":46125:46143   */\n      lt\n        /* \"#utility.yul\":46122:46171   */\n      iszero\n      tag_922\n      jumpi\n        /* \"#utility.yul\":46161:46169   */\n      dup2\n        /* \"#utility.yul\":46146:46169   */\n      swap1\n      pop\n        /* \"#utility.yul\":46122:46171   */\n    tag_922:\n        /* \"#utility.yul\":46184:46264   */\n      tag_923\n        /* \"#utility.yul\":46240:46262   */\n      tag_924\n        /* \"#utility.yul\":46258:46261   */\n      dup6\n        /* \"#utility.yul\":46240:46262   */\n      tag_468\n      jump\t// in\n    tag_924:\n        /* \"#utility.yul\":46230:46238   */\n      dup4\n        /* \"#utility.yul\":46226:46263   */\n      add\n        /* \"#utility.yul\":46213:46224   */\n      dup3\n        /* \"#utility.yul\":46184:46264   */\n      tag_477\n      jump\t// in\n    tag_923:\n        /* \"#utility.yul\":45843:46274   */\n      pop\n      pop\n        /* \"#utility.yul\":45828:46274   */\n    tag_919:\n        /* \"#utility.yul\":45738:46281   */\n      pop\n      pop\n      pop\n      jump\t// out\n        /* \"#utility.yul\":46287:46404   */\n    tag_479:\n        /* \"#utility.yul\":46341:46349   */\n      0x00\n        /* \"#utility.yul\":46391:46396   */\n      dup3\n        /* \"#utility.yul\":46385:46389   */\n      dup3\n        /* \"#utility.yul\":46381:46397   */\n      shr\n        /* \"#utility.yul\":46360:46397   */\n      swap1\n      pop\n        /* \"#utility.yul\":46287:46404   */\n      swap3\n      swap2\n      pop\n      pop\n      jump\t// out\n        /* \"#utility.yul\":46410:46579   */\n    tag_480:\n        /* \"#utility.yul\":46454:46460   */\n      0x00\n        /* \"#utility.yul\":46487:46538   */\n      tag_927\n        /* \"#utility.yul\":46535:46536   */\n      0x00\n        /* \"#utility.yul\":46531:46537   */\n      not\n        /* \"#utility.yul\":46523:46528   */\n      dup5\n        /* \"#utility.yul\":46520:46521   */\n      0x08\n        /* \"#utility.yul\":46516:46529   */\n      mul\n        /* \"#utility.yul\":46487:46538   */\n      tag_479\n      jump\t// in\n    tag_927:\n        /* \"#utility.yul\":46483:46539   */\n      not\n        /* \"#utility.yul\":46568:46572   */\n      dup1\n        /* \"#utility.yul\":46562:46566   */\n      dup4\n        /* \"#utility.yul\":46558:46573   */\n      and\n        /* \"#utility.yul\":46548:46573   */\n      swap2\n      pop\n        /* \"#utility.yul\":46461:46579   */\n      pop\n        /* \"#utility.yul\":46410:46579   */\n      swap3\n      swap2\n      pop\n      pop\n      jump\t// out\n        /* \"#utility.yul\":46584:46879   */\n    tag_481:\n        /* \"#utility.yul\":46660:46664   */\n      0x00\n        /* \"#utility.yul\":46806:46835   */\n      tag_929\n        /* \"#utility.yul\":46831:46834   */\n      dup4\n        /* \"#utility.yul\":46825:46829   */\n      dup4\n        /* \"#utility.yul\":46806:46835   */\n      tag_480\n      jump\t// in\n    tag_929:\n        /* \"#utility.yul\":46798:46835   */\n      swap2\n      pop\n        /* \"#utility.yul\":46868:46871   */\n      dup3\n        /* \"#utility.yul\":46865:46866   */\n      0x02\n        /* \"#utility.yul\":46861:46872   */\n      mul\n        /* \"#utility.yul\":46855:46859   */\n      dup3\n        /* \"#utility.yul\":46852:46873   */\n      or\n        /* \"#utility.yul\":46844:46873   */\n      swap1\n      pop\n        /* \"#utility.yul\":46584:46879   */\n      swap3\n      swap2\n      pop\n      pop\n      jump\t// out\n        /* \"#utility.yul\":46884:48279   */\n    tag_246:\n        /* \"#utility.yul\":47001:47038   */\n      tag_931\n        /* \"#utility.yul\":47034:47037   */\n      dup3\n        /* \"#utility.yul\":47001:47038   */\n      tag_372\n      jump\t// in\n    tag_931:\n        /* \"#utility.yul\":47103:47121   */\n      0xffffffffffffffff\n        /* \"#utility.yul\":47095:47101   */\n      dup2\n        /* \"#utility.yul\":47092:47122   */\n      gt\n        /* \"#utility.yul\":47089:47145   */\n      iszero\n      tag_932\n      jumpi\n        /* \"#utility.yul\":47125:47143   */\n      tag_933\n      tag_130\n      jump\t// in\n    tag_933:\n        /* \"#utility.yul\":47089:47145   */\n    tag_932:\n        /* \"#utility.yul\":47169:47207   */\n      tag_934\n        /* \"#utility.yul\":47201:47205   */\n      dup3\n        /* \"#utility.yul\":47195:47206   */\n      sload\n        /* \"#utility.yul\":47169:47207   */\n      tag_225\n      jump\t// in\n    tag_934:\n        /* \"#utility.yul\":47254:47321   */\n      tag_935\n        /* \"#utility.yul\":47314:47320   */\n      dup3\n        /* \"#utility.yul\":47306:47312   */\n      dup3\n        /* \"#utility.yul\":47300:47304   */\n      dup6\n        /* \"#utility.yul\":47254:47321   */\n      tag_478\n      jump\t// in\n    tag_935:\n        /* \"#utility.yul\":47348:47349   */\n      0x00\n        /* \"#utility.yul\":47372:47376   */\n      0x20\n        /* \"#utility.yul\":47359:47376   */\n      swap1\n      pop\n        /* \"#utility.yul\":47404:47406   */\n      0x1f\n        /* \"#utility.yul\":47396:47402   */\n      dup4\n        /* \"#utility.yul\":47393:47407   */\n      gt\n        /* \"#utility.yul\":47421:47422   */\n      0x01\n        /* \"#utility.yul\":47416:48034   */\n      dup2\n      eq\n      tag_937\n      jumpi\n        /* \"#utility.yul\":48078:48079   */\n      0x00\n        /* \"#utility.yul\":48095:48101   */\n      dup5\n        /* \"#utility.yul\":48092:48169   */\n      iszero\n      tag_938\n      jumpi\n        /* \"#utility.yul\":48144:48153   */\n      dup3\n        /* \"#utility.yul\":48139:48142   */\n      dup8\n        /* \"#utility.yul\":48135:48154   */\n      add\n        /* \"#utility.yul\":48129:48155   */\n      mload\n        /* \"#utility.yul\":48120:48155   */\n      swap1\n      pop\n        /* \"#utility.yul\":48092:48169   */\n    tag_938:\n        /* \"#utility.yul\":48195:48262   */\n      tag_939\n        /* \"#utility.yul\":48255:48261   */\n      dup6\n        /* \"#utility.yul\":48248:48253   */\n      dup3\n        /* \"#utility.yul\":48195:48262   */\n      tag_481\n      jump\t// in\n    tag_939:\n        /* \"#utility.yul\":48189:48193   */\n      dup7\n        /* \"#utility.yul\":48182:48263   */\n      sstore\n        /* \"#utility.yul\":48051:48273   */\n      pop\n        /* \"#utility.yul\":47386:48273   */\n      jump(tag_936)\n        /* \"#utility.yul\":47416:48034   */\n    tag_937:\n        /* \"#utility.yul\":47468:47472   */\n      0x1f\n        /* \"#utility.yul\":47464:47473   */\n      not\n        /* \"#utility.yul\":47456:47462   */\n      dup5\n        /* \"#utility.yul\":47452:47474   */\n      and\n        /* \"#utility.yul\":47502:47539   */\n      tag_940\n        /* \"#utility.yul\":47534:47538   */\n      dup7\n        /* \"#utility.yul\":47502:47539   */\n      tag_467\n      jump\t// in\n    tag_940:\n        /* \"#utility.yul\":47561:47562   */\n      0x00\n        /* \"#utility.yul\":47575:47783   */\n    tag_941:\n        /* \"#utility.yul\":47589:47596   */\n      dup3\n        /* \"#utility.yul\":47586:47587   */\n      dup2\n        /* \"#utility.yul\":47583:47597   */\n      lt\n        /* \"#utility.yul\":47575:47783   */\n      iszero\n      tag_943\n      jumpi\n        /* \"#utility.yul\":47668:47677   */\n      dup5\n        /* \"#utility.yul\":47663:47666   */\n      dup10\n        /* \"#utility.yul\":47659:47678   */\n      add\n        /* \"#utility.yul\":47653:47679   */\n      mload\n        /* \"#utility.yul\":47645:47651   */\n      dup3\n        /* \"#utility.yul\":47638:47680   */\n      sstore\n        /* \"#utility.yul\":47719:47720   */\n      0x01\n        /* \"#utility.yul\":47711:47717   */\n      dup3\n        /* \"#utility.yul\":47707:47721   */\n      add\n        /* \"#utility.yul\":47697:47721   */\n      swap2\n      pop\n        /* \"#utility.yul\":47766:47768   */\n      0x20\n        /* \"#utility.yul\":47755:47764   */\n      dup6\n        /* \"#utility.yul\":47751:47769   */\n      add\n        /* \"#utility.yul\":47738:47769   */\n      swap5\n      pop\n        /* \"#utility.yul\":47612:47616   */\n      0x20\n        /* \"#utility.yul\":47609:47610   */\n      dup2\n        /* \"#utility.yul\":47605:47617   */\n      add\n        /* \"#utility.yul\":47600:47617   */\n      swap1\n      pop\n        /* \"#utility.yul\":47575:47783   */\n      jump(tag_941)\n    tag_943:\n        /* \"#utility.yul\":47811:47817   */\n      dup7\n        /* \"#utility.yul\":47802:47809   */\n      dup4\n        /* \"#utility.yul\":47799:47818   */\n      lt\n        /* \"#utility.yul\":47796:47975   */\n      iszero\n      tag_944\n      jumpi\n        /* \"#utility.yul\":47869:47878   */\n      dup5\n        /* \"#utility.yul\":47864:47867   */\n      dup10\n        /* \"#utility.yul\":47860:47879   */\n      add\n        /* \"#utility.yul\":47854:47880   */\n      mload\n        /* \"#utility.yul\":47912:47960   */\n      tag_945\n        /* \"#utility.yul\":47954:47958   */\n      0x1f\n        /* \"#utility.yul\":47946:47952   */\n      dup10\n        /* \"#utility.yul\":47942:47959   */\n      and\n        /* \"#utility.yul\":47931:47940   */\n      dup3\n        /* \"#utility.yul\":47912:47960   */\n      tag_480\n      jump\t// in\n    tag_945:\n        /* \"#utility.yul\":47904:47910   */\n      dup4\n        /* \"#utility.yul\":47897:47961   */\n      sstore\n        /* \"#utility.yul\":47819:47975   */\n      pop\n        /* \"#utility.yul\":47796:47975   */\n    tag_944:\n        /* \"#utility.yul\":48021:48022   */\n      0x01\n        /* \"#utility.yul\":48017:48018   */\n      0x02\n        /* \"#utility.yul\":48009:48015   */\n      dup9\n        /* \"#utility.yul\":48005:48019   */\n      mul\n        /* \"#utility.yul\":48001:48023   */\n      add\n        /* \"#utility.yul\":47995:47999   */\n      dup9\n        /* \"#utility.yul\":47988:48024   */\n      sstore\n        /* \"#utility.yul\":47423:48034   */\n      pop\n      pop\n      pop\n        /* \"#utility.yul\":47386:48273   */\n    tag_936:\n      pop\n        /* \"#utility.yul\":46976:48279   */\n      pop\n      pop\n      pop\n        /* \"#utility.yul\":46884:48279   */\n      pop\n      pop\n      jump\t// out\n        /* \"#utility.yul\":48285:48464   */\n    tag_482:\n        /* \"#utility.yul\":48425:48456   */\n      0x566f74696e67204576656e7420616c726561647920657869737465642e000000\n        /* \"#utility.yul\":48421:48422   */\n      0x00\n        /* \"#utility.yul\":48413:48419   */\n      dup3\n        /* \"#utility.yul\":48409:48423   */\n      add\n        /* \"#utility.yul\":48402:48457   */\n      mstore\n        /* \"#utility.yul\":48285:48464   */\n      pop\n      jump\t// out\n        /* \"#utility.yul\":48470:48836   */\n    tag_483:\n        /* \"#utility.yul\":48612:48615   */\n      0x00\n        /* \"#utility.yul\":48633:48700   */\n      tag_948\n        /* \"#utility.yul\":48697:48699   */\n      0x1d\n        /* \"#utility.yul\":48692:48695   */\n      dup4\n        /* \"#utility.yul\":48633:48700   */\n      tag_425\n      jump\t// in\n    tag_948:\n        /* \"#utility.yul\":48626:48700   */\n      swap2\n      pop\n        /* \"#utility.yul\":48709:48802   */\n      tag_949\n        /* \"#utility.yul\":48798:48801   */\n      dup3\n        /* \"#utility.yul\":48709:48802   */\n      tag_482\n      jump\t// in\n    tag_949:\n        /* \"#utility.yul\":48827:48829   */\n      0x20\n        /* \"#utility.yul\":48822:48825   */\n      dup3\n        /* \"#utility.yul\":48818:48830   */\n      add\n        /* \"#utility.yul\":48811:48830   */\n      swap1\n      pop\n        /* \"#utility.yul\":48470:48836   */\n      swap2\n      swap1\n      pop\n      jump\t// out\n        /* \"#utility.yul\":48842:49261   */\n    tag_254:\n        /* \"#utility.yul\":49008:49012   */\n      0x00\n        /* \"#utility.yul\":49046:49048   */\n      0x20\n        /* \"#utility.yul\":49035:49044   */\n      dup3\n        /* \"#utility.yul\":49031:49049   */\n      add\n        /* \"#utility.yul\":49023:49049   */\n      swap1\n      pop\n        /* \"#utility.yul\":49095:49104   */\n      dup2\n        /* \"#utility.yul\":49089:49093   */\n      dup2\n        /* \"#utility.yul\":49085:49105   */\n      sub\n        /* \"#utility.yul\":49081:49082   */\n      0x00\n        /* \"#utility.yul\":49070:49079   */\n      dup4\n        /* \"#utility.yul\":49066:49083   */\n      add\n        /* \"#utility.yul\":49059:49106   */\n      mstore\n        /* \"#utility.yul\":49123:49254   */\n      tag_951\n        /* \"#utility.yul\":49249:49253   */\n      dup2\n        /* \"#utility.yul\":49123:49254   */\n      tag_483\n      jump\t// in\n    tag_951:\n        /* \"#utility.yul\":49115:49254   */\n      swap1\n      pop\n        /* \"#utility.yul\":48842:49261   */\n      swap2\n      swap1\n      pop\n      jump\t// out\n        /* \"#utility.yul\":49267:49444   */\n    tag_484:\n        /* \"#utility.yul\":49407:49436   */\n      0x416c726561647920766f74656420696e2074686973206576656e740000000000\n        /* \"#utility.yul\":49403:49404   */\n      0x00\n        /* \"#utility.yul\":49395:49401   */\n      dup3\n        /* \"#utility.yul\":49391:49405   */\n      add\n        /* \"#utility.yul\":49384:49437   */\n      mstore\n        /* \"#utility.yul\":49267:49444   */\n      pop\n      jump\t// out\n        /* \"#utility.yul\":49450:49816   */\n    tag_485:\n        /* \"#utility.yul\":49592:49595   */\n      0x00\n        /* \"#utility.yul\":49613:49680   */\n      tag_954\n        /* \"#utility.yul\":49677:49679   */\n      0x1b\n        /* \"#utility.yul\":49672:49675   */\n      dup4\n        /* \"#utility.yul\":49613:49680   */\n      tag_425\n      jump\t// in\n    tag_954:\n        /* \"#utility.yul\":49606:49680   */\n      swap2\n      pop\n        /* \"#utility.yul\":49689:49782   */\n      tag_955\n        /* \"#utility.yul\":49778:49781   */\n      dup3\n        /* \"#utility.yul\":49689:49782   */\n      tag_484\n      jump\t// in\n    tag_955:\n        /* \"#utility.yul\":49807:49809   */\n      0x20\n        /* \"#utility.yul\":49802:49805   */\n      dup3\n        /* \"#utility.yul\":49798:49810   */\n      add\n        /* \"#utility.yul\":49791:49810   */\n      swap1\n      pop\n        /* \"#utility.yul\":49450:49816   */\n      swap2\n      swap1\n      pop\n      jump\t// out\n        /* \"#utility.yul\":49822:50241   */\n    tag_273:\n        /* \"#utility.yul\":49988:49992   */\n      0x00\n        /* \"#utility.yul\":50026:50028   */\n      0x20\n        /* \"#utility.yul\":50015:50024   */\n      dup3\n        /* \"#utility.yul\":50011:50029   */\n      add\n        /* \"#utility.yul\":50003:50029   */\n      swap1\n      pop\n        /* \"#utility.yul\":50075:50084   */\n      dup2\n        /* \"#utility.yul\":50069:50073   */\n      dup2\n        /* \"#utility.yul\":50065:50085   */\n      sub\n        /* \"#utility.yul\":50061:50062   */\n      0x00\n        /* \"#utility.yul\":50050:50059   */\n      dup4\n        /* \"#utility.yul\":50046:50063   */\n      add\n        /* \"#utility.yul\":50039:50086   */\n      mstore\n        /* \"#utility.yul\":50103:50234   */\n      tag_957\n        /* \"#utility.yul\":50229:50233   */\n      dup2\n        /* \"#utility.yul\":50103:50234   */\n      tag_485\n      jump\t// in\n    tag_957:\n        /* \"#utility.yul\":50095:50234   */\n      swap1\n      pop\n        /* \"#utility.yul\":49822:50241   */\n      swap2\n      swap1\n      pop\n      jump\t// out\n        /* \"#utility.yul\":50247:50414   */\n    tag_486:\n        /* \"#utility.yul\":50387:50406   */\n      0x566f74696e67206e6f7420616374697665000000000000000000000000000000\n        /* \"#utility.yul\":50383:50384   */\n      0x00\n        /* \"#utility.yul\":50375:50381   */\n      dup3\n        /* \"#utility.yul\":50371:50385   */\n      add\n        /* \"#utility.yul\":50364:50407   */\n      mstore\n        /* \"#utility.yul\":50247:50414   */\n      pop\n      jump\t// out\n        /* \"#utility.yul\":50420:50786   */\n    tag_487:\n        /* \"#utility.yul\":50562:50565   */\n      0x00\n        /* \"#utility.yul\":50583:50650   */\n      tag_960\n        /* \"#utility.yul\":50647:50649   */\n      0x11\n        /* \"#utility.yul\":50642:50645   */\n      dup4\n        /* \"#utility.yul\":50583:50650   */\n      tag_425\n      jump\t// in\n    tag_960:\n        /* \"#utility.yul\":50576:50650   */\n      swap2\n      pop\n        /* \"#utility.yul\":50659:50752   */\n      tag_961\n        /* \"#utility.yul\":50748:50751   */\n      dup3\n        /* \"#utility.yul\":50659:50752   */\n      tag_486\n      jump\t// in\n    tag_961:\n        /* \"#utility.yul\":50777:50779   */\n      0x20\n        /* \"#utility.yul\":50772:50775   */\n      dup3\n        /* \"#utility.yul\":50768:50780   */\n      add\n        /* \"#utility.yul\":50761:50780   */\n      swap1\n      pop\n        /* \"#utility.yul\":50420:50786   */\n      swap2\n      swap1\n      pop\n      jump\t// out\n        /* \"#utility.yul\":50792:51211   */\n    tag_277:\n        /* \"#utility.yul\":50958:50962   */\n      0x00\n        /* \"#utility.yul\":50996:50998   */\n      0x20\n        /* \"#utility.yul\":50985:50994   */\n      dup3\n        /* \"#utility.yul\":50981:50999   */\n      add\n        /* \"#utility.yul\":50973:50999   */\n      swap1\n      pop\n        /* \"#utility.yul\":51045:51054   */\n      dup2\n        /* \"#utility.yul\":51039:51043   */\n      dup2\n        /* \"#utility.yul\":51035:51055   */\n      sub\n        /* \"#utility.yul\":51031:51032   */\n      0x00\n        /* \"#utility.yul\":51020:51029   */\n      dup4\n        /* \"#utility.yul\":51016:51033   */\n      add\n        /* \"#utility.yul\":51009:51056   */\n      mstore\n        /* \"#utility.yul\":51073:51204   */\n      tag_963\n        /* \"#utility.yul\":51199:51203   */\n      dup2\n        /* \"#utility.yul\":51073:51204   */\n      tag_487\n      jump\t// in\n    tag_963:\n        /* \"#utility.yul\":51065:51204   */\n      swap1\n      pop\n        /* \"#utility.yul\":50792:51211   */\n      swap2\n      swap1\n      pop\n      jump\t// out\n        /* \"#utility.yul\":51217:51450   */\n    tag_488:\n        /* \"#utility.yul\":51357:51391   */\n      0x566f74696e67206576656e742063726561746f7220616e64207468652061646d\n        /* \"#utility.yul\":51353:51354   */\n      0x00\n        /* \"#utility.yul\":51345:51351   */\n      dup3\n        /* \"#utility.yul\":51341:51355   */\n      add\n        /* \"#utility.yul\":51334:51392   */\n      mstore\n        /* \"#utility.yul\":51426:51442   */\n      0x696e2063616e6e6f7420766f7465000000000000000000000000000000000000\n        /* \"#utility.yul\":51421:51423   */\n      0x20\n        /* \"#utility.yul\":51413:51419   */\n      dup3\n        /* \"#utility.yul\":51409:51424   */\n      add\n        /* \"#utility.yul\":51402:51443   */\n      mstore\n        /* \"#utility.yul\":51217:51450   */\n      pop\n      jump\t// out\n        /* \"#utility.yul\":51456:51822   */\n    tag_489:\n        /* \"#utility.yul\":51598:51601   */\n      0x00\n        /* \"#utility.yul\":51619:51686   */\n      tag_966\n        /* \"#utility.yul\":51683:51685   */\n      0x2e\n        /* \"#utility.yul\":51678:51681   */\n      dup4\n        /* \"#utility.yul\":51619:51686   */\n      tag_425\n      jump\t// in\n    tag_966:\n        /* \"#utility.yul\":51612:51686   */\n      swap2\n      pop\n        /* \"#utility.yul\":51695:51788   */\n      tag_967\n        /* \"#utility.yul\":51784:51787   */\n      dup3\n        /* \"#utility.yul\":51695:51788   */\n      tag_488\n      jump\t// in\n    tag_967:\n        /* \"#utility.yul\":51813:51815   */\n      0x40\n        /* \"#utility.yul\":51808:51811   */\n      dup3\n        /* \"#utility.yul\":51804:51816   */\n      add\n        /* \"#utility.yul\":51797:51816   */\n      swap1\n      pop\n        /* \"#utility.yul\":51456:51822   */\n      swap2\n      swap1\n      pop\n      jump\t// out\n        /* \"#utility.yul\":51828:52247   */\n    tag_281:\n        /* \"#utility.yul\":51994:51998   */\n      0x00\n        /* \"#utility.yul\":52032:52034   */\n      0x20\n        /* \"#utility.yul\":52021:52030   */\n      dup3\n        /* \"#utility.yul\":52017:52035   */\n      add\n        /* \"#utility.yul\":52009:52035   */\n      swap1\n      pop\n        /* \"#utility.yul\":52081:52090   */\n      dup2\n        /* \"#utility.yul\":52075:52079   */\n      dup2\n        /* \"#utility.yul\":52071:52091   */\n      sub\n        /* \"#utility.yul\":52067:52068   */\n      0x00\n        /* \"#utility.yul\":52056:52065   */\n      dup4\n        /* \"#utility.yul\":52052:52069   */\n      add\n        /* \"#utility.yul\":52045:52092   */\n      mstore\n        /* \"#utility.yul\":52109:52240   */\n      tag_969\n        /* \"#utility.yul\":52235:52239   */\n      dup2\n        /* \"#utility.yul\":52109:52240   */\n      tag_489\n      jump\t// in\n    tag_969:\n        /* \"#utility.yul\":52101:52240   */\n      swap1\n      pop\n        /* \"#utility.yul\":51828:52247   */\n      swap2\n      swap1\n      pop\n      jump\t// out\n        /* \"#utility.yul\":52253:52427   */\n    tag_490:\n        /* \"#utility.yul\":52393:52419   */\n      0x43616e64696461746520646f6573206e6f742065786973740000000000000000\n        /* \"#utility.yul\":52389:52390   */\n      0x00\n        /* \"#utility.yul\":52381:52387   */\n      dup3\n        /* \"#utility.yul\":52377:52391   */\n      add\n        /* \"#utility.yul\":52370:52420   */\n      mstore\n        /* \"#utility.yul\":52253:52427   */\n      pop\n      jump\t// out\n        /* \"#utility.yul\":52433:52799   */\n    tag_491:\n        /* \"#utility.yul\":52575:52578   */\n      0x00\n        /* \"#utility.yul\":52596:52663   */\n      tag_972\n        /* \"#utility.yul\":52660:52662   */\n      0x18\n        /* \"#utility.yul\":52655:52658   */\n      dup4\n        /* \"#utility.yul\":52596:52663   */\n      tag_425\n      jump\t// in\n    tag_972:\n        /* \"#utility.yul\":52589:52663   */\n      swap2\n      pop\n        /* \"#utility.yul\":52672:52765   */\n      tag_973\n        /* \"#utility.yul\":52761:52764   */\n      dup3\n        /* \"#utility.yul\":52672:52765   */\n      tag_490\n      jump\t// in\n    tag_973:\n        /* \"#utility.yul\":52790:52792   */\n      0x20\n        /* \"#utility.yul\":52785:52788   */\n      dup3\n        /* \"#utility.yul\":52781:52793   */\n      add\n        /* \"#utility.yul\":52774:52793   */\n      swap1\n      pop\n        /* \"#utility.yul\":52433:52799   */\n      swap2\n      swap1\n      pop\n      jump\t// out\n        /* \"#utility.yul\":52805:53224   */\n    tag_284:\n        /* \"#utility.yul\":52971:52975   */\n      0x00\n        /* \"#utility.yul\":53009:53011   */\n      0x20\n        /* \"#utility.yul\":52998:53007   */\n      dup3\n        /* \"#utility.yul\":52994:53012   */\n      add\n        /* \"#utility.yul\":52986:53012   */\n      swap1\n      pop\n        /* \"#utility.yul\":53058:53067   */\n      dup2\n        /* \"#utility.yul\":53052:53056   */\n      dup2\n        /* \"#utility.yul\":53048:53068   */\n      sub\n        /* \"#utility.yul\":53044:53045   */\n      0x00\n        /* \"#utility.yul\":53033:53042   */\n      dup4\n        /* \"#utility.yul\":53029:53046   */\n      add\n        /* \"#utility.yul\":53022:53069   */\n      mstore\n        /* \"#utility.yul\":53086:53217   */\n      tag_975\n        /* \"#utility.yul\":53212:53216   */\n      dup2\n        /* \"#utility.yul\":53086:53217   */\n      tag_491\n      jump\t// in\n    tag_975:\n        /* \"#utility.yul\":53078:53217   */\n      swap1\n      pop\n        /* \"#utility.yul\":52805:53224   */\n      swap2\n      swap1\n      pop\n      jump\t// out\n        /* \"#utility.yul\":53230:53452   */\n    tag_492:\n        /* \"#utility.yul\":53370:53404   */\n      0x43616e6469646174652063616e6e6f7420766f746520696e2074686973206576\n        /* \"#utility.yul\":53366:53367   */\n      0x00\n        /* \"#utility.yul\":53358:53364   */\n      dup3\n        /* \"#utility.yul\":53354:53368   */\n      add\n        /* \"#utility.yul\":53347:53405   */\n      mstore\n        /* \"#utility.yul\":53439:53444   */\n      0x656e740000000000000000000000000000000000000000000000000000000000\n        /* \"#utility.yul\":53434:53436   */\n      0x20\n        /* \"#utility.yul\":53426:53432   */\n      dup3\n        /* \"#utility.yul\":53422:53437   */\n      add\n        /* \"#utility.yul\":53415:53445   */\n      mstore\n        /* \"#utility.yul\":53230:53452   */\n      pop\n      jump\t// out\n        /* \"#utility.yul\":53458:53824   */\n    tag_493:\n        /* \"#utility.yul\":53600:53603   */\n      0x00\n        /* \"#utility.yul\":53621:53688   */\n      tag_978\n        /* \"#utility.yul\":53685:53687   */\n      0x23\n        /* \"#utility.yul\":53680:53683   */\n      dup4\n        /* \"#utility.yul\":53621:53688   */\n      tag_425\n      jump\t// in\n    tag_978:\n        /* \"#utility.yul\":53614:53688   */\n      swap2\n      pop\n        /* \"#utility.yul\":53697:53790   */\n      tag_979\n        /* \"#utility.yul\":53786:53789   */\n      dup3\n        /* \"#utility.yul\":53697:53790   */\n      tag_492\n      jump\t// in\n    tag_979:\n        /* \"#utility.yul\":53815:53817   */\n      0x40\n        /* \"#utility.yul\":53810:53813   */\n      dup3\n        /* \"#utility.yul\":53806:53818   */\n      add\n        /* \"#utility.yul\":53799:53818   */\n      swap1\n      pop\n        /* \"#utility.yul\":53458:53824   */\n      swap2\n      swap1\n      pop\n      jump\t// out\n        /* \"#utility.yul\":53830:54249   */\n    tag_294:\n        /* \"#utility.yul\":53996:54000   */\n      0x00\n        /* \"#utility.yul\":54034:54036   */\n      0x20\n        /* \"#utility.yul\":54023:54032   */\n      dup3\n        /* \"#utility.yul\":54019:54037   */\n      add\n        /* \"#utility.yul\":54011:54037   */\n      swap1\n      pop\n        /* \"#utility.yul\":54083:54092   */\n      dup2\n        /* \"#utility.yul\":54077:54081   */\n      dup2\n        /* \"#utility.yul\":54073:54093   */\n      sub\n        /* \"#utility.yul\":54069:54070   */\n      0x00\n        /* \"#utility.yul\":54058:54067   */\n      dup4\n        /* \"#utility.yul\":54054:54071   */\n      add\n        /* \"#utility.yul\":54047:54094   */\n      mstore\n        /* \"#utility.yul\":54111:54242   */\n      tag_981\n        /* \"#utility.yul\":54237:54241   */\n      dup2\n        /* \"#utility.yul\":54111:54242   */\n      tag_493\n      jump\t// in\n    tag_981:\n        /* \"#utility.yul\":54103:54242   */\n      swap1\n      pop\n        /* \"#utility.yul\":53830:54249   */\n      swap2\n      swap1\n      pop\n      jump\t// out\n        /* \"#utility.yul\":54255:54435   */\n    tag_494:\n        /* \"#utility.yul\":54303:54380   */\n      0x4e487b7100000000000000000000000000000000000000000000000000000000\n        /* \"#utility.yul\":54300:54301   */\n      0x00\n        /* \"#utility.yul\":54293:54381   */\n      mstore\n        /* \"#utility.yul\":54400:54404   */\n      0x11\n        /* \"#utility.yul\":54397:54398   */\n      0x04\n        /* \"#utility.yul\":54390:54405   */\n      mstore\n        /* \"#utility.yul\":54424:54428   */\n      0x24\n        /* \"#utility.yul\":54421:54422   */\n      0x00\n        /* \"#utility.yul\":54414:54429   */\n      revert\n        /* \"#utility.yul\":54441:54674   */\n    tag_296:\n        /* \"#utility.yul\":54480:54483   */\n      0x00\n        /* \"#utility.yul\":54503:54527   */\n      tag_984\n        /* \"#utility.yul\":54521:54526   */\n      dup3\n        /* \"#utility.yul\":54503:54527   */\n      tag_386\n      jump\t// in\n    tag_984:\n        /* \"#utility.yul\":54494:54527   */\n      swap2\n      pop\n        /* \"#utility.yul\":54549:54615   */\n      0xffffffffffffffffffffffffffffffffffffffffffffffffffffffffffffffff\n        /* \"#utility.yul\":54542:54547   */\n      dup3\n        /* \"#utility.yul\":54539:54616   */\n      sub\n        /* \"#utility.yul\":54536:54639   */\n      tag_985\n      jumpi\n        /* \"#utility.yul\":54619:54637   */\n      tag_986\n      tag_494\n      jump\t// in\n    tag_986:\n        /* \"#utility.yul\":54536:54639   */\n    tag_985:\n        /* \"#utility.yul\":54666:54667   */\n      0x01\n        /* \"#utility.yul\":54659:54664   */\n      dup3\n        /* \"#utility.yul\":54655:54668   */\n      add\n        /* \"#utility.yul\":54648:54668   */\n      swap1\n      pop\n        /* \"#utility.yul\":54441:54674   */\n      swap2\n      swap1\n      pop\n      jump\t// out\n        /* \"#utility.yul\":54680:54906   */\n    tag_495:\n        /* \"#utility.yul\":54820:54854   */\n      0x4f6e6c79206576656e742063726561746f722063616e2072656d6f7665206361\n        /* \"#utility.yul\":54816:54817   */\n      0x00\n        /* \"#utility.yul\":54808:54814   */\n      dup3\n        /* \"#utility.yul\":54804:54818   */\n      add\n        /* \"#utility.yul\":54797:54855   */\n      mstore\n        /* \"#utility.yul\":54889:54898   */\n      0x6e64696461746500000000000000000000000000000000000000000000000000\n        /* \"#utility.yul\":54884:54886   */\n      0x20\n        /* \"#utility.yul\":54876:54882   */\n      dup3\n        /* \"#utility.yul\":54872:54887   */\n      add\n        /* \"#utility.yul\":54865:54899   */\n      mstore\n        /* \"#utility.yul\":54680:54906   */\n      pop\n      jump\t// out\n        /* \"#utility.yul\":54912:55278   */\n    tag_496:\n        /* \"#utility.yul\":55054:55057   */\n      0x00\n        /* \"#utility.yul\":55075:55142   */\n      tag_989\n        /* \"#utility.yul\":55139:55141   */\n      0x27\n        /* \"#utility.yul\":55134:55137   */\n      dup4\n        /* \"#utility.yul\":55075:55142   */\n      tag_425\n      jump\t// in\n    tag_989:\n        /* \"#utility.yul\":55068:55142   */\n      swap2\n      pop\n        /* \"#utility.yul\":55151:55244   */\n      tag_990\n        /* \"#utility.yul\":55240:55243   */\n      dup3\n        /* \"#utility.yul\":55151:55244   */\n      tag_495\n      jump\t// in\n    tag_990:\n        /* \"#utility.yul\":55269:55271   */\n      0x40\n        /* \"#utility.yul\":55264:55267   */\n      dup3\n        /* \"#utility.yul\":55260:55272   */\n      add\n        /* \"#utility.yul\":55253:55272   */\n      swap1\n      pop\n        /* \"#utility.yul\":54912:55278   */\n      swap2\n      swap1\n      pop\n      jump\t// out\n        /* \"#utility.yul\":55284:55703   */\n    tag_314:\n        /* \"#utility.yul\":55450:55454   */\n      0x00\n        /* \"#utility.yul\":55488:55490   */\n      0x20\n        /* \"#utility.yul\":55477:55486   */\n      dup3\n        /* \"#utility.yul\":55473:55491   */\n      add\n        /* \"#utility.yul\":55465:55491   */\n      swap1\n      pop\n        /* \"#utility.yul\":55537:55546   */\n      dup2\n        /* \"#utility.yul\":55531:55535   */\n      dup2\n        /* \"#utility.yul\":55527:55547   */\n      sub\n        /* \"#utility.yul\":55523:55524   */\n      0x00\n        /* \"#utility.yul\":55512:55521   */\n      dup4\n        /* \"#utility.yul\":55508:55525   */\n      add\n        /* \"#utility.yul\":55501:55548   */\n      mstore\n        /* \"#utility.yul\":55565:55696   */\n      tag_992\n        /* \"#utility.yul\":55691:55695   */\n      dup2\n        /* \"#utility.yul\":55565:55696   */\n      tag_496\n      jump\t// in\n    tag_992:\n        /* \"#utility.yul\":55557:55696   */\n      swap1\n      pop\n        /* \"#utility.yul\":55284:55703   */\n      swap2\n      swap1\n      pop\n      jump\t// out\n        /* \"#utility.yul\":55709:55942   */\n    tag_497:\n        /* \"#utility.yul\":55849:55883   */\n      0x4576656e7420616c726561647920737461727465642c2063616e6e6f74207265\n        /* \"#utility.yul\":55845:55846   */\n      0x00\n        /* \"#utility.yul\":55837:55843   */\n      dup3\n        /* \"#utility.yul\":55833:55847   */\n      add\n        /* \"#utility.yul\":55826:55884   */\n      mstore\n        /* \"#utility.yul\":55918:55934   */\n      0x6d6f76652063616e646964617465000000000000000000000000000000000000\n        /* \"#utility.yul\":55913:55915   */\n      0x20\n        /* \"#utility.yul\":55905:55911   */\n      dup3\n        /* \"#utility.yul\":55901:55916   */\n      add\n        /* \"#utility.yul\":55894:55935   */\n      mstore\n        /* \"#utility.yul\":55709:55942   */\n      pop\n      jump\t// out\n        /* \"#utility.yul\":55948:56314   */\n    tag_498:\n        /* \"#utility.yul\":56090:56093   */\n      0x00\n        /* \"#utility.yul\":56111:56178   */\n      tag_995\n        /* \"#utility.yul\":56175:56177   */\n      0x2e\n        /* \"#utility.yul\":56170:56173   */\n      dup4\n        /* \"#utility.yul\":56111:56178   */\n      tag_425\n      jump\t// in\n    tag_995:\n        /* \"#utility.yul\":56104:56178   */\n      swap2\n      pop\n        /* \"#utility.yul\":56187:56280   */\n      tag_996\n        /* \"#utility.yul\":56276:56279   */\n      dup3\n        /* \"#utility.yul\":56187:56280   */\n      tag_497\n      jump\t// in\n    tag_996:\n        /* \"#utility.yul\":56305:56307   */\n      0x40\n        /* \"#utility.yul\":56300:56303   */\n      dup3\n        /* \"#utility.yul\":56296:56308   */\n      add\n        /* \"#utility.yul\":56289:56308   */\n      swap1\n      pop\n        /* \"#utility.yul\":55948:56314   */\n      swap2\n      swap1\n      pop\n      jump\t// out\n        /* \"#utility.yul\":56320:56739   */\n    tag_317:\n        /* \"#utility.yul\":56486:56490   */\n      0x00\n        /* \"#utility.yul\":56524:56526   */\n      0x20\n        /* \"#utility.yul\":56513:56522   */\n      dup3\n        /* \"#utility.yul\":56509:56527   */\n      add\n        /* \"#utility.yul\":56501:56527   */\n      swap1\n      pop\n        /* \"#utility.yul\":56573:56582   */\n      dup2\n        /* \"#utility.yul\":56567:56571   */\n      dup2\n        /* \"#utility.yul\":56563:56583   */\n      sub\n        /* \"#utility.yul\":56559:56560   */\n      0x00\n        /* \"#utility.yul\":56548:56557   */\n      dup4\n        /* \"#utility.yul\":56544:56561   */\n      add\n        /* \"#utility.yul\":56537:56584   */\n      mstore\n        /* \"#utility.yul\":56601:56732   */\n      tag_998\n        /* \"#utility.yul\":56727:56731   */\n      dup2\n        /* \"#utility.yul\":56601:56732   */\n      tag_498\n      jump\t// in\n    tag_998:\n        /* \"#utility.yul\":56593:56732   */\n      swap1\n      pop\n        /* \"#utility.yul\":56320:56739   */\n      swap2\n      swap1\n      pop\n      jump\t// out\n        /* \"#utility.yul\":56745:56939   */\n    tag_326:\n        /* \"#utility.yul\":56785:56789   */\n      0x00\n        /* \"#utility.yul\":56805:56825   */\n      tag_1000\n        /* \"#utility.yul\":56823:56824   */\n      dup3\n        /* \"#utility.yul\":56805:56825   */\n      tag_386\n      jump\t// in\n    tag_1000:\n        /* \"#utility.yul\":56800:56825   */\n      swap2\n      pop\n        /* \"#utility.yul\":56839:56859   */\n      tag_1001\n        /* \"#utility.yul\":56857:56858   */\n      dup4\n        /* \"#utility.yul\":56839:56859   */\n      tag_386\n      jump\t// in\n    tag_1001:\n        /* \"#utility.yul\":56834:56859   */\n      swap3\n      pop\n        /* \"#utility.yul\":56883:56884   */\n      dup3\n        /* \"#utility.yul\":56880:56881   */\n      dup3\n        /* \"#utility.yul\":56876:56885   */\n      sub\n        /* \"#utility.yul\":56868:56885   */\n      swap1\n      pop\n        /* \"#utility.yul\":56907:56908   */\n      dup2\n        /* \"#utility.yul\":56901:56905   */\n      dup2\n        /* \"#utility.yul\":56898:56909   */\n      gt\n        /* \"#utility.yul\":56895:56932   */\n      iszero\n      tag_1002\n      jumpi\n        /* \"#utility.yul\":56912:56930   */\n      tag_1003\n      tag_494\n      jump\t// in\n    tag_1003:\n        /* \"#utility.yul\":56895:56932   */\n    tag_1002:\n        /* \"#utility.yul\":56745:56939   */\n      swap3\n      swap2\n      pop\n      pop\n      jump\t// out\n        /* \"#utility.yul\":56945:57125   */\n    tag_335:\n        /* \"#utility.yul\":56993:57070   */\n      0x4e487b7100000000000000000000000000000000000000000000000000000000\n        /* \"#utility.yul\":56990:56991   */\n      0x00\n        /* \"#utility.yul\":56983:57071   */\n      mstore\n        /* \"#utility.yul\":57090:57094   */\n      0x31\n        /* \"#utility.yul\":57087:57088   */\n      0x04\n        /* \"#utility.yul\":57080:57095   */\n      mstore\n        /* \"#utility.yul\":57114:57118   */\n      0x24\n        /* \"#utility.yul\":57111:57112   */\n      0x00\n        /* \"#utility.yul\":57104:57119   */\n      revert\n        /* \"#utility.yul\":57131:57300   */\n    tag_499:\n        /* \"#utility.yul\":57271:57292   */\n      0x43616e646964617465206e6f7420666f756e6400000000000000000000000000\n        /* \"#utility.yul\":57267:57268   */\n      0x00\n        /* \"#utility.yul\":57259:57265   */\n      dup3\n        /* \"#utility.yul\":57255:57269   */\n      add\n        /* \"#utility.yul\":57248:57293   */\n      mstore\n        /* \"#utility.yul\":57131:57300   */\n      pop\n      jump\t// out\n        /* \"#utility.yul\":57306:57672   */\n    tag_500:\n        /* \"#utility.yul\":57448:57451   */\n      0x00\n        /* \"#utility.yul\":57469:57536   */\n      tag_1007\n        /* \"#utility.yul\":57533:57535   */\n      0x13\n        /* \"#utility.yul\":57528:57531   */\n      dup4\n        /* \"#utility.yul\":57469:57536   */\n      tag_425\n      jump\t// in\n    tag_1007:\n        /* \"#utility.yul\":57462:57536   */\n      swap2\n      pop\n        /* \"#utility.yul\":57545:57638   */\n      tag_1008\n        /* \"#utility.yul\":57634:57637   */\n      dup3\n        /* \"#utility.yul\":57545:57638   */\n      tag_499\n      jump\t// in\n    tag_1008:\n        /* \"#utility.yul\":57663:57665   */\n      0x20\n        /* \"#utility.yul\":57658:57661   */\n      dup3\n        /* \"#utility.yul\":57654:57666   */\n      add\n        /* \"#utility.yul\":57647:57666   */\n      swap1\n      pop\n        /* \"#utility.yul\":57306:57672   */\n      swap2\n      swap1\n      pop\n      jump\t// out\n        /* \"#utility.yul\":57678:58097   */\n    tag_339:\n        /* \"#utility.yul\":57844:57848   */\n      0x00\n        /* \"#utility.yul\":57882:57884   */\n      0x20\n        /* \"#utility.yul\":57871:57880   */\n      dup3\n        /* \"#utility.yul\":57867:57885   */\n      add\n        /* \"#utility.yul\":57859:57885   */\n      swap1\n      pop\n        /* \"#utility.yul\":57931:57940   */\n      dup2\n        /* \"#utility.yul\":57925:57929   */\n      dup2\n        /* \"#utility.yul\":57921:57941   */\n      sub\n        /* \"#utility.yul\":57917:57918   */\n      0x00\n        /* \"#utility.yul\":57906:57915   */\n      dup4\n        /* \"#utility.yul\":57902:57919   */\n      add\n        /* \"#utility.yul\":57895:57942   */\n      mstore\n        /* \"#utility.yul\":57959:58090   */\n      tag_1010\n        /* \"#utility.yul\":58085:58089   */\n      dup2\n        /* \"#utility.yul\":57959:58090   */\n      tag_500\n      jump\t// in\n    tag_1010:\n        /* \"#utility.yul\":57951:58090   */\n      swap1\n      pop\n        /* \"#utility.yul\":57678:58097   */\n      swap2\n      swap1\n      pop\n      jump\t// out\n        /* \"#utility.yul\":58103:58270   */\n    tag_348:\n        /* \"#utility.yul\":58140:58143   */\n      0x00\n        /* \"#utility.yul\":58163:58185   */\n      tag_1012\n        /* \"#utility.yul\":58179:58184   */\n      dup3\n        /* \"#utility.yul\":58163:58185   */\n      tag_427\n      jump\t// in\n    tag_1012:\n        /* \"#utility.yul\":58154:58185   */\n      swap2\n      pop\n        /* \"#utility.yul\":58207:58211   */\n      0xff\n        /* \"#utility.yul\":58200:58205   */\n      dup3\n        /* \"#utility.yul\":58197:58212   */\n      sub\n        /* \"#utility.yul\":58194:58235   */\n      tag_1013\n      jumpi\n        /* \"#utility.yul\":58215:58233   */\n      tag_1014\n      tag_494\n      jump\t// in\n    tag_1014:\n        /* \"#utility.yul\":58194:58235   */\n    tag_1013:\n        /* \"#utility.yul\":58262:58263   */\n      0x01\n        /* \"#utility.yul\":58255:58260   */\n      dup3\n        /* \"#utility.yul\":58251:58264   */\n      add\n        /* \"#utility.yul\":58244:58264   */\n      swap1\n      pop\n        /* \"#utility.yul\":58103:58270   */\n      swap2\n      swap1\n      pop\n      jump\t// out\n\n    auxdata: 0xa2646970667358221220506dc47f9038249cb4ff19a2b37b6f9b162b9df36e0c4a32e1d7cb5738d7845c64736f6c634300081a0033\n}\n",
				"bytecode": {
					"linkReferences": {},
					"object": "6080604052348015600e575f80fd5b50335f806101000a81548173ffffffffffffffffffffffffffffffffffffffff021916908373ffffffffffffffffffffffffffffffffffffffff16021790555061441a8061005b5f395ff3fe608060405234801561000f575f80fd5b5060043610610135575f3560e01c80638ab66a90116100b6578063c479fc911161007a578063c479fc91146103b8578063cce02b25146103d4578063ddb6457e14610404578063e9d1c2d414610439578063f851a44014610469578063f9db321e1461048757610135565b80638ab66a90146102ed5780639f691b521461031f578063a89d95ec1461033b578063aadc3b721461036c578063bacfcfa41461039c57610135565b80633c181d4b116100fd5780633c181d4b146102045780635f908e111461023657806371a80e3f1461025257806375a76aab146102845780637d1da8f8146102b657610135565b8063169cf6c8146101395780631dd1f157146101575780631e11213c146101875780632ac1b516146101b85780632e3c2abf146101d4575b5f80fd5b6101416104a3565b60405161014e9190612845565b60405180910390f35b610171600480360381019061016c91906128dc565b610562565b60405161017e9190612929565b60405180910390f35b6101a1600480360381019061019c9190612a6e565b61058d565b6040516101af929190612c23565b60405180910390f35b6101d260048036038101906101cd9190612e54565b6106cb565b005b6101ee60048036038101906101e99190612a6e565b610d8c565b6040516101fb9190612ef8565b60405180910390f35b61021e60048036038101906102199190612f18565b610e00565b60405161022d93929190612f74565b60405180910390f35b610250600480360381019061024b9190612a6e565b610e50565b005b61026c60048036038101906102679190612fa9565b611042565b60405161027b93929190612fd4565b60405180910390f35b61029e600480360381019061029991906128dc565b611096565b6040516102ad93929190612fd4565b60405180910390f35b6102d060048036038101906102cb9190612a6e565b6110f5565b6040516102e4989796959493929190613123565b60405180910390f35b610307600480360381019061030291906131bb565b61139c565b60405161031693929190612f74565b60405180910390f35b61033960048036038101906103349190613210565b6113e1565b005b610355600480360381019061035091906132bf565b6115eb565b604051610363929190613335565b60405180910390f35b6103866004803603810190610381919061335c565b6116b3565b60405161039391906133b4565b60405180910390f35b6103b660048036038101906103b191906133cd565b6116dd565b005b6103d260048036038101906103cd91906132bf565b611969565b005b6103ee60048036038101906103e99190612f18565b612013565b6040516103fb9190613469565b60405180910390f35b61041e60048036038101906104199190613482565b612033565b604051610430969594939291906134ad565b60405180910390f35b610453600480360381019061044e919061335c565b61211d565b60405161046091906133b4565b60405180910390f35b610471612147565b60405161047e9190613513565b60405180910390f35b6104a1600480360381019061049c919061352c565b61216a565b005b60605f600a8054905067ffffffffffffffff8111156104c5576104c461294a565b5b6040519080825280602002602001820160405280156104f857816020015b60608152602001906001900390816104e35790505b5090505f5b600a8054905081101561055a5761052f600a828154811061052157610520613586565b5b905f5260205f200154612507565b82828151811061054257610541613586565b5b602002602001018190525080806001019150506104fd565b508091505090565b6006602052815f5260405f20818154811061057b575f80fd5b905f5260205f20015f91509150505481565b6060805f61059a84612652565b90505f60065f8381526020019081526020015f208054806020026020016040519081016040528092919081815260200182805480156105f657602002820191905f5260205f20905b8154815260200190600101908083116105e2575b505050505090505f815167ffffffffffffffff8111156106195761061861294a565b5b6040519080825280602002602001820160405280156106475781602001602082028036833780820191505090505b5090505f5b82518110156106bc5760075f8581526020019081526020015f205f84838151811061067a57610679613586565b5b602002602001015181526020019081526020015f20548282815181106106a3576106a2613586565b5b602002602001018181525050808060010191505061064c565b50818194509450505050915091565b5f6106d584612652565b90505f60015f8381526020019081526020015f2090505f801b815f015403610732576040517f08c379a0000000000000000000000000000000000000000000000000000000008152600401610729906135fd565b60405180910390fd5b806004015f9054906101000a900473ffffffffffffffffffffffffffffffffffffffff1673ffffffffffffffffffffffffffffffffffffffff163373ffffffffffffffffffffffffffffffffffffffff1614806107d957505f8054906101000a900473ffffffffffffffffffffffffffffffffffffffff1673ffffffffffffffffffffffffffffffffffffffff163373ffffffffffffffffffffffffffffffffffffffff16145b610818576040517f08c379a000000000000000000000000000000000000000000000000000000000815260040161080f9061368b565b60405180910390fd5b8060020154421061085e576040517f08c379a000000000000000000000000000000000000000000000000000000000815260040161085590613719565b60405180910390fd5b82518451146108a2576040517f08c379a0000000000000000000000000000000000000000000000000000000008152600401610899906137a7565b60405180910390fd5b5f8451116108e5576040517f08c379a00000000000000000000000000000000000000000000000000000000081526004016108dc9061380f565b60405180910390fd5b5f5b8451811015610d84575f61091486838151811061090757610906613586565b5b6020026020010151612652565b90505f85838151811061092a57610929613586565b5b602002602001015190505f73ffffffffffffffffffffffffffffffffffffffff168173ffffffffffffffffffffffffffffffffffffffff16036109a2576040517f08c379a000000000000000000000000000000000000000000000000000000000815260040161099990613877565b60405180910390fd5b5f801b82036109e6576040517f08c379a00000000000000000000000000000000000000000000000000000000081526004016109dd906138df565b60405180910390fd5b5f73ffffffffffffffffffffffffffffffffffffffff1660055f8781526020019081526020015f205f8481526020019081526020015f206001015f9054906101000a900473ffffffffffffffffffffffffffffffffffffffff1673ffffffffffffffffffffffffffffffffffffffff1614610a96576040517f08c379a0000000000000000000000000000000000000000000000000000000008152600401610a8d90613947565b60405180910390fd5b3373ffffffffffffffffffffffffffffffffffffffff168173ffffffffffffffffffffffffffffffffffffffff1614158015610b1d57505f8054906101000a900473ffffffffffffffffffffffffffffffffffffffff1673ffffffffffffffffffffffffffffffffffffffff168173ffffffffffffffffffffffffffffffffffffffff1614155b610b5c576040517f08c379a0000000000000000000000000000000000000000000000000000000008152600401610b53906139d5565b60405180910390fd5b5f60405180606001604052808481526020018373ffffffffffffffffffffffffffffffffffffffff1681526020015f81525090508060055f8881526020019081526020015f205f8581526020019081526020015f205f820151815f01556020820151816001015f6101000a81548173ffffffffffffffffffffffffffffffffffffffff021916908373ffffffffffffffffffffffffffffffffffffffff1602179055506040820151816002015590505060065f8781526020019081526020015f2083908060018154018082558091505060019003905f5260205f20015f90919091909150558060045f8473ffffffffffffffffffffffffffffffffffffffff1673ffffffffffffffffffffffffffffffffffffffff1681526020019081526020015f205f820151815f01556020820151816001015f6101000a81548173ffffffffffffffffffffffffffffffffffffffff021916908373ffffffffffffffffffffffffffffffffffffffff160217905550604082015181600201559050508460050182908060018154018082558091505060019003905f5260205f20015f9091909190916101000a81548173ffffffffffffffffffffffffffffffffffffffff021916908373ffffffffffffffffffffffffffffffffffffffff160217905550857f5def6a3abd206ab4318213ca37422c51c627a1f7ea0bebe4c137c7fc1f24250c83604051610d6c9190613513565b60405180910390a250505080806001019150506108e7565b505050505050565b60605f610d9883612652565b905060065f8281526020019081526020015f20805480602002602001604051908101604052809291908181526020018280548015610df357602002820191905f5260205f20905b815481526020019060010190808311610ddf575b5050505050915050919050565b6005602052815f5260405f20602052805f5260405f205f9150915050805f015490806001015f9054906101000a900473ffffffffffffffffffffffffffffffffffffffff16908060020154905083565b5f610e5a82612652565b90505f60015f8381526020019081526020015f2090505f801b815f015403610eb7576040517f08c379a0000000000000000000000000000000000000000000000000000000008152600401610eae906135fd565b60405180910390fd5b806004015f9054906101000a900473ffffffffffffffffffffffffffffffffffffffff1673ffffffffffffffffffffffffffffffffffffffff163373ffffffffffffffffffffffffffffffffffffffff161480610f5e57505f8054906101000a900473ffffffffffffffffffffffffffffffffffffffff1673ffffffffffffffffffffffffffffffffffffffff163373ffffffffffffffffffffffffffffffffffffffff16145b610f9d576040517f08c379a0000000000000000000000000000000000000000000000000000000008152600401610f9490613a3d565b60405180910390fd5b80600201544210610fe3576040517f08c379a0000000000000000000000000000000000000000000000000000000008152600401610fda90613acb565b60405180910390fd5b6001805f8481526020019081526020015f2060040160146101000a81548160ff021916908360ff160217905550817f382e9875ecbd1af0156d1e58a9a9e88530f39dbbae3ace5d61ac241418b082d760405160405180910390a2505050565b60098181548110611051575f80fd5b905f5260205f2090600302015f91509050805f015f9054906101000a900473ffffffffffffffffffffffffffffffffffffffff16908060010154908060020154905083565b6003602052815f5260405f2081815481106110af575f80fd5b905f5260205f2090600302015f9150915050805f015f9054906101000a900473ffffffffffffffffffffffffffffffffffffffff16908060010154908060020154905083565b6060805f805f806060805f60015f61110c8c612652565b81526020019081526020015f20604051806101000160405290815f820154815260200160018201805461113e90613b16565b80601f016020809104026020016040519081016040528092919081815260200182805461116a90613b16565b80156111b55780601f1061118c576101008083540402835291602001916111b5565b820191905f5260205f20905b81548152906001019060200180831161119857829003601f168201915b505050505081526020016002820154815260200160038201548152602001600482015f9054906101000a900473ffffffffffffffffffffffffffffffffffffffff1673ffffffffffffffffffffffffffffffffffffffff1673ffffffffffffffffffffffffffffffffffffffff1681526020016004820160149054906101000a900460ff1660ff1660ff168152602001600582018054806020026020016040519081016040528092919081815260200182805480156112c657602002820191905f5260205f20905b815f9054906101000a900473ffffffffffffffffffffffffffffffffffffffff1673ffffffffffffffffffffffffffffffffffffffff168152602001906001019080831161127d575b505050505081526020016006820180548060200260200160405190810160405280929190818152602001828054801561135157602002820191905f5260205f20905b815f9054906101000a900473ffffffffffffffffffffffffffffffffffffffff1673ffffffffffffffffffffffffffffffffffffffff1681526020019060010190808311611308575b50505050508152505090508981602001518260400151836060015184608001518560a001518660c001518760e001519850985098509850985098509850985050919395975091939597565b6004602052805f5260405f205f91509050805f015490806001015f9054906101000a900473ffffffffffffffffffffffffffffffffffffffff16908060020154905083565b5f6113eb86612652565b90505f60015f8381526020019081526020015f2090505f801b815f015403611448576040517f08c379a000000000000000000000000000000000000000000000000000000000815260040161143f906135fd565b60405180910390fd5b806004015f9054906101000a900473ffffffffffffffffffffffffffffffffffffffff1673ffffffffffffffffffffffffffffffffffffffff163373ffffffffffffffffffffffffffffffffffffffff1614806114ef57505f8054906101000a900473ffffffffffffffffffffffffffffffffffffffff1673ffffffffffffffffffffffffffffffffffffffff163373ffffffffffffffffffffffffffffffffffffffff16145b61152e576040517f08c379a000000000000000000000000000000000000000000000000000000000815260040161152590613b90565b60405180910390fd5b80600201544210611574576040517f08c379a000000000000000000000000000000000000000000000000000000000815260040161156b90613c1e565b60405180910390fd5b858160010190816115859190613dd9565b50848160020181905550838160030181905550828160040160146101000a81548160ff021916908360ff160217905550817f7645214750df1b9537c4c3a9ee0317a94bd6e880bfd45aa461dc1deacb3a515560405160405180910390a250505050505050565b5f805f6115f785612652565b90505f61160385612652565b90505f60055f8481526020019081526020015f205f8381526020019081526020015f206040518060600160405290815f8201548152602001600182015f9054906101000a900473ffffffffffffffffffffffffffffffffffffffff1673ffffffffffffffffffffffffffffffffffffffff1673ffffffffffffffffffffffffffffffffffffffff168152602001600282015481525050905080602001518160400151945094505050509250929050565b6008602052815f5260405f20602052805f5260405f205f915091509054906101000a900460ff1681565b5f6116e785612652565b90505f801b60015f8381526020019081526020015f205f015414611740576040517f08c379a000000000000000000000000000000000000000000000000000000000815260040161173790613ef2565b60405180910390fd5b5f6040518061010001604052808381526020018681526020018581526020018481526020013373ffffffffffffffffffffffffffffffffffffffff1681526020015f60ff1681526020015f67ffffffffffffffff8111156117a4576117a361294a565b5b6040519080825280602002602001820160405280156117d25781602001602082028036833780820191505090505b5081526020015f67ffffffffffffffff8111156117f2576117f161294a565b5b6040519080825280602002602001820160405280156118205781602001602082028036833780820191505090505b5081525090508060015f8481526020019081526020015f205f820151815f015560208201518160010190816118559190613dd9565b5060408201518160020155606082015181600301556080820151816004015f6101000a81548173ffffffffffffffffffffffffffffffffffffffff021916908373ffffffffffffffffffffffffffffffffffffffff16021790555060a08201518160040160146101000a81548160ff021916908360ff16021790555060c08201518160050190805190602001906118ed929190612678565b5060e082015181600601908051906020019061190a929190612678565b50905050600a82908060018154018082558091505060019003905f5260205f20015f9091909190915055817f78d8d0fb0effbc7a876f2a98c46e64bad75370010baad95700b5c4af4d04e36960405160405180910390a2505050505050565b5f61197383612652565b90505f61197f83612652565b90505f60015f8481526020019081526020015f2090505f801b815f0154036119dc576040517f08c379a00000000000000000000000000000000000000000000000000000000081526004016119d3906135fd565b60405180910390fd5b60085f8481526020019081526020015f205f3373ffffffffffffffffffffffffffffffffffffffff1673ffffffffffffffffffffffffffffffffffffffff1681526020019081526020015f205f9054906101000a900460ff1615611a75576040517f08c379a0000000000000000000000000000000000000000000000000000000008152600401611a6c90613f5a565b60405180910390fd5b80600201544210158015611a8d575080600301544211155b611acc576040517f08c379a0000000000000000000000000000000000000000000000000000000008152600401611ac390613fc2565b60405180910390fd5b806004015f9054906101000a900473ffffffffffffffffffffffffffffffffffffffff1673ffffffffffffffffffffffffffffffffffffffff163373ffffffffffffffffffffffffffffffffffffffff1614158015611b7657505f8054906101000a900473ffffffffffffffffffffffffffffffffffffffff1673ffffffffffffffffffffffffffffffffffffffff163373ffffffffffffffffffffffffffffffffffffffff1614155b611bb5576040517f08c379a0000000000000000000000000000000000000000000000000000000008152600401611bac90614050565b60405180910390fd5b5f73ffffffffffffffffffffffffffffffffffffffff1660055f8581526020019081526020015f205f8481526020019081526020015f206001015f9054906101000a900473ffffffffffffffffffffffffffffffffffffffff1673ffffffffffffffffffffffffffffffffffffffff1603611c65576040517f08c379a0000000000000000000000000000000000000000000000000000000008152600401611c5c906140b8565b60405180910390fd5b5f805b8260050180549050811015611cfd573373ffffffffffffffffffffffffffffffffffffffff16836005018281548110611ca457611ca3613586565b5b905f5260205f20015f9054906101000a900473ffffffffffffffffffffffffffffffffffffffff1673ffffffffffffffffffffffffffffffffffffffff1603611cf05760019150611cfd565b8080600101915050611c68565b508015611d3f576040517f08c379a0000000000000000000000000000000000000000000000000000000008152600401611d3690614146565b60405180910390fd5b5f60405180606001604052803373ffffffffffffffffffffffffffffffffffffffff16815260200185815260200142815250905060075f8681526020019081526020015f205f8581526020019081526020015f205f815480929190611da390614191565b919050555060055f8681526020019081526020015f205f8581526020019081526020015f206002015f815480929190611ddb90614191565b9190505550600160085f8781526020019081526020015f205f3373ffffffffffffffffffffffffffffffffffffffff1673ffffffffffffffffffffffffffffffffffffffff1681526020019081526020015f205f6101000a81548160ff021916908315150217905550600981908060018154018082558091505060019003905f5260205f2090600302015f909190919091505f820151815f015f6101000a81548173ffffffffffffffffffffffffffffffffffffffff021916908373ffffffffffffffffffffffffffffffffffffffff1602179055506020820151816001015560408201518160020155505060035f8681526020019081526020015f2081908060018154018082558091505060019003905f5260205f2090600302015f909190919091505f820151815f015f6101000a81548173ffffffffffffffffffffffffffffffffffffffff021916908373ffffffffffffffffffffffffffffffffffffffff160217905550602082015181600101556040820151816002015550508260060133908060018154018082558091505060019003905f5260205f20015f9091909190916101000a81548173ffffffffffffffffffffffffffffffffffffffff021916908373ffffffffffffffffffffffffffffffffffffffff1602179055503373ffffffffffffffffffffffffffffffffffffffff16857f779ee41b2705bb84b68826be94f592204565aed7b9a6d8b5a0a8e1a03f551cce866040516120029190612929565b60405180910390a350505050505050565b6007602052815f5260405f20602052805f5260405f205f91509150505481565b6001602052805f5260405f205f91509050805f01549080600101805461205890613b16565b80601f016020809104026020016040519081016040528092919081815260200182805461208490613b16565b80156120cf5780601f106120a6576101008083540402835291602001916120cf565b820191905f5260205f20905b8154815290600101906020018083116120b257829003601f168201915b505050505090806002015490806003015490806004015f9054906101000a900473ffffffffffffffffffffffffffffffffffffffff16908060040160149054906101000a900460ff16905086565b6002602052815f5260405f20602052805f5260405f205f915091509054906101000a900460ff1681565b5f8054906101000a900473ffffffffffffffffffffffffffffffffffffffff1681565b5f61217483612652565b90505f60015f8381526020019081526020015f2090505f801b815f0154036121d1576040517f08c379a00000000000000000000000000000000000000000000000000000000081526004016121c8906135fd565b60405180910390fd5b806004015f9054906101000a900473ffffffffffffffffffffffffffffffffffffffff1673ffffffffffffffffffffffffffffffffffffffff163373ffffffffffffffffffffffffffffffffffffffff16148061227857505f8054906101000a900473ffffffffffffffffffffffffffffffffffffffff1673ffffffffffffffffffffffffffffffffffffffff163373ffffffffffffffffffffffffffffffffffffffff16145b6122b7576040517f08c379a00000000000000000000000000000000000000000000000000000000081526004016122ae90614248565b60405180910390fd5b806002015442106122fd576040517f08c379a00000000000000000000000000000000000000000000000000000000081526004016122f4906142d6565b60405180910390fd5b5f805b8260050180549050811015612487578473ffffffffffffffffffffffffffffffffffffffff1683600501828154811061233c5761233b613586565b5b905f5260205f20015f9054906101000a900473ffffffffffffffffffffffffffffffffffffffff1673ffffffffffffffffffffffffffffffffffffffff160361247a57826005016001846005018054905061239791906142f4565b815481106123a8576123a7613586565b5b905f5260205f20015f9054906101000a900473ffffffffffffffffffffffffffffffffffffffff168360050182815481106123e6576123e5613586565b5b905f5260205f20015f6101000a81548173ffffffffffffffffffffffffffffffffffffffff021916908373ffffffffffffffffffffffffffffffffffffffff1602179055508260050180548061243f5761243e614327565b5b600190038181905f5260205f20015f6101000a81549073ffffffffffffffffffffffffffffffffffffffff0219169055905560019150612487565b8080600101915050612300565b50806124c8576040517f08c379a00000000000000000000000000000000000000000000000000000000081526004016124bf9061439e565b60405180910390fd5b827f0f086ba9a1f8f85a7a2069340133bc707fe5a25abb4f2b116a1010864b51d109856040516124f89190613513565b60405180910390a25050505050565b60605f5b60208160ff1610801561255c57505f60f81b838260ff166020811061253357612532613586565b5b1a60f81b7effffffffffffffffffffffffffffffffffffffffffffffffffffffffffffff191614155b1561257457808061256c906143bc565b91505061250b565b5f8160ff1667ffffffffffffffff8111156125925761259161294a565b5b6040519080825280601f01601f1916602001820160405280156125c45781602001600182028036833780820191505090505b5090505f91505b80518260ff16101561264857838260ff16602081106125ed576125ec613586565b5b1a60f81b818360ff168151811061260757612606613586565b5b60200101907effffffffffffffffffffffffffffffffffffffffffffffffffffffffffffff191690815f1a9053508180612640906143bc565b9250506125cb565b8092505050919050565b5f808290505f81510361266a575f801b915050612673565b60208301519150505b919050565b828054828255905f5260205f209081019282156126ee579160200282015b828111156126ed578251825f6101000a81548173ffffffffffffffffffffffffffffffffffffffff021916908373ffffffffffffffffffffffffffffffffffffffff16021790555091602001919060010190612696565b5b5090506126fb91906126ff565b5090565b5b80821115612716575f815f905550600101612700565b5090565b5f81519050919050565b5f82825260208201905092915050565b5f819050602082019050919050565b5f81519050919050565b5f82825260208201905092915050565b8281835e5f83830152505050565b5f601f19601f8301169050919050565b5f61278582612743565b61278f818561274d565b935061279f81856020860161275d565b6127a88161276b565b840191505092915050565b5f6127be838361277b565b905092915050565b5f602082019050919050565b5f6127dc8261271a565b6127e68185612724565b9350836020820285016127f885612734565b805f5b85811015612833578484038952815161281485826127b3565b945061281f836127c6565b925060208a019950506001810190506127fb565b50829750879550505050505092915050565b5f6020820190508181035f83015261285d81846127d2565b905092915050565b5f604051905090565b5f80fd5b5f80fd5b5f819050919050565b61288881612876565b8114612892575f80fd5b50565b5f813590506128a38161287f565b92915050565b5f819050919050565b6128bb816128a9565b81146128c5575f80fd5b50565b5f813590506128d6816128b2565b92915050565b5f80604083850312156128f2576128f161286e565b5b5f6128ff85828601612895565b9250506020612910858286016128c8565b9150509250929050565b61292381612876565b82525050565b5f60208201905061293c5f83018461291a565b92915050565b5f80fd5b5f80fd5b7f4e487b71000000000000000000000000000000000000000000000000000000005f52604160045260245ffd5b6129808261276b565b810181811067ffffffffffffffff8211171561299f5761299e61294a565b5b80604052505050565b5f6129b1612865565b90506129bd8282612977565b919050565b5f67ffffffffffffffff8211156129dc576129db61294a565b5b6129e58261276b565b9050602081019050919050565b828183375f83830152505050565b5f612a12612a0d846129c2565b6129a8565b905082815260208101848484011115612a2e57612a2d612946565b5b612a398482856129f2565b509392505050565b5f82601f830112612a5557612a54612942565b5b8135612a65848260208601612a00565b91505092915050565b5f60208284031215612a8357612a8261286e565b5b5f82013567ffffffffffffffff811115612aa057612a9f612872565b5b612aac84828501612a41565b91505092915050565b5f81519050919050565b5f82825260208201905092915050565b5f819050602082019050919050565b612ae781612876565b82525050565b5f612af88383612ade565b60208301905092915050565b5f602082019050919050565b5f612b1a82612ab5565b612b248185612abf565b9350612b2f83612acf565b805f5b83811015612b5f578151612b468882612aed565b9750612b5183612b04565b925050600181019050612b32565b5085935050505092915050565b5f81519050919050565b5f82825260208201905092915050565b5f819050602082019050919050565b612b9e816128a9565b82525050565b5f612baf8383612b95565b60208301905092915050565b5f602082019050919050565b5f612bd182612b6c565b612bdb8185612b76565b9350612be683612b86565b805f5b83811015612c16578151612bfd8882612ba4565b9750612c0883612bbb565b925050600181019050612be9565b5085935050505092915050565b5f6040820190508181035f830152612c3b8185612b10565b90508181036020830152612c4f8184612bc7565b90509392505050565b5f67ffffffffffffffff821115612c7257612c7161294a565b5b602082029050602081019050919050565b5f80fd5b5f612c99612c9484612c58565b6129a8565b90508083825260208201905060208402830185811115612cbc57612cbb612c83565b5b835b81811015612d0357803567ffffffffffffffff811115612ce157612ce0612942565b5b808601612cee8982612a41565b85526020850194505050602081019050612cbe565b5050509392505050565b5f82601f830112612d2157612d20612942565b5b8135612d31848260208601612c87565b91505092915050565b5f67ffffffffffffffff821115612d5457612d5361294a565b5b602082029050602081019050919050565b5f73ffffffffffffffffffffffffffffffffffffffff82169050919050565b5f612d8e82612d65565b9050919050565b612d9e81612d84565b8114612da8575f80fd5b50565b5f81359050612db981612d95565b92915050565b5f612dd1612dcc84612d3a565b6129a8565b90508083825260208201905060208402830185811115612df457612df3612c83565b5b835b81811015612e1d5780612e098882612dab565b845260208401935050602081019050612df6565b5050509392505050565b5f82601f830112612e3b57612e3a612942565b5b8135612e4b848260208601612dbf565b91505092915050565b5f805f60608486031215612e6b57612e6a61286e565b5b5f84013567ffffffffffffffff811115612e8857612e87612872565b5b612e9486828701612a41565b935050602084013567ffffffffffffffff811115612eb557612eb4612872565b5b612ec186828701612d0d565b925050604084013567ffffffffffffffff811115612ee257612ee1612872565b5b612eee86828701612e27565b9150509250925092565b5f6020820190508181035f830152612f108184612b10565b905092915050565b5f8060408385031215612f2e57612f2d61286e565b5b5f612f3b85828601612895565b9250506020612f4c85828601612895565b9150509250929050565b612f5f81612d84565b82525050565b612f6e816128a9565b82525050565b5f606082019050612f875f83018661291a565b612f946020830185612f56565b612fa16040830184612f65565b949350505050565b5f60208284031215612fbe57612fbd61286e565b5b5f612fcb848285016128c8565b91505092915050565b5f606082019050612fe75f830186612f56565b612ff4602083018561291a565b6130016040830184612f65565b949350505050565b5f82825260208201905092915050565b5f61302382612743565b61302d8185613009565b935061303d81856020860161275d565b6130468161276b565b840191505092915050565b5f60ff82169050919050565b61306681613051565b82525050565b5f81519050919050565b5f82825260208201905092915050565b5f819050602082019050919050565b61309e81612d84565b82525050565b5f6130af8383613095565b60208301905092915050565b5f602082019050919050565b5f6130d18261306c565b6130db8185613076565b93506130e683613086565b805f5b838110156131165781516130fd88826130a4565b9750613108836130bb565b9250506001810190506130e9565b5085935050505092915050565b5f610100820190508181035f83015261313c818b613019565b90508181036020830152613150818a613019565b905061315f6040830189612f65565b61316c6060830188612f65565b6131796080830187612f56565b61318660a083018661305d565b81810360c083015261319881856130c7565b905081810360e08301526131ac81846130c7565b90509998505050505050505050565b5f602082840312156131d0576131cf61286e565b5b5f6131dd84828501612dab565b91505092915050565b6131ef81613051565b81146131f9575f80fd5b50565b5f8135905061320a816131e6565b92915050565b5f805f805f60a086880312156132295761322861286e565b5b5f86013567ffffffffffffffff81111561324657613245612872565b5b61325288828901612a41565b955050602086013567ffffffffffffffff81111561327357613272612872565b5b61327f88828901612a41565b9450506040613290888289016128c8565b93505060606132a1888289016128c8565b92505060806132b2888289016131fc565b9150509295509295909350565b5f80604083850312156132d5576132d461286e565b5b5f83013567ffffffffffffffff8111156132f2576132f1612872565b5b6132fe85828601612a41565b925050602083013567ffffffffffffffff81111561331f5761331e612872565b5b61332b85828601612a41565b9150509250929050565b5f6040820190506133485f830185612f56565b6133556020830184612f65565b9392505050565b5f80604083850312156133725761337161286e565b5b5f61337f85828601612895565b925050602061339085828601612dab565b9150509250929050565b5f8115159050919050565b6133ae8161339a565b82525050565b5f6020820190506133c75f8301846133a5565b92915050565b5f805f80608085870312156133e5576133e461286e565b5b5f85013567ffffffffffffffff81111561340257613401612872565b5b61340e87828801612a41565b945050602085013567ffffffffffffffff81111561342f5761342e612872565b5b61343b87828801612a41565b935050604061344c878288016128c8565b925050606061345d878288016128c8565b91505092959194509250565b5f60208201905061347c5f830184612f65565b92915050565b5f602082840312156134975761349661286e565b5b5f6134a484828501612895565b91505092915050565b5f60c0820190506134c05f83018961291a565b81810360208301526134d28188613019565b90506134e16040830187612f65565b6134ee6060830186612f65565b6134fb6080830185612f56565b61350860a083018461305d565b979650505050505050565b5f6020820190506135265f830184612f56565b92915050565b5f80604083850312156135425761354161286e565b5b5f83013567ffffffffffffffff81111561355f5761355e612872565b5b61356b85828601612a41565b925050602061357c85828601612dab565b9150509250929050565b7f4e487b71000000000000000000000000000000000000000000000000000000005f52603260045260245ffd5b7f566f74696e67206576656e7420646f6573206e6f7420657869737400000000005f82015250565b5f6135e7601b83613009565b91506135f2826135b3565b602082019050919050565b5f6020820190508181035f830152613614816135db565b9050919050565b7f4f6e6c79206576656e742063726561746f722063616e206164642063616e64695f8201527f6461746500000000000000000000000000000000000000000000000000000000602082015250565b5f613675602483613009565b91506136808261361b565b604082019050919050565b5f6020820190508181035f8301526136a281613669565b9050919050565b7f4576656e7420616c726561647920737461727465642c2063616e6e6f742061645f8201527f642063616e646964617465000000000000000000000000000000000000000000602082015250565b5f613703602b83613009565b915061370e826136a9565b604082019050919050565b5f6020820190508181035f830152613730816136f7565b9050919050565b7f43616e6469646174652049447320616e642077616c6c657420616464726573735f8201527f657320636f756e74206d69736d61746368000000000000000000000000000000602082015250565b5f613791603183613009565b915061379c82613737565b604082019050919050565b5f6020820190508181035f8301526137be81613785565b9050919050565b7f4e6f2063616e646964617465732070726f7669646564000000000000000000005f82015250565b5f6137f9601683613009565b9150613804826137c5565b602082019050919050565b5f6020820190508181035f830152613826816137ed565b9050919050565b7f496e76616c69642077616c6c65742061646472657373000000000000000000005f82015250565b5f613861601683613009565b915061386c8261382d565b602082019050919050565b5f6020820190508181035f83015261388e81613855565b9050919050565b7f496e76616c69642063616e6469646174652049440000000000000000000000005f82015250565b5f6138c9601483613009565b91506138d482613895565b602082019050919050565b5f6020820190508181035f8301526138f6816138bd565b9050919050565b7f43616e64696461746520616c72656164792065786973747300000000000000005f82015250565b5f613931601883613009565b915061393c826138fd565b602082019050919050565b5f6020820190508181035f83015261395e81613925565b9050919050565b7f566f74696e67206576656e742063726561746f7220616e642061646d696e20635f8201527f616e6e6f7420706172746963697061746520696e20746865206576656e740000602082015250565b5f6139bf603e83613009565b91506139ca82613965565b604082019050919050565b5f6020820190508181035f8301526139ec816139b3565b9050919050565b7f4f6e6c79206576656e742063726561746f722063616e2072656d6f76650000005f82015250565b5f613a27601d83613009565b9150613a32826139f3565b602082019050919050565b5f6020820190508181035f830152613a5481613a1b565b9050919050565b7f4576656e7420616c726561647920737461727465642c2063616e6e6f742072655f8201527f6d6f766500000000000000000000000000000000000000000000000000000000602082015250565b5f613ab5602483613009565b9150613ac082613a5b565b604082019050919050565b5f6020820190508181035f830152613ae281613aa9565b9050919050565b7f4e487b71000000000000000000000000000000000000000000000000000000005f52602260045260245ffd5b5f6002820490506001821680613b2d57607f821691505b602082108103613b4057613b3f613ae9565b5b50919050565b7f4f6e6c79206576656e742063726561746f722063616e207570646174650000005f82015250565b5f613b7a601d83613009565b9150613b8582613b46565b602082019050919050565b5f6020820190508181035f830152613ba781613b6e565b9050919050565b7f4576656e7420616c726561647920737461727465642c2063616e6e6f742075705f8201527f6461746500000000000000000000000000000000000000000000000000000000602082015250565b5f613c08602483613009565b9150613c1382613bae565b604082019050919050565b5f6020820190508181035f830152613c3581613bfc565b9050919050565b5f819050815f5260205f209050919050565b5f6020601f8301049050919050565b5f82821b905092915050565b5f60088302613c987fffffffffffffffffffffffffffffffffffffffffffffffffffffffffffffffff82613c5d565b613ca28683613c5d565b95508019841693508086168417925050509392505050565b5f819050919050565b5f613cdd613cd8613cd3846128a9565b613cba565b6128a9565b9050919050565b5f819050919050565b613cf683613cc3565b613d0a613d0282613ce4565b848454613c69565b825550505050565b5f90565b613d1e613d12565b613d29818484613ced565b505050565b5b81811015613d4c57613d415f82613d16565b600181019050613d2f565b5050565b601f821115613d9157613d6281613c3c565b613d6b84613c4e565b81016020851015613d7a578190505b613d8e613d8685613c4e565b830182613d2e565b50505b505050565b5f82821c905092915050565b5f613db15f1984600802613d96565b1980831691505092915050565b5f613dc98383613da2565b9150826002028217905092915050565b613de282612743565b67ffffffffffffffff811115613dfb57613dfa61294a565b5b613e058254613b16565b613e10828285613d50565b5f60209050601f831160018114613e41575f8415613e2f578287015190505b613e398582613dbe565b865550613ea0565b601f198416613e4f86613c3c565b5f5b82811015613e7657848901518255600182019150602085019450602081019050613e51565b86831015613e935784890151613e8f601f891682613da2565b8355505b6001600288020188555050505b505050505050565b7f566f74696e67204576656e7420616c726561647920657869737465642e0000005f82015250565b5f613edc601d83613009565b9150613ee782613ea8565b602082019050919050565b5f6020820190508181035f830152613f0981613ed0565b9050919050565b7f416c726561647920766f74656420696e2074686973206576656e7400000000005f82015250565b5f613f44601b83613009565b9150613f4f82613f10565b602082019050919050565b5f6020820190508181035f830152613f7181613f38565b9050919050565b7f566f74696e67206e6f74206163746976650000000000000000000000000000005f82015250565b5f613fac601183613009565b9150613fb782613f78565b602082019050919050565b5f6020820190508181035f830152613fd981613fa0565b9050919050565b7f566f74696e67206576656e742063726561746f7220616e64207468652061646d5f8201527f696e2063616e6e6f7420766f7465000000000000000000000000000000000000602082015250565b5f61403a602e83613009565b915061404582613fe0565b604082019050919050565b5f6020820190508181035f8301526140678161402e565b9050919050565b7f43616e64696461746520646f6573206e6f7420657869737400000000000000005f82015250565b5f6140a2601883613009565b91506140ad8261406e565b602082019050919050565b5f6020820190508181035f8301526140cf81614096565b9050919050565b7f43616e6469646174652063616e6e6f7420766f746520696e20746869732065765f8201527f656e740000000000000000000000000000000000000000000000000000000000602082015250565b5f614130602383613009565b915061413b826140d6565b604082019050919050565b5f6020820190508181035f83015261415d81614124565b9050919050565b7f4e487b71000000000000000000000000000000000000000000000000000000005f52601160045260245ffd5b5f61419b826128a9565b91507fffffffffffffffffffffffffffffffffffffffffffffffffffffffffffffffff82036141cd576141cc614164565b5b600182019050919050565b7f4f6e6c79206576656e742063726561746f722063616e2072656d6f76652063615f8201527f6e64696461746500000000000000000000000000000000000000000000000000602082015250565b5f614232602783613009565b915061423d826141d8565b604082019050919050565b5f6020820190508181035f83015261425f81614226565b9050919050565b7f4576656e7420616c726561647920737461727465642c2063616e6e6f742072655f8201527f6d6f76652063616e646964617465000000000000000000000000000000000000602082015250565b5f6142c0602e83613009565b91506142cb82614266565b604082019050919050565b5f6020820190508181035f8301526142ed816142b4565b9050919050565b5f6142fe826128a9565b9150614309836128a9565b925082820390508181111561432157614320614164565b5b92915050565b7f4e487b71000000000000000000000000000000000000000000000000000000005f52603160045260245ffd5b7f43616e646964617465206e6f7420666f756e64000000000000000000000000005f82015250565b5f614388601383613009565b915061439382614354565b602082019050919050565b5f6020820190508181035f8301526143b58161437c565b9050919050565b5f6143c682613051565b915060ff82036143d9576143d8614164565b5b60018201905091905056fea2646970667358221220506dc47f9038249cb4ff19a2b37b6f9b162b9df36e0c4a32e1d7cb5738d7845c64736f6c634300081a0033",
					"opcodes": "PUSH1 0x80 PUSH1 0x40 MSTORE CALLVALUE DUP1 ISZERO PUSH1 0xE JUMPI PUSH0 DUP1 REVERT JUMPDEST POP CALLER PUSH0 DUP1 PUSH2 0x100 EXP DUP2 SLOAD DUP2 PUSH20 0xFFFFFFFFFFFFFFFFFFFFFFFFFFFFFFFFFFFFFFFF MUL NOT AND SWAP1 DUP4 PUSH20 0xFFFFFFFFFFFFFFFFFFFFFFFFFFFFFFFFFFFFFFFF AND MUL OR SWAP1 SSTORE POP PUSH2 0x441A DUP1 PUSH2 0x5B PUSH0 CODECOPY PUSH0 RETURN INVALID PUSH1 0x80 PUSH1 0x40 MSTORE CALLVALUE DUP1 ISZERO PUSH2 0xF JUMPI PUSH0 DUP1 REVERT JUMPDEST POP PUSH1 0x4 CALLDATASIZE LT PUSH2 0x135 JUMPI PUSH0 CALLDATALOAD PUSH1 0xE0 SHR DUP1 PUSH4 0x8AB66A90 GT PUSH2 0xB6 JUMPI DUP1 PUSH4 0xC479FC91 GT PUSH2 0x7A JUMPI DUP1 PUSH4 0xC479FC91 EQ PUSH2 0x3B8 JUMPI DUP1 PUSH4 0xCCE02B25 EQ PUSH2 0x3D4 JUMPI DUP1 PUSH4 0xDDB6457E EQ PUSH2 0x404 JUMPI DUP1 PUSH4 0xE9D1C2D4 EQ PUSH2 0x439 JUMPI DUP1 PUSH4 0xF851A440 EQ PUSH2 0x469 JUMPI DUP1 PUSH4 0xF9DB321E EQ PUSH2 0x487 JUMPI PUSH2 0x135 JUMP JUMPDEST DUP1 PUSH4 0x8AB66A90 EQ PUSH2 0x2ED JUMPI DUP1 PUSH4 0x9F691B52 EQ PUSH2 0x31F JUMPI DUP1 PUSH4 0xA89D95EC EQ PUSH2 0x33B JUMPI DUP1 PUSH4 0xAADC3B72 EQ PUSH2 0x36C JUMPI DUP1 PUSH4 0xBACFCFA4 EQ PUSH2 0x39C JUMPI PUSH2 0x135 JUMP JUMPDEST DUP1 PUSH4 0x3C181D4B GT PUSH2 0xFD JUMPI DUP1 PUSH4 0x3C181D4B EQ PUSH2 0x204 JUMPI DUP1 PUSH4 0x5F908E11 EQ PUSH2 0x236 JUMPI DUP1 PUSH4 0x71A80E3F EQ PUSH2 0x252 JUMPI DUP1 PUSH4 0x75A76AAB EQ PUSH2 0x284 JUMPI DUP1 PUSH4 0x7D1DA8F8 EQ PUSH2 0x2B6 JUMPI PUSH2 0x135 JUMP JUMPDEST DUP1 PUSH4 0x169CF6C8 EQ PUSH2 0x139 JUMPI DUP1 PUSH4 0x1DD1F157 EQ PUSH2 0x157 JUMPI DUP1 PUSH4 0x1E11213C EQ PUSH2 0x187 JUMPI DUP1 PUSH4 0x2AC1B516 EQ PUSH2 0x1B8 JUMPI DUP1 PUSH4 0x2E3C2ABF EQ PUSH2 0x1D4 JUMPI JUMPDEST PUSH0 DUP1 REVERT JUMPDEST PUSH2 0x141 PUSH2 0x4A3 JUMP JUMPDEST PUSH1 0x40 MLOAD PUSH2 0x14E SWAP2 SWAP1 PUSH2 0x2845 JUMP JUMPDEST PUSH1 0x40 MLOAD DUP1 SWAP2 SUB SWAP1 RETURN JUMPDEST PUSH2 0x171 PUSH1 0x4 DUP1 CALLDATASIZE SUB DUP2 ADD SWAP1 PUSH2 0x16C SWAP2 SWAP1 PUSH2 0x28DC JUMP JUMPDEST PUSH2 0x562 JUMP JUMPDEST PUSH1 0x40 MLOAD PUSH2 0x17E SWAP2 SWAP1 PUSH2 0x2929 JUMP JUMPDEST PUSH1 0x40 MLOAD DUP1 SWAP2 SUB SWAP1 RETURN JUMPDEST PUSH2 0x1A1 PUSH1 0x4 DUP1 CALLDATASIZE SUB DUP2 ADD SWAP1 PUSH2 0x19C SWAP2 SWAP1 PUSH2 0x2A6E JUMP JUMPDEST PUSH2 0x58D JUMP JUMPDEST PUSH1 0x40 MLOAD PUSH2 0x1AF SWAP3 SWAP2 SWAP1 PUSH2 0x2C23 JUMP JUMPDEST PUSH1 0x40 MLOAD DUP1 SWAP2 SUB SWAP1 RETURN JUMPDEST PUSH2 0x1D2 PUSH1 0x4 DUP1 CALLDATASIZE SUB DUP2 ADD SWAP1 PUSH2 0x1CD SWAP2 SWAP1 PUSH2 0x2E54 JUMP JUMPDEST PUSH2 0x6CB JUMP JUMPDEST STOP JUMPDEST PUSH2 0x1EE PUSH1 0x4 DUP1 CALLDATASIZE SUB DUP2 ADD SWAP1 PUSH2 0x1E9 SWAP2 SWAP1 PUSH2 0x2A6E JUMP JUMPDEST PUSH2 0xD8C JUMP JUMPDEST PUSH1 0x40 MLOAD PUSH2 0x1FB SWAP2 SWAP1 PUSH2 0x2EF8 JUMP JUMPDEST PUSH1 0x40 MLOAD DUP1 SWAP2 SUB SWAP1 RETURN JUMPDEST PUSH2 0x21E PUSH1 0x4 DUP1 CALLDATASIZE SUB DUP2 ADD SWAP1 PUSH2 0x219 SWAP2 SWAP1 PUSH2 0x2F18 JUMP JUMPDEST PUSH2 0xE00 JUMP JUMPDEST PUSH1 0x40 MLOAD PUSH2 0x22D SWAP4 SWAP3 SWAP2 SWAP1 PUSH2 0x2F74 JUMP JUMPDEST PUSH1 0x40 MLOAD DUP1 SWAP2 SUB SWAP1 RETURN JUMPDEST PUSH2 0x250 PUSH1 0x4 DUP1 CALLDATASIZE SUB DUP2 ADD SWAP1 PUSH2 0x24B SWAP2 SWAP1 PUSH2 0x2A6E JUMP JUMPDEST PUSH2 0xE50 JUMP JUMPDEST STOP JUMPDEST PUSH2 0x26C PUSH1 0x4 DUP1 CALLDATASIZE SUB DUP2 ADD SWAP1 PUSH2 0x267 SWAP2 SWAP1 PUSH2 0x2FA9 JUMP JUMPDEST PUSH2 0x1042 JUMP JUMPDEST PUSH1 0x40 MLOAD PUSH2 0x27B SWAP4 SWAP3 SWAP2 SWAP1 PUSH2 0x2FD4 JUMP JUMPDEST PUSH1 0x40 MLOAD DUP1 SWAP2 SUB SWAP1 RETURN JUMPDEST PUSH2 0x29E PUSH1 0x4 DUP1 CALLDATASIZE SUB DUP2 ADD SWAP1 PUSH2 0x299 SWAP2 SWAP1 PUSH2 0x28DC JUMP JUMPDEST PUSH2 0x1096 JUMP JUMPDEST PUSH1 0x40 MLOAD PUSH2 0x2AD SWAP4 SWAP3 SWAP2 SWAP1 PUSH2 0x2FD4 JUMP JUMPDEST PUSH1 0x40 MLOAD DUP1 SWAP2 SUB SWAP1 RETURN JUMPDEST PUSH2 0x2D0 PUSH1 0x4 DUP1 CALLDATASIZE SUB DUP2 ADD SWAP1 PUSH2 0x2CB SWAP2 SWAP1 PUSH2 0x2A6E JUMP JUMPDEST PUSH2 0x10F5 JUMP JUMPDEST PUSH1 0x40 MLOAD PUSH2 0x2E4 SWAP9 SWAP8 SWAP7 SWAP6 SWAP5 SWAP4 SWAP3 SWAP2 SWAP1 PUSH2 0x3123 JUMP JUMPDEST PUSH1 0x40 MLOAD DUP1 SWAP2 SUB SWAP1 RETURN JUMPDEST PUSH2 0x307 PUSH1 0x4 DUP1 CALLDATASIZE SUB DUP2 ADD SWAP1 PUSH2 0x302 SWAP2 SWAP1 PUSH2 0x31BB JUMP JUMPDEST PUSH2 0x139C JUMP JUMPDEST PUSH1 0x40 MLOAD PUSH2 0x316 SWAP4 SWAP3 SWAP2 SWAP1 PUSH2 0x2F74 JUMP JUMPDEST PUSH1 0x40 MLOAD DUP1 SWAP2 SUB SWAP1 RETURN JUMPDEST PUSH2 0x339 PUSH1 0x4 DUP1 CALLDATASIZE SUB DUP2 ADD SWAP1 PUSH2 0x334 SWAP2 SWAP1 PUSH2 0x3210 JUMP JUMPDEST PUSH2 0x13E1 JUMP JUMPDEST STOP JUMPDEST PUSH2 0x355 PUSH1 0x4 DUP1 CALLDATASIZE SUB DUP2 ADD SWAP1 PUSH2 0x350 SWAP2 SWAP1 PUSH2 0x32BF JUMP JUMPDEST PUSH2 0x15EB JUMP JUMPDEST PUSH1 0x40 MLOAD PUSH2 0x363 SWAP3 SWAP2 SWAP1 PUSH2 0x3335 JUMP JUMPDEST PUSH1 0x40 MLOAD DUP1 SWAP2 SUB SWAP1 RETURN JUMPDEST PUSH2 0x386 PUSH1 0x4 DUP1 CALLDATASIZE SUB DUP2 ADD SWAP1 PUSH2 0x381 SWAP2 SWAP1 PUSH2 0x335C JUMP JUMPDEST PUSH2 0x16B3 JUMP JUMPDEST PUSH1 0x40 MLOAD PUSH2 0x393 SWAP2 SWAP1 PUSH2 0x33B4 JUMP JUMPDEST PUSH1 0x40 MLOAD DUP1 SWAP2 SUB SWAP1 RETURN JUMPDEST PUSH2 0x3B6 PUSH1 0x4 DUP1 CALLDATASIZE SUB DUP2 ADD SWAP1 PUSH2 0x3B1 SWAP2 SWAP1 PUSH2 0x33CD JUMP JUMPDEST PUSH2 0x16DD JUMP JUMPDEST STOP JUMPDEST PUSH2 0x3D2 PUSH1 0x4 DUP1 CALLDATASIZE SUB DUP2 ADD SWAP1 PUSH2 0x3CD SWAP2 SWAP1 PUSH2 0x32BF JUMP JUMPDEST PUSH2 0x1969 JUMP JUMPDEST STOP JUMPDEST PUSH2 0x3EE PUSH1 0x4 DUP1 CALLDATASIZE SUB DUP2 ADD SWAP1 PUSH2 0x3E9 SWAP2 SWAP1 PUSH2 0x2F18 JUMP JUMPDEST PUSH2 0x2013 JUMP JUMPDEST PUSH1 0x40 MLOAD PUSH2 0x3FB SWAP2 SWAP1 PUSH2 0x3469 JUMP JUMPDEST PUSH1 0x40 MLOAD DUP1 SWAP2 SUB SWAP1 RETURN JUMPDEST PUSH2 0x41E PUSH1 0x4 DUP1 CALLDATASIZE SUB DUP2 ADD SWAP1 PUSH2 0x419 SWAP2 SWAP1 PUSH2 0x3482 JUMP JUMPDEST PUSH2 0x2033 JUMP JUMPDEST PUSH1 0x40 MLOAD PUSH2 0x430 SWAP7 SWAP6 SWAP5 SWAP4 SWAP3 SWAP2 SWAP1 PUSH2 0x34AD JUMP JUMPDEST PUSH1 0x40 MLOAD DUP1 SWAP2 SUB SWAP1 RETURN JUMPDEST PUSH2 0x453 PUSH1 0x4 DUP1 CALLDATASIZE SUB DUP2 ADD SWAP1 PUSH2 0x44E SWAP2 SWAP1 PUSH2 0x335C JUMP JUMPDEST PUSH2 0x211D JUMP JUMPDEST PUSH1 0x40 MLOAD PUSH2 0x460 SWAP2 SWAP1 PUSH2 0x33B4 JUMP JUMPDEST PUSH1 0x40 MLOAD DUP1 SWAP2 SUB SWAP1 RETURN JUMPDEST PUSH2 0x471 PUSH2 0x2147 JUMP JUMPDEST PUSH1 0x40 MLOAD PUSH2 0x47E SWAP2 SWAP1 PUSH2 0x3513 JUMP JUMPDEST PUSH1 0x40 MLOAD DUP1 SWAP2 SUB SWAP1 RETURN JUMPDEST PUSH2 0x4A1 PUSH1 0x4 DUP1 CALLDATASIZE SUB DUP2 ADD SWAP1 PUSH2 0x49C SWAP2 SWAP1 PUSH2 0x352C JUMP JUMPDEST PUSH2 0x216A JUMP JUMPDEST STOP JUMPDEST PUSH1 0x60 PUSH0 PUSH1 0xA DUP1 SLOAD SWAP1 POP PUSH8 0xFFFFFFFFFFFFFFFF DUP2 GT ISZERO PUSH2 0x4C5 JUMPI PUSH2 0x4C4 PUSH2 0x294A JUMP JUMPDEST JUMPDEST PUSH1 0x40 MLOAD SWAP1 DUP1 DUP3 MSTORE DUP1 PUSH1 0x20 MUL PUSH1 0x20 ADD DUP3 ADD PUSH1 0x40 MSTORE DUP1 ISZERO PUSH2 0x4F8 JUMPI DUP2 PUSH1 0x20 ADD JUMPDEST PUSH1 0x60 DUP2 MSTORE PUSH1 0x20 ADD SWAP1 PUSH1 0x1 SWAP1 SUB SWAP1 DUP2 PUSH2 0x4E3 JUMPI SWAP1 POP JUMPDEST POP SWAP1 POP PUSH0 JUMPDEST PUSH1 0xA DUP1 SLOAD SWAP1 POP DUP2 LT ISZERO PUSH2 0x55A JUMPI PUSH2 0x52F PUSH1 0xA DUP3 DUP2 SLOAD DUP2 LT PUSH2 0x521 JUMPI PUSH2 0x520 PUSH2 0x3586 JUMP JUMPDEST JUMPDEST SWAP1 PUSH0 MSTORE PUSH1 0x20 PUSH0 KECCAK256 ADD SLOAD PUSH2 0x2507 JUMP JUMPDEST DUP3 DUP3 DUP2 MLOAD DUP2 LT PUSH2 0x542 JUMPI PUSH2 0x541 PUSH2 0x3586 JUMP JUMPDEST JUMPDEST PUSH1 0x20 MUL PUSH1 0x20 ADD ADD DUP2 SWAP1 MSTORE POP DUP1 DUP1 PUSH1 0x1 ADD SWAP2 POP POP PUSH2 0x4FD JUMP JUMPDEST POP DUP1 SWAP2 POP POP SWAP1 JUMP JUMPDEST PUSH1 0x6 PUSH1 0x20 MSTORE DUP2 PUSH0 MSTORE PUSH1 0x40 PUSH0 KECCAK256 DUP2 DUP2 SLOAD DUP2 LT PUSH2 0x57B JUMPI PUSH0 DUP1 REVERT JUMPDEST SWAP1 PUSH0 MSTORE PUSH1 0x20 PUSH0 KECCAK256 ADD PUSH0 SWAP2 POP SWAP2 POP POP SLOAD DUP2 JUMP JUMPDEST PUSH1 0x60 DUP1 PUSH0 PUSH2 0x59A DUP5 PUSH2 0x2652 JUMP JUMPDEST SWAP1 POP PUSH0 PUSH1 0x6 PUSH0 DUP4 DUP2 MSTORE PUSH1 0x20 ADD SWAP1 DUP2 MSTORE PUSH1 0x20 ADD PUSH0 KECCAK256 DUP1 SLOAD DUP1 PUSH1 0x20 MUL PUSH1 0x20 ADD PUSH1 0x40 MLOAD SWAP1 DUP2 ADD PUSH1 0x40 MSTORE DUP1 SWAP3 SWAP2 SWAP1 DUP2 DUP2 MSTORE PUSH1 0x20 ADD DUP3 DUP1 SLOAD DUP1 ISZERO PUSH2 0x5F6 JUMPI PUSH1 0x20 MUL DUP3 ADD SWAP2 SWAP1 PUSH0 MSTORE PUSH1 0x20 PUSH0 KECCAK256 SWAP1 JUMPDEST DUP2 SLOAD DUP2 MSTORE PUSH1 0x20 ADD SWAP1 PUSH1 0x1 ADD SWAP1 DUP1 DUP4 GT PUSH2 0x5E2 JUMPI JUMPDEST POP POP POP POP POP SWAP1 POP PUSH0 DUP2 MLOAD PUSH8 0xFFFFFFFFFFFFFFFF DUP2 GT ISZERO PUSH2 0x619 JUMPI PUSH2 0x618 PUSH2 0x294A JUMP JUMPDEST JUMPDEST PUSH1 0x40 MLOAD SWAP1 DUP1 DUP3 MSTORE DUP1 PUSH1 0x20 MUL PUSH1 0x20 ADD DUP3 ADD PUSH1 0x40 MSTORE DUP1 ISZERO PUSH2 0x647 JUMPI DUP2 PUSH1 0x20 ADD PUSH1 0x20 DUP3 MUL DUP1 CALLDATASIZE DUP4 CALLDATACOPY DUP1 DUP3 ADD SWAP2 POP POP SWAP1 POP JUMPDEST POP SWAP1 POP PUSH0 JUMPDEST DUP3 MLOAD DUP2 LT ISZERO PUSH2 0x6BC JUMPI PUSH1 0x7 PUSH0 DUP6 DUP2 MSTORE PUSH1 0x20 ADD SWAP1 DUP2 MSTORE PUSH1 0x20 ADD PUSH0 KECCAK256 PUSH0 DUP5 DUP4 DUP2 MLOAD DUP2 LT PUSH2 0x67A JUMPI PUSH2 0x679 PUSH2 0x3586 JUMP JUMPDEST JUMPDEST PUSH1 0x20 MUL PUSH1 0x20 ADD ADD MLOAD DUP2 MSTORE PUSH1 0x20 ADD SWAP1 DUP2 MSTORE PUSH1 0x20 ADD PUSH0 KECCAK256 SLOAD DUP3 DUP3 DUP2 MLOAD DUP2 LT PUSH2 0x6A3 JUMPI PUSH2 0x6A2 PUSH2 0x3586 JUMP JUMPDEST JUMPDEST PUSH1 0x20 MUL PUSH1 0x20 ADD ADD DUP2 DUP2 MSTORE POP POP DUP1 DUP1 PUSH1 0x1 ADD SWAP2 POP POP PUSH2 0x64C JUMP JUMPDEST POP DUP2 DUP2 SWAP5 POP SWAP5 POP POP POP POP SWAP2 POP SWAP2 JUMP JUMPDEST PUSH0 PUSH2 0x6D5 DUP5 PUSH2 0x2652 JUMP JUMPDEST SWAP1 POP PUSH0 PUSH1 0x1 PUSH0 DUP4 DUP2 MSTORE PUSH1 0x20 ADD SWAP1 DUP2 MSTORE PUSH1 0x20 ADD PUSH0 KECCAK256 SWAP1 POP PUSH0 DUP1 SHL DUP2 PUSH0 ADD SLOAD SUB PUSH2 0x732 JUMPI PUSH1 0x40 MLOAD PUSH32 0x8C379A000000000000000000000000000000000000000000000000000000000 DUP2 MSTORE PUSH1 0x4 ADD PUSH2 0x729 SWAP1 PUSH2 0x35FD JUMP JUMPDEST PUSH1 0x40 MLOAD DUP1 SWAP2 SUB SWAP1 REVERT JUMPDEST DUP1 PUSH1 0x4 ADD PUSH0 SWAP1 SLOAD SWAP1 PUSH2 0x100 EXP SWAP1 DIV PUSH20 0xFFFFFFFFFFFFFFFFFFFFFFFFFFFFFFFFFFFFFFFF AND PUSH20 0xFFFFFFFFFFFFFFFFFFFFFFFFFFFFFFFFFFFFFFFF AND CALLER PUSH20 0xFFFFFFFFFFFFFFFFFFFFFFFFFFFFFFFFFFFFFFFF AND EQ DUP1 PUSH2 0x7D9 JUMPI POP PUSH0 DUP1 SLOAD SWAP1 PUSH2 0x100 EXP SWAP1 DIV PUSH20 0xFFFFFFFFFFFFFFFFFFFFFFFFFFFFFFFFFFFFFFFF AND PUSH20 0xFFFFFFFFFFFFFFFFFFFFFFFFFFFFFFFFFFFFFFFF AND CALLER PUSH20 0xFFFFFFFFFFFFFFFFFFFFFFFFFFFFFFFFFFFFFFFF AND EQ JUMPDEST PUSH2 0x818 JUMPI PUSH1 0x40 MLOAD PUSH32 0x8C379A000000000000000000000000000000000000000000000000000000000 DUP2 MSTORE PUSH1 0x4 ADD PUSH2 0x80F SWAP1 PUSH2 0x368B JUMP JUMPDEST PUSH1 0x40 MLOAD DUP1 SWAP2 SUB SWAP1 REVERT JUMPDEST DUP1 PUSH1 0x2 ADD SLOAD TIMESTAMP LT PUSH2 0x85E JUMPI PUSH1 0x40 MLOAD PUSH32 0x8C379A000000000000000000000000000000000000000000000000000000000 DUP2 MSTORE PUSH1 0x4 ADD PUSH2 0x855 SWAP1 PUSH2 0x3719 JUMP JUMPDEST PUSH1 0x40 MLOAD DUP1 SWAP2 SUB SWAP1 REVERT JUMPDEST DUP3 MLOAD DUP5 MLOAD EQ PUSH2 0x8A2 JUMPI PUSH1 0x40 MLOAD PUSH32 0x8C379A000000000000000000000000000000000000000000000000000000000 DUP2 MSTORE PUSH1 0x4 ADD PUSH2 0x899 SWAP1 PUSH2 0x37A7 JUMP JUMPDEST PUSH1 0x40 MLOAD DUP1 SWAP2 SUB SWAP1 REVERT JUMPDEST PUSH0 DUP5 MLOAD GT PUSH2 0x8E5 JUMPI PUSH1 0x40 MLOAD PUSH32 0x8C379A000000000000000000000000000000000000000000000000000000000 DUP2 MSTORE PUSH1 0x4 ADD PUSH2 0x8DC SWAP1 PUSH2 0x380F JUMP JUMPDEST PUSH1 0x40 MLOAD DUP1 SWAP2 SUB SWAP1 REVERT JUMPDEST PUSH0 JUMPDEST DUP5 MLOAD DUP2 LT ISZERO PUSH2 0xD84 JUMPI PUSH0 PUSH2 0x914 DUP7 DUP4 DUP2 MLOAD DUP2 LT PUSH2 0x907 JUMPI PUSH2 0x906 PUSH2 0x3586 JUMP JUMPDEST JUMPDEST PUSH1 0x20 MUL PUSH1 0x20 ADD ADD MLOAD PUSH2 0x2652 JUMP JUMPDEST SWAP1 POP PUSH0 DUP6 DUP4 DUP2 MLOAD DUP2 LT PUSH2 0x92A JUMPI PUSH2 0x929 PUSH2 0x3586 JUMP JUMPDEST JUMPDEST PUSH1 0x20 MUL PUSH1 0x20 ADD ADD MLOAD SWAP1 POP PUSH0 PUSH20 0xFFFFFFFFFFFFFFFFFFFFFFFFFFFFFFFFFFFFFFFF AND DUP2 PUSH20 0xFFFFFFFFFFFFFFFFFFFFFFFFFFFFFFFFFFFFFFFF AND SUB PUSH2 0x9A2 JUMPI PUSH1 0x40 MLOAD PUSH32 0x8C379A000000000000000000000000000000000000000000000000000000000 DUP2 MSTORE PUSH1 0x4 ADD PUSH2 0x999 SWAP1 PUSH2 0x3877 JUMP JUMPDEST PUSH1 0x40 MLOAD DUP1 SWAP2 SUB SWAP1 REVERT JUMPDEST PUSH0 DUP1 SHL DUP3 SUB PUSH2 0x9E6 JUMPI PUSH1 0x40 MLOAD PUSH32 0x8C379A000000000000000000000000000000000000000000000000000000000 DUP2 MSTORE PUSH1 0x4 ADD PUSH2 0x9DD SWAP1 PUSH2 0x38DF JUMP JUMPDEST PUSH1 0x40 MLOAD DUP1 SWAP2 SUB SWAP1 REVERT JUMPDEST PUSH0 PUSH20 0xFFFFFFFFFFFFFFFFFFFFFFFFFFFFFFFFFFFFFFFF AND PUSH1 0x5 PUSH0 DUP8 DUP2 MSTORE PUSH1 0x20 ADD SWAP1 DUP2 MSTORE PUSH1 0x20 ADD PUSH0 KECCAK256 PUSH0 DUP5 DUP2 MSTORE PUSH1 0x20 ADD SWAP1 DUP2 MSTORE PUSH1 0x20 ADD PUSH0 KECCAK256 PUSH1 0x1 ADD PUSH0 SWAP1 SLOAD SWAP1 PUSH2 0x100 EXP SWAP1 DIV PUSH20 0xFFFFFFFFFFFFFFFFFFFFFFFFFFFFFFFFFFFFFFFF AND PUSH20 0xFFFFFFFFFFFFFFFFFFFFFFFFFFFFFFFFFFFFFFFF AND EQ PUSH2 0xA96 JUMPI PUSH1 0x40 MLOAD PUSH32 0x8C379A000000000000000000000000000000000000000000000000000000000 DUP2 MSTORE PUSH1 0x4 ADD PUSH2 0xA8D SWAP1 PUSH2 0x3947 JUMP JUMPDEST PUSH1 0x40 MLOAD DUP1 SWAP2 SUB SWAP1 REVERT JUMPDEST CALLER PUSH20 0xFFFFFFFFFFFFFFFFFFFFFFFFFFFFFFFFFFFFFFFF AND DUP2 PUSH20 0xFFFFFFFFFFFFFFFFFFFFFFFFFFFFFFFFFFFFFFFF AND EQ ISZERO DUP1 ISZERO PUSH2 0xB1D JUMPI POP PUSH0 DUP1 SLOAD SWAP1 PUSH2 0x100 EXP SWAP1 DIV PUSH20 0xFFFFFFFFFFFFFFFFFFFFFFFFFFFFFFFFFFFFFFFF AND PUSH20 0xFFFFFFFFFFFFFFFFFFFFFFFFFFFFFFFFFFFFFFFF AND DUP2 PUSH20 0xFFFFFFFFFFFFFFFFFFFFFFFFFFFFFFFFFFFFFFFF AND EQ ISZERO JUMPDEST PUSH2 0xB5C JUMPI PUSH1 0x40 MLOAD PUSH32 0x8C379A000000000000000000000000000000000000000000000000000000000 DUP2 MSTORE PUSH1 0x4 ADD PUSH2 0xB53 SWAP1 PUSH2 0x39D5 JUMP JUMPDEST PUSH1 0x40 MLOAD DUP1 SWAP2 SUB SWAP1 REVERT JUMPDEST PUSH0 PUSH1 0x40 MLOAD DUP1 PUSH1 0x60 ADD PUSH1 0x40 MSTORE DUP1 DUP5 DUP2 MSTORE PUSH1 0x20 ADD DUP4 PUSH20 0xFFFFFFFFFFFFFFFFFFFFFFFFFFFFFFFFFFFFFFFF AND DUP2 MSTORE PUSH1 0x20 ADD PUSH0 DUP2 MSTORE POP SWAP1 POP DUP1 PUSH1 0x5 PUSH0 DUP9 DUP2 MSTORE PUSH1 0x20 ADD SWAP1 DUP2 MSTORE PUSH1 0x20 ADD PUSH0 KECCAK256 PUSH0 DUP6 DUP2 MSTORE PUSH1 0x20 ADD SWAP1 DUP2 MSTORE PUSH1 0x20 ADD PUSH0 KECCAK256 PUSH0 DUP3 ADD MLOAD DUP2 PUSH0 ADD SSTORE PUSH1 0x20 DUP3 ADD MLOAD DUP2 PUSH1 0x1 ADD PUSH0 PUSH2 0x100 EXP DUP2 SLOAD DUP2 PUSH20 0xFFFFFFFFFFFFFFFFFFFFFFFFFFFFFFFFFFFFFFFF MUL NOT AND SWAP1 DUP4 PUSH20 0xFFFFFFFFFFFFFFFFFFFFFFFFFFFFFFFFFFFFFFFF AND MUL OR SWAP1 SSTORE POP PUSH1 0x40 DUP3 ADD MLOAD DUP2 PUSH1 0x2 ADD SSTORE SWAP1 POP POP PUSH1 0x6 PUSH0 DUP8 DUP2 MSTORE PUSH1 0x20 ADD SWAP1 DUP2 MSTORE PUSH1 0x20 ADD PUSH0 KECCAK256 DUP4 SWAP1 DUP1 PUSH1 0x1 DUP2 SLOAD ADD DUP1 DUP3 SSTORE DUP1 SWAP2 POP POP PUSH1 0x1 SWAP1 SUB SWAP1 PUSH0 MSTORE PUSH1 0x20 PUSH0 KECCAK256 ADD PUSH0 SWAP1 SWAP2 SWAP1 SWAP2 SWAP1 SWAP2 POP SSTORE DUP1 PUSH1 0x4 PUSH0 DUP5 PUSH20 0xFFFFFFFFFFFFFFFFFFFFFFFFFFFFFFFFFFFFFFFF AND PUSH20 0xFFFFFFFFFFFFFFFFFFFFFFFFFFFFFFFFFFFFFFFF AND DUP2 MSTORE PUSH1 0x20 ADD SWAP1 DUP2 MSTORE PUSH1 0x20 ADD PUSH0 KECCAK256 PUSH0 DUP3 ADD MLOAD DUP2 PUSH0 ADD SSTORE PUSH1 0x20 DUP3 ADD MLOAD DUP2 PUSH1 0x1 ADD PUSH0 PUSH2 0x100 EXP DUP2 SLOAD DUP2 PUSH20 0xFFFFFFFFFFFFFFFFFFFFFFFFFFFFFFFFFFFFFFFF MUL NOT AND SWAP1 DUP4 PUSH20 0xFFFFFFFFFFFFFFFFFFFFFFFFFFFFFFFFFFFFFFFF AND MUL OR SWAP1 SSTORE POP PUSH1 0x40 DUP3 ADD MLOAD DUP2 PUSH1 0x2 ADD SSTORE SWAP1 POP POP DUP5 PUSH1 0x5 ADD DUP3 SWAP1 DUP1 PUSH1 0x1 DUP2 SLOAD ADD DUP1 DUP3 SSTORE DUP1 SWAP2 POP POP PUSH1 0x1 SWAP1 SUB SWAP1 PUSH0 MSTORE PUSH1 0x20 PUSH0 KECCAK256 ADD PUSH0 SWAP1 SWAP2 SWAP1 SWAP2 SWAP1 SWAP2 PUSH2 0x100 EXP DUP2 SLOAD DUP2 PUSH20 0xFFFFFFFFFFFFFFFFFFFFFFFFFFFFFFFFFFFFFFFF MUL NOT AND SWAP1 DUP4 PUSH20 0xFFFFFFFFFFFFFFFFFFFFFFFFFFFFFFFFFFFFFFFF AND MUL OR SWAP1 SSTORE POP DUP6 PUSH32 0x5DEF6A3ABD206AB4318213CA37422C51C627A1F7EA0BEBE4C137C7FC1F24250C DUP4 PUSH1 0x40 MLOAD PUSH2 0xD6C SWAP2 SWAP1 PUSH2 0x3513 JUMP JUMPDEST PUSH1 0x40 MLOAD DUP1 SWAP2 SUB SWAP1 LOG2 POP POP POP DUP1 DUP1 PUSH1 0x1 ADD SWAP2 POP POP PUSH2 0x8E7 JUMP JUMPDEST POP POP POP POP POP POP JUMP JUMPDEST PUSH1 0x60 PUSH0 PUSH2 0xD98 DUP4 PUSH2 0x2652 JUMP JUMPDEST SWAP1 POP PUSH1 0x6 PUSH0 DUP3 DUP2 MSTORE PUSH1 0x20 ADD SWAP1 DUP2 MSTORE PUSH1 0x20 ADD PUSH0 KECCAK256 DUP1 SLOAD DUP1 PUSH1 0x20 MUL PUSH1 0x20 ADD PUSH1 0x40 MLOAD SWAP1 DUP2 ADD PUSH1 0x40 MSTORE DUP1 SWAP3 SWAP2 SWAP1 DUP2 DUP2 MSTORE PUSH1 0x20 ADD DUP3 DUP1 SLOAD DUP1 ISZERO PUSH2 0xDF3 JUMPI PUSH1 0x20 MUL DUP3 ADD SWAP2 SWAP1 PUSH0 MSTORE PUSH1 0x20 PUSH0 KECCAK256 SWAP1 JUMPDEST DUP2 SLOAD DUP2 MSTORE PUSH1 0x20 ADD SWAP1 PUSH1 0x1 ADD SWAP1 DUP1 DUP4 GT PUSH2 0xDDF JUMPI JUMPDEST POP POP POP POP POP SWAP2 POP POP SWAP2 SWAP1 POP JUMP JUMPDEST PUSH1 0x5 PUSH1 0x20 MSTORE DUP2 PUSH0 MSTORE PUSH1 0x40 PUSH0 KECCAK256 PUSH1 0x20 MSTORE DUP1 PUSH0 MSTORE PUSH1 0x40 PUSH0 KECCAK256 PUSH0 SWAP2 POP SWAP2 POP POP DUP1 PUSH0 ADD SLOAD SWAP1 DUP1 PUSH1 0x1 ADD PUSH0 SWAP1 SLOAD SWAP1 PUSH2 0x100 EXP SWAP1 DIV PUSH20 0xFFFFFFFFFFFFFFFFFFFFFFFFFFFFFFFFFFFFFFFF AND SWAP1 DUP1 PUSH1 0x2 ADD SLOAD SWAP1 POP DUP4 JUMP JUMPDEST PUSH0 PUSH2 0xE5A DUP3 PUSH2 0x2652 JUMP JUMPDEST SWAP1 POP PUSH0 PUSH1 0x1 PUSH0 DUP4 DUP2 MSTORE PUSH1 0x20 ADD SWAP1 DUP2 MSTORE PUSH1 0x20 ADD PUSH0 KECCAK256 SWAP1 POP PUSH0 DUP1 SHL DUP2 PUSH0 ADD SLOAD SUB PUSH2 0xEB7 JUMPI PUSH1 0x40 MLOAD PUSH32 0x8C379A000000000000000000000000000000000000000000000000000000000 DUP2 MSTORE PUSH1 0x4 ADD PUSH2 0xEAE SWAP1 PUSH2 0x35FD JUMP JUMPDEST PUSH1 0x40 MLOAD DUP1 SWAP2 SUB SWAP1 REVERT JUMPDEST DUP1 PUSH1 0x4 ADD PUSH0 SWAP1 SLOAD SWAP1 PUSH2 0x100 EXP SWAP1 DIV PUSH20 0xFFFFFFFFFFFFFFFFFFFFFFFFFFFFFFFFFFFFFFFF AND PUSH20 0xFFFFFFFFFFFFFFFFFFFFFFFFFFFFFFFFFFFFFFFF AND CALLER PUSH20 0xFFFFFFFFFFFFFFFFFFFFFFFFFFFFFFFFFFFFFFFF AND EQ DUP1 PUSH2 0xF5E JUMPI POP PUSH0 DUP1 SLOAD SWAP1 PUSH2 0x100 EXP SWAP1 DIV PUSH20 0xFFFFFFFFFFFFFFFFFFFFFFFFFFFFFFFFFFFFFFFF AND PUSH20 0xFFFFFFFFFFFFFFFFFFFFFFFFFFFFFFFFFFFFFFFF AND CALLER PUSH20 0xFFFFFFFFFFFFFFFFFFFFFFFFFFFFFFFFFFFFFFFF AND EQ JUMPDEST PUSH2 0xF9D JUMPI PUSH1 0x40 MLOAD PUSH32 0x8C379A000000000000000000000000000000000000000000000000000000000 DUP2 MSTORE PUSH1 0x4 ADD PUSH2 0xF94 SWAP1 PUSH2 0x3A3D JUMP JUMPDEST PUSH1 0x40 MLOAD DUP1 SWAP2 SUB SWAP1 REVERT JUMPDEST DUP1 PUSH1 0x2 ADD SLOAD TIMESTAMP LT PUSH2 0xFE3 JUMPI PUSH1 0x40 MLOAD PUSH32 0x8C379A000000000000000000000000000000000000000000000000000000000 DUP2 MSTORE PUSH1 0x4 ADD PUSH2 0xFDA SWAP1 PUSH2 0x3ACB JUMP JUMPDEST PUSH1 0x40 MLOAD DUP1 SWAP2 SUB SWAP1 REVERT JUMPDEST PUSH1 0x1 DUP1 PUSH0 DUP5 DUP2 MSTORE PUSH1 0x20 ADD SWAP1 DUP2 MSTORE PUSH1 0x20 ADD PUSH0 KECCAK256 PUSH1 0x4 ADD PUSH1 0x14 PUSH2 0x100 EXP DUP2 SLOAD DUP2 PUSH1 0xFF MUL NOT AND SWAP1 DUP4 PUSH1 0xFF AND MUL OR SWAP1 SSTORE POP DUP2 PUSH32 0x382E9875ECBD1AF0156D1E58A9A9E88530F39DBBAE3ACE5D61AC241418B082D7 PUSH1 0x40 MLOAD PUSH1 0x40 MLOAD DUP1 SWAP2 SUB SWAP1 LOG2 POP POP POP JUMP JUMPDEST PUSH1 0x9 DUP2 DUP2 SLOAD DUP2 LT PUSH2 0x1051 JUMPI PUSH0 DUP1 REVERT JUMPDEST SWAP1 PUSH0 MSTORE PUSH1 0x20 PUSH0 KECCAK256 SWAP1 PUSH1 0x3 MUL ADD PUSH0 SWAP2 POP SWAP1 POP DUP1 PUSH0 ADD PUSH0 SWAP1 SLOAD SWAP1 PUSH2 0x100 EXP SWAP1 DIV PUSH20 0xFFFFFFFFFFFFFFFFFFFFFFFFFFFFFFFFFFFFFFFF AND SWAP1 DUP1 PUSH1 0x1 ADD SLOAD SWAP1 DUP1 PUSH1 0x2 ADD SLOAD SWAP1 POP DUP4 JUMP JUMPDEST PUSH1 0x3 PUSH1 0x20 MSTORE DUP2 PUSH0 MSTORE PUSH1 0x40 PUSH0 KECCAK256 DUP2 DUP2 SLOAD DUP2 LT PUSH2 0x10AF JUMPI PUSH0 DUP1 REVERT JUMPDEST SWAP1 PUSH0 MSTORE PUSH1 0x20 PUSH0 KECCAK256 SWAP1 PUSH1 0x3 MUL ADD PUSH0 SWAP2 POP SWAP2 POP POP DUP1 PUSH0 ADD PUSH0 SWAP1 SLOAD SWAP1 PUSH2 0x100 EXP SWAP1 DIV PUSH20 0xFFFFFFFFFFFFFFFFFFFFFFFFFFFFFFFFFFFFFFFF AND SWAP1 DUP1 PUSH1 0x1 ADD SLOAD SWAP1 DUP1 PUSH1 0x2 ADD SLOAD SWAP1 POP DUP4 JUMP JUMPDEST PUSH1 0x60 DUP1 PUSH0 DUP1 PUSH0 DUP1 PUSH1 0x60 DUP1 PUSH0 PUSH1 0x1 PUSH0 PUSH2 0x110C DUP13 PUSH2 0x2652 JUMP JUMPDEST DUP2 MSTORE PUSH1 0x20 ADD SWAP1 DUP2 MSTORE PUSH1 0x20 ADD PUSH0 KECCAK256 PUSH1 0x40 MLOAD DUP1 PUSH2 0x100 ADD PUSH1 0x40 MSTORE SWAP1 DUP2 PUSH0 DUP3 ADD SLOAD DUP2 MSTORE PUSH1 0x20 ADD PUSH1 0x1 DUP3 ADD DUP1 SLOAD PUSH2 0x113E SWAP1 PUSH2 0x3B16 JUMP JUMPDEST DUP1 PUSH1 0x1F ADD PUSH1 0x20 DUP1 SWAP2 DIV MUL PUSH1 0x20 ADD PUSH1 0x40 MLOAD SWAP1 DUP2 ADD PUSH1 0x40 MSTORE DUP1 SWAP3 SWAP2 SWAP1 DUP2 DUP2 MSTORE PUSH1 0x20 ADD DUP3 DUP1 SLOAD PUSH2 0x116A SWAP1 PUSH2 0x3B16 JUMP JUMPDEST DUP1 ISZERO PUSH2 0x11B5 JUMPI DUP1 PUSH1 0x1F LT PUSH2 0x118C JUMPI PUSH2 0x100 DUP1 DUP4 SLOAD DIV MUL DUP4 MSTORE SWAP2 PUSH1 0x20 ADD SWAP2 PUSH2 0x11B5 JUMP JUMPDEST DUP3 ADD SWAP2 SWAP1 PUSH0 MSTORE PUSH1 0x20 PUSH0 KECCAK256 SWAP1 JUMPDEST DUP2 SLOAD DUP2 MSTORE SWAP1 PUSH1 0x1 ADD SWAP1 PUSH1 0x20 ADD DUP1 DUP4 GT PUSH2 0x1198 JUMPI DUP3 SWAP1 SUB PUSH1 0x1F AND DUP3 ADD SWAP2 JUMPDEST POP POP POP POP POP DUP2 MSTORE PUSH1 0x20 ADD PUSH1 0x2 DUP3 ADD SLOAD DUP2 MSTORE PUSH1 0x20 ADD PUSH1 0x3 DUP3 ADD SLOAD DUP2 MSTORE PUSH1 0x20 ADD PUSH1 0x4 DUP3 ADD PUSH0 SWAP1 SLOAD SWAP1 PUSH2 0x100 EXP SWAP1 DIV PUSH20 0xFFFFFFFFFFFFFFFFFFFFFFFFFFFFFFFFFFFFFFFF AND PUSH20 0xFFFFFFFFFFFFFFFFFFFFFFFFFFFFFFFFFFFFFFFF AND PUSH20 0xFFFFFFFFFFFFFFFFFFFFFFFFFFFFFFFFFFFFFFFF AND DUP2 MSTORE PUSH1 0x20 ADD PUSH1 0x4 DUP3 ADD PUSH1 0x14 SWAP1 SLOAD SWAP1 PUSH2 0x100 EXP SWAP1 DIV PUSH1 0xFF AND PUSH1 0xFF AND PUSH1 0xFF AND DUP2 MSTORE PUSH1 0x20 ADD PUSH1 0x5 DUP3 ADD DUP1 SLOAD DUP1 PUSH1 0x20 MUL PUSH1 0x20 ADD PUSH1 0x40 MLOAD SWAP1 DUP2 ADD PUSH1 0x40 MSTORE DUP1 SWAP3 SWAP2 SWAP1 DUP2 DUP2 MSTORE PUSH1 0x20 ADD DUP3 DUP1 SLOAD DUP1 ISZERO PUSH2 0x12C6 JUMPI PUSH1 0x20 MUL DUP3 ADD SWAP2 SWAP1 PUSH0 MSTORE PUSH1 0x20 PUSH0 KECCAK256 SWAP1 JUMPDEST DUP2 PUSH0 SWAP1 SLOAD SWAP1 PUSH2 0x100 EXP SWAP1 DIV PUSH20 0xFFFFFFFFFFFFFFFFFFFFFFFFFFFFFFFFFFFFFFFF AND PUSH20 0xFFFFFFFFFFFFFFFFFFFFFFFFFFFFFFFFFFFFFFFF AND DUP2 MSTORE PUSH1 0x20 ADD SWAP1 PUSH1 0x1 ADD SWAP1 DUP1 DUP4 GT PUSH2 0x127D JUMPI JUMPDEST POP POP POP POP POP DUP2 MSTORE PUSH1 0x20 ADD PUSH1 0x6 DUP3 ADD DUP1 SLOAD DUP1 PUSH1 0x20 MUL PUSH1 0x20 ADD PUSH1 0x40 MLOAD SWAP1 DUP2 ADD PUSH1 0x40 MSTORE DUP1 SWAP3 SWAP2 SWAP1 DUP2 DUP2 MSTORE PUSH1 0x20 ADD DUP3 DUP1 SLOAD DUP1 ISZERO PUSH2 0x1351 JUMPI PUSH1 0x20 MUL DUP3 ADD SWAP2 SWAP1 PUSH0 MSTORE PUSH1 0x20 PUSH0 KECCAK256 SWAP1 JUMPDEST DUP2 PUSH0 SWAP1 SLOAD SWAP1 PUSH2 0x100 EXP SWAP1 DIV PUSH20 0xFFFFFFFFFFFFFFFFFFFFFFFFFFFFFFFFFFFFFFFF AND PUSH20 0xFFFFFFFFFFFFFFFFFFFFFFFFFFFFFFFFFFFFFFFF AND DUP2 MSTORE PUSH1 0x20 ADD SWAP1 PUSH1 0x1 ADD SWAP1 DUP1 DUP4 GT PUSH2 0x1308 JUMPI JUMPDEST POP POP POP POP POP DUP2 MSTORE POP POP SWAP1 POP DUP10 DUP2 PUSH1 0x20 ADD MLOAD DUP3 PUSH1 0x40 ADD MLOAD DUP4 PUSH1 0x60 ADD MLOAD DUP5 PUSH1 0x80 ADD MLOAD DUP6 PUSH1 0xA0 ADD MLOAD DUP7 PUSH1 0xC0 ADD MLOAD DUP8 PUSH1 0xE0 ADD MLOAD SWAP9 POP SWAP9 POP SWAP9 POP SWAP9 POP SWAP9 POP SWAP9 POP SWAP9 POP SWAP9 POP POP SWAP2 SWAP4 SWAP6 SWAP8 POP SWAP2 SWAP4 SWAP6 SWAP8 JUMP JUMPDEST PUSH1 0x4 PUSH1 0x20 MSTORE DUP1 PUSH0 MSTORE PUSH1 0x40 PUSH0 KECCAK256 PUSH0 SWAP2 POP SWAP1 POP DUP1 PUSH0 ADD SLOAD SWAP1 DUP1 PUSH1 0x1 ADD PUSH0 SWAP1 SLOAD SWAP1 PUSH2 0x100 EXP SWAP1 DIV PUSH20 0xFFFFFFFFFFFFFFFFFFFFFFFFFFFFFFFFFFFFFFFF AND SWAP1 DUP1 PUSH1 0x2 ADD SLOAD SWAP1 POP DUP4 JUMP JUMPDEST PUSH0 PUSH2 0x13EB DUP7 PUSH2 0x2652 JUMP JUMPDEST SWAP1 POP PUSH0 PUSH1 0x1 PUSH0 DUP4 DUP2 MSTORE PUSH1 0x20 ADD SWAP1 DUP2 MSTORE PUSH1 0x20 ADD PUSH0 KECCAK256 SWAP1 POP PUSH0 DUP1 SHL DUP2 PUSH0 ADD SLOAD SUB PUSH2 0x1448 JUMPI PUSH1 0x40 MLOAD PUSH32 0x8C379A000000000000000000000000000000000000000000000000000000000 DUP2 MSTORE PUSH1 0x4 ADD PUSH2 0x143F SWAP1 PUSH2 0x35FD JUMP JUMPDEST PUSH1 0x40 MLOAD DUP1 SWAP2 SUB SWAP1 REVERT JUMPDEST DUP1 PUSH1 0x4 ADD PUSH0 SWAP1 SLOAD SWAP1 PUSH2 0x100 EXP SWAP1 DIV PUSH20 0xFFFFFFFFFFFFFFFFFFFFFFFFFFFFFFFFFFFFFFFF AND PUSH20 0xFFFFFFFFFFFFFFFFFFFFFFFFFFFFFFFFFFFFFFFF AND CALLER PUSH20 0xFFFFFFFFFFFFFFFFFFFFFFFFFFFFFFFFFFFFFFFF AND EQ DUP1 PUSH2 0x14EF JUMPI POP PUSH0 DUP1 SLOAD SWAP1 PUSH2 0x100 EXP SWAP1 DIV PUSH20 0xFFFFFFFFFFFFFFFFFFFFFFFFFFFFFFFFFFFFFFFF AND PUSH20 0xFFFFFFFFFFFFFFFFFFFFFFFFFFFFFFFFFFFFFFFF AND CALLER PUSH20 0xFFFFFFFFFFFFFFFFFFFFFFFFFFFFFFFFFFFFFFFF AND EQ JUMPDEST PUSH2 0x152E JUMPI PUSH1 0x40 MLOAD PUSH32 0x8C379A000000000000000000000000000000000000000000000000000000000 DUP2 MSTORE PUSH1 0x4 ADD PUSH2 0x1525 SWAP1 PUSH2 0x3B90 JUMP JUMPDEST PUSH1 0x40 MLOAD DUP1 SWAP2 SUB SWAP1 REVERT JUMPDEST DUP1 PUSH1 0x2 ADD SLOAD TIMESTAMP LT PUSH2 0x1574 JUMPI PUSH1 0x40 MLOAD PUSH32 0x8C379A000000000000000000000000000000000000000000000000000000000 DUP2 MSTORE PUSH1 0x4 ADD PUSH2 0x156B SWAP1 PUSH2 0x3C1E JUMP JUMPDEST PUSH1 0x40 MLOAD DUP1 SWAP2 SUB SWAP1 REVERT JUMPDEST DUP6 DUP2 PUSH1 0x1 ADD SWAP1 DUP2 PUSH2 0x1585 SWAP2 SWAP1 PUSH2 0x3DD9 JUMP JUMPDEST POP DUP5 DUP2 PUSH1 0x2 ADD DUP2 SWAP1 SSTORE POP DUP4 DUP2 PUSH1 0x3 ADD DUP2 SWAP1 SSTORE POP DUP3 DUP2 PUSH1 0x4 ADD PUSH1 0x14 PUSH2 0x100 EXP DUP2 SLOAD DUP2 PUSH1 0xFF MUL NOT AND SWAP1 DUP4 PUSH1 0xFF AND MUL OR SWAP1 SSTORE POP DUP2 PUSH32 0x7645214750DF1B9537C4C3A9EE0317A94BD6E880BFD45AA461DC1DEACB3A5155 PUSH1 0x40 MLOAD PUSH1 0x40 MLOAD DUP1 SWAP2 SUB SWAP1 LOG2 POP POP POP POP POP POP POP JUMP JUMPDEST PUSH0 DUP1 PUSH0 PUSH2 0x15F7 DUP6 PUSH2 0x2652 JUMP JUMPDEST SWAP1 POP PUSH0 PUSH2 0x1603 DUP6 PUSH2 0x2652 JUMP JUMPDEST SWAP1 POP PUSH0 PUSH1 0x5 PUSH0 DUP5 DUP2 MSTORE PUSH1 0x20 ADD SWAP1 DUP2 MSTORE PUSH1 0x20 ADD PUSH0 KECCAK256 PUSH0 DUP4 DUP2 MSTORE PUSH1 0x20 ADD SWAP1 DUP2 MSTORE PUSH1 0x20 ADD PUSH0 KECCAK256 PUSH1 0x40 MLOAD DUP1 PUSH1 0x60 ADD PUSH1 0x40 MSTORE SWAP1 DUP2 PUSH0 DUP3 ADD SLOAD DUP2 MSTORE PUSH1 0x20 ADD PUSH1 0x1 DUP3 ADD PUSH0 SWAP1 SLOAD SWAP1 PUSH2 0x100 EXP SWAP1 DIV PUSH20 0xFFFFFFFFFFFFFFFFFFFFFFFFFFFFFFFFFFFFFFFF AND PUSH20 0xFFFFFFFFFFFFFFFFFFFFFFFFFFFFFFFFFFFFFFFF AND PUSH20 0xFFFFFFFFFFFFFFFFFFFFFFFFFFFFFFFFFFFFFFFF AND DUP2 MSTORE PUSH1 0x20 ADD PUSH1 0x2 DUP3 ADD SLOAD DUP2 MSTORE POP POP SWAP1 POP DUP1 PUSH1 0x20 ADD MLOAD DUP2 PUSH1 0x40 ADD MLOAD SWAP5 POP SWAP5 POP POP POP POP SWAP3 POP SWAP3 SWAP1 POP JUMP JUMPDEST PUSH1 0x8 PUSH1 0x20 MSTORE DUP2 PUSH0 MSTORE PUSH1 0x40 PUSH0 KECCAK256 PUSH1 0x20 MSTORE DUP1 PUSH0 MSTORE PUSH1 0x40 PUSH0 KECCAK256 PUSH0 SWAP2 POP SWAP2 POP SWAP1 SLOAD SWAP1 PUSH2 0x100 EXP SWAP1 DIV PUSH1 0xFF AND DUP2 JUMP JUMPDEST PUSH0 PUSH2 0x16E7 DUP6 PUSH2 0x2652 JUMP JUMPDEST SWAP1 POP PUSH0 DUP1 SHL PUSH1 0x1 PUSH0 DUP4 DUP2 MSTORE PUSH1 0x20 ADD SWAP1 DUP2 MSTORE PUSH1 0x20 ADD PUSH0 KECCAK256 PUSH0 ADD SLOAD EQ PUSH2 0x1740 JUMPI PUSH1 0x40 MLOAD PUSH32 0x8C379A000000000000000000000000000000000000000000000000000000000 DUP2 MSTORE PUSH1 0x4 ADD PUSH2 0x1737 SWAP1 PUSH2 0x3EF2 JUMP JUMPDEST PUSH1 0x40 MLOAD DUP1 SWAP2 SUB SWAP1 REVERT JUMPDEST PUSH0 PUSH1 0x40 MLOAD DUP1 PUSH2 0x100 ADD PUSH1 0x40 MSTORE DUP1 DUP4 DUP2 MSTORE PUSH1 0x20 ADD DUP7 DUP2 MSTORE PUSH1 0x20 ADD DUP6 DUP2 MSTORE PUSH1 0x20 ADD DUP5 DUP2 MSTORE PUSH1 0x20 ADD CALLER PUSH20 0xFFFFFFFFFFFFFFFFFFFFFFFFFFFFFFFFFFFFFFFF AND DUP2 MSTORE PUSH1 0x20 ADD PUSH0 PUSH1 0xFF AND DUP2 MSTORE PUSH1 0x20 ADD PUSH0 PUSH8 0xFFFFFFFFFFFFFFFF DUP2 GT ISZERO PUSH2 0x17A4 JUMPI PUSH2 0x17A3 PUSH2 0x294A JUMP JUMPDEST JUMPDEST PUSH1 0x40 MLOAD SWAP1 DUP1 DUP3 MSTORE DUP1 PUSH1 0x20 MUL PUSH1 0x20 ADD DUP3 ADD PUSH1 0x40 MSTORE DUP1 ISZERO PUSH2 0x17D2 JUMPI DUP2 PUSH1 0x20 ADD PUSH1 0x20 DUP3 MUL DUP1 CALLDATASIZE DUP4 CALLDATACOPY DUP1 DUP3 ADD SWAP2 POP POP SWAP1 POP JUMPDEST POP DUP2 MSTORE PUSH1 0x20 ADD PUSH0 PUSH8 0xFFFFFFFFFFFFFFFF DUP2 GT ISZERO PUSH2 0x17F2 JUMPI PUSH2 0x17F1 PUSH2 0x294A JUMP JUMPDEST JUMPDEST PUSH1 0x40 MLOAD SWAP1 DUP1 DUP3 MSTORE DUP1 PUSH1 0x20 MUL PUSH1 0x20 ADD DUP3 ADD PUSH1 0x40 MSTORE DUP1 ISZERO PUSH2 0x1820 JUMPI DUP2 PUSH1 0x20 ADD PUSH1 0x20 DUP3 MUL DUP1 CALLDATASIZE DUP4 CALLDATACOPY DUP1 DUP3 ADD SWAP2 POP POP SWAP1 POP JUMPDEST POP DUP2 MSTORE POP SWAP1 POP DUP1 PUSH1 0x1 PUSH0 DUP5 DUP2 MSTORE PUSH1 0x20 ADD SWAP1 DUP2 MSTORE PUSH1 0x20 ADD PUSH0 KECCAK256 PUSH0 DUP3 ADD MLOAD DUP2 PUSH0 ADD SSTORE PUSH1 0x20 DUP3 ADD MLOAD DUP2 PUSH1 0x1 ADD SWAP1 DUP2 PUSH2 0x1855 SWAP2 SWAP1 PUSH2 0x3DD9 JUMP JUMPDEST POP PUSH1 0x40 DUP3 ADD MLOAD DUP2 PUSH1 0x2 ADD SSTORE PUSH1 0x60 DUP3 ADD MLOAD DUP2 PUSH1 0x3 ADD SSTORE PUSH1 0x80 DUP3 ADD MLOAD DUP2 PUSH1 0x4 ADD PUSH0 PUSH2 0x100 EXP DUP2 SLOAD DUP2 PUSH20 0xFFFFFFFFFFFFFFFFFFFFFFFFFFFFFFFFFFFFFFFF MUL NOT AND SWAP1 DUP4 PUSH20 0xFFFFFFFFFFFFFFFFFFFFFFFFFFFFFFFFFFFFFFFF AND MUL OR SWAP1 SSTORE POP PUSH1 0xA0 DUP3 ADD MLOAD DUP2 PUSH1 0x4 ADD PUSH1 0x14 PUSH2 0x100 EXP DUP2 SLOAD DUP2 PUSH1 0xFF MUL NOT AND SWAP1 DUP4 PUSH1 0xFF AND MUL OR SWAP1 SSTORE POP PUSH1 0xC0 DUP3 ADD MLOAD DUP2 PUSH1 0x5 ADD SWAP1 DUP1 MLOAD SWAP1 PUSH1 0x20 ADD SWAP1 PUSH2 0x18ED SWAP3 SWAP2 SWAP1 PUSH2 0x2678 JUMP JUMPDEST POP PUSH1 0xE0 DUP3 ADD MLOAD DUP2 PUSH1 0x6 ADD SWAP1 DUP1 MLOAD SWAP1 PUSH1 0x20 ADD SWAP1 PUSH2 0x190A SWAP3 SWAP2 SWAP1 PUSH2 0x2678 JUMP JUMPDEST POP SWAP1 POP POP PUSH1 0xA DUP3 SWAP1 DUP1 PUSH1 0x1 DUP2 SLOAD ADD DUP1 DUP3 SSTORE DUP1 SWAP2 POP POP PUSH1 0x1 SWAP1 SUB SWAP1 PUSH0 MSTORE PUSH1 0x20 PUSH0 KECCAK256 ADD PUSH0 SWAP1 SWAP2 SWAP1 SWAP2 SWAP1 SWAP2 POP SSTORE DUP2 PUSH32 0x78D8D0FB0EFFBC7A876F2A98C46E64BAD75370010BAAD95700B5C4AF4D04E369 PUSH1 0x40 MLOAD PUSH1 0x40 MLOAD DUP1 SWAP2 SUB SWAP1 LOG2 POP POP POP POP POP POP JUMP JUMPDEST PUSH0 PUSH2 0x1973 DUP4 PUSH2 0x2652 JUMP JUMPDEST SWAP1 POP PUSH0 PUSH2 0x197F DUP4 PUSH2 0x2652 JUMP JUMPDEST SWAP1 POP PUSH0 PUSH1 0x1 PUSH0 DUP5 DUP2 MSTORE PUSH1 0x20 ADD SWAP1 DUP2 MSTORE PUSH1 0x20 ADD PUSH0 KECCAK256 SWAP1 POP PUSH0 DUP1 SHL DUP2 PUSH0 ADD SLOAD SUB PUSH2 0x19DC JUMPI PUSH1 0x40 MLOAD PUSH32 0x8C379A000000000000000000000000000000000000000000000000000000000 DUP2 MSTORE PUSH1 0x4 ADD PUSH2 0x19D3 SWAP1 PUSH2 0x35FD JUMP JUMPDEST PUSH1 0x40 MLOAD DUP1 SWAP2 SUB SWAP1 REVERT JUMPDEST PUSH1 0x8 PUSH0 DUP5 DUP2 MSTORE PUSH1 0x20 ADD SWAP1 DUP2 MSTORE PUSH1 0x20 ADD PUSH0 KECCAK256 PUSH0 CALLER PUSH20 0xFFFFFFFFFFFFFFFFFFFFFFFFFFFFFFFFFFFFFFFF AND PUSH20 0xFFFFFFFFFFFFFFFFFFFFFFFFFFFFFFFFFFFFFFFF AND DUP2 MSTORE PUSH1 0x20 ADD SWAP1 DUP2 MSTORE PUSH1 0x20 ADD PUSH0 KECCAK256 PUSH0 SWAP1 SLOAD SWAP1 PUSH2 0x100 EXP SWAP1 DIV PUSH1 0xFF AND ISZERO PUSH2 0x1A75 JUMPI PUSH1 0x40 MLOAD PUSH32 0x8C379A000000000000000000000000000000000000000000000000000000000 DUP2 MSTORE PUSH1 0x4 ADD PUSH2 0x1A6C SWAP1 PUSH2 0x3F5A JUMP JUMPDEST PUSH1 0x40 MLOAD DUP1 SWAP2 SUB SWAP1 REVERT JUMPDEST DUP1 PUSH1 0x2 ADD SLOAD TIMESTAMP LT ISZERO DUP1 ISZERO PUSH2 0x1A8D JUMPI POP DUP1 PUSH1 0x3 ADD SLOAD TIMESTAMP GT ISZERO JUMPDEST PUSH2 0x1ACC JUMPI PUSH1 0x40 MLOAD PUSH32 0x8C379A000000000000000000000000000000000000000000000000000000000 DUP2 MSTORE PUSH1 0x4 ADD PUSH2 0x1AC3 SWAP1 PUSH2 0x3FC2 JUMP JUMPDEST PUSH1 0x40 MLOAD DUP1 SWAP2 SUB SWAP1 REVERT JUMPDEST DUP1 PUSH1 0x4 ADD PUSH0 SWAP1 SLOAD SWAP1 PUSH2 0x100 EXP SWAP1 DIV PUSH20 0xFFFFFFFFFFFFFFFFFFFFFFFFFFFFFFFFFFFFFFFF AND PUSH20 0xFFFFFFFFFFFFFFFFFFFFFFFFFFFFFFFFFFFFFFFF AND CALLER PUSH20 0xFFFFFFFFFFFFFFFFFFFFFFFFFFFFFFFFFFFFFFFF AND EQ ISZERO DUP1 ISZERO PUSH2 0x1B76 JUMPI POP PUSH0 DUP1 SLOAD SWAP1 PUSH2 0x100 EXP SWAP1 DIV PUSH20 0xFFFFFFFFFFFFFFFFFFFFFFFFFFFFFFFFFFFFFFFF AND PUSH20 0xFFFFFFFFFFFFFFFFFFFFFFFFFFFFFFFFFFFFFFFF AND CALLER PUSH20 0xFFFFFFFFFFFFFFFFFFFFFFFFFFFFFFFFFFFFFFFF AND EQ ISZERO JUMPDEST PUSH2 0x1BB5 JUMPI PUSH1 0x40 MLOAD PUSH32 0x8C379A000000000000000000000000000000000000000000000000000000000 DUP2 MSTORE PUSH1 0x4 ADD PUSH2 0x1BAC SWAP1 PUSH2 0x4050 JUMP JUMPDEST PUSH1 0x40 MLOAD DUP1 SWAP2 SUB SWAP1 REVERT JUMPDEST PUSH0 PUSH20 0xFFFFFFFFFFFFFFFFFFFFFFFFFFFFFFFFFFFFFFFF AND PUSH1 0x5 PUSH0 DUP6 DUP2 MSTORE PUSH1 0x20 ADD SWAP1 DUP2 MSTORE PUSH1 0x20 ADD PUSH0 KECCAK256 PUSH0 DUP5 DUP2 MSTORE PUSH1 0x20 ADD SWAP1 DUP2 MSTORE PUSH1 0x20 ADD PUSH0 KECCAK256 PUSH1 0x1 ADD PUSH0 SWAP1 SLOAD SWAP1 PUSH2 0x100 EXP SWAP1 DIV PUSH20 0xFFFFFFFFFFFFFFFFFFFFFFFFFFFFFFFFFFFFFFFF AND PUSH20 0xFFFFFFFFFFFFFFFFFFFFFFFFFFFFFFFFFFFFFFFF AND SUB PUSH2 0x1C65 JUMPI PUSH1 0x40 MLOAD PUSH32 0x8C379A000000000000000000000000000000000000000000000000000000000 DUP2 MSTORE PUSH1 0x4 ADD PUSH2 0x1C5C SWAP1 PUSH2 0x40B8 JUMP JUMPDEST PUSH1 0x40 MLOAD DUP1 SWAP2 SUB SWAP1 REVERT JUMPDEST PUSH0 DUP1 JUMPDEST DUP3 PUSH1 0x5 ADD DUP1 SLOAD SWAP1 POP DUP2 LT ISZERO PUSH2 0x1CFD JUMPI CALLER PUSH20 0xFFFFFFFFFFFFFFFFFFFFFFFFFFFFFFFFFFFFFFFF AND DUP4 PUSH1 0x5 ADD DUP3 DUP2 SLOAD DUP2 LT PUSH2 0x1CA4 JUMPI PUSH2 0x1CA3 PUSH2 0x3586 JUMP JUMPDEST JUMPDEST SWAP1 PUSH0 MSTORE PUSH1 0x20 PUSH0 KECCAK256 ADD PUSH0 SWAP1 SLOAD SWAP1 PUSH2 0x100 EXP SWAP1 DIV PUSH20 0xFFFFFFFFFFFFFFFFFFFFFFFFFFFFFFFFFFFFFFFF AND PUSH20 0xFFFFFFFFFFFFFFFFFFFFFFFFFFFFFFFFFFFFFFFF AND SUB PUSH2 0x1CF0 JUMPI PUSH1 0x1 SWAP2 POP PUSH2 0x1CFD JUMP JUMPDEST DUP1 DUP1 PUSH1 0x1 ADD SWAP2 POP POP PUSH2 0x1C68 JUMP JUMPDEST POP DUP1 ISZERO PUSH2 0x1D3F JUMPI PUSH1 0x40 MLOAD PUSH32 0x8C379A000000000000000000000000000000000000000000000000000000000 DUP2 MSTORE PUSH1 0x4 ADD PUSH2 0x1D36 SWAP1 PUSH2 0x4146 JUMP JUMPDEST PUSH1 0x40 MLOAD DUP1 SWAP2 SUB SWAP1 REVERT JUMPDEST PUSH0 PUSH1 0x40 MLOAD DUP1 PUSH1 0x60 ADD PUSH1 0x40 MSTORE DUP1 CALLER PUSH20 0xFFFFFFFFFFFFFFFFFFFFFFFFFFFFFFFFFFFFFFFF AND DUP2 MSTORE PUSH1 0x20 ADD DUP6 DUP2 MSTORE PUSH1 0x20 ADD TIMESTAMP DUP2 MSTORE POP SWAP1 POP PUSH1 0x7 PUSH0 DUP7 DUP2 MSTORE PUSH1 0x20 ADD SWAP1 DUP2 MSTORE PUSH1 0x20 ADD PUSH0 KECCAK256 PUSH0 DUP6 DUP2 MSTORE PUSH1 0x20 ADD SWAP1 DUP2 MSTORE PUSH1 0x20 ADD PUSH0 KECCAK256 PUSH0 DUP2 SLOAD DUP1 SWAP3 SWAP2 SWAP1 PUSH2 0x1DA3 SWAP1 PUSH2 0x4191 JUMP JUMPDEST SWAP2 SWAP1 POP SSTORE POP PUSH1 0x5 PUSH0 DUP7 DUP2 MSTORE PUSH1 0x20 ADD SWAP1 DUP2 MSTORE PUSH1 0x20 ADD PUSH0 KECCAK256 PUSH0 DUP6 DUP2 MSTORE PUSH1 0x20 ADD SWAP1 DUP2 MSTORE PUSH1 0x20 ADD PUSH0 KECCAK256 PUSH1 0x2 ADD PUSH0 DUP2 SLOAD DUP1 SWAP3 SWAP2 SWAP1 PUSH2 0x1DDB SWAP1 PUSH2 0x4191 JUMP JUMPDEST SWAP2 SWAP1 POP SSTORE POP PUSH1 0x1 PUSH1 0x8 PUSH0 DUP8 DUP2 MSTORE PUSH1 0x20 ADD SWAP1 DUP2 MSTORE PUSH1 0x20 ADD PUSH0 KECCAK256 PUSH0 CALLER PUSH20 0xFFFFFFFFFFFFFFFFFFFFFFFFFFFFFFFFFFFFFFFF AND PUSH20 0xFFFFFFFFFFFFFFFFFFFFFFFFFFFFFFFFFFFFFFFF AND DUP2 MSTORE PUSH1 0x20 ADD SWAP1 DUP2 MSTORE PUSH1 0x20 ADD PUSH0 KECCAK256 PUSH0 PUSH2 0x100 EXP DUP2 SLOAD DUP2 PUSH1 0xFF MUL NOT AND SWAP1 DUP4 ISZERO ISZERO MUL OR SWAP1 SSTORE POP PUSH1 0x9 DUP2 SWAP1 DUP1 PUSH1 0x1 DUP2 SLOAD ADD DUP1 DUP3 SSTORE DUP1 SWAP2 POP POP PUSH1 0x1 SWAP1 SUB SWAP1 PUSH0 MSTORE PUSH1 0x20 PUSH0 KECCAK256 SWAP1 PUSH1 0x3 MUL ADD PUSH0 SWAP1 SWAP2 SWAP1 SWAP2 SWAP1 SWAP2 POP PUSH0 DUP3 ADD MLOAD DUP2 PUSH0 ADD PUSH0 PUSH2 0x100 EXP DUP2 SLOAD DUP2 PUSH20 0xFFFFFFFFFFFFFFFFFFFFFFFFFFFFFFFFFFFFFFFF MUL NOT AND SWAP1 DUP4 PUSH20 0xFFFFFFFFFFFFFFFFFFFFFFFFFFFFFFFFFFFFFFFF AND MUL OR SWAP1 SSTORE POP PUSH1 0x20 DUP3 ADD MLOAD DUP2 PUSH1 0x1 ADD SSTORE PUSH1 0x40 DUP3 ADD MLOAD DUP2 PUSH1 0x2 ADD SSTORE POP POP PUSH1 0x3 PUSH0 DUP7 DUP2 MSTORE PUSH1 0x20 ADD SWAP1 DUP2 MSTORE PUSH1 0x20 ADD PUSH0 KECCAK256 DUP2 SWAP1 DUP1 PUSH1 0x1 DUP2 SLOAD ADD DUP1 DUP3 SSTORE DUP1 SWAP2 POP POP PUSH1 0x1 SWAP1 SUB SWAP1 PUSH0 MSTORE PUSH1 0x20 PUSH0 KECCAK256 SWAP1 PUSH1 0x3 MUL ADD PUSH0 SWAP1 SWAP2 SWAP1 SWAP2 SWAP1 SWAP2 POP PUSH0 DUP3 ADD MLOAD DUP2 PUSH0 ADD PUSH0 PUSH2 0x100 EXP DUP2 SLOAD DUP2 PUSH20 0xFFFFFFFFFFFFFFFFFFFFFFFFFFFFFFFFFFFFFFFF MUL NOT AND SWAP1 DUP4 PUSH20 0xFFFFFFFFFFFFFFFFFFFFFFFFFFFFFFFFFFFFFFFF AND MUL OR SWAP1 SSTORE POP PUSH1 0x20 DUP3 ADD MLOAD DUP2 PUSH1 0x1 ADD SSTORE PUSH1 0x40 DUP3 ADD MLOAD DUP2 PUSH1 0x2 ADD SSTORE POP POP DUP3 PUSH1 0x6 ADD CALLER SWAP1 DUP1 PUSH1 0x1 DUP2 SLOAD ADD DUP1 DUP3 SSTORE DUP1 SWAP2 POP POP PUSH1 0x1 SWAP1 SUB SWAP1 PUSH0 MSTORE PUSH1 0x20 PUSH0 KECCAK256 ADD PUSH0 SWAP1 SWAP2 SWAP1 SWAP2 SWAP1 SWAP2 PUSH2 0x100 EXP DUP2 SLOAD DUP2 PUSH20 0xFFFFFFFFFFFFFFFFFFFFFFFFFFFFFFFFFFFFFFFF MUL NOT AND SWAP1 DUP4 PUSH20 0xFFFFFFFFFFFFFFFFFFFFFFFFFFFFFFFFFFFFFFFF AND MUL OR SWAP1 SSTORE POP CALLER PUSH20 0xFFFFFFFFFFFFFFFFFFFFFFFFFFFFFFFFFFFFFFFF AND DUP6 PUSH32 0x779EE41B2705BB84B68826BE94F592204565AED7B9A6D8B5A0A8E1A03F551CCE DUP7 PUSH1 0x40 MLOAD PUSH2 0x2002 SWAP2 SWAP1 PUSH2 0x2929 JUMP JUMPDEST PUSH1 0x40 MLOAD DUP1 SWAP2 SUB SWAP1 LOG3 POP POP POP POP POP POP POP JUMP JUMPDEST PUSH1 0x7 PUSH1 0x20 MSTORE DUP2 PUSH0 MSTORE PUSH1 0x40 PUSH0 KECCAK256 PUSH1 0x20 MSTORE DUP1 PUSH0 MSTORE PUSH1 0x40 PUSH0 KECCAK256 PUSH0 SWAP2 POP SWAP2 POP POP SLOAD DUP2 JUMP JUMPDEST PUSH1 0x1 PUSH1 0x20 MSTORE DUP1 PUSH0 MSTORE PUSH1 0x40 PUSH0 KECCAK256 PUSH0 SWAP2 POP SWAP1 POP DUP1 PUSH0 ADD SLOAD SWAP1 DUP1 PUSH1 0x1 ADD DUP1 SLOAD PUSH2 0x2058 SWAP1 PUSH2 0x3B16 JUMP JUMPDEST DUP1 PUSH1 0x1F ADD PUSH1 0x20 DUP1 SWAP2 DIV MUL PUSH1 0x20 ADD PUSH1 0x40 MLOAD SWAP1 DUP2 ADD PUSH1 0x40 MSTORE DUP1 SWAP3 SWAP2 SWAP1 DUP2 DUP2 MSTORE PUSH1 0x20 ADD DUP3 DUP1 SLOAD PUSH2 0x2084 SWAP1 PUSH2 0x3B16 JUMP JUMPDEST DUP1 ISZERO PUSH2 0x20CF JUMPI DUP1 PUSH1 0x1F LT PUSH2 0x20A6 JUMPI PUSH2 0x100 DUP1 DUP4 SLOAD DIV MUL DUP4 MSTORE SWAP2 PUSH1 0x20 ADD SWAP2 PUSH2 0x20CF JUMP JUMPDEST DUP3 ADD SWAP2 SWAP1 PUSH0 MSTORE PUSH1 0x20 PUSH0 KECCAK256 SWAP1 JUMPDEST DUP2 SLOAD DUP2 MSTORE SWAP1 PUSH1 0x1 ADD SWAP1 PUSH1 0x20 ADD DUP1 DUP4 GT PUSH2 0x20B2 JUMPI DUP3 SWAP1 SUB PUSH1 0x1F AND DUP3 ADD SWAP2 JUMPDEST POP POP POP POP POP SWAP1 DUP1 PUSH1 0x2 ADD SLOAD SWAP1 DUP1 PUSH1 0x3 ADD SLOAD SWAP1 DUP1 PUSH1 0x4 ADD PUSH0 SWAP1 SLOAD SWAP1 PUSH2 0x100 EXP SWAP1 DIV PUSH20 0xFFFFFFFFFFFFFFFFFFFFFFFFFFFFFFFFFFFFFFFF AND SWAP1 DUP1 PUSH1 0x4 ADD PUSH1 0x14 SWAP1 SLOAD SWAP1 PUSH2 0x100 EXP SWAP1 DIV PUSH1 0xFF AND SWAP1 POP DUP7 JUMP JUMPDEST PUSH1 0x2 PUSH1 0x20 MSTORE DUP2 PUSH0 MSTORE PUSH1 0x40 PUSH0 KECCAK256 PUSH1 0x20 MSTORE DUP1 PUSH0 MSTORE PUSH1 0x40 PUSH0 KECCAK256 PUSH0 SWAP2 POP SWAP2 POP SWAP1 SLOAD SWAP1 PUSH2 0x100 EXP SWAP1 DIV PUSH1 0xFF AND DUP2 JUMP JUMPDEST PUSH0 DUP1 SLOAD SWAP1 PUSH2 0x100 EXP SWAP1 DIV PUSH20 0xFFFFFFFFFFFFFFFFFFFFFFFFFFFFFFFFFFFFFFFF AND DUP2 JUMP JUMPDEST PUSH0 PUSH2 0x2174 DUP4 PUSH2 0x2652 JUMP JUMPDEST SWAP1 POP PUSH0 PUSH1 0x1 PUSH0 DUP4 DUP2 MSTORE PUSH1 0x20 ADD SWAP1 DUP2 MSTORE PUSH1 0x20 ADD PUSH0 KECCAK256 SWAP1 POP PUSH0 DUP1 SHL DUP2 PUSH0 ADD SLOAD SUB PUSH2 0x21D1 JUMPI PUSH1 0x40 MLOAD PUSH32 0x8C379A000000000000000000000000000000000000000000000000000000000 DUP2 MSTORE PUSH1 0x4 ADD PUSH2 0x21C8 SWAP1 PUSH2 0x35FD JUMP JUMPDEST PUSH1 0x40 MLOAD DUP1 SWAP2 SUB SWAP1 REVERT JUMPDEST DUP1 PUSH1 0x4 ADD PUSH0 SWAP1 SLOAD SWAP1 PUSH2 0x100 EXP SWAP1 DIV PUSH20 0xFFFFFFFFFFFFFFFFFFFFFFFFFFFFFFFFFFFFFFFF AND PUSH20 0xFFFFFFFFFFFFFFFFFFFFFFFFFFFFFFFFFFFFFFFF AND CALLER PUSH20 0xFFFFFFFFFFFFFFFFFFFFFFFFFFFFFFFFFFFFFFFF AND EQ DUP1 PUSH2 0x2278 JUMPI POP PUSH0 DUP1 SLOAD SWAP1 PUSH2 0x100 EXP SWAP1 DIV PUSH20 0xFFFFFFFFFFFFFFFFFFFFFFFFFFFFFFFFFFFFFFFF AND PUSH20 0xFFFFFFFFFFFFFFFFFFFFFFFFFFFFFFFFFFFFFFFF AND CALLER PUSH20 0xFFFFFFFFFFFFFFFFFFFFFFFFFFFFFFFFFFFFFFFF AND EQ JUMPDEST PUSH2 0x22B7 JUMPI PUSH1 0x40 MLOAD PUSH32 0x8C379A000000000000000000000000000000000000000000000000000000000 DUP2 MSTORE PUSH1 0x4 ADD PUSH2 0x22AE SWAP1 PUSH2 0x4248 JUMP JUMPDEST PUSH1 0x40 MLOAD DUP1 SWAP2 SUB SWAP1 REVERT JUMPDEST DUP1 PUSH1 0x2 ADD SLOAD TIMESTAMP LT PUSH2 0x22FD JUMPI PUSH1 0x40 MLOAD PUSH32 0x8C379A000000000000000000000000000000000000000000000000000000000 DUP2 MSTORE PUSH1 0x4 ADD PUSH2 0x22F4 SWAP1 PUSH2 0x42D6 JUMP JUMPDEST PUSH1 0x40 MLOAD DUP1 SWAP2 SUB SWAP1 REVERT JUMPDEST PUSH0 DUP1 JUMPDEST DUP3 PUSH1 0x5 ADD DUP1 SLOAD SWAP1 POP DUP2 LT ISZERO PUSH2 0x2487 JUMPI DUP5 PUSH20 0xFFFFFFFFFFFFFFFFFFFFFFFFFFFFFFFFFFFFFFFF AND DUP4 PUSH1 0x5 ADD DUP3 DUP2 SLOAD DUP2 LT PUSH2 0x233C JUMPI PUSH2 0x233B PUSH2 0x3586 JUMP JUMPDEST JUMPDEST SWAP1 PUSH0 MSTORE PUSH1 0x20 PUSH0 KECCAK256 ADD PUSH0 SWAP1 SLOAD SWAP1 PUSH2 0x100 EXP SWAP1 DIV PUSH20 0xFFFFFFFFFFFFFFFFFFFFFFFFFFFFFFFFFFFFFFFF AND PUSH20 0xFFFFFFFFFFFFFFFFFFFFFFFFFFFFFFFFFFFFFFFF AND SUB PUSH2 0x247A JUMPI DUP3 PUSH1 0x5 ADD PUSH1 0x1 DUP5 PUSH1 0x5 ADD DUP1 SLOAD SWAP1 POP PUSH2 0x2397 SWAP2 SWAP1 PUSH2 0x42F4 JUMP JUMPDEST DUP2 SLOAD DUP2 LT PUSH2 0x23A8 JUMPI PUSH2 0x23A7 PUSH2 0x3586 JUMP JUMPDEST JUMPDEST SWAP1 PUSH0 MSTORE PUSH1 0x20 PUSH0 KECCAK256 ADD PUSH0 SWAP1 SLOAD SWAP1 PUSH2 0x100 EXP SWAP1 DIV PUSH20 0xFFFFFFFFFFFFFFFFFFFFFFFFFFFFFFFFFFFFFFFF AND DUP4 PUSH1 0x5 ADD DUP3 DUP2 SLOAD DUP2 LT PUSH2 0x23E6 JUMPI PUSH2 0x23E5 PUSH2 0x3586 JUMP JUMPDEST JUMPDEST SWAP1 PUSH0 MSTORE PUSH1 0x20 PUSH0 KECCAK256 ADD PUSH0 PUSH2 0x100 EXP DUP2 SLOAD DUP2 PUSH20 0xFFFFFFFFFFFFFFFFFFFFFFFFFFFFFFFFFFFFFFFF MUL NOT AND SWAP1 DUP4 PUSH20 0xFFFFFFFFFFFFFFFFFFFFFFFFFFFFFFFFFFFFFFFF AND MUL OR SWAP1 SSTORE POP DUP3 PUSH1 0x5 ADD DUP1 SLOAD DUP1 PUSH2 0x243F JUMPI PUSH2 0x243E PUSH2 0x4327 JUMP JUMPDEST JUMPDEST PUSH1 0x1 SWAP1 SUB DUP2 DUP2 SWAP1 PUSH0 MSTORE PUSH1 0x20 PUSH0 KECCAK256 ADD PUSH0 PUSH2 0x100 EXP DUP2 SLOAD SWAP1 PUSH20 0xFFFFFFFFFFFFFFFFFFFFFFFFFFFFFFFFFFFFFFFF MUL NOT AND SWAP1 SSTORE SWAP1 SSTORE PUSH1 0x1 SWAP2 POP PUSH2 0x2487 JUMP JUMPDEST DUP1 DUP1 PUSH1 0x1 ADD SWAP2 POP POP PUSH2 0x2300 JUMP JUMPDEST POP DUP1 PUSH2 0x24C8 JUMPI PUSH1 0x40 MLOAD PUSH32 0x8C379A000000000000000000000000000000000000000000000000000000000 DUP2 MSTORE PUSH1 0x4 ADD PUSH2 0x24BF SWAP1 PUSH2 0x439E JUMP JUMPDEST PUSH1 0x40 MLOAD DUP1 SWAP2 SUB SWAP1 REVERT JUMPDEST DUP3 PUSH32 0xF086BA9A1F8F85A7A2069340133BC707FE5A25ABB4F2B116A1010864B51D109 DUP6 PUSH1 0x40 MLOAD PUSH2 0x24F8 SWAP2 SWAP1 PUSH2 0x3513 JUMP JUMPDEST PUSH1 0x40 MLOAD DUP1 SWAP2 SUB SWAP1 LOG2 POP POP POP POP POP JUMP JUMPDEST PUSH1 0x60 PUSH0 JUMPDEST PUSH1 0x20 DUP2 PUSH1 0xFF AND LT DUP1 ISZERO PUSH2 0x255C JUMPI POP PUSH0 PUSH1 0xF8 SHL DUP4 DUP3 PUSH1 0xFF AND PUSH1 0x20 DUP2 LT PUSH2 0x2533 JUMPI PUSH2 0x2532 PUSH2 0x3586 JUMP JUMPDEST JUMPDEST BYTE PUSH1 0xF8 SHL PUSH31 0xFFFFFFFFFFFFFFFFFFFFFFFFFFFFFFFFFFFFFFFFFFFFFFFFFFFFFFFFFFFFFF NOT AND EQ ISZERO JUMPDEST ISZERO PUSH2 0x2574 JUMPI DUP1 DUP1 PUSH2 0x256C SWAP1 PUSH2 0x43BC JUMP JUMPDEST SWAP2 POP POP PUSH2 0x250B JUMP JUMPDEST PUSH0 DUP2 PUSH1 0xFF AND PUSH8 0xFFFFFFFFFFFFFFFF DUP2 GT ISZERO PUSH2 0x2592 JUMPI PUSH2 0x2591 PUSH2 0x294A JUMP JUMPDEST JUMPDEST PUSH1 0x40 MLOAD SWAP1 DUP1 DUP3 MSTORE DUP1 PUSH1 0x1F ADD PUSH1 0x1F NOT AND PUSH1 0x20 ADD DUP3 ADD PUSH1 0x40 MSTORE DUP1 ISZERO PUSH2 0x25C4 JUMPI DUP2 PUSH1 0x20 ADD PUSH1 0x1 DUP3 MUL DUP1 CALLDATASIZE DUP4 CALLDATACOPY DUP1 DUP3 ADD SWAP2 POP POP SWAP1 POP JUMPDEST POP SWAP1 POP PUSH0 SWAP2 POP JUMPDEST DUP1 MLOAD DUP3 PUSH1 0xFF AND LT ISZERO PUSH2 0x2648 JUMPI DUP4 DUP3 PUSH1 0xFF AND PUSH1 0x20 DUP2 LT PUSH2 0x25ED JUMPI PUSH2 0x25EC PUSH2 0x3586 JUMP JUMPDEST JUMPDEST BYTE PUSH1 0xF8 SHL DUP2 DUP4 PUSH1 0xFF AND DUP2 MLOAD DUP2 LT PUSH2 0x2607 JUMPI PUSH2 0x2606 PUSH2 0x3586 JUMP JUMPDEST JUMPDEST PUSH1 0x20 ADD ADD SWAP1 PUSH31 0xFFFFFFFFFFFFFFFFFFFFFFFFFFFFFFFFFFFFFFFFFFFFFFFFFFFFFFFFFFFFFF NOT AND SWAP1 DUP2 PUSH0 BYTE SWAP1 MSTORE8 POP DUP2 DUP1 PUSH2 0x2640 SWAP1 PUSH2 0x43BC JUMP JUMPDEST SWAP3 POP POP PUSH2 0x25CB JUMP JUMPDEST DUP1 SWAP3 POP POP POP SWAP2 SWAP1 POP JUMP JUMPDEST PUSH0 DUP1 DUP3 SWAP1 POP PUSH0 DUP2 MLOAD SUB PUSH2 0x266A JUMPI PUSH0 DUP1 SHL SWAP2 POP POP PUSH2 0x2673 JUMP JUMPDEST PUSH1 0x20 DUP4 ADD MLOAD SWAP2 POP POP JUMPDEST SWAP2 SWAP1 POP JUMP JUMPDEST DUP3 DUP1 SLOAD DUP3 DUP3 SSTORE SWAP1 PUSH0 MSTORE PUSH1 0x20 PUSH0 KECCAK256 SWAP1 DUP2 ADD SWAP3 DUP3 ISZERO PUSH2 0x26EE JUMPI SWAP2 PUSH1 0x20 MUL DUP3 ADD JUMPDEST DUP3 DUP2 GT ISZERO PUSH2 0x26ED JUMPI DUP3 MLOAD DUP3 PUSH0 PUSH2 0x100 EXP DUP2 SLOAD DUP2 PUSH20 0xFFFFFFFFFFFFFFFFFFFFFFFFFFFFFFFFFFFFFFFF MUL NOT AND SWAP1 DUP4 PUSH20 0xFFFFFFFFFFFFFFFFFFFFFFFFFFFFFFFFFFFFFFFF AND MUL OR SWAP1 SSTORE POP SWAP2 PUSH1 0x20 ADD SWAP2 SWAP1 PUSH1 0x1 ADD SWAP1 PUSH2 0x2696 JUMP JUMPDEST JUMPDEST POP SWAP1 POP PUSH2 0x26FB SWAP2 SWAP1 PUSH2 0x26FF JUMP JUMPDEST POP SWAP1 JUMP JUMPDEST JUMPDEST DUP1 DUP3 GT ISZERO PUSH2 0x2716 JUMPI PUSH0 DUP2 PUSH0 SWAP1 SSTORE POP PUSH1 0x1 ADD PUSH2 0x2700 JUMP JUMPDEST POP SWAP1 JUMP JUMPDEST PUSH0 DUP2 MLOAD SWAP1 POP SWAP2 SWAP1 POP JUMP JUMPDEST PUSH0 DUP3 DUP3 MSTORE PUSH1 0x20 DUP3 ADD SWAP1 POP SWAP3 SWAP2 POP POP JUMP JUMPDEST PUSH0 DUP2 SWAP1 POP PUSH1 0x20 DUP3 ADD SWAP1 POP SWAP2 SWAP1 POP JUMP JUMPDEST PUSH0 DUP2 MLOAD SWAP1 POP SWAP2 SWAP1 POP JUMP JUMPDEST PUSH0 DUP3 DUP3 MSTORE PUSH1 0x20 DUP3 ADD SWAP1 POP SWAP3 SWAP2 POP POP JUMP JUMPDEST DUP3 DUP2 DUP4 MCOPY PUSH0 DUP4 DUP4 ADD MSTORE POP POP POP JUMP JUMPDEST PUSH0 PUSH1 0x1F NOT PUSH1 0x1F DUP4 ADD AND SWAP1 POP SWAP2 SWAP1 POP JUMP JUMPDEST PUSH0 PUSH2 0x2785 DUP3 PUSH2 0x2743 JUMP JUMPDEST PUSH2 0x278F DUP2 DUP6 PUSH2 0x274D JUMP JUMPDEST SWAP4 POP PUSH2 0x279F DUP2 DUP6 PUSH1 0x20 DUP7 ADD PUSH2 0x275D JUMP JUMPDEST PUSH2 0x27A8 DUP2 PUSH2 0x276B JUMP JUMPDEST DUP5 ADD SWAP2 POP POP SWAP3 SWAP2 POP POP JUMP JUMPDEST PUSH0 PUSH2 0x27BE DUP4 DUP4 PUSH2 0x277B JUMP JUMPDEST SWAP1 POP SWAP3 SWAP2 POP POP JUMP JUMPDEST PUSH0 PUSH1 0x20 DUP3 ADD SWAP1 POP SWAP2 SWAP1 POP JUMP JUMPDEST PUSH0 PUSH2 0x27DC DUP3 PUSH2 0x271A JUMP JUMPDEST PUSH2 0x27E6 DUP2 DUP6 PUSH2 0x2724 JUMP JUMPDEST SWAP4 POP DUP4 PUSH1 0x20 DUP3 MUL DUP6 ADD PUSH2 0x27F8 DUP6 PUSH2 0x2734 JUMP JUMPDEST DUP1 PUSH0 JUMPDEST DUP6 DUP2 LT ISZERO PUSH2 0x2833 JUMPI DUP5 DUP5 SUB DUP10 MSTORE DUP2 MLOAD PUSH2 0x2814 DUP6 DUP3 PUSH2 0x27B3 JUMP JUMPDEST SWAP5 POP PUSH2 0x281F DUP4 PUSH2 0x27C6 JUMP JUMPDEST SWAP3 POP PUSH1 0x20 DUP11 ADD SWAP10 POP POP PUSH1 0x1 DUP2 ADD SWAP1 POP PUSH2 0x27FB JUMP JUMPDEST POP DUP3 SWAP8 POP DUP8 SWAP6 POP POP POP POP POP POP SWAP3 SWAP2 POP POP JUMP JUMPDEST PUSH0 PUSH1 0x20 DUP3 ADD SWAP1 POP DUP2 DUP2 SUB PUSH0 DUP4 ADD MSTORE PUSH2 0x285D DUP2 DUP5 PUSH2 0x27D2 JUMP JUMPDEST SWAP1 POP SWAP3 SWAP2 POP POP JUMP JUMPDEST PUSH0 PUSH1 0x40 MLOAD SWAP1 POP SWAP1 JUMP JUMPDEST PUSH0 DUP1 REVERT JUMPDEST PUSH0 DUP1 REVERT JUMPDEST PUSH0 DUP2 SWAP1 POP SWAP2 SWAP1 POP JUMP JUMPDEST PUSH2 0x2888 DUP2 PUSH2 0x2876 JUMP JUMPDEST DUP2 EQ PUSH2 0x2892 JUMPI PUSH0 DUP1 REVERT JUMPDEST POP JUMP JUMPDEST PUSH0 DUP2 CALLDATALOAD SWAP1 POP PUSH2 0x28A3 DUP2 PUSH2 0x287F JUMP JUMPDEST SWAP3 SWAP2 POP POP JUMP JUMPDEST PUSH0 DUP2 SWAP1 POP SWAP2 SWAP1 POP JUMP JUMPDEST PUSH2 0x28BB DUP2 PUSH2 0x28A9 JUMP JUMPDEST DUP2 EQ PUSH2 0x28C5 JUMPI PUSH0 DUP1 REVERT JUMPDEST POP JUMP JUMPDEST PUSH0 DUP2 CALLDATALOAD SWAP1 POP PUSH2 0x28D6 DUP2 PUSH2 0x28B2 JUMP JUMPDEST SWAP3 SWAP2 POP POP JUMP JUMPDEST PUSH0 DUP1 PUSH1 0x40 DUP4 DUP6 SUB SLT ISZERO PUSH2 0x28F2 JUMPI PUSH2 0x28F1 PUSH2 0x286E JUMP JUMPDEST JUMPDEST PUSH0 PUSH2 0x28FF DUP6 DUP3 DUP7 ADD PUSH2 0x2895 JUMP JUMPDEST SWAP3 POP POP PUSH1 0x20 PUSH2 0x2910 DUP6 DUP3 DUP7 ADD PUSH2 0x28C8 JUMP JUMPDEST SWAP2 POP POP SWAP3 POP SWAP3 SWAP1 POP JUMP JUMPDEST PUSH2 0x2923 DUP2 PUSH2 0x2876 JUMP JUMPDEST DUP3 MSTORE POP POP JUMP JUMPDEST PUSH0 PUSH1 0x20 DUP3 ADD SWAP1 POP PUSH2 0x293C PUSH0 DUP4 ADD DUP5 PUSH2 0x291A JUMP JUMPDEST SWAP3 SWAP2 POP POP JUMP JUMPDEST PUSH0 DUP1 REVERT JUMPDEST PUSH0 DUP1 REVERT JUMPDEST PUSH32 0x4E487B7100000000000000000000000000000000000000000000000000000000 PUSH0 MSTORE PUSH1 0x41 PUSH1 0x4 MSTORE PUSH1 0x24 PUSH0 REVERT JUMPDEST PUSH2 0x2980 DUP3 PUSH2 0x276B JUMP JUMPDEST DUP2 ADD DUP2 DUP2 LT PUSH8 0xFFFFFFFFFFFFFFFF DUP3 GT OR ISZERO PUSH2 0x299F JUMPI PUSH2 0x299E PUSH2 0x294A JUMP JUMPDEST JUMPDEST DUP1 PUSH1 0x40 MSTORE POP POP POP JUMP JUMPDEST PUSH0 PUSH2 0x29B1 PUSH2 0x2865 JUMP JUMPDEST SWAP1 POP PUSH2 0x29BD DUP3 DUP3 PUSH2 0x2977 JUMP JUMPDEST SWAP2 SWAP1 POP JUMP JUMPDEST PUSH0 PUSH8 0xFFFFFFFFFFFFFFFF DUP3 GT ISZERO PUSH2 0x29DC JUMPI PUSH2 0x29DB PUSH2 0x294A JUMP JUMPDEST JUMPDEST PUSH2 0x29E5 DUP3 PUSH2 0x276B JUMP JUMPDEST SWAP1 POP PUSH1 0x20 DUP2 ADD SWAP1 POP SWAP2 SWAP1 POP JUMP JUMPDEST DUP3 DUP2 DUP4 CALLDATACOPY PUSH0 DUP4 DUP4 ADD MSTORE POP POP POP JUMP JUMPDEST PUSH0 PUSH2 0x2A12 PUSH2 0x2A0D DUP5 PUSH2 0x29C2 JUMP JUMPDEST PUSH2 0x29A8 JUMP JUMPDEST SWAP1 POP DUP3 DUP2 MSTORE PUSH1 0x20 DUP2 ADD DUP5 DUP5 DUP5 ADD GT ISZERO PUSH2 0x2A2E JUMPI PUSH2 0x2A2D PUSH2 0x2946 JUMP JUMPDEST JUMPDEST PUSH2 0x2A39 DUP5 DUP3 DUP6 PUSH2 0x29F2 JUMP JUMPDEST POP SWAP4 SWAP3 POP POP POP JUMP JUMPDEST PUSH0 DUP3 PUSH1 0x1F DUP4 ADD SLT PUSH2 0x2A55 JUMPI PUSH2 0x2A54 PUSH2 0x2942 JUMP JUMPDEST JUMPDEST DUP2 CALLDATALOAD PUSH2 0x2A65 DUP5 DUP3 PUSH1 0x20 DUP7 ADD PUSH2 0x2A00 JUMP JUMPDEST SWAP2 POP POP SWAP3 SWAP2 POP POP JUMP JUMPDEST PUSH0 PUSH1 0x20 DUP3 DUP5 SUB SLT ISZERO PUSH2 0x2A83 JUMPI PUSH2 0x2A82 PUSH2 0x286E JUMP JUMPDEST JUMPDEST PUSH0 DUP3 ADD CALLDATALOAD PUSH8 0xFFFFFFFFFFFFFFFF DUP2 GT ISZERO PUSH2 0x2AA0 JUMPI PUSH2 0x2A9F PUSH2 0x2872 JUMP JUMPDEST JUMPDEST PUSH2 0x2AAC DUP5 DUP3 DUP6 ADD PUSH2 0x2A41 JUMP JUMPDEST SWAP2 POP POP SWAP3 SWAP2 POP POP JUMP JUMPDEST PUSH0 DUP2 MLOAD SWAP1 POP SWAP2 SWAP1 POP JUMP JUMPDEST PUSH0 DUP3 DUP3 MSTORE PUSH1 0x20 DUP3 ADD SWAP1 POP SWAP3 SWAP2 POP POP JUMP JUMPDEST PUSH0 DUP2 SWAP1 POP PUSH1 0x20 DUP3 ADD SWAP1 POP SWAP2 SWAP1 POP JUMP JUMPDEST PUSH2 0x2AE7 DUP2 PUSH2 0x2876 JUMP JUMPDEST DUP3 MSTORE POP POP JUMP JUMPDEST PUSH0 PUSH2 0x2AF8 DUP4 DUP4 PUSH2 0x2ADE JUMP JUMPDEST PUSH1 0x20 DUP4 ADD SWAP1 POP SWAP3 SWAP2 POP POP JUMP JUMPDEST PUSH0 PUSH1 0x20 DUP3 ADD SWAP1 POP SWAP2 SWAP1 POP JUMP JUMPDEST PUSH0 PUSH2 0x2B1A DUP3 PUSH2 0x2AB5 JUMP JUMPDEST PUSH2 0x2B24 DUP2 DUP6 PUSH2 0x2ABF JUMP JUMPDEST SWAP4 POP PUSH2 0x2B2F DUP4 PUSH2 0x2ACF JUMP JUMPDEST DUP1 PUSH0 JUMPDEST DUP4 DUP2 LT ISZERO PUSH2 0x2B5F JUMPI DUP2 MLOAD PUSH2 0x2B46 DUP9 DUP3 PUSH2 0x2AED JUMP JUMPDEST SWAP8 POP PUSH2 0x2B51 DUP4 PUSH2 0x2B04 JUMP JUMPDEST SWAP3 POP POP PUSH1 0x1 DUP2 ADD SWAP1 POP PUSH2 0x2B32 JUMP JUMPDEST POP DUP6 SWAP4 POP POP POP POP SWAP3 SWAP2 POP POP JUMP JUMPDEST PUSH0 DUP2 MLOAD SWAP1 POP SWAP2 SWAP1 POP JUMP JUMPDEST PUSH0 DUP3 DUP3 MSTORE PUSH1 0x20 DUP3 ADD SWAP1 POP SWAP3 SWAP2 POP POP JUMP JUMPDEST PUSH0 DUP2 SWAP1 POP PUSH1 0x20 DUP3 ADD SWAP1 POP SWAP2 SWAP1 POP JUMP JUMPDEST PUSH2 0x2B9E DUP2 PUSH2 0x28A9 JUMP JUMPDEST DUP3 MSTORE POP POP JUMP JUMPDEST PUSH0 PUSH2 0x2BAF DUP4 DUP4 PUSH2 0x2B95 JUMP JUMPDEST PUSH1 0x20 DUP4 ADD SWAP1 POP SWAP3 SWAP2 POP POP JUMP JUMPDEST PUSH0 PUSH1 0x20 DUP3 ADD SWAP1 POP SWAP2 SWAP1 POP JUMP JUMPDEST PUSH0 PUSH2 0x2BD1 DUP3 PUSH2 0x2B6C JUMP JUMPDEST PUSH2 0x2BDB DUP2 DUP6 PUSH2 0x2B76 JUMP JUMPDEST SWAP4 POP PUSH2 0x2BE6 DUP4 PUSH2 0x2B86 JUMP JUMPDEST DUP1 PUSH0 JUMPDEST DUP4 DUP2 LT ISZERO PUSH2 0x2C16 JUMPI DUP2 MLOAD PUSH2 0x2BFD DUP9 DUP3 PUSH2 0x2BA4 JUMP JUMPDEST SWAP8 POP PUSH2 0x2C08 DUP4 PUSH2 0x2BBB JUMP JUMPDEST SWAP3 POP POP PUSH1 0x1 DUP2 ADD SWAP1 POP PUSH2 0x2BE9 JUMP JUMPDEST POP DUP6 SWAP4 POP POP POP POP SWAP3 SWAP2 POP POP JUMP JUMPDEST PUSH0 PUSH1 0x40 DUP3 ADD SWAP1 POP DUP2 DUP2 SUB PUSH0 DUP4 ADD MSTORE PUSH2 0x2C3B DUP2 DUP6 PUSH2 0x2B10 JUMP JUMPDEST SWAP1 POP DUP2 DUP2 SUB PUSH1 0x20 DUP4 ADD MSTORE PUSH2 0x2C4F DUP2 DUP5 PUSH2 0x2BC7 JUMP JUMPDEST SWAP1 POP SWAP4 SWAP3 POP POP POP JUMP JUMPDEST PUSH0 PUSH8 0xFFFFFFFFFFFFFFFF DUP3 GT ISZERO PUSH2 0x2C72 JUMPI PUSH2 0x2C71 PUSH2 0x294A JUMP JUMPDEST JUMPDEST PUSH1 0x20 DUP3 MUL SWAP1 POP PUSH1 0x20 DUP2 ADD SWAP1 POP SWAP2 SWAP1 POP JUMP JUMPDEST PUSH0 DUP1 REVERT JUMPDEST PUSH0 PUSH2 0x2C99 PUSH2 0x2C94 DUP5 PUSH2 0x2C58 JUMP JUMPDEST PUSH2 0x29A8 JUMP JUMPDEST SWAP1 POP DUP1 DUP4 DUP3 MSTORE PUSH1 0x20 DUP3 ADD SWAP1 POP PUSH1 0x20 DUP5 MUL DUP4 ADD DUP6 DUP2 GT ISZERO PUSH2 0x2CBC JUMPI PUSH2 0x2CBB PUSH2 0x2C83 JUMP JUMPDEST JUMPDEST DUP4 JUMPDEST DUP2 DUP2 LT ISZERO PUSH2 0x2D03 JUMPI DUP1 CALLDATALOAD PUSH8 0xFFFFFFFFFFFFFFFF DUP2 GT ISZERO PUSH2 0x2CE1 JUMPI PUSH2 0x2CE0 PUSH2 0x2942 JUMP JUMPDEST JUMPDEST DUP1 DUP7 ADD PUSH2 0x2CEE DUP10 DUP3 PUSH2 0x2A41 JUMP JUMPDEST DUP6 MSTORE PUSH1 0x20 DUP6 ADD SWAP5 POP POP POP PUSH1 0x20 DUP2 ADD SWAP1 POP PUSH2 0x2CBE JUMP JUMPDEST POP POP POP SWAP4 SWAP3 POP POP POP JUMP JUMPDEST PUSH0 DUP3 PUSH1 0x1F DUP4 ADD SLT PUSH2 0x2D21 JUMPI PUSH2 0x2D20 PUSH2 0x2942 JUMP JUMPDEST JUMPDEST DUP2 CALLDATALOAD PUSH2 0x2D31 DUP5 DUP3 PUSH1 0x20 DUP7 ADD PUSH2 0x2C87 JUMP JUMPDEST SWAP2 POP POP SWAP3 SWAP2 POP POP JUMP JUMPDEST PUSH0 PUSH8 0xFFFFFFFFFFFFFFFF DUP3 GT ISZERO PUSH2 0x2D54 JUMPI PUSH2 0x2D53 PUSH2 0x294A JUMP JUMPDEST JUMPDEST PUSH1 0x20 DUP3 MUL SWAP1 POP PUSH1 0x20 DUP2 ADD SWAP1 POP SWAP2 SWAP1 POP JUMP JUMPDEST PUSH0 PUSH20 0xFFFFFFFFFFFFFFFFFFFFFFFFFFFFFFFFFFFFFFFF DUP3 AND SWAP1 POP SWAP2 SWAP1 POP JUMP JUMPDEST PUSH0 PUSH2 0x2D8E DUP3 PUSH2 0x2D65 JUMP JUMPDEST SWAP1 POP SWAP2 SWAP1 POP JUMP JUMPDEST PUSH2 0x2D9E DUP2 PUSH2 0x2D84 JUMP JUMPDEST DUP2 EQ PUSH2 0x2DA8 JUMPI PUSH0 DUP1 REVERT JUMPDEST POP JUMP JUMPDEST PUSH0 DUP2 CALLDATALOAD SWAP1 POP PUSH2 0x2DB9 DUP2 PUSH2 0x2D95 JUMP JUMPDEST SWAP3 SWAP2 POP POP JUMP JUMPDEST PUSH0 PUSH2 0x2DD1 PUSH2 0x2DCC DUP5 PUSH2 0x2D3A JUMP JUMPDEST PUSH2 0x29A8 JUMP JUMPDEST SWAP1 POP DUP1 DUP4 DUP3 MSTORE PUSH1 0x20 DUP3 ADD SWAP1 POP PUSH1 0x20 DUP5 MUL DUP4 ADD DUP6 DUP2 GT ISZERO PUSH2 0x2DF4 JUMPI PUSH2 0x2DF3 PUSH2 0x2C83 JUMP JUMPDEST JUMPDEST DUP4 JUMPDEST DUP2 DUP2 LT ISZERO PUSH2 0x2E1D JUMPI DUP1 PUSH2 0x2E09 DUP9 DUP3 PUSH2 0x2DAB JUMP JUMPDEST DUP5 MSTORE PUSH1 0x20 DUP5 ADD SWAP4 POP POP PUSH1 0x20 DUP2 ADD SWAP1 POP PUSH2 0x2DF6 JUMP JUMPDEST POP POP POP SWAP4 SWAP3 POP POP POP JUMP JUMPDEST PUSH0 DUP3 PUSH1 0x1F DUP4 ADD SLT PUSH2 0x2E3B JUMPI PUSH2 0x2E3A PUSH2 0x2942 JUMP JUMPDEST JUMPDEST DUP2 CALLDATALOAD PUSH2 0x2E4B DUP5 DUP3 PUSH1 0x20 DUP7 ADD PUSH2 0x2DBF JUMP JUMPDEST SWAP2 POP POP SWAP3 SWAP2 POP POP JUMP JUMPDEST PUSH0 DUP1 PUSH0 PUSH1 0x60 DUP5 DUP7 SUB SLT ISZERO PUSH2 0x2E6B JUMPI PUSH2 0x2E6A PUSH2 0x286E JUMP JUMPDEST JUMPDEST PUSH0 DUP5 ADD CALLDATALOAD PUSH8 0xFFFFFFFFFFFFFFFF DUP2 GT ISZERO PUSH2 0x2E88 JUMPI PUSH2 0x2E87 PUSH2 0x2872 JUMP JUMPDEST JUMPDEST PUSH2 0x2E94 DUP7 DUP3 DUP8 ADD PUSH2 0x2A41 JUMP JUMPDEST SWAP4 POP POP PUSH1 0x20 DUP5 ADD CALLDATALOAD PUSH8 0xFFFFFFFFFFFFFFFF DUP2 GT ISZERO PUSH2 0x2EB5 JUMPI PUSH2 0x2EB4 PUSH2 0x2872 JUMP JUMPDEST JUMPDEST PUSH2 0x2EC1 DUP7 DUP3 DUP8 ADD PUSH2 0x2D0D JUMP JUMPDEST SWAP3 POP POP PUSH1 0x40 DUP5 ADD CALLDATALOAD PUSH8 0xFFFFFFFFFFFFFFFF DUP2 GT ISZERO PUSH2 0x2EE2 JUMPI PUSH2 0x2EE1 PUSH2 0x2872 JUMP JUMPDEST JUMPDEST PUSH2 0x2EEE DUP7 DUP3 DUP8 ADD PUSH2 0x2E27 JUMP JUMPDEST SWAP2 POP POP SWAP3 POP SWAP3 POP SWAP3 JUMP JUMPDEST PUSH0 PUSH1 0x20 DUP3 ADD SWAP1 POP DUP2 DUP2 SUB PUSH0 DUP4 ADD MSTORE PUSH2 0x2F10 DUP2 DUP5 PUSH2 0x2B10 JUMP JUMPDEST SWAP1 POP SWAP3 SWAP2 POP POP JUMP JUMPDEST PUSH0 DUP1 PUSH1 0x40 DUP4 DUP6 SUB SLT ISZERO PUSH2 0x2F2E JUMPI PUSH2 0x2F2D PUSH2 0x286E JUMP JUMPDEST JUMPDEST PUSH0 PUSH2 0x2F3B DUP6 DUP3 DUP7 ADD PUSH2 0x2895 JUMP JUMPDEST SWAP3 POP POP PUSH1 0x20 PUSH2 0x2F4C DUP6 DUP3 DUP7 ADD PUSH2 0x2895 JUMP JUMPDEST SWAP2 POP POP SWAP3 POP SWAP3 SWAP1 POP JUMP JUMPDEST PUSH2 0x2F5F DUP2 PUSH2 0x2D84 JUMP JUMPDEST DUP3 MSTORE POP POP JUMP JUMPDEST PUSH2 0x2F6E DUP2 PUSH2 0x28A9 JUMP JUMPDEST DUP3 MSTORE POP POP JUMP JUMPDEST PUSH0 PUSH1 0x60 DUP3 ADD SWAP1 POP PUSH2 0x2F87 PUSH0 DUP4 ADD DUP7 PUSH2 0x291A JUMP JUMPDEST PUSH2 0x2F94 PUSH1 0x20 DUP4 ADD DUP6 PUSH2 0x2F56 JUMP JUMPDEST PUSH2 0x2FA1 PUSH1 0x40 DUP4 ADD DUP5 PUSH2 0x2F65 JUMP JUMPDEST SWAP5 SWAP4 POP POP POP POP JUMP JUMPDEST PUSH0 PUSH1 0x20 DUP3 DUP5 SUB SLT ISZERO PUSH2 0x2FBE JUMPI PUSH2 0x2FBD PUSH2 0x286E JUMP JUMPDEST JUMPDEST PUSH0 PUSH2 0x2FCB DUP5 DUP3 DUP6 ADD PUSH2 0x28C8 JUMP JUMPDEST SWAP2 POP POP SWAP3 SWAP2 POP POP JUMP JUMPDEST PUSH0 PUSH1 0x60 DUP3 ADD SWAP1 POP PUSH2 0x2FE7 PUSH0 DUP4 ADD DUP7 PUSH2 0x2F56 JUMP JUMPDEST PUSH2 0x2FF4 PUSH1 0x20 DUP4 ADD DUP6 PUSH2 0x291A JUMP JUMPDEST PUSH2 0x3001 PUSH1 0x40 DUP4 ADD DUP5 PUSH2 0x2F65 JUMP JUMPDEST SWAP5 SWAP4 POP POP POP POP JUMP JUMPDEST PUSH0 DUP3 DUP3 MSTORE PUSH1 0x20 DUP3 ADD SWAP1 POP SWAP3 SWAP2 POP POP JUMP JUMPDEST PUSH0 PUSH2 0x3023 DUP3 PUSH2 0x2743 JUMP JUMPDEST PUSH2 0x302D DUP2 DUP6 PUSH2 0x3009 JUMP JUMPDEST SWAP4 POP PUSH2 0x303D DUP2 DUP6 PUSH1 0x20 DUP7 ADD PUSH2 0x275D JUMP JUMPDEST PUSH2 0x3046 DUP2 PUSH2 0x276B JUMP JUMPDEST DUP5 ADD SWAP2 POP POP SWAP3 SWAP2 POP POP JUMP JUMPDEST PUSH0 PUSH1 0xFF DUP3 AND SWAP1 POP SWAP2 SWAP1 POP JUMP JUMPDEST PUSH2 0x3066 DUP2 PUSH2 0x3051 JUMP JUMPDEST DUP3 MSTORE POP POP JUMP JUMPDEST PUSH0 DUP2 MLOAD SWAP1 POP SWAP2 SWAP1 POP JUMP JUMPDEST PUSH0 DUP3 DUP3 MSTORE PUSH1 0x20 DUP3 ADD SWAP1 POP SWAP3 SWAP2 POP POP JUMP JUMPDEST PUSH0 DUP2 SWAP1 POP PUSH1 0x20 DUP3 ADD SWAP1 POP SWAP2 SWAP1 POP JUMP JUMPDEST PUSH2 0x309E DUP2 PUSH2 0x2D84 JUMP JUMPDEST DUP3 MSTORE POP POP JUMP JUMPDEST PUSH0 PUSH2 0x30AF DUP4 DUP4 PUSH2 0x3095 JUMP JUMPDEST PUSH1 0x20 DUP4 ADD SWAP1 POP SWAP3 SWAP2 POP POP JUMP JUMPDEST PUSH0 PUSH1 0x20 DUP3 ADD SWAP1 POP SWAP2 SWAP1 POP JUMP JUMPDEST PUSH0 PUSH2 0x30D1 DUP3 PUSH2 0x306C JUMP JUMPDEST PUSH2 0x30DB DUP2 DUP6 PUSH2 0x3076 JUMP JUMPDEST SWAP4 POP PUSH2 0x30E6 DUP4 PUSH2 0x3086 JUMP JUMPDEST DUP1 PUSH0 JUMPDEST DUP4 DUP2 LT ISZERO PUSH2 0x3116 JUMPI DUP2 MLOAD PUSH2 0x30FD DUP9 DUP3 PUSH2 0x30A4 JUMP JUMPDEST SWAP8 POP PUSH2 0x3108 DUP4 PUSH2 0x30BB JUMP JUMPDEST SWAP3 POP POP PUSH1 0x1 DUP2 ADD SWAP1 POP PUSH2 0x30E9 JUMP JUMPDEST POP DUP6 SWAP4 POP POP POP POP SWAP3 SWAP2 POP POP JUMP JUMPDEST PUSH0 PUSH2 0x100 DUP3 ADD SWAP1 POP DUP2 DUP2 SUB PUSH0 DUP4 ADD MSTORE PUSH2 0x313C DUP2 DUP12 PUSH2 0x3019 JUMP JUMPDEST SWAP1 POP DUP2 DUP2 SUB PUSH1 0x20 DUP4 ADD MSTORE PUSH2 0x3150 DUP2 DUP11 PUSH2 0x3019 JUMP JUMPDEST SWAP1 POP PUSH2 0x315F PUSH1 0x40 DUP4 ADD DUP10 PUSH2 0x2F65 JUMP JUMPDEST PUSH2 0x316C PUSH1 0x60 DUP4 ADD DUP9 PUSH2 0x2F65 JUMP JUMPDEST PUSH2 0x3179 PUSH1 0x80 DUP4 ADD DUP8 PUSH2 0x2F56 JUMP JUMPDEST PUSH2 0x3186 PUSH1 0xA0 DUP4 ADD DUP7 PUSH2 0x305D JUMP JUMPDEST DUP2 DUP2 SUB PUSH1 0xC0 DUP4 ADD MSTORE PUSH2 0x3198 DUP2 DUP6 PUSH2 0x30C7 JUMP JUMPDEST SWAP1 POP DUP2 DUP2 SUB PUSH1 0xE0 DUP4 ADD MSTORE PUSH2 0x31AC DUP2 DUP5 PUSH2 0x30C7 JUMP JUMPDEST SWAP1 POP SWAP10 SWAP9 POP POP POP POP POP POP POP POP POP JUMP JUMPDEST PUSH0 PUSH1 0x20 DUP3 DUP5 SUB SLT ISZERO PUSH2 0x31D0 JUMPI PUSH2 0x31CF PUSH2 0x286E JUMP JUMPDEST JUMPDEST PUSH0 PUSH2 0x31DD DUP5 DUP3 DUP6 ADD PUSH2 0x2DAB JUMP JUMPDEST SWAP2 POP POP SWAP3 SWAP2 POP POP JUMP JUMPDEST PUSH2 0x31EF DUP2 PUSH2 0x3051 JUMP JUMPDEST DUP2 EQ PUSH2 0x31F9 JUMPI PUSH0 DUP1 REVERT JUMPDEST POP JUMP JUMPDEST PUSH0 DUP2 CALLDATALOAD SWAP1 POP PUSH2 0x320A DUP2 PUSH2 0x31E6 JUMP JUMPDEST SWAP3 SWAP2 POP POP JUMP JUMPDEST PUSH0 DUP1 PUSH0 DUP1 PUSH0 PUSH1 0xA0 DUP7 DUP9 SUB SLT ISZERO PUSH2 0x3229 JUMPI PUSH2 0x3228 PUSH2 0x286E JUMP JUMPDEST JUMPDEST PUSH0 DUP7 ADD CALLDATALOAD PUSH8 0xFFFFFFFFFFFFFFFF DUP2 GT ISZERO PUSH2 0x3246 JUMPI PUSH2 0x3245 PUSH2 0x2872 JUMP JUMPDEST JUMPDEST PUSH2 0x3252 DUP9 DUP3 DUP10 ADD PUSH2 0x2A41 JUMP JUMPDEST SWAP6 POP POP PUSH1 0x20 DUP7 ADD CALLDATALOAD PUSH8 0xFFFFFFFFFFFFFFFF DUP2 GT ISZERO PUSH2 0x3273 JUMPI PUSH2 0x3272 PUSH2 0x2872 JUMP JUMPDEST JUMPDEST PUSH2 0x327F DUP9 DUP3 DUP10 ADD PUSH2 0x2A41 JUMP JUMPDEST SWAP5 POP POP PUSH1 0x40 PUSH2 0x3290 DUP9 DUP3 DUP10 ADD PUSH2 0x28C8 JUMP JUMPDEST SWAP4 POP POP PUSH1 0x60 PUSH2 0x32A1 DUP9 DUP3 DUP10 ADD PUSH2 0x28C8 JUMP JUMPDEST SWAP3 POP POP PUSH1 0x80 PUSH2 0x32B2 DUP9 DUP3 DUP10 ADD PUSH2 0x31FC JUMP JUMPDEST SWAP2 POP POP SWAP3 SWAP6 POP SWAP3 SWAP6 SWAP1 SWAP4 POP JUMP JUMPDEST PUSH0 DUP1 PUSH1 0x40 DUP4 DUP6 SUB SLT ISZERO PUSH2 0x32D5 JUMPI PUSH2 0x32D4 PUSH2 0x286E JUMP JUMPDEST JUMPDEST PUSH0 DUP4 ADD CALLDATALOAD PUSH8 0xFFFFFFFFFFFFFFFF DUP2 GT ISZERO PUSH2 0x32F2 JUMPI PUSH2 0x32F1 PUSH2 0x2872 JUMP JUMPDEST JUMPDEST PUSH2 0x32FE DUP6 DUP3 DUP7 ADD PUSH2 0x2A41 JUMP JUMPDEST SWAP3 POP POP PUSH1 0x20 DUP4 ADD CALLDATALOAD PUSH8 0xFFFFFFFFFFFFFFFF DUP2 GT ISZERO PUSH2 0x331F JUMPI PUSH2 0x331E PUSH2 0x2872 JUMP JUMPDEST JUMPDEST PUSH2 0x332B DUP6 DUP3 DUP7 ADD PUSH2 0x2A41 JUMP JUMPDEST SWAP2 POP POP SWAP3 POP SWAP3 SWAP1 POP JUMP JUMPDEST PUSH0 PUSH1 0x40 DUP3 ADD SWAP1 POP PUSH2 0x3348 PUSH0 DUP4 ADD DUP6 PUSH2 0x2F56 JUMP JUMPDEST PUSH2 0x3355 PUSH1 0x20 DUP4 ADD DUP5 PUSH2 0x2F65 JUMP JUMPDEST SWAP4 SWAP3 POP POP POP JUMP JUMPDEST PUSH0 DUP1 PUSH1 0x40 DUP4 DUP6 SUB SLT ISZERO PUSH2 0x3372 JUMPI PUSH2 0x3371 PUSH2 0x286E JUMP JUMPDEST JUMPDEST PUSH0 PUSH2 0x337F DUP6 DUP3 DUP7 ADD PUSH2 0x2895 JUMP JUMPDEST SWAP3 POP POP PUSH1 0x20 PUSH2 0x3390 DUP6 DUP3 DUP7 ADD PUSH2 0x2DAB JUMP JUMPDEST SWAP2 POP POP SWAP3 POP SWAP3 SWAP1 POP JUMP JUMPDEST PUSH0 DUP2 ISZERO ISZERO SWAP1 POP SWAP2 SWAP1 POP JUMP JUMPDEST PUSH2 0x33AE DUP2 PUSH2 0x339A JUMP JUMPDEST DUP3 MSTORE POP POP JUMP JUMPDEST PUSH0 PUSH1 0x20 DUP3 ADD SWAP1 POP PUSH2 0x33C7 PUSH0 DUP4 ADD DUP5 PUSH2 0x33A5 JUMP JUMPDEST SWAP3 SWAP2 POP POP JUMP JUMPDEST PUSH0 DUP1 PUSH0 DUP1 PUSH1 0x80 DUP6 DUP8 SUB SLT ISZERO PUSH2 0x33E5 JUMPI PUSH2 0x33E4 PUSH2 0x286E JUMP JUMPDEST JUMPDEST PUSH0 DUP6 ADD CALLDATALOAD PUSH8 0xFFFFFFFFFFFFFFFF DUP2 GT ISZERO PUSH2 0x3402 JUMPI PUSH2 0x3401 PUSH2 0x2872 JUMP JUMPDEST JUMPDEST PUSH2 0x340E DUP8 DUP3 DUP9 ADD PUSH2 0x2A41 JUMP JUMPDEST SWAP5 POP POP PUSH1 0x20 DUP6 ADD CALLDATALOAD PUSH8 0xFFFFFFFFFFFFFFFF DUP2 GT ISZERO PUSH2 0x342F JUMPI PUSH2 0x342E PUSH2 0x2872 JUMP JUMPDEST JUMPDEST PUSH2 0x343B DUP8 DUP3 DUP9 ADD PUSH2 0x2A41 JUMP JUMPDEST SWAP4 POP POP PUSH1 0x40 PUSH2 0x344C DUP8 DUP3 DUP9 ADD PUSH2 0x28C8 JUMP JUMPDEST SWAP3 POP POP PUSH1 0x60 PUSH2 0x345D DUP8 DUP3 DUP9 ADD PUSH2 0x28C8 JUMP JUMPDEST SWAP2 POP POP SWAP3 SWAP6 SWAP2 SWAP5 POP SWAP3 POP JUMP JUMPDEST PUSH0 PUSH1 0x20 DUP3 ADD SWAP1 POP PUSH2 0x347C PUSH0 DUP4 ADD DUP5 PUSH2 0x2F65 JUMP JUMPDEST SWAP3 SWAP2 POP POP JUMP JUMPDEST PUSH0 PUSH1 0x20 DUP3 DUP5 SUB SLT ISZERO PUSH2 0x3497 JUMPI PUSH2 0x3496 PUSH2 0x286E JUMP JUMPDEST JUMPDEST PUSH0 PUSH2 0x34A4 DUP5 DUP3 DUP6 ADD PUSH2 0x2895 JUMP JUMPDEST SWAP2 POP POP SWAP3 SWAP2 POP POP JUMP JUMPDEST PUSH0 PUSH1 0xC0 DUP3 ADD SWAP1 POP PUSH2 0x34C0 PUSH0 DUP4 ADD DUP10 PUSH2 0x291A JUMP JUMPDEST DUP2 DUP2 SUB PUSH1 0x20 DUP4 ADD MSTORE PUSH2 0x34D2 DUP2 DUP9 PUSH2 0x3019 JUMP JUMPDEST SWAP1 POP PUSH2 0x34E1 PUSH1 0x40 DUP4 ADD DUP8 PUSH2 0x2F65 JUMP JUMPDEST PUSH2 0x34EE PUSH1 0x60 DUP4 ADD DUP7 PUSH2 0x2F65 JUMP JUMPDEST PUSH2 0x34FB PUSH1 0x80 DUP4 ADD DUP6 PUSH2 0x2F56 JUMP JUMPDEST PUSH2 0x3508 PUSH1 0xA0 DUP4 ADD DUP5 PUSH2 0x305D JUMP JUMPDEST SWAP8 SWAP7 POP POP POP POP POP POP POP JUMP JUMPDEST PUSH0 PUSH1 0x20 DUP3 ADD SWAP1 POP PUSH2 0x3526 PUSH0 DUP4 ADD DUP5 PUSH2 0x2F56 JUMP JUMPDEST SWAP3 SWAP2 POP POP JUMP JUMPDEST PUSH0 DUP1 PUSH1 0x40 DUP4 DUP6 SUB SLT ISZERO PUSH2 0x3542 JUMPI PUSH2 0x3541 PUSH2 0x286E JUMP JUMPDEST JUMPDEST PUSH0 DUP4 ADD CALLDATALOAD PUSH8 0xFFFFFFFFFFFFFFFF DUP2 GT ISZERO PUSH2 0x355F JUMPI PUSH2 0x355E PUSH2 0x2872 JUMP JUMPDEST JUMPDEST PUSH2 0x356B DUP6 DUP3 DUP7 ADD PUSH2 0x2A41 JUMP JUMPDEST SWAP3 POP POP PUSH1 0x20 PUSH2 0x357C DUP6 DUP3 DUP7 ADD PUSH2 0x2DAB JUMP JUMPDEST SWAP2 POP POP SWAP3 POP SWAP3 SWAP1 POP JUMP JUMPDEST PUSH32 0x4E487B7100000000000000000000000000000000000000000000000000000000 PUSH0 MSTORE PUSH1 0x32 PUSH1 0x4 MSTORE PUSH1 0x24 PUSH0 REVERT JUMPDEST PUSH32 0x566F74696E67206576656E7420646F6573206E6F742065786973740000000000 PUSH0 DUP3 ADD MSTORE POP JUMP JUMPDEST PUSH0 PUSH2 0x35E7 PUSH1 0x1B DUP4 PUSH2 0x3009 JUMP JUMPDEST SWAP2 POP PUSH2 0x35F2 DUP3 PUSH2 0x35B3 JUMP JUMPDEST PUSH1 0x20 DUP3 ADD SWAP1 POP SWAP2 SWAP1 POP JUMP JUMPDEST PUSH0 PUSH1 0x20 DUP3 ADD SWAP1 POP DUP2 DUP2 SUB PUSH0 DUP4 ADD MSTORE PUSH2 0x3614 DUP2 PUSH2 0x35DB JUMP JUMPDEST SWAP1 POP SWAP2 SWAP1 POP JUMP JUMPDEST PUSH32 0x4F6E6C79206576656E742063726561746F722063616E206164642063616E6469 PUSH0 DUP3 ADD MSTORE PUSH32 0x6461746500000000000000000000000000000000000000000000000000000000 PUSH1 0x20 DUP3 ADD MSTORE POP JUMP JUMPDEST PUSH0 PUSH2 0x3675 PUSH1 0x24 DUP4 PUSH2 0x3009 JUMP JUMPDEST SWAP2 POP PUSH2 0x3680 DUP3 PUSH2 0x361B JUMP JUMPDEST PUSH1 0x40 DUP3 ADD SWAP1 POP SWAP2 SWAP1 POP JUMP JUMPDEST PUSH0 PUSH1 0x20 DUP3 ADD SWAP1 POP DUP2 DUP2 SUB PUSH0 DUP4 ADD MSTORE PUSH2 0x36A2 DUP2 PUSH2 0x3669 JUMP JUMPDEST SWAP1 POP SWAP2 SWAP1 POP JUMP JUMPDEST PUSH32 0x4576656E7420616C726561647920737461727465642C2063616E6E6F74206164 PUSH0 DUP3 ADD MSTORE PUSH32 0x642063616E646964617465000000000000000000000000000000000000000000 PUSH1 0x20 DUP3 ADD MSTORE POP JUMP JUMPDEST PUSH0 PUSH2 0x3703 PUSH1 0x2B DUP4 PUSH2 0x3009 JUMP JUMPDEST SWAP2 POP PUSH2 0x370E DUP3 PUSH2 0x36A9 JUMP JUMPDEST PUSH1 0x40 DUP3 ADD SWAP1 POP SWAP2 SWAP1 POP JUMP JUMPDEST PUSH0 PUSH1 0x20 DUP3 ADD SWAP1 POP DUP2 DUP2 SUB PUSH0 DUP4 ADD MSTORE PUSH2 0x3730 DUP2 PUSH2 0x36F7 JUMP JUMPDEST SWAP1 POP SWAP2 SWAP1 POP JUMP JUMPDEST PUSH32 0x43616E6469646174652049447320616E642077616C6C65742061646472657373 PUSH0 DUP3 ADD MSTORE PUSH32 0x657320636F756E74206D69736D61746368000000000000000000000000000000 PUSH1 0x20 DUP3 ADD MSTORE POP JUMP JUMPDEST PUSH0 PUSH2 0x3791 PUSH1 0x31 DUP4 PUSH2 0x3009 JUMP JUMPDEST SWAP2 POP PUSH2 0x379C DUP3 PUSH2 0x3737 JUMP JUMPDEST PUSH1 0x40 DUP3 ADD SWAP1 POP SWAP2 SWAP1 POP JUMP JUMPDEST PUSH0 PUSH1 0x20 DUP3 ADD SWAP1 POP DUP2 DUP2 SUB PUSH0 DUP4 ADD MSTORE PUSH2 0x37BE DUP2 PUSH2 0x3785 JUMP JUMPDEST SWAP1 POP SWAP2 SWAP1 POP JUMP JUMPDEST PUSH32 0x4E6F2063616E646964617465732070726F766964656400000000000000000000 PUSH0 DUP3 ADD MSTORE POP JUMP JUMPDEST PUSH0 PUSH2 0x37F9 PUSH1 0x16 DUP4 PUSH2 0x3009 JUMP JUMPDEST SWAP2 POP PUSH2 0x3804 DUP3 PUSH2 0x37C5 JUMP JUMPDEST PUSH1 0x20 DUP3 ADD SWAP1 POP SWAP2 SWAP1 POP JUMP JUMPDEST PUSH0 PUSH1 0x20 DUP3 ADD SWAP1 POP DUP2 DUP2 SUB PUSH0 DUP4 ADD MSTORE PUSH2 0x3826 DUP2 PUSH2 0x37ED JUMP JUMPDEST SWAP1 POP SWAP2 SWAP1 POP JUMP JUMPDEST PUSH32 0x496E76616C69642077616C6C6574206164647265737300000000000000000000 PUSH0 DUP3 ADD MSTORE POP JUMP JUMPDEST PUSH0 PUSH2 0x3861 PUSH1 0x16 DUP4 PUSH2 0x3009 JUMP JUMPDEST SWAP2 POP PUSH2 0x386C DUP3 PUSH2 0x382D JUMP JUMPDEST PUSH1 0x20 DUP3 ADD SWAP1 POP SWAP2 SWAP1 POP JUMP JUMPDEST PUSH0 PUSH1 0x20 DUP3 ADD SWAP1 POP DUP2 DUP2 SUB PUSH0 DUP4 ADD MSTORE PUSH2 0x388E DUP2 PUSH2 0x3855 JUMP JUMPDEST SWAP1 POP SWAP2 SWAP1 POP JUMP JUMPDEST PUSH32 0x496E76616C69642063616E646964617465204944000000000000000000000000 PUSH0 DUP3 ADD MSTORE POP JUMP JUMPDEST PUSH0 PUSH2 0x38C9 PUSH1 0x14 DUP4 PUSH2 0x3009 JUMP JUMPDEST SWAP2 POP PUSH2 0x38D4 DUP3 PUSH2 0x3895 JUMP JUMPDEST PUSH1 0x20 DUP3 ADD SWAP1 POP SWAP2 SWAP1 POP JUMP JUMPDEST PUSH0 PUSH1 0x20 DUP3 ADD SWAP1 POP DUP2 DUP2 SUB PUSH0 DUP4 ADD MSTORE PUSH2 0x38F6 DUP2 PUSH2 0x38BD JUMP JUMPDEST SWAP1 POP SWAP2 SWAP1 POP JUMP JUMPDEST PUSH32 0x43616E64696461746520616C7265616479206578697374730000000000000000 PUSH0 DUP3 ADD MSTORE POP JUMP JUMPDEST PUSH0 PUSH2 0x3931 PUSH1 0x18 DUP4 PUSH2 0x3009 JUMP JUMPDEST SWAP2 POP PUSH2 0x393C DUP3 PUSH2 0x38FD JUMP JUMPDEST PUSH1 0x20 DUP3 ADD SWAP1 POP SWAP2 SWAP1 POP JUMP JUMPDEST PUSH0 PUSH1 0x20 DUP3 ADD SWAP1 POP DUP2 DUP2 SUB PUSH0 DUP4 ADD MSTORE PUSH2 0x395E DUP2 PUSH2 0x3925 JUMP JUMPDEST SWAP1 POP SWAP2 SWAP1 POP JUMP JUMPDEST PUSH32 0x566F74696E67206576656E742063726561746F7220616E642061646D696E2063 PUSH0 DUP3 ADD MSTORE PUSH32 0x616E6E6F7420706172746963697061746520696E20746865206576656E740000 PUSH1 0x20 DUP3 ADD MSTORE POP JUMP JUMPDEST PUSH0 PUSH2 0x39BF PUSH1 0x3E DUP4 PUSH2 0x3009 JUMP JUMPDEST SWAP2 POP PUSH2 0x39CA DUP3 PUSH2 0x3965 JUMP JUMPDEST PUSH1 0x40 DUP3 ADD SWAP1 POP SWAP2 SWAP1 POP JUMP JUMPDEST PUSH0 PUSH1 0x20 DUP3 ADD SWAP1 POP DUP2 DUP2 SUB PUSH0 DUP4 ADD MSTORE PUSH2 0x39EC DUP2 PUSH2 0x39B3 JUMP JUMPDEST SWAP1 POP SWAP2 SWAP1 POP JUMP JUMPDEST PUSH32 0x4F6E6C79206576656E742063726561746F722063616E2072656D6F7665000000 PUSH0 DUP3 ADD MSTORE POP JUMP JUMPDEST PUSH0 PUSH2 0x3A27 PUSH1 0x1D DUP4 PUSH2 0x3009 JUMP JUMPDEST SWAP2 POP PUSH2 0x3A32 DUP3 PUSH2 0x39F3 JUMP JUMPDEST PUSH1 0x20 DUP3 ADD SWAP1 POP SWAP2 SWAP1 POP JUMP JUMPDEST PUSH0 PUSH1 0x20 DUP3 ADD SWAP1 POP DUP2 DUP2 SUB PUSH0 DUP4 ADD MSTORE PUSH2 0x3A54 DUP2 PUSH2 0x3A1B JUMP JUMPDEST SWAP1 POP SWAP2 SWAP1 POP JUMP JUMPDEST PUSH32 0x4576656E7420616C726561647920737461727465642C2063616E6E6F74207265 PUSH0 DUP3 ADD MSTORE PUSH32 0x6D6F766500000000000000000000000000000000000000000000000000000000 PUSH1 0x20 DUP3 ADD MSTORE POP JUMP JUMPDEST PUSH0 PUSH2 0x3AB5 PUSH1 0x24 DUP4 PUSH2 0x3009 JUMP JUMPDEST SWAP2 POP PUSH2 0x3AC0 DUP3 PUSH2 0x3A5B JUMP JUMPDEST PUSH1 0x40 DUP3 ADD SWAP1 POP SWAP2 SWAP1 POP JUMP JUMPDEST PUSH0 PUSH1 0x20 DUP3 ADD SWAP1 POP DUP2 DUP2 SUB PUSH0 DUP4 ADD MSTORE PUSH2 0x3AE2 DUP2 PUSH2 0x3AA9 JUMP JUMPDEST SWAP1 POP SWAP2 SWAP1 POP JUMP JUMPDEST PUSH32 0x4E487B7100000000000000000000000000000000000000000000000000000000 PUSH0 MSTORE PUSH1 0x22 PUSH1 0x4 MSTORE PUSH1 0x24 PUSH0 REVERT JUMPDEST PUSH0 PUSH1 0x2 DUP3 DIV SWAP1 POP PUSH1 0x1 DUP3 AND DUP1 PUSH2 0x3B2D JUMPI PUSH1 0x7F DUP3 AND SWAP2 POP JUMPDEST PUSH1 0x20 DUP3 LT DUP2 SUB PUSH2 0x3B40 JUMPI PUSH2 0x3B3F PUSH2 0x3AE9 JUMP JUMPDEST JUMPDEST POP SWAP2 SWAP1 POP JUMP JUMPDEST PUSH32 0x4F6E6C79206576656E742063726561746F722063616E20757064617465000000 PUSH0 DUP3 ADD MSTORE POP JUMP JUMPDEST PUSH0 PUSH2 0x3B7A PUSH1 0x1D DUP4 PUSH2 0x3009 JUMP JUMPDEST SWAP2 POP PUSH2 0x3B85 DUP3 PUSH2 0x3B46 JUMP JUMPDEST PUSH1 0x20 DUP3 ADD SWAP1 POP SWAP2 SWAP1 POP JUMP JUMPDEST PUSH0 PUSH1 0x20 DUP3 ADD SWAP1 POP DUP2 DUP2 SUB PUSH0 DUP4 ADD MSTORE PUSH2 0x3BA7 DUP2 PUSH2 0x3B6E JUMP JUMPDEST SWAP1 POP SWAP2 SWAP1 POP JUMP JUMPDEST PUSH32 0x4576656E7420616C726561647920737461727465642C2063616E6E6F74207570 PUSH0 DUP3 ADD MSTORE PUSH32 0x6461746500000000000000000000000000000000000000000000000000000000 PUSH1 0x20 DUP3 ADD MSTORE POP JUMP JUMPDEST PUSH0 PUSH2 0x3C08 PUSH1 0x24 DUP4 PUSH2 0x3009 JUMP JUMPDEST SWAP2 POP PUSH2 0x3C13 DUP3 PUSH2 0x3BAE JUMP JUMPDEST PUSH1 0x40 DUP3 ADD SWAP1 POP SWAP2 SWAP1 POP JUMP JUMPDEST PUSH0 PUSH1 0x20 DUP3 ADD SWAP1 POP DUP2 DUP2 SUB PUSH0 DUP4 ADD MSTORE PUSH2 0x3C35 DUP2 PUSH2 0x3BFC JUMP JUMPDEST SWAP1 POP SWAP2 SWAP1 POP JUMP JUMPDEST PUSH0 DUP2 SWAP1 POP DUP2 PUSH0 MSTORE PUSH1 0x20 PUSH0 KECCAK256 SWAP1 POP SWAP2 SWAP1 POP JUMP JUMPDEST PUSH0 PUSH1 0x20 PUSH1 0x1F DUP4 ADD DIV SWAP1 POP SWAP2 SWAP1 POP JUMP JUMPDEST PUSH0 DUP3 DUP3 SHL SWAP1 POP SWAP3 SWAP2 POP POP JUMP JUMPDEST PUSH0 PUSH1 0x8 DUP4 MUL PUSH2 0x3C98 PUSH32 0xFFFFFFFFFFFFFFFFFFFFFFFFFFFFFFFFFFFFFFFFFFFFFFFFFFFFFFFFFFFFFFFF DUP3 PUSH2 0x3C5D JUMP JUMPDEST PUSH2 0x3CA2 DUP7 DUP4 PUSH2 0x3C5D JUMP JUMPDEST SWAP6 POP DUP1 NOT DUP5 AND SWAP4 POP DUP1 DUP7 AND DUP5 OR SWAP3 POP POP POP SWAP4 SWAP3 POP POP POP JUMP JUMPDEST PUSH0 DUP2 SWAP1 POP SWAP2 SWAP1 POP JUMP JUMPDEST PUSH0 PUSH2 0x3CDD PUSH2 0x3CD8 PUSH2 0x3CD3 DUP5 PUSH2 0x28A9 JUMP JUMPDEST PUSH2 0x3CBA JUMP JUMPDEST PUSH2 0x28A9 JUMP JUMPDEST SWAP1 POP SWAP2 SWAP1 POP JUMP JUMPDEST PUSH0 DUP2 SWAP1 POP SWAP2 SWAP1 POP JUMP JUMPDEST PUSH2 0x3CF6 DUP4 PUSH2 0x3CC3 JUMP JUMPDEST PUSH2 0x3D0A PUSH2 0x3D02 DUP3 PUSH2 0x3CE4 JUMP JUMPDEST DUP5 DUP5 SLOAD PUSH2 0x3C69 JUMP JUMPDEST DUP3 SSTORE POP POP POP POP JUMP JUMPDEST PUSH0 SWAP1 JUMP JUMPDEST PUSH2 0x3D1E PUSH2 0x3D12 JUMP JUMPDEST PUSH2 0x3D29 DUP2 DUP5 DUP5 PUSH2 0x3CED JUMP JUMPDEST POP POP POP JUMP JUMPDEST JUMPDEST DUP2 DUP2 LT ISZERO PUSH2 0x3D4C JUMPI PUSH2 0x3D41 PUSH0 DUP3 PUSH2 0x3D16 JUMP JUMPDEST PUSH1 0x1 DUP2 ADD SWAP1 POP PUSH2 0x3D2F JUMP JUMPDEST POP POP JUMP JUMPDEST PUSH1 0x1F DUP3 GT ISZERO PUSH2 0x3D91 JUMPI PUSH2 0x3D62 DUP2 PUSH2 0x3C3C JUMP JUMPDEST PUSH2 0x3D6B DUP5 PUSH2 0x3C4E JUMP JUMPDEST DUP2 ADD PUSH1 0x20 DUP6 LT ISZERO PUSH2 0x3D7A JUMPI DUP2 SWAP1 POP JUMPDEST PUSH2 0x3D8E PUSH2 0x3D86 DUP6 PUSH2 0x3C4E JUMP JUMPDEST DUP4 ADD DUP3 PUSH2 0x3D2E JUMP JUMPDEST POP POP JUMPDEST POP POP POP JUMP JUMPDEST PUSH0 DUP3 DUP3 SHR SWAP1 POP SWAP3 SWAP2 POP POP JUMP JUMPDEST PUSH0 PUSH2 0x3DB1 PUSH0 NOT DUP5 PUSH1 0x8 MUL PUSH2 0x3D96 JUMP JUMPDEST NOT DUP1 DUP4 AND SWAP2 POP POP SWAP3 SWAP2 POP POP JUMP JUMPDEST PUSH0 PUSH2 0x3DC9 DUP4 DUP4 PUSH2 0x3DA2 JUMP JUMPDEST SWAP2 POP DUP3 PUSH1 0x2 MUL DUP3 OR SWAP1 POP SWAP3 SWAP2 POP POP JUMP JUMPDEST PUSH2 0x3DE2 DUP3 PUSH2 0x2743 JUMP JUMPDEST PUSH8 0xFFFFFFFFFFFFFFFF DUP2 GT ISZERO PUSH2 0x3DFB JUMPI PUSH2 0x3DFA PUSH2 0x294A JUMP JUMPDEST JUMPDEST PUSH2 0x3E05 DUP3 SLOAD PUSH2 0x3B16 JUMP JUMPDEST PUSH2 0x3E10 DUP3 DUP3 DUP6 PUSH2 0x3D50 JUMP JUMPDEST PUSH0 PUSH1 0x20 SWAP1 POP PUSH1 0x1F DUP4 GT PUSH1 0x1 DUP2 EQ PUSH2 0x3E41 JUMPI PUSH0 DUP5 ISZERO PUSH2 0x3E2F JUMPI DUP3 DUP8 ADD MLOAD SWAP1 POP JUMPDEST PUSH2 0x3E39 DUP6 DUP3 PUSH2 0x3DBE JUMP JUMPDEST DUP7 SSTORE POP PUSH2 0x3EA0 JUMP JUMPDEST PUSH1 0x1F NOT DUP5 AND PUSH2 0x3E4F DUP7 PUSH2 0x3C3C JUMP JUMPDEST PUSH0 JUMPDEST DUP3 DUP2 LT ISZERO PUSH2 0x3E76 JUMPI DUP5 DUP10 ADD MLOAD DUP3 SSTORE PUSH1 0x1 DUP3 ADD SWAP2 POP PUSH1 0x20 DUP6 ADD SWAP5 POP PUSH1 0x20 DUP2 ADD SWAP1 POP PUSH2 0x3E51 JUMP JUMPDEST DUP7 DUP4 LT ISZERO PUSH2 0x3E93 JUMPI DUP5 DUP10 ADD MLOAD PUSH2 0x3E8F PUSH1 0x1F DUP10 AND DUP3 PUSH2 0x3DA2 JUMP JUMPDEST DUP4 SSTORE POP JUMPDEST PUSH1 0x1 PUSH1 0x2 DUP9 MUL ADD DUP9 SSTORE POP POP POP JUMPDEST POP POP POP POP POP POP JUMP JUMPDEST PUSH32 0x566F74696E67204576656E7420616C726561647920657869737465642E000000 PUSH0 DUP3 ADD MSTORE POP JUMP JUMPDEST PUSH0 PUSH2 0x3EDC PUSH1 0x1D DUP4 PUSH2 0x3009 JUMP JUMPDEST SWAP2 POP PUSH2 0x3EE7 DUP3 PUSH2 0x3EA8 JUMP JUMPDEST PUSH1 0x20 DUP3 ADD SWAP1 POP SWAP2 SWAP1 POP JUMP JUMPDEST PUSH0 PUSH1 0x20 DUP3 ADD SWAP1 POP DUP2 DUP2 SUB PUSH0 DUP4 ADD MSTORE PUSH2 0x3F09 DUP2 PUSH2 0x3ED0 JUMP JUMPDEST SWAP1 POP SWAP2 SWAP1 POP JUMP JUMPDEST PUSH32 0x416C726561647920766F74656420696E2074686973206576656E740000000000 PUSH0 DUP3 ADD MSTORE POP JUMP JUMPDEST PUSH0 PUSH2 0x3F44 PUSH1 0x1B DUP4 PUSH2 0x3009 JUMP JUMPDEST SWAP2 POP PUSH2 0x3F4F DUP3 PUSH2 0x3F10 JUMP JUMPDEST PUSH1 0x20 DUP3 ADD SWAP1 POP SWAP2 SWAP1 POP JUMP JUMPDEST PUSH0 PUSH1 0x20 DUP3 ADD SWAP1 POP DUP2 DUP2 SUB PUSH0 DUP4 ADD MSTORE PUSH2 0x3F71 DUP2 PUSH2 0x3F38 JUMP JUMPDEST SWAP1 POP SWAP2 SWAP1 POP JUMP JUMPDEST PUSH32 0x566F74696E67206E6F7420616374697665000000000000000000000000000000 PUSH0 DUP3 ADD MSTORE POP JUMP JUMPDEST PUSH0 PUSH2 0x3FAC PUSH1 0x11 DUP4 PUSH2 0x3009 JUMP JUMPDEST SWAP2 POP PUSH2 0x3FB7 DUP3 PUSH2 0x3F78 JUMP JUMPDEST PUSH1 0x20 DUP3 ADD SWAP1 POP SWAP2 SWAP1 POP JUMP JUMPDEST PUSH0 PUSH1 0x20 DUP3 ADD SWAP1 POP DUP2 DUP2 SUB PUSH0 DUP4 ADD MSTORE PUSH2 0x3FD9 DUP2 PUSH2 0x3FA0 JUMP JUMPDEST SWAP1 POP SWAP2 SWAP1 POP JUMP JUMPDEST PUSH32 0x566F74696E67206576656E742063726561746F7220616E64207468652061646D PUSH0 DUP3 ADD MSTORE PUSH32 0x696E2063616E6E6F7420766F7465000000000000000000000000000000000000 PUSH1 0x20 DUP3 ADD MSTORE POP JUMP JUMPDEST PUSH0 PUSH2 0x403A PUSH1 0x2E DUP4 PUSH2 0x3009 JUMP JUMPDEST SWAP2 POP PUSH2 0x4045 DUP3 PUSH2 0x3FE0 JUMP JUMPDEST PUSH1 0x40 DUP3 ADD SWAP1 POP SWAP2 SWAP1 POP JUMP JUMPDEST PUSH0 PUSH1 0x20 DUP3 ADD SWAP1 POP DUP2 DUP2 SUB PUSH0 DUP4 ADD MSTORE PUSH2 0x4067 DUP2 PUSH2 0x402E JUMP JUMPDEST SWAP1 POP SWAP2 SWAP1 POP JUMP JUMPDEST PUSH32 0x43616E64696461746520646F6573206E6F742065786973740000000000000000 PUSH0 DUP3 ADD MSTORE POP JUMP JUMPDEST PUSH0 PUSH2 0x40A2 PUSH1 0x18 DUP4 PUSH2 0x3009 JUMP JUMPDEST SWAP2 POP PUSH2 0x40AD DUP3 PUSH2 0x406E JUMP JUMPDEST PUSH1 0x20 DUP3 ADD SWAP1 POP SWAP2 SWAP1 POP JUMP JUMPDEST PUSH0 PUSH1 0x20 DUP3 ADD SWAP1 POP DUP2 DUP2 SUB PUSH0 DUP4 ADD MSTORE PUSH2 0x40CF DUP2 PUSH2 0x4096 JUMP JUMPDEST SWAP1 POP SWAP2 SWAP1 POP JUMP JUMPDEST PUSH32 0x43616E6469646174652063616E6E6F7420766F746520696E2074686973206576 PUSH0 DUP3 ADD MSTORE PUSH32 0x656E740000000000000000000000000000000000000000000000000000000000 PUSH1 0x20 DUP3 ADD MSTORE POP JUMP JUMPDEST PUSH0 PUSH2 0x4130 PUSH1 0x23 DUP4 PUSH2 0x3009 JUMP JUMPDEST SWAP2 POP PUSH2 0x413B DUP3 PUSH2 0x40D6 JUMP JUMPDEST PUSH1 0x40 DUP3 ADD SWAP1 POP SWAP2 SWAP1 POP JUMP JUMPDEST PUSH0 PUSH1 0x20 DUP3 ADD SWAP1 POP DUP2 DUP2 SUB PUSH0 DUP4 ADD MSTORE PUSH2 0x415D DUP2 PUSH2 0x4124 JUMP JUMPDEST SWAP1 POP SWAP2 SWAP1 POP JUMP JUMPDEST PUSH32 0x4E487B7100000000000000000000000000000000000000000000000000000000 PUSH0 MSTORE PUSH1 0x11 PUSH1 0x4 MSTORE PUSH1 0x24 PUSH0 REVERT JUMPDEST PUSH0 PUSH2 0x419B DUP3 PUSH2 0x28A9 JUMP JUMPDEST SWAP2 POP PUSH32 0xFFFFFFFFFFFFFFFFFFFFFFFFFFFFFFFFFFFFFFFFFFFFFFFFFFFFFFFFFFFFFFFF DUP3 SUB PUSH2 0x41CD JUMPI PUSH2 0x41CC PUSH2 0x4164 JUMP JUMPDEST JUMPDEST PUSH1 0x1 DUP3 ADD SWAP1 POP SWAP2 SWAP1 POP JUMP JUMPDEST PUSH32 0x4F6E6C79206576656E742063726561746F722063616E2072656D6F7665206361 PUSH0 DUP3 ADD MSTORE PUSH32 0x6E64696461746500000000000000000000000000000000000000000000000000 PUSH1 0x20 DUP3 ADD MSTORE POP JUMP JUMPDEST PUSH0 PUSH2 0x4232 PUSH1 0x27 DUP4 PUSH2 0x3009 JUMP JUMPDEST SWAP2 POP PUSH2 0x423D DUP3 PUSH2 0x41D8 JUMP JUMPDEST PUSH1 0x40 DUP3 ADD SWAP1 POP SWAP2 SWAP1 POP JUMP JUMPDEST PUSH0 PUSH1 0x20 DUP3 ADD SWAP1 POP DUP2 DUP2 SUB PUSH0 DUP4 ADD MSTORE PUSH2 0x425F DUP2 PUSH2 0x4226 JUMP JUMPDEST SWAP1 POP SWAP2 SWAP1 POP JUMP JUMPDEST PUSH32 0x4576656E7420616C726561647920737461727465642C2063616E6E6F74207265 PUSH0 DUP3 ADD MSTORE PUSH32 0x6D6F76652063616E646964617465000000000000000000000000000000000000 PUSH1 0x20 DUP3 ADD MSTORE POP JUMP JUMPDEST PUSH0 PUSH2 0x42C0 PUSH1 0x2E DUP4 PUSH2 0x3009 JUMP JUMPDEST SWAP2 POP PUSH2 0x42CB DUP3 PUSH2 0x4266 JUMP JUMPDEST PUSH1 0x40 DUP3 ADD SWAP1 POP SWAP2 SWAP1 POP JUMP JUMPDEST PUSH0 PUSH1 0x20 DUP3 ADD SWAP1 POP DUP2 DUP2 SUB PUSH0 DUP4 ADD MSTORE PUSH2 0x42ED DUP2 PUSH2 0x42B4 JUMP JUMPDEST SWAP1 POP SWAP2 SWAP1 POP JUMP JUMPDEST PUSH0 PUSH2 0x42FE DUP3 PUSH2 0x28A9 JUMP JUMPDEST SWAP2 POP PUSH2 0x4309 DUP4 PUSH2 0x28A9 JUMP JUMPDEST SWAP3 POP DUP3 DUP3 SUB SWAP1 POP DUP2 DUP2 GT ISZERO PUSH2 0x4321 JUMPI PUSH2 0x4320 PUSH2 0x4164 JUMP JUMPDEST JUMPDEST SWAP3 SWAP2 POP POP JUMP JUMPDEST PUSH32 0x4E487B7100000000000000000000000000000000000000000000000000000000 PUSH0 MSTORE PUSH1 0x31 PUSH1 0x4 MSTORE PUSH1 0x24 PUSH0 REVERT JUMPDEST PUSH32 0x43616E646964617465206E6F7420666F756E6400000000000000000000000000 PUSH0 DUP3 ADD MSTORE POP JUMP JUMPDEST PUSH0 PUSH2 0x4388 PUSH1 0x13 DUP4 PUSH2 0x3009 JUMP JUMPDEST SWAP2 POP PUSH2 0x4393 DUP3 PUSH2 0x4354 JUMP JUMPDEST PUSH1 0x20 DUP3 ADD SWAP1 POP SWAP2 SWAP1 POP JUMP JUMPDEST PUSH0 PUSH1 0x20 DUP3 ADD SWAP1 POP DUP2 DUP2 SUB PUSH0 DUP4 ADD MSTORE PUSH2 0x43B5 DUP2 PUSH2 0x437C JUMP JUMPDEST SWAP1 POP SWAP2 SWAP1 POP JUMP JUMPDEST PUSH0 PUSH2 0x43C6 DUP3 PUSH2 0x3051 JUMP JUMPDEST SWAP2 POP PUSH1 0xFF DUP3 SUB PUSH2 0x43D9 JUMPI PUSH2 0x43D8 PUSH2 0x4164 JUMP JUMPDEST JUMPDEST PUSH1 0x1 DUP3 ADD SWAP1 POP SWAP2 SWAP1 POP JUMP INVALID LOG2 PUSH5 0x6970667358 0x22 SLT KECCAK256 POP PUSH14 0xC47F9038249CB4FF19A2B37B6F9B AND 0x2B SWAP14 RETURN PUSH15 0xC4A32E1D7CB5738D7845C64736F6C PUSH4 0x4300081A STOP CALLER "
				},
				"gasEstimates": {
					"creation": {
						"codeDepositCost": "3486800",
						"executionCost": "28164",
						"totalCost": "3514964"
					},
					"external": {
						"addCandidates(string,string[],address[])": "infinite",
						"admin()": "2615",
						"candidateIDsByEvent(bytes32,uint256)": "infinite",
						"candidates(address)": "infinite",
						"candidatesByEvent(bytes32,bytes32)": "infinite",
						"castVote(string,string)": "infinite",
						"createVotingEvent(string,string,uint256,uint256)": "infinite",
						"getCandidateDetails(string,string)": "infinite",
						"getCandidatesForEvent(string)": "infinite",
						"getVoteResults(string)": "infinite",
						"getVotingEvent(string)": "infinite",
						"getVotingEventIDs()": "infinite",
						"hasVoted(bytes32,address)": "3160",
						"hasVotedByEvent(bytes32,address)": "3159",
						"removeCandidate(string,address)": "infinite",
						"removeVotingEvent(string)": "infinite",
						"updateVotingEvent(string,string,uint256,uint256,uint8)": "infinite",
						"voteByEvent(bytes32,uint256)": "infinite",
						"voteCountsByCandidate(bytes32,bytes32)": "infinite",
						"votesHistory(uint256)": "infinite",
						"votingEvents(bytes32)": "infinite"
					},
					"internal": {
						"bytes32ToString(bytes32)": "infinite",
						"stringToBytes32(string memory)": "infinite"
					}
				},
				"methodIdentifiers": {
					"addCandidates(string,string[],address[])": "2ac1b516",
					"admin()": "f851a440",
					"candidateIDsByEvent(bytes32,uint256)": "1dd1f157",
					"candidates(address)": "8ab66a90",
					"candidatesByEvent(bytes32,bytes32)": "3c181d4b",
					"castVote(string,string)": "c479fc91",
					"createVotingEvent(string,string,uint256,uint256)": "bacfcfa4",
					"getCandidateDetails(string,string)": "a89d95ec",
					"getCandidatesForEvent(string)": "2e3c2abf",
					"getVoteResults(string)": "1e11213c",
					"getVotingEvent(string)": "7d1da8f8",
					"getVotingEventIDs()": "169cf6c8",
					"hasVoted(bytes32,address)": "aadc3b72",
					"hasVotedByEvent(bytes32,address)": "e9d1c2d4",
					"removeCandidate(string,address)": "f9db321e",
					"removeVotingEvent(string)": "5f908e11",
					"updateVotingEvent(string,string,uint256,uint256,uint8)": "9f691b52",
					"voteByEvent(bytes32,uint256)": "75a76aab",
					"voteCountsByCandidate(bytes32,bytes32)": "cce02b25",
					"votesHistory(uint256)": "71a80e3f",
					"votingEvents(bytes32)": "ddb6457e"
				}
			},
			"storageLayout": {
				"storage": [
					{
						"astId": 3,
						"contract": "test contracts/Voting.sol:Voting",
						"label": "admin",
						"offset": 0,
						"slot": "0",
						"type": "t_address"
					},
					{
						"astId": 50,
						"contract": "test contracts/Voting.sol:Voting",
						"label": "votingEvents",
						"offset": 0,
						"slot": "1",
						"type": "t_mapping(t_bytes32,t_struct(VotingEvent)31_storage)"
					},
					{
						"astId": 56,
						"contract": "test contracts/Voting.sol:Voting",
						"label": "hasVotedByEvent",
						"offset": 0,
						"slot": "2",
						"type": "t_mapping(t_bytes32,t_mapping(t_address,t_bool))"
					},
					{
						"astId": 62,
						"contract": "test contracts/Voting.sol:Voting",
						"label": "voteByEvent",
						"offset": 0,
						"slot": "3",
						"type": "t_mapping(t_bytes32,t_array(t_struct(Vote)45_storage)dyn_storage)"
					},
					{
						"astId": 67,
						"contract": "test contracts/Voting.sol:Voting",
						"label": "candidates",
						"offset": 0,
						"slot": "4",
						"type": "t_mapping(t_address,t_struct(Candidate)38_storage)"
					},
					{
						"astId": 74,
						"contract": "test contracts/Voting.sol:Voting",
						"label": "candidatesByEvent",
						"offset": 0,
						"slot": "5",
						"type": "t_mapping(t_bytes32,t_mapping(t_bytes32,t_struct(Candidate)38_storage))"
					},
					{
						"astId": 79,
						"contract": "test contracts/Voting.sol:Voting",
						"label": "candidateIDsByEvent",
						"offset": 0,
						"slot": "6",
						"type": "t_mapping(t_bytes32,t_array(t_bytes32)dyn_storage)"
					},
					{
						"astId": 85,
						"contract": "test contracts/Voting.sol:Voting",
						"label": "voteCountsByCandidate",
						"offset": 0,
						"slot": "7",
						"type": "t_mapping(t_bytes32,t_mapping(t_bytes32,t_uint256))"
					},
					{
						"astId": 91,
						"contract": "test contracts/Voting.sol:Voting",
						"label": "hasVoted",
						"offset": 0,
						"slot": "8",
						"type": "t_mapping(t_bytes32,t_mapping(t_address,t_bool))"
					},
					{
						"astId": 95,
						"contract": "test contracts/Voting.sol:Voting",
						"label": "votesHistory",
						"offset": 0,
						"slot": "9",
						"type": "t_array(t_struct(Vote)45_storage)dyn_storage"
					},
					{
						"astId": 98,
						"contract": "test contracts/Voting.sol:Voting",
						"label": "votingEventIDsList",
						"offset": 0,
						"slot": "10",
						"type": "t_array(t_bytes32)dyn_storage"
					}
				],
				"types": {
					"t_address": {
						"encoding": "inplace",
						"label": "address",
						"numberOfBytes": "20"
					},
					"t_array(t_address)dyn_storage": {
						"base": "t_address",
						"encoding": "dynamic_array",
						"label": "address[]",
						"numberOfBytes": "32"
					},
					"t_array(t_bytes32)dyn_storage": {
						"base": "t_bytes32",
						"encoding": "dynamic_array",
						"label": "bytes32[]",
						"numberOfBytes": "32"
					},
					"t_array(t_struct(Vote)45_storage)dyn_storage": {
						"base": "t_struct(Vote)45_storage",
						"encoding": "dynamic_array",
						"label": "struct Voting.Vote[]",
						"numberOfBytes": "32"
					},
					"t_bool": {
						"encoding": "inplace",
						"label": "bool",
						"numberOfBytes": "1"
					},
					"t_bytes32": {
						"encoding": "inplace",
						"label": "bytes32",
						"numberOfBytes": "32"
					},
					"t_mapping(t_address,t_bool)": {
						"encoding": "mapping",
						"key": "t_address",
						"label": "mapping(address => bool)",
						"numberOfBytes": "32",
						"value": "t_bool"
					},
					"t_mapping(t_address,t_struct(Candidate)38_storage)": {
						"encoding": "mapping",
						"key": "t_address",
						"label": "mapping(address => struct Voting.Candidate)",
						"numberOfBytes": "32",
						"value": "t_struct(Candidate)38_storage"
					},
					"t_mapping(t_bytes32,t_array(t_bytes32)dyn_storage)": {
						"encoding": "mapping",
						"key": "t_bytes32",
						"label": "mapping(bytes32 => bytes32[])",
						"numberOfBytes": "32",
						"value": "t_array(t_bytes32)dyn_storage"
					},
					"t_mapping(t_bytes32,t_array(t_struct(Vote)45_storage)dyn_storage)": {
						"encoding": "mapping",
						"key": "t_bytes32",
						"label": "mapping(bytes32 => struct Voting.Vote[])",
						"numberOfBytes": "32",
						"value": "t_array(t_struct(Vote)45_storage)dyn_storage"
					},
					"t_mapping(t_bytes32,t_mapping(t_address,t_bool))": {
						"encoding": "mapping",
						"key": "t_bytes32",
						"label": "mapping(bytes32 => mapping(address => bool))",
						"numberOfBytes": "32",
						"value": "t_mapping(t_address,t_bool)"
					},
					"t_mapping(t_bytes32,t_mapping(t_bytes32,t_struct(Candidate)38_storage))": {
						"encoding": "mapping",
						"key": "t_bytes32",
						"label": "mapping(bytes32 => mapping(bytes32 => struct Voting.Candidate))",
						"numberOfBytes": "32",
						"value": "t_mapping(t_bytes32,t_struct(Candidate)38_storage)"
					},
					"t_mapping(t_bytes32,t_mapping(t_bytes32,t_uint256))": {
						"encoding": "mapping",
						"key": "t_bytes32",
						"label": "mapping(bytes32 => mapping(bytes32 => uint256))",
						"numberOfBytes": "32",
						"value": "t_mapping(t_bytes32,t_uint256)"
					},
					"t_mapping(t_bytes32,t_struct(Candidate)38_storage)": {
						"encoding": "mapping",
						"key": "t_bytes32",
						"label": "mapping(bytes32 => struct Voting.Candidate)",
						"numberOfBytes": "32",
						"value": "t_struct(Candidate)38_storage"
					},
					"t_mapping(t_bytes32,t_struct(VotingEvent)31_storage)": {
						"encoding": "mapping",
						"key": "t_bytes32",
						"label": "mapping(bytes32 => struct Voting.VotingEvent)",
						"numberOfBytes": "32",
						"value": "t_struct(VotingEvent)31_storage"
					},
					"t_mapping(t_bytes32,t_uint256)": {
						"encoding": "mapping",
						"key": "t_bytes32",
						"label": "mapping(bytes32 => uint256)",
						"numberOfBytes": "32",
						"value": "t_uint256"
					},
					"t_string_storage": {
						"encoding": "bytes",
						"label": "string",
						"numberOfBytes": "32"
					},
					"t_struct(Candidate)38_storage": {
						"encoding": "inplace",
						"label": "struct Voting.Candidate",
						"members": [
							{
								"astId": 33,
								"contract": "test contracts/Voting.sol:Voting",
								"label": "candidateID",
								"offset": 0,
								"slot": "0",
								"type": "t_bytes32"
							},
							{
								"astId": 35,
								"contract": "test contracts/Voting.sol:Voting",
								"label": "walletAddress",
								"offset": 0,
								"slot": "1",
								"type": "t_address"
							},
							{
								"astId": 37,
								"contract": "test contracts/Voting.sol:Voting",
								"label": "votesReceived",
								"offset": 0,
								"slot": "2",
								"type": "t_uint256"
							}
						],
						"numberOfBytes": "96"
					},
					"t_struct(Vote)45_storage": {
						"encoding": "inplace",
						"label": "struct Voting.Vote",
						"members": [
							{
								"astId": 40,
								"contract": "test contracts/Voting.sol:Voting",
								"label": "votes",
								"offset": 0,
								"slot": "0",
								"type": "t_address"
							},
							{
								"astId": 42,
								"contract": "test contracts/Voting.sol:Voting",
								"label": "candidateID",
								"offset": 0,
								"slot": "1",
								"type": "t_bytes32"
							},
							{
								"astId": 44,
								"contract": "test contracts/Voting.sol:Voting",
								"label": "timestamp",
								"offset": 0,
								"slot": "2",
								"type": "t_uint256"
							}
						],
						"numberOfBytes": "96"
					},
					"t_struct(VotingEvent)31_storage": {
						"encoding": "inplace",
						"label": "struct Voting.VotingEvent",
						"members": [
							{
								"astId": 14,
								"contract": "test contracts/Voting.sol:Voting",
								"label": "eventID",
								"offset": 0,
								"slot": "0",
								"type": "t_bytes32"
							},
							{
								"astId": 16,
								"contract": "test contracts/Voting.sol:Voting",
								"label": "title",
								"offset": 0,
								"slot": "1",
								"type": "t_string_storage"
							},
							{
								"astId": 18,
								"contract": "test contracts/Voting.sol:Voting",
								"label": "startDate",
								"offset": 0,
								"slot": "2",
								"type": "t_uint256"
							},
							{
								"astId": 20,
								"contract": "test contracts/Voting.sol:Voting",
								"label": "endDate",
								"offset": 0,
								"slot": "3",
								"type": "t_uint256"
							},
							{
								"astId": 22,
								"contract": "test contracts/Voting.sol:Voting",
								"label": "createdBy",
								"offset": 0,
								"slot": "4",
								"type": "t_address"
							},
							{
								"astId": 24,
								"contract": "test contracts/Voting.sol:Voting",
								"label": "status",
								"offset": 20,
								"slot": "4",
								"type": "t_uint8"
							},
							{
								"astId": 27,
								"contract": "test contracts/Voting.sol:Voting",
								"label": "candidates",
								"offset": 0,
								"slot": "5",
								"type": "t_array(t_address)dyn_storage"
							},
							{
								"astId": 30,
								"contract": "test contracts/Voting.sol:Voting",
								"label": "voters",
								"offset": 0,
								"slot": "6",
								"type": "t_array(t_address)dyn_storage"
							}
						],
						"numberOfBytes": "224"
					},
					"t_uint256": {
						"encoding": "inplace",
						"label": "uint256",
						"numberOfBytes": "32"
					},
					"t_uint8": {
						"encoding": "inplace",
						"label": "uint8",
						"numberOfBytes": "1"
					}
				}
			},
			"userdoc": {
				"kind": "user",
				"methods": {},
				"version": 1
			}
		}
	}
}